:020000040800F2
:10000000B8100020B50300083901000841010008BC
:100010004901000851010008590100083101000898
:1000200031010008310100083101000861010008B8
:100030006901000831010008710100087901000818
:100040008101000889010008910100089901000858
:10005000A1010008A9010008B1010008B9010008C8
:10006000C1010008C9010008D1010008D901000838
:10007000E1010008E9010008F1010008F9010008A8
:100080000102000809020008110200081902000814
:100090002102000829020008310200083902000884
:1000A00041020008490200085102000859020008F4
:1000B0006102000869020008710200087902000864
:1000C00081020008890200089102000899020008D4
:1000D000A1020008A9020008B1020008B902000844
:1000E000C1020008C9020008D1020008D9020008B4
:1000F000E1020008E9020008F1020008F902000824
:10010000010300080903000811030008190300088F
:1001100021030008290300083103000839030008FF
:10012000410300084903000851030008590300086F
:100130004FF0000000F014B94FF0020000F010B9C9
:100140004FF0030000F00CB94FF0040000F008B9C4
:100150004FF0050000F004B94FF0060000F000B9C0
:100160004FF00B0000F0FCB84FF00C0000F0F8B8B6
:100170004FF00E0000F0F4B84FF00F0000F0F0B8B0
:100180004FF0100000F0ECB84FF0110000F0E8B8AC
:100190004FF0120000F0E4B84FF0130000F0E0B8A8
:1001A0004FF0140000F0DCB84FF0150000F0D8B8A4
:1001B0004FF0160000F0D4B84FF0170000F0D0B8A0
:1001C0004FF0180000F0CCB84FF0190000F0C8B89C
:1001D0004FF01A0000F0C4B84FF01B0000F0C0B898
:1001E0004FF01C0000F0BCB84FF01D0000F0B8B894
:1001F0004FF01E0000F0B4B84FF01F0000F0B0B890
:100200004FF0200000F0ACB84FF0210000F0A8B88B
:100210004FF0220000F0A4B84FF0230000F0A0B887
:100220004FF0240000F09CB84FF0250000F098B883
:100230004FF0260000F094B84FF0270000F090B87F
:100240004FF0280000F08CB84FF0290000F088B87B
:100250004FF02A0000F084B84FF02B0000F080B877
:100260004FF02C0000F07CB84FF02D0000F078B873
:100270004FF02E0000F074B84FF02F0000F070B86F
:100280004FF0300000F06CB84FF0310000F068B86B
:100290004FF0320000F064B84FF0330000F060B867
:1002A0004FF0340000F05CB84FF0350000F058B863
:1002B0004FF0360000F054B84FF0370000F050B85F
:1002C0004FF0380000F04CB84FF0390000F048B85B
:1002D0004FF03A0000F044B84FF03B0000F040B857
:1002E0004FF03C0000F03CB84FF03D0000F038B853
:1002F0004FF03E0000F034B84FF03F0000F030B84F
:100300004FF0400000F02CB84FF0410000F028B84A
:100310004FF0420000F024B84FF0430000F020B846
:100320004FF0440000F01CB84FF0450000F018B842
:100330004FF0460000F014B84FF0470000F010B83E
:100340004FF0480000F00CB84FF0490000F008B83A
:100350004FF04A0000F004B84FF04B0000F000B836
:100360006A4602F12002EFF310832DE9FC0F72B60A
:100370006946DFF838D04DF8041D01F035F85DF816
:10038000041F884209D000F1280191E8F00F0168AC
:1003900021E9F00F90E8FC0F01E0B1E8FC0F81F3D8
:1003A0000888DFF80CE083F3108870478C03002086
:1003B000F9FFFFFF80B582B000AF00F003FA00F054
:1003C00087FB00F019FA412000F068FB40F2F023AF
:1003D000C2F200033B6004E03B681A1D3A60002251
:1003E0001A603A6840F6BC63C2F200039A42F3D343
:1003F000422000F053FB49F68473C0F602037B6091
:1004000040F20003C2F200033B6007E03B681A1DA4
:100410003A607A68111D796012681A603A6840F291
:10042000E423C2F200039A42F0D3432000F036FBEB
:1004300000F00AFF442000F031FB02F093FA46205E
:1004400000F02CFB0D2000F029FB0A2000F026FB19
:1004500002F042FB80B483B000AF41F20C03C4F25F
:10046000020300221A6041F21003C4F202030022C8
:100470001A6041F21403C4F2020314221A6041F21A
:100480001803C4F2020300221A6041F21C03C4F2F2
:10049000020300221A604FF48053C4F202031B6867
:1004A0007B607B6843F001037B604FF48053C4F2B0
:1004B00002037A681A6041F20403C4F202031B6863
:1004C0007B607A680C23CFF2FF0313407B6041F21C
:1004D0000403C4F202037A681A604FF48053C4F232
:1004E00002031B687B607B6823F0847323F48033F2
:1004F0007B604FF48053C4F202037A681A604FF4B1
:100500008053C4F202031B687B607B6823F4802362
:100510007B604FF48053C4F202037A681A6041F2A0
:100520000403C4F202031B687B607B6823F4FE03B0
:100530007B6041F20403C4F202037A681A6041F25C
:100540000803C4F2020300221A600C37BD465DF8AE
:10055000047B704780B483B000AF14237B607B685A
:1005600043F001037B607B6843F040037B6041F212
:100570001403C4F202037A681A600C37BD465DF8B2
:10058000047B704780B483B000AF41F20403C4F22F
:1005900002031B687B607B6823F480037B6041F26D
:1005A0000403C4F202037A681A6041F21C03C4F225
:1005B00002031B687B607B6843F480437B607B683D
:1005C00043F400337B607B6843F480237B607B686B
:1005D00043F400037B6041F21C03C4F202037A6817
:1005E0001A600C37BD465DF8047B704780B483B059
:1005F00000AF41F21803C4F202031B687B607B6802
:1006000043F03D037B6041F21803C4F202037A68B1
:100610001A600C37BD465DF8047B704780B483B028
:1006200000AF4FF48053C4F202031B687B607B6809
:1006300023F480237B607B6843F480337B604FF43A
:100640008053C4F202037A681A6045F6CC53C0F2B4
:1006500008033B600CE04FF48053C4F202031B68B4
:1006600003F40033002B00D005E03B68013B3B6006
:100670003B68002BEFDC3B68002B00D193E04FF48C
:100680000053C4F202031B687B607B6823F00703FE
:100690007B607B6843F012037B604FF40053C4F22D
:1006A00002037A681A6041F20403C4F202031B6871
:1006B0007B607B6823F0F0037B6041F20403C4F2AB
:1006C00002037A681A6041F20403C4F202031B6851
:1006D0007B607B6823F460537B6041F20403C4F2C7
:1006E00002037A681A6041F20403C4F202031B6831
:1006F0007B607B6823F4E0637B607B6843F480630A
:100700007B6041F20403C4F202037A681A6041F28A
:100710000403C4F202031B687B607B6823F47C1330
:100720007B607B6843F4E8137B6041F20403C4F20E
:1007300002037A681A604FF48053C4F202031B6804
:100740007B607B6843F080737B604FF48053C4F21E
:1007500002037A681A6000BF4FF48053C4F20203A8
:100760001B6803F00073002BF6D041F20403C4F2BF
:1007700002031B687B607B6823F003037B607B685C
:1007800043F002037B6041F20403C4F202037A687F
:100790001A6000BF41F20403C4F202031B6803F0B5
:1007A0000C03082BF6D10C37BD465DF8047B70476F
:1007B00080B500AFFFF7CEFEFFF718FFFFF7E2FEB0
:1007C00080BD00BF80B500AFFFF744FEFFF726FFF6
:1007D000FFF7EEFF80BD00BF80B483B000AF002301
:1007E0007B600423C4F201037A681A600C37BD46AB
:1007F0005DF8047B704700BF80B500AFFFF7ECFFEA
:1008000080BD00BF80B491B000AF78607B6803F01A
:1008100070031B09FB62FB6A032B02D96FF01503FF
:10082000C4E046F6B023C0F60203FA6A53F8223059
:10083000BB627B6803F00F037B627B6A072B04D8E3
:10084000BB6AFB637B6A7B6305E0BB6A0433FB63C3
:100850007B6A083B7B637B6803F40043002B0CBF7F
:1008600000230123DBB287F82330EFF3108372B645
:100870007B827B8A3B84FB6B1B68FB6197F8233090
:10088000002B02D000233B6304E07B6803F4C053D9
:10089000DB0A3B637B6803F4C0435B0B9B003A6B52
:1008A00013433B637B6B9B000F2202FA03F3DB4392
:1008B000FA691340FB617B6B9B003A6B02FA03F30E
:1008C000FA691343FB61FB6BFA691A6097F82330EE
:1008D000002B14D17B6803F4C043BB61BB69002BC0
:1008E0000CD0BB69B3F5005F08D03B8C3B823B8AE0
:1008F00013F0010F00D162B6002357E035E07B68AA
:1009000003F48063002B21D07B6A03F00C020823E0
:10091000C4F201031344BB63BB6B1B68FB617B6ABE
:1009200003F003039B007B610F227B6902FA03F350
:10093000DB43FA691340FB61FA6A7B6902FA03F34D
:10094000FA691343FB61BB6BFA691A607B6803F4B5
:10095000C043B3F5804F08D03B8CFB81FB8913F07B
:10096000010F00D162B6002320E07B6803F0800312
:10097000002B03D0BB6A1033BB6302E0BB6A1433A5
:10098000BB63BB6B1B68FB617B6A012202FA03F34A
:10099000FA691343FB61BB6BFA691A603B8CBB813C
:1009A000BB8913F0010F00D162B60023184644370B
:1009B000BD465DF8047B704780B582B000AF7860BB
:1009C0007B6803F07F037B607B6843F420437B609C
:1009D0007868FFF717FF034618460837BD4680BD05
:1009E00080B487B000AF78600B46FB707B6803F083
:1009F00070031B093B613B69032B1BD846F6B023F0
:100A0000C0F602033A6953F82230FB607B6803F0BA
:100A10000F03BB60FB78002B02D010237B6101E049
:100A200014237B61FA687B691344BA68012101FAD7
:100A300002F21A601C37BD465DF8047B704700BFA8
:100A400080B487B000AF78607B6803F070031B0947
:100A50007B617B69032B19D846F6B023C0F60203ED
:100A60007A6953F822303B617B6803F00F03FB6027
:100A70003B6908331A68FB68012101FA03F313404C
:100A8000002B0CBF00230123DBB200E0002318463B
:100A90001C37BD465DF8047B704700BF80B483B04F
:100AA00000AF0346FB7100BF4FF49043C4F2000354
:100AB0001B6803F08003002BF6D044F60403C4F255
:100AC0000003FA791A600C37BD465DF8047B704765
:100AD00080B582B000AF0423C4F201031B687B60C1
:100AE0007B6823F008037B607B6823F030037B6026
:100AF0000423C4F201037A681A6045F61A00FFF76E
:100B000081FE4AF21B00FFF77DFE44F61003C4F29B
:100B100000031B683B603B6823F47D533B6044F655
:100B20001003C4F200033A681A6044F60C03C4F2DE
:100B300000031B683B603B6823F4BB5323F01C039A
:100B40003B6044F60C03C4F200033A681A6044F6B2
:100B50001403C4F200031B683B603B6823F4E063AA
:100B600023F001033B6044F61403C4F200033A6827
:100B70001A6044F60803C4F2000340F239121A6006
:100B800044F60C03C4F200031B683B603B6843F46B
:100B9000005343F00C033B6044F60C03C4F2000323
:100BA0003A681A600837BD4680BD00BF80B483B084
:100BB00000AF786039607B681A6C3B6813441B682F
:100BC00018460C37BD465DF8047B704780B485B08D
:100BD00000AFF860B9607A60FB681A6CBB681344B8
:100BE0007A681A601437BD465DF8047B704700BF11
:100BF00080B584B000AF78600B467B807B687A88D4
:100C00009A8578680C21FFF7D1FFF860FB6823F420
:100C1000D073FB607B8803F4D073FA681343FB60E6
:100C200078680C21FA68FFF7D1FF78681421FFF784
:100C3000BDFFF860FB6823F00103FB607B8803F0D5
:100C40000103FA681343FB6078681421FA68FFF720
:100C5000BDFF1037BD4680BD80B584B000AF786061
:100C600039603B68002B17D078680C21FFF79EFF96
:100C7000F86078681421FFF799FFB860FB689BB2B1
:100C800003F4D0739AB2BB689BB203F001039BB22A
:100C900013439AB23B681A8078680021FFF7A8FFD7
:100CA0001037BD4680BD00BF80B588B000AF78600A
:100CB0007B689B6ABB61BB69DA6BBB695B6B5B087A
:100CC000B2FBF3F37B617B695B093B613B691B0111
:100CD000FB603B695B017A69D31A01335B08BB6037
:100CE000FA68BB681343FB60B8690821FA68FFF72C
:100CF0006DFFB8690C21FFF759FFF861FB6923F418
:100D0000B053FB61BB6993F83030012B04D1FB6910
:100D100043F4C063FB6108E0BB6993F83030022BF9
:100D200003D1FB6943F48063FB61BB6993F8313005
:100D3000092B09D0BB6993F83130082B08D1BB6966
:100D400093F83030002B03D0FB6943F48053FB61F0
:100D5000B8690C21FA69FFF739FFB8691021FFF76C
:100D600025FFF861FB6923F44053FB61BB6993F8ED
:100D70003230002B03D0FB6943F40053FB61B869A8
:100D80001021FA69FFF722FFB8691421FFF70EFF5F
:100D9000F861FB6923F44073FB61B8691421FA69B7
:100DA000FFF714FF2037BD4680BD00BF80B586B079
:100DB00000AF78600B46FB707B689B6AFB60FB684A
:100DC0001A6C4FF48843C4F200039A4206D04FF4E1
:100DD0009043C4F200039A4209D01FE04FF400335D
:100DE0007B6141F21C03C4F202033B6108E04FF453
:100DF00080237B6141F21C03C4F202033B6100BF0C
:100E0000FB78002B05D0386900217A6900F0C4FA1C
:100E100004E038697969002200F0BEFA1837BD464F
:100E200080BD00BF80B584B000AF78607B689B6AEE
:100E3000BB6078680121FFF7B9FFBB685B6C18469F
:100E4000FFF7E0FCBB689B6C1846FFF7DBFCB8685B
:100E50001021FFF7ABFEF860FB6823F47D53FB60C5
:100E6000BB6893F83230002B03D0FB6843F4005387
:100E7000FB60B8681021FA68FFF7A8FEB8680C217B
:100E8000FFF794FEF860FB6823F4BE73FB60B8685C
:100E90000C21FA68FFF79AFEB8681421FFF786FE66
:100EA000F860FB6823F4E06323F00103FB60B8689B
:100EB0001421FA68FFF78AFE7868FFF7F5FEB86834
:100EC0000C21FFF773FEF860FB6843F4005343F016
:100ED0000C03FB60B8680C21FA68FFF777FEBB686B
:100EE00000229A85002318461037BD4680BD00BFFA
:100EF00080B584B000AF78607B689B6AFB60F8685F
:100F00000021FFF7A9FE78680021FFF74FFFF8687E
:100F10000C21FFF74BFEB860BB6823F4005323F0AD
:100F20000C03BB60F8680C21BA68FFF74FFEFB6842
:100F30005B6C1846FFF740FDFB689B6C1846FFF79B
:100F40003BFD1037BD4680BD80B584B000AF7860F2
:100F50007B689B6AFB60FB6893F838301A46FB6835
:100F6000DB6C1046194601F073FFB860BB68002BBC
:100F700005D1FB6893F83830184600F04FFCBB6889
:100F800018461037BD4680BD80B584B000AF78608C
:100F90007B689B6AFB60FB6893F83830184600F06A
:100FA00017FCFB6893F838301846002101F050FF19
:100FB0001037BD4680BD00BF80B584B000AF7860FB
:100FC0000123FB720023FB603BE00023FB72786887
:100FD0000021FFF7EBFD03469AB27B68DA857B6858
:100FE000DB8D03F02003002B0CD07B689B8D03F07E
:100FF0002003002B06D07B68184601F055FC012326
:10100000FB7209E07B68DB8D03F00E03002B03D03D
:1010100078680421FFF7CAFD7B68DB8D03F080034D
:10102000002B0BD07B689B8D03F08003002B05D039
:101030007B68184601F0E2FB0123FB72FB68013379
:10104000FB60FB68FF2B02DCFB7A002BBDD1002389
:1010500018461037BD4680BD80B487B000AFF86039
:10106000B9607A6000237B616FF018037B6100BF79
:101070007B6918461C37BD465DF8047B704700BF8E
:1010800080B584B000AF786039607B689B6AFB6094
:10109000F8680421FFF78AFDB860FB68DB8D1B044C
:1010A0001A46BB681A433B681A60FB680022DA855F
:1010B000BB68DBB218461037BD4680BD80B586B030
:1010C00000AF78600B46FB707B689B6A3B61EFF377
:1010D000108372B6BB81BB89FB813B699B8DFB8210
:1010E000FB78002B04D0FB8A43F02003FB8205E051
:1010F000FB8A23F4907323F00103FB82FB8A386997
:101100001946FFF775FDFB897B817B8913F0010F81
:1011100000D162B61837BD4680BD00BF80B584B02F
:1011200000AF78607B689B6AFB60F8680021FFF77E
:101130003DFD034603F02003002B0CBF00230123D9
:10114000DBB218461037BD4680BD00BF80B584B005
:1011500000AF786039607B689B6AFB603B68F86829
:1011600004211A46FFF732FD1037BD4680BD00BF8F
:1011700080B586B000AF78600B46FB707B689B6AD9
:101180007B61EFF3108372B6FB81FB897B82FB7876
:10119000002B0DD07B699B8D43F080033B823B8A03
:1011A00078691946FFF724FD786801F027FB08E00D
:1011B0007B699B8D23F080039BB278691946FFF70A
:1011C00017FD7B8ABB81BB8913F0010F00D162B68A
:1011D0001837BD4680BD00BF80B584B000AF7860D1
:1011E0007B689B6AFB60F8680021FFF7DFFC034621
:1011F00003F08003002B0CBF00230123DBB2184651
:101200001037BD4680BD00BF80B582B000AF7860AA
:10121000396040F20000C2F20000FFF7CDFE034645
:1012200018460837BD4680BD80B582B000AF7860F3
:10123000396040F25000C2F20000FFF7BDFE0346E5
:1012400018460837BD4680BD80B582B000AF002388
:101250007B6016E046F6F023C0F602037A6853F886
:101260002230002B0AD046F6F023C0F602037A683B
:1012700053F8223018460021FFF7EEFC7B6801335B
:101280007B607B68042BE5D940F25003C2F2000377
:101290001846FFF7C7FD0837BD4680BD80B586B04C
:1012A00000AF00233B6140F25003C2F2000346F658
:1012B0000430C0F60200194601F0F8F940F250037C
:1012C000C2F2000346F61430C0F60200194601F0DF
:1012D000EDF901233B613B46184646F62031C0F646
:1012E000020103F0F5FF00237B612AE046F6F023BC
:1012F000C0F602037A6953F82230002B00D11DE0BA
:1013000046F6F023C0F602037A6953F822301B79BF
:10131000002B00D012E03B695A1C3A61DBB230333B
:10132000DBB27B7246F6F023C0F602037A6953F80B
:1013300022303A461046194601F0B8F97B6901336C
:101340007B617B69042BD1D91837BD4680BD00BFB6
:1013500080B584B000AF786040F25003C2F2000361
:10136000FB6007F10A03F8681946FFF775FC7B6814
:101370000A2B02D10D20FFF791FB7B68DBB21846E8
:10138000FFF78CFB7B89F8681946FFF731FC7B6817
:1013900018461037BD4680BD80B489B000AFF860F4
:1013A000B9607A60EFF3108372B6FB82FB8AFB832D
:1013B000FB681B68BB61BB68DB43BA691340BB6158
:1013C000BA697B681343BB61FB68BA691A60FB8B1F
:1013D000BB82BB8A13F0010F00D162B62437BD4631
:1013E0005DF8047B704700BF80B584B000AF7860C3
:1013F0003960042001F04AFB40F64423C2F20003A6
:101400001B68FB6040F64423C2F200033A681A608E
:10141000786800F029FA7868396801F04BFD40F6E9
:101420004423C2F200031B683B6040F64423C2F22F
:101430000003FA681A60042001F03AFB3B68184682
:101440001037BD4680BD00BF80B584B000AF786066
:101450003960EFF3108372B6FB81032046F62C311E
:10146000C0F6020146F61C42C0F6020203F08CFEF2
:1014700046F64830C0F60200992100F0F5FB00BFA7
:1014800080B584B000AF78603960EFF3108372B636
:10149000FB814EF62853CEF200031B68032046F66C
:1014A0005C31C0F6020146F62842C0F6020203F0A3
:1014B0006BFE46F64830C0F60200A12100F0D4FBD6
:1014C00080B584B000AF78603960EFF3108372B6F6
:1014D000FB814EF62853CEF200031B68032046F62C
:1014E0008431C0F6020146F63842C0F6020203F02B
:1014F0004BFE46F64830C0F60200A92100F0B4FBCE
:1015000080B584B000AF78603960EFF3108372B6B5
:10151000FB81032046F6B031C0F6020146F64C428C
:10152000C0F6020203F030FE46F64830C0F6020074
:10153000B12100F099FB00BF80B584B000AF7860A6
:101540003960EFF3108372B6FB81032046F6D03189
:10155000C0F6020146F65C42C0F6020203F014FE39
:1015600046F64830C0F60200B92100F07DFB00BF0E
:1015700080B584B000AF78603960EFF3108372B645
:10158000FB81032046F6F831C0F6020146F67042B0
:10159000C0F6020203F0F8FD46F64830C0F602003D
:1015A000C12100F061FB00BF80B584B000AFF860DE
:1015B000B9607A603B60FB68012B02DDFB684B2B56
:1015C00006DD46F64830C0F60200E92100F04CFB8B
:1015D000FB680F2B3DDDFB682F2B0FDC3B6803F115
:1015E000604303F56143BA681360FB68103B012256
:1015F00002FA03F31A467B681A6058E0FB684F2B27
:1016000010DC3A684EF20413CEF200031344BA68B9
:101610001360FB68303B012202FA03F31A467B6831
:101620001A6044E0FB684B2B10DC3A684EF208135A
:10163000CEF200031344BA681360FB68503B0122EA
:1016400002FA03F31A467B681A6030E04FF0FF336A
:101650002EE0BA684EF62453CEF200031360FB6806
:10166000042B04D17B684FF480321A601FE0FB68C2
:10167000052B04D17B684FF400321A6017E0FB6839
:10168000062B04D17B684FF480221A600FE0FB68C0
:101690000F2B09D1BA684EF21003CEF2000313608B
:1016A0007B6801221A6002E04FF0FF3300E0002364
:1016B00018461037BD4680BD80B584B000AF4FF4EA
:1016C0006143CEF2000300221A604EF20413CEF200
:1016D000000300221A604EF61853CEF200034FF0BA
:1016E00080321A604EF61C53CEF200034FF0803267
:1016F0001A604EF62053CEF200034FF080321A608B
:101700004EF20403CEF200031B680133DB00BB6022
:101710004FF46443CEF20003FB6006E0FB684FF039
:1017200080321A60FB680433FB60BB685A1EBA60E3
:10173000002BF3D140F64423C2F2000300221A60CA
:101740000B2041F6DD51C0F6000101F081FB0320C2
:1017500041F65151C0F6000101F07AFB022041F23E
:101760004941C0F6000101F073FB042041F6ED4150
:10177000C0F6000101F06CFB052041F28141C0F68A
:10178000000101F065FB062041F2C141C0F60001F5
:1017900001F05EFB0E2041F20151C0F6000101F0A4
:1017A00057FB0C2041F23951C0F6000101F050FB0B
:1017B000002041F27151C0F6000101F049FB002305
:1017C0007B607B6883F3118862B61037BD4680BDAD
:1017D00080B586B000AF786007F1100207F10C0306
:1017E000786811461A468023FFF7DEFE0346002B79
:1017F00011D17B680F2B03DD3B69FA681A600AE0A0
:101800003B691B687B61FB68DB437A6913407B6142
:101810003B697A691A601837BD4680BD80B586B0CD
:1018200000AF786007F1100207F10C0378681146E9
:101830001A460023FFF7B8FE0346002B10D17B6841
:101840000F2B03DD3B69FA681A6009E03B691B68EE
:101850007B61FB687A6913437B613B697A691A6033
:101860001837BD4680BD00BF80B483B000AF78603C
:101870000C37BD465DF8047B704700BF80B483B071
:1018800000AF6B467B607B6818460C37BD465DF841
:10189000047B7047F0B58DB008AF786039607B6825
:1018A00023F01F03FB6031E0FB68BB60BB68D3F82B
:1018B00000E0BB6804331E68BB6808331D68BB6862
:1018C0000C331C68BB6810331868BB681433196884
:1018D000BB6818331A68BB681C331B68CDF800E07E
:1018E00001960295039404900591069207930320B4
:1018F00046F68041C0F6020146F6DC52C0F602020E
:10190000FB6803F08DFCFB682033FB60FA683B68E2
:101910009A42C9D31437BD46F0BD00BFF0B58BB0B5
:1019200008AF40F64423C2F200031B68002B00F00E
:10193000B98040F64423C2F200031B6828331C68B8
:1019400040F64423C2F200031B682C33D3F800E0B6
:1019500040F64423C2F200031B6830331E6840F691
:101960004423C2F200031B6834331D6840F644234D
:10197000C2F200031B680833186840F64423C2F221
:1019800000031B680C33196840F64423C2F20003BD
:101990001B6810331A6840F64423C2F200031B6828
:1019A00014331B68CDF800E0019602950390049172
:1019B00005920693032046F6B441C0F6020146F6AE
:1019C000FC52C0F60202234603F02AFC40F64423F0
:1019D000C2F200031B6818331C6840F64423C2F2AD
:1019E00000031B681C33D3F800E040F64423C2F226
:1019F00000031B6820331E6840F64423C2F2000334
:101A00001B6824331D6840F64423C2F200031B68A0
:101A10003833186840F64423C2F200031B68196883
:101A200040F64423C2F200031B683C331A6840F6B8
:101A30004423C2F200031B6840331B68CDF800E06A
:101A4000019602950390049105920693032046F6B1
:101A5000E841C0F6020146F6FC52C0F602022346F7
:101A600003F0DEFB40F64423C2F200031B6844335C
:101A70001C6840F64423C2F200031B6804331A6852
:101A8000EFF314837B607B6800920193032046F69A
:101A90001C51C0F6020146F6FC52C0F60202234673
:101AA00003F0BEFB0C37BD46F0BD00BF80B586B06D
:101AB00000AF40F65823C2F200031B68BB60FFF77B
:101AC000DDFE7861BB689B89002B0AD146F6AC230A
:101AD000C0F602031B68043B3B614FF40073FB60DC
:101AE00005E0BB681B6B3B61BB689B6AFB6040F217
:101AF0008C33C2F200037B609C233B60032046F6DC
:101B00004851C0F6020146F6EC52C0F602027B696B
:101B100003F086FB032046F65C51C0F6020146F650
:101B2000EC52C0F6020203F07BFB032046F66C5138
:101B3000C0F6020146F6EC52C0F602027B6803F0E2
:101B40006FFB032046F68051C0F6020146F6EC52C8
:101B5000C0F602023B6803F063FB7A697B689A4235
:101B600009D87A683B68D21A7B699A4203D27869AD
:101B70007968FFF78FFE40F64423C2F200031B682A
:101B8000002B12D040F64423C2F200031B681B68EE
:101B90007B61032046F64851C0F6020146F6EC523E
:101BA000C0F602027B6903F03BFB032046F694512A
:101BB000C0F6020146F6EC52C0F6020203F030FB1A
:101BC000032046F66C51C0F6020146F6EC52C0F610
:101BD00002023B6903F024FB032046F68051C0F665
:101BE000020146F6EC52C0F60202FB6803F018FB55
:101BF0007A693B699A4209D83A69FB68D21A7B69CB
:101C00009A4203D278693969FFF744FEFFF786FEEE
:101C10001837BD4680BD00BF80B584B000AF786086
:101C200040F64423C2F200031B68002B07D140F6A4
:101C30005823C2F200031B689B89002B10D1EFF3DD
:101C4000108372B6FB81072000F020FFFA2000F01D
:101C50002FF8072000F02CFFFA2000F029F8F2E717
:101C6000786801F0F7FC00BF80B586B002AF7860FD
:101C7000396040F65823C2F200031B68FB6006205F
:101C800000F004FFFB68C0333A6800920193032020
:101C900046F6A851C0F6020146F60C62C0F60202F2
:101CA0007B6803F0BDFAFFF701FF0120FFF7B4FFE7
:101CB00080B485B000AF78600023FB600DE00023A6
:101CC000BB6002E0BB680133BB60BA6841F26A5393
:101CD0009A42F7D9FB680133FB60FA687B689A4245
:101CE000EDD31437BD465DF8047B704790B587B0DF
:101CF00002AF78603960EFF3108372B6FB81032086
:101D000046F61861C0F6020146F67C62C0F6020291
:101D100003F086FA4EF62853CEF200031C684EF606
:101D20003453CEF200031B680093032046F6406153
:101D3000C0F6020146F67C62C0F60202234603F0BA
:101D40006FFA46F66460C0F602008021FFF78CFF50
:101D500080B586B000AF786039603B687B617B6995
:101D600040331B68023B3B613A6940F20003C0F616
:101D700000039A4213D33A6949F67C73C0F6020312
:101D80009A420CD23B691B88FB81FB89B3F55F4FFC
:101D900005D17868396800F021F803461AE0EFF3BE
:101DA000108372B6BB814EF62C53CEF200031B6833
:101DB000032046F68861C0F6020146F6C062C0F60E
:101DC000020203F02DFA46F6A860C0F60200B72121
:101DD000FFF74AFF18461837BD4680BD80B584B06E
:101DE00000AF786039603B68FB60FB68002B07D070
:101DF00040F64423C2F200031B68FA689A4206D0F8
:101E000046F6D060C0F60200A021FFF72DFFFB6868
:101E10009B6ABB60BB68012B19D0012B02D3022B3C
:101E20002BD04EE0FB682C331B68002B06D146F606
:101E3000D060C0F60200CF21FFF716FFFB682C33FD
:101E40001B681846F968482203F0A0FA39E0FB68DD
:101E50002C331B68002B06D146F6D060C0F602007A
:101E6000E921FFF701FFFB682C331B681A4640F697
:101E70004423C2F200031A6023E0FB682C331B6882
:101E8000002B04D0FB6830331B68002B07D146F6CB
:101E9000D060C0F602004FF48071FFF7E5FEFB68EA
:101EA0002C331B681846F968482203F06FFAFB6868
:101EB00030331B681A4640F64423C2F200031A600E
:101EC00000BF002318461037BD4680BD80B584B0E2
:101ED00000AFF860B9607A60F86801F0F1FBF8686B
:101EE000B9687A6803F072FA034618461037BD469F
:101EF00080BD00BF80B582B000AF78600B46FB703C
:101F000012E001F0BDFB03461B68042B06D046F629
:101F1000FC60C0F602008821FFF7A6FEFB78002BCC
:101F200002D06FF0030306E0786801F0E5FB03469A
:101F3000002BE6D1002318460837BD4680BD00BF00
:101F400080B588B000AFF860B9601346FB71FB68DC
:101F5000DB899BB21BB20133FB61FB685B8A1AB25F
:101F6000FB699A4201DC0023FB61FB681B8A9BB280
:101F70001AB2FB699A420FD0FB685A69FB68DB8989
:101F80009BB21BB21344BA68D2B21A70FB699AB200
:101F9000FB68DA81002340E0FB79002B39D0EFF3B6
:101FA000108372B6BB82BB8AFB82FB68DB78DBB234
:101FB000002B03D06FF06A03BB6115E0FB680122C0
:101FC0005A70FB685B6A5B6AF86801219847FB6896
:101FD000083318460121FFF78DFFB861FB685B6A83
:101FE0005B6AF86800219847FB8A7B827B8A13F042
:101FF000010F00D162B6FB68DB78DBB2002B02D0A8
:102000006FF06A0309E0BB69002B05DA6FF0030388
:1020100003E06FF00A0300E0A7E718462037BD464B
:1020200080BD00BF80B586B000AFF860B9607A604F
:102030007B687B6110E0BB685A1CBA601B783B610F
:102040003B690A2B02D10D20FFF782F93869FFF7AF
:102050007FF97B68013B7B607B68002BEBD17B6960
:1020600018461837BD4680BD80B58AB000AFF8600D
:10207000B9607A60FB689B68FB61FB691B69BB61A7
:102080007B687B6204F0E0FC0346002B04D101F086
:10209000C9FA0346002B23D1BB69DB78DBB2002BE6
:1020A00002D06FF06A0390E0BB691B79002B14D05B
:1020B000EFF3108372B67B827B8ABB82B869B96802
:1020C0007A68FFF7AFFF3862BB8A3B823B8A13F026
:1020D000010F00D162B63B6A77E04FF0FF3374E046
:1020E000BB690C3318460121FFF704FF38623B6AD5
:1020F000002B01DA3B6A68E0BB69DB78DBB2002BBE
:1021000007D0BB690C33184601F068FB6FF06A0317
:102110005BE0FB681B6803F04003002B14BF002347
:102120000123DBB2FB75BB695B6A5B6AB86900219E
:10213000984731E0BB685A1CBA601B78BB75002316
:102140003B62BB691B79002B09D0BB7D0A2B06D1F2
:10215000FB7DB8690D211A46FFF7F2FE38623B6A33
:10216000002B07D1BA7DFB7DB86911461A46FFF7EF
:10217000E7FE38623B6A002B0BDA7A6A7B689A4288
:1021800004D97A6A7B68D31A7B6208E03B6A7B6277
:1021900005E07B68013B7B607B68002BCAD1BB6993
:1021A000DB899AB2BB691B8A9BB212B21BB29A42FC
:1021B00005D0BB695B6A5B6AB86901219847BB6956
:1021C0000C33184601F00AFB7B6A18462837BD46D7
:1021D00080BD00BF80B58CB000AFF860B9607A6098
:1021E000FB689B683B623B6A1B69FB61FB691833B8
:1021F000BB610023FB62BB6918460121FFF77AFE31
:1022000078627B6A002B01DA7B6AA4E098E0FB69C4
:10221000DB78DBB2002B07D0FB6A002B03D16FF019
:102220006A03FB6291E090E0BB699B887B85BB6998
:102230005B889BB2B7F92A201BB29A421ED0BB69B9
:102240009A68B7F92A3013441B78FB757B8D0133EC
:102250007B85BB69DB88B7F92A201BB29A4201DB78
:1022600000237B85BB697A8D9A80BB685A1CBA6053
:10227000FA7D1A70FB6A0133FB6261E0FB6A002B96
:1022800000DD62E0FB681B6803F04003002B03D015
:102290006FF00A03FB6258E0FB695B6A9B69F869AF
:1022A00000219847BB695B889AB2BB699B889BB247
:1022B00012B21BB29A423DD1EFF3108372B67B8209
:1022C0007B8ABB82FB695B6A9B69F869012198473D
:1022D000FB69DB78DBB2002B03D06FF06A037B6213
:1022E00009E0FB6901229A70FB690A331846012153
:1022F000FFF700FE7862BB8A3B823B8A13F0010F36
:1023000000D162B67B6A002B04DBFB69DB78DBB2B1
:10231000002B15D0FB6A002B0BD1FB69DB78DBB2FD
:10232000002B02D06FF06A0301E06FF00303FB6241
:102330000BE00AE0FB695B6A9B69F8690121984739
:10234000FA6A7B689A42FFF462AFFB691833184659
:1023500001F044FAFB6A18463037BD4680BD00BF25
:1023600080B58CB000AFF860B9607A60FB689B689C
:102370003B623B6A1B69FB61FB695B6A1B69F8682E
:10238000B9687A689847F862FB6A13F1190F77D138
:10239000BB6840F20532934204D040F206329342C9
:1023A00036D06DE0EFF3108372B6FB82FB8A7B833D
:1023B000FB699B8B9AB2FB695B8B9BB212B21BB21F
:1023C0009A420ADCFB695B8B9BB21AB2FB699B8B5E
:1023D0009BB21BB2D31ABB620DE0FB69DB8B1AB256
:1023E000FB695B8B9BB219B2FB699B8B9BB21BB2E7
:1023F000CB1A1344BB627B8BBB82BB8A13F0010FE9
:1024000000D162B67B68BA6A1A600023FB6237E0CB
:10241000EFF3108372B67B827B8A3B83FB69DB8997
:102420009AB2FB691B8A9BB212B21BB29A420BDAB8
:10243000FB691B8A9BB21AB2FB69DB899BB21BB298
:10244000D31A013B7B620EE0FB695B8A1AB2FB691F
:102450001B8A9BB219B2FB69DB899BB21BB2CB1AF8
:102460001344013B7B623B8B3B823B8A13F0010FA1
:1024700000D162B67B687A6A1A600023FB6200BFF3
:10248000FB6A18463037BD4680BD00BF80B586B0B8
:1024900000AF78607B689B687B617B691B693B61EF
:1024A0003B69063318460021FFF724FD3B691B7882
:1024B000012B0CD93B691B78013BDAB23B691A70DE
:1024C0003B690633184601F089F9002365E03B6952
:1024D00000221A703B695B6A9B6938690021984742
:1024E00005E04AF22010C0F2070002F0E7FD3B6968
:1024F000DB899AB23B691B8A9BB212B21BB29A4229
:10250000EFD105E04AF22010C0F2070002F0D6FD3C
:102510003B695B6ADB6A386998470346002BF1D058
:10252000EFF3108372B6BB81BB89FB813B695B6AA9
:10253000DB68386998473B691B79002B04D13B69FC
:102540005B6A5B6838699847FB897B817B8913F0FC
:10255000010F00D162B63B69083318460021002202
:10256000FFF7B4FC3B690A33184600210022FFF74D
:10257000ADFC3B690C33184600210122FFF7A6FC95
:102580003B691833184600210122FFF79FFC3B6985
:102590000633184601F022F9002318461837BD46C5
:1025A00080BD00BF80B588B000AF78607B689B6855
:1025B000BB61BB691B697B617B69063318460121DE
:1025C000FFF798FCF861FB69002B01DAFB6969E011
:1025D0007B69DB78DBB2002B03D06FF06A03FB6111
:1025E0005AE07B691B780133FB74FB7C002B03D121
:1025F0006FF01703FB614FE0FB7C012B49D1EFF338
:10260000108372B6FB81FB893B827B691B79002BAF
:1026100010D17B695B6A1B6878699847F861FB6930
:10262000002B07DA3B8ABB81BB8913F0010F00D175
:1026300062B631E07B695B6A9B6878699847F861AC
:10264000FB69002B0CDA7B695B6A5B6878699847E9
:102650003B8A7B817B8913F0010F00D162B61BE0BE
:102660007B690022DA817B6900221A827B69002261
:102670005A837B6900229A837B695B6A9B697869CC
:10268000012198473B8A3B813B8913F0010F00D120
:1026900062B67B69FA7C1A707B690633184601F0D2
:1026A0009DF8FB6918462037BD4680BD80B582B0D5
:1026B00000AF786039603B680C3318460021012276
:1026C00002F084FE3B68183318460021012202F014
:1026D0007DFE3B68063318460021012202F076FE9B
:1026E0003B68083318460021002202F06FFE3B6869
:1026F0000A3318460021002202F068FE032046F645
:102700000C71C0F6020146F62072C0F602027B6828
:1027100002F03AFD786846F6E461C0F602014FF433
:10272000DB723B680EF0CCFB034618460837BD460B
:1027300080BD00BF80B582B000AF78607B689B78B9
:10274000DBB2002B07D07B6800229A707B680A33CB
:10275000184601F043F80837BD4680BD80B582B009
:1027600000AF78607B685B78DBB2002B07D07B68BA
:1027700000225A707B680833184601F02FF808379A
:10278000BD4680BD80B584B000AF78600B46FB705D
:10279000EFF3108372B6BB81BB89FB81FB78002B02
:1027A00014BF00230123DBB21A467B68DA70FB7882
:1027B000002B19D17B685B78DBB2002B07D07B68DC
:1027C00000225A707B680833184601F007F87B68CE
:1027D0009B78DBB2002B07D07B6800229A707B6865
:1027E0000A33184600F0FAFFFB897B817B8913F0DE
:1027F000010F00D162B61037BD4680BD80B584B0F0
:1028000000AF78600023FB8122E07B685B6A1B6A73
:102810007A6851697A68128A92B212B20A441278BE
:10282000786811469847FB890133FB817B681B8AD6
:102830009BB201339BB29BB27A68194611827A68C7
:10284000518A1AB20BB29A4202DB7B6800221A82CA
:102850007B68DB899AB27B681B8A9BB212B21BB27F
:102860009A4207D07B685B6A9B6A78689847034600
:10287000002BCAD17B68DB899AB27B681B8A9BB22A
:1028800012B21BB29A4205D17B685B6A5B6A7868B8
:1028900000219847FB89002B02D07868FFF75EFF84
:1028A0001037BD4680BD00BF80B588B000AF7860EE
:1028B0007B6818337B617B695B889BB21BB20133F9
:1028C000FB6100237B837B69DB881AB2FB699A4238
:1028D00002DC0023FB6133E032E07B699B889BB222
:1028E0001AB2FB699A4214BF00230123DBB2FB74C6
:1028F0007B685B6A5B6907F10C0278681146984750
:102900000346BB74FB7C002B1AD17B699A687B69F8
:102910005B889BB21BB21344BA7C1A707B8B013369
:102920007B83FB699AB27B695A80FB690133FB6147
:102930007B69DB881BB2FA699A4201DB0023FB61E9
:102940007B685B6ADB69786898470346002BC4D1D3
:102950007B8B002B02D07868FFF7ECFE2037BD465A
:1029600080BD00BF80B400AFBD465DF8047B7047FA
:1029700080B400AFBD465DF8047B704780B582B07F
:1029800000AF78607B6803F00403002B04D041F6AD
:1029900088000021FEF724F87B6803F00803002B71
:1029A00004D041F68A000021FEF71AF87B6803F094
:1029B0000203002B04D041F609000021FEF710F8B5
:1029C0007B6803F00103002B04D041F60D000121C8
:1029D000FEF706F80837BD4680BD00BF80B582B05F
:1029E00000AF78607B6803F00403002B04D041F64D
:1029F00088000121FDF7F4FF7B6803F00803002B3A
:102A000004D041F68A000121FDF7EAFF7B6803F05C
:102A10000203002B04D041F609000121FDF7E0FF7D
:102A20007B6803F00103002B04D041F60D00002168
:102A3000FDF7D6FF0837BD4680BD00BF80B582B028
:102A400000AF78607B681B0903F00F031846FFF79F
:102A5000C5FF7B6803F00F031846FFF78FFF0837A9
:102A6000BD4680BD80B500AF41F60D00FDF7CAFE42
:102A700041F68800FDF7C6FE41F60900FDF7C2FEEB
:102A800041F68A00FDF7BEFE80BD00BF80B582B072
:102A900000AF786046F63073C0F602037A6833F808
:102AA0001230DBB21846FFF7C9FF0837BD4680BDBC
:102AB00080B582B000AF786046F63073C0F602038E
:102AC0007A6833F812301B0A9BB2DBB21846FFF764
:102AD000B5FF0837BD4680BD80B584B000AF40F675
:102AE0005823C2F2000300221A6040F65823C2F2B3
:102AF000000300225A6040F6D823C2F200030022ED
:102B00001A6040F6D823C2F2000300225A6040F651
:102B10005023C2F2000300221A6040F65023C2F292
:102B2000000300225A6040F67023C2F20003002224
:102B30001A6040F67023C2F2000300225A6040F689
:102B40006023C2F2000300221A6040F66023C2F242
:102B5000000300225A6040F64823C2F2000300221C
:102B60001A6040F64823C2F2000300225A6040F681
:102B70006823C2F2000300221A6040F66823C2F202
:102B8000000300225A6040F6E423C2F20003002250
:102B90001A6040F6E423C2F2000300225A6040F6B5
:102BA000E023C2F2000300221A800023FB6014E03D
:102BB00040F67823C2F20003FA68002143F832108D
:102BC00040F67822C2F20002FB68DB0013444FF6A5
:102BD000FF729A80FB680133FB60FB680B2BE7DD1B
:102BE00040F67823C2F2000340F2D052C2F2000253
:102BF0001A6040F67823C2F2000300229A8040F265
:102C0000D050C2F200000021D02202F045FB40F279
:102C1000D053C2F2000303225A7640F2D053C2F2DC
:102C2000000342F6D922C0F600025A6140F2D053A6
:102C3000C2F2000302225A836B4846F68871C0F63E
:102C40000201072202F076FB40F2D053C2F20003E9
:102C5000002283F8C72040F2A063C2F20003624A58
:102C60001A6040F2A063C2F2000300225A6040F2F0
:102C7000D053C2F2000340F2A062C2F20002C3F8D5
:102C8000CC2040F2D050C2F2000040F65821C2F2EF
:102C9000000102F0B9FC40F2D050C2F2000003F093
:102CA000B5FE07F108023B1D1046194603F088FDEA
:102CB000BA687B681046194603F02CFA44F2C10347
:102CC000C0F60003002B01D001F0FAF944F6B1730D
:102CD000C0F60003002B01D002F06AF940F2D903DC
:102CE000C0F60203002B01D01DF0F6F940F20003FC
:102CF000C0F20003002B01D0AFF3008044F209734F
:102D0000C0F60003002B01D001F0FEFC40F62D437D
:102D1000C0F60203002B01D01DF088FF4FF61923E7
:102D2000C0F60103002B01D01CF076FE0DF020F858
:102D300003F04EFE40F2D053C2F200035B8BDBB2D5
:102D400040F2D050C2F20000194600F0F5F80346F8
:102D5000002B07DA46F69470C0F602004FF40071BB
:102D6000FEF782FF40F2D050C2F2000000F03EF9C0
:102D70000346002B07DA46F69470C0F602004FF4C3
:102D80000271FEF771FF40F2D050C2F2000000F075
:102D90000FF90346002B07DA46F69470C0F60200DE
:102DA0004FF40471FEF760FF40F2D053C2F200030B
:102DB0009B6801221A7000F043F80346002B07DAE3
:102DC00046F69470C0F6020040F21721FEF74CFF61
:102DD00003F0B0F90346002B03D100F069F903F0CA
:102DE000B5F903F00BFDF3E79006002080B584B041
:102DF00002AFFFF7BDFD0023009346F6A470C0F6B6
:102E0000020064214FF4006249F2B963C0F6000386
:102E100000F0DAF978607B68002B07DC46F6AC70CE
:102E2000C0F6020040F21D11FEF71EFF0837BD4636
:102E300080BD00BF80B500AFFFF7D8FF80BD00BFE9
:102E400080B500AFFFF7F6FF0023184680BD00BF36
:102E500080B586B000AF786039604FF0FF337B619A
:102E60007B684B2B21D8EFF3108372B63B823B8AF1
:102E70007B823B68002B07D17868FEF7A9FC42F6FD
:102E80000173C0F600033B6040F6EC23C2F200037E
:102E90007A68396843F822107B8AFB81FB8913F03A
:102EA000010F00D162B600237B617B691846183799
:102EB000BD4680BD80B584B000AF786039607B6866
:102EC0004B2B08D840F6EC23C2F200037A6853F883
:102ED0002230002B05D142F60173C0F60003FB60DF
:102EE00007E040F6EC23C2F200037A6853F8223080
:102EF000FB60FB687868396898471037BD4680BD2D
:102F000080B584B000AF78603960EFF3108372B69B
:102F1000FB81032046F6C071C0F6020146F6E87256
:102F2000C0F602027B6802F07BF946F6D070C0F66C
:102F300002005521FEF798FE80B584B000AF78609E
:102F40000B46FB707B68002B03D07B689B68002BD3
:102F500006D046F6FC70C0F60200B821FEF784FEEB
:102F6000BC2003F01BF9F860FB68002B02D16FF066
:102F70000B0319E07B68FA689A60F86801F052F870
:102F8000B860BB68002B07DAF86803F0E9F87B68E3
:102F900000229A60BB6807E0FB68023318460021F4
:102FA000012202F013FA002318461037BD4680BDF7
:102FB00080B584B000AF78607B68002B03D07B685D
:102FC0009B68002B07D146F6FC70C0F602004FF458
:102FD0008E71FEF749FE7B689B68FB60FB680122EF
:102FE0005A70002318461037BD4680BD80B584B0A6
:102FF00000AF78607B689B68FB60FB68002B06D1A4
:1030000047F21400C0F602005A21FEF72DFEFB68BD
:10301000203318460CF000FF47F23400C0F60200DF
:1030200003210DF041FBB860BB68002B0CD10020E0
:1030300001210DF073FA002002210DF06FFA78687B
:1030400001F05AF8034607E0BB68002B02DDB868C0
:103050000DF042FA6FF0160318461037BD4680BDDA
:1030600080B584B000AF19E0EFF3108372B6FB8037
:10307000FB88FB8140F6E420C2F2000002F07AFAFD
:10308000B860FB89BB80BB8813F0010F00D162B62A
:10309000BB68002B02D0B86803F062F840F6E42366
:1030A000C2F200031B68002BDED11037BD4680BD85
:1030B00080B500AFFFF7D4FF80BD00BF80B58AB0F8
:1030C00002AFF8607A603B600B46FB72D02003F0E1
:1030D00065F8B861BB69002B02D10C23FB6168E085
:1030E000FB7AB8691946FFF727FF78617B69002BE7
:1030F00003DA7B695B42FB6156E0B86901F06CF86A
:1031000078617B69002B03DA7B695B42FB614BE0F2
:103110003A68FB7AB86911461A4603F0FDFB7861FC
:103120007B69002B03DA7B695B42FB613CE0FB7A45
:103130000093B869796843F2B552C0F60002BB6AE1
:1031400000F0D8F978617B69002B03DA7B695B4278
:10315000FB6129E0B869F968FA6A00F0FDF9B8691D
:10316000FFF726FF78617B69002B03DA7B695B42FE
:10317000FB6119E0BB699B897B82B86900F000FAAA
:1031800078617B69002B0CDA00F07AFA03461B6841
:10319000FB61B86940F66821C2F2000102F058FAFA
:1031A00002E0B7F912300BE0FB7AB869194601F07A
:1031B000B9F800F065FA0346FA691A604FF0FF3378
:1031C00018462037BD4680BD80B586B002AFF86096
:1031D000B9607A603B603B680093BB690193F86813
:1031E0000021BA687B68FFF769FF0346184610376D
:1031F000BD4680BD80B586B002AFF860B9607A6028
:103200003B603B680093BB690193F8680221BA6890
:103210007B68FFF753FF034618461037BD4680BD55
:1032200080B586B000AF786001F0B2F800233B6152
:1032300044E040F6E023C2F200031B889BB2013356
:103240009BB29AB240F6E023C2F200031146198005
:103250001346FB82B7F91630002B07DC40F6E0235B
:10326000C2F2000301221A800123FB82FB8A03F0D1
:103270000B03FB6040F67823C2F20003FA6853F8B0
:103280003230002B17D140F67823C2F20003FA68DF
:10329000796843F8321040F67822C2F20002FB68E7
:1032A000DB001344FA8A9A807B68FA8A9A8101F0DB
:1032B00099F8002309E03B6901333B613B690B2B23
:1032C000B7DD01F08FF84FF0FF3318461837BD46D1
:1032D00080BD00BF80B586B000AFF860B9607A608D
:1032E0003B60F868FFF79CFF78617B69002B3AD15F
:1032F000BB68DAB2FB681A76FB687A681A613A68CA
:10330000FB685A6197F8203003F0030387F82030F8
:10331000FB685B8B23F003039AB2FB685A83FB685C
:103320005A8B97F820309BB213439AB2FB685A83AA
:10333000FB683833032000211A4600F0A5FAFB6829
:1033400000225A76F86803F061FB01F021F8F86872
:1033500040F66821C2F2000102F056F9FB6804222F
:103360005A7601F03FF87B6918461837BD4680BD94
:1033700080B582B000AF786039603B68002B04D123
:1033800047F24403C0F602033B607B68C033184633
:103390003968072201F0CEFF7B68002283F8C7203E
:1033A0000837BD4680BD00BF80B58AB000AF7860E9
:1033B00039607B68C0337B61786901F0A3FF034605
:1033C00001333B620023FB613B68002B26D01EE0EB
:1033D000FB699B003A6813441B68184601F092FF92
:1033E00002463B6A134401333B627B689A6A3B6A3C
:1033F0009A4202D86FF0230378E0FB690133FB6146
:10340000FB69B3F5807F02DD6FF006036EE0FB69B8
:103410009B003A6813441B68002BD9D1FB69023327
:103420009B003B617A6839693B6A0B441046194638
:1034300003F054FCF860FB68002B07D147F2500002
:10344000C0F6020040F20E21FEF70EFCFB68002BD6
:1034500002D16FF00B0349E0FA683B6913447B62C9
:10346000FB687A6A1A60786901F04CFF0346013301
:10347000BB60786A796901F02BFFBB687A6A1344F4
:103480007B620023BB6121E0BB6901339B00FA68CA
:1034900013447A6A1A60BB699B003A6813441B683C
:1034A000184601F02FFF03460133BB60BB699B0048
:1034B0003A6813441B68786A194601F009FFBB6833
:1034C0007A6A13447B62BB690133BB61BA69FB69E9
:1034D0009A42D9DBFB6901339B00FA68134400224E
:1034E0001A607B68FA68C3F8CC2000231846283796
:1034F000BD4680BD80B588B002AFF860B9607A6023
:103500003B6097F820300093F868B9687A683B68A8
:10351000FFF7E0FE78617B69002B04D1BB68DAB26B
:10352000FB6883F8C8207B6918461837BD4680BD04
:1035300080B586B002AFF860B9607A603B60012365
:103540000093F868B9687A683B68FFF7C3FE0346E2
:1035500018461037BD4680BD80B584B000AFF86016
:10356000B9607A60F868B968FFF702FFF8687968AF
:10357000FFF71AFF034618461037BD4680BD00BF4F
:1035800080B584B000AF7860EFF3108372B6BB8172
:10359000BB89FB81786803F0D3FBFB897B817B8946
:1035A00013F0010F00D162B6002318461037BD4654
:1035B00080BD00BF80B584B000AF40F65823C2F292
:1035C00000031B68BB60BB685B8B03F00303012B2C
:1035D00006D147F26400C0F602006B21FEF744FBFF
:1035E0000123FB6009E0FB680133FB60FB68B3F576
:1035F000807F02DD012000F02DF8BB68D3F8CC20DD
:10360000FB689B0013441B68002BECD1BB685B6913
:10361000BA68D2F8CC20F868114698477860786884
:1036200000F018F880B483B000AF40F65823C2F21F
:1036300000031B687B607B68002B02D07B689B8942
:1036400000E000231BB218460C37BD465DF8047B32
:10365000704700BF80B584B000AF786040F6582353
:10366000C2F200031B68FB607B68DBB27B60F8681A
:103670007968002200F022FF786803F093F900BF18
:1036800080B582B000AF03F0DFF90346002B0FD105
:1036900040F65823C2F200031B687B607B68002B56
:1036A00006D07B685B7E032B02D17B68643303E02A
:1036B00040F2A863C2F2000318460837BD4680BD39
:1036C00080B582B000AF78607B68002B09D07B6842
:1036D0001B881BB2002B02DB7B6801221A800023AF
:1036E00006E0FFF7CDFF034616221A604FF0FF33C6
:1036F00018460837BD4680BD80B586B000AF7860FB
:1037000040F65823C2F200031B683B614FF0FF33C1
:103710007B6103F099F90346002B06D047F278004D
:10372000C0F602006921FEF79FFAFFF7A9FF0346E2
:1037300016221A607B68002B4AD0EFF3108372B612
:10374000BB81BB89FB817B681B881BB2002B0CDD16
:103750007B681B889BB2013B9AB27B681A803B69ED
:1037600000225A6300237B612BE03B695B6B002BDB
:1037700006D047F27800C0F602008E21FEF774FAF8
:103780007B681B889BB2013B9AB27B681A803B69BD
:103790007A685A63FFF774FF034600221A6038699B
:1037A000052103F031F8FFF76BFF03461B68042B7C
:1037B00007D0FFF765FF03461B686E2B01D000237F
:1037C0007B61FB897B817B8913F0010F00D162B69D
:1037D0007B6918461837BD4680BD00BF80B586B0EE
:1037E00000AF786000237B614FF0FF333B617B6863
:1037F000002B43D0EFF3108372B6BB81BB89FB81F2
:103800007B681B881AB247F6FF739A4206D147F2CB
:103810009000C0F602007821FEF726FA7B681B882C
:103820009BB201339AB27B681A807B681B881BB2FB
:10383000002B1ADC40F65023C2F200031B687B61A8
:1038400002E07B691B687B617B69002B04D07B698C
:103850005A6B7B689A42F4D17B69002B05D07B6957
:1038600000225A63786903F06BFA00233B61FB89FD
:103870007B817B8913F0010F00D162B63B6918464A
:103880001837BD4680BD00BF80B58AB000AFF86074
:10389000B9607A6040F65823C2F200031B683B62AD
:1038A00000237B6200F074FD3B6A9B6BFB617B68CD
:1038B000002B02D07B68FA691A60BB68002B2FD0FE
:1038C000EFF3108372B63B833B8B7B83FB68022B49
:1038D0000BD0032B12D0012B15D13B6A9A6BBB681E
:1038E0001B681A433B6A9A6311E03B6A9A6BBB6898
:1038F0001B68DB431A403B6A9A6308E0BB681A689E
:103900003B6A9A6303E04FF0FF337B6200BF7B8B1F
:10391000FB82FB8A13F0010F00D162B600F008F8B9
:1039200000F060FD7B6A18462837BD4680BD00BFA9
:1039300090B585B000AF40F65823C2F200031B6873
:10394000FB6000F025FDFB689B6BDC43F86800F032
:103950009DFF034623403B601EE03B46184600F0B7
:10396000ADF8B860BB68B3F1FF3F15D03B461846D1
:10397000B96801F067FDF868B96800F015F878607B
:103980007B68002B08D07B680433F868194600F088
:10399000BDF9786800F052F83B68002BDDD100F0EB
:1039A00021FD1437BD4690BD80B588B000AF78606A
:1039B00039607B689B687B617B69002B06D147F28D
:1039C000A800C0F602005E21FEF74EF9EFF3108367
:1039D00072B63B823B8A7B820023BB617B691B6999
:1039E000FB6104E0FB69BB61FB691B68FB61FB6970
:1039F000002B05D0FB691B791A463B689A42F1D12E
:103A0000FB69002B0ED0BB69002B06D07B691033FD
:103A1000B869194601F0CEFD04E07B691033184601
:103A200001F0A8FD7B8AFB81FB8913F0010F00D117
:103A300062B6FB6918462037BD4680BD80B586B0AA
:103A400000AF78607B681B7B002B14D1EFF31083F1
:103A500072B6BB82BB8AFB82786840F64041C2F2F4
:103A6000000101F02FFDFB8A7B827B8A13F0010F9E
:103A700000D162B61FE07B681B7B022B14D1EFF3F1
:103A8000108372B63B823B8AFB82786840F63841ED
:103A9000C2F2000101F016FDFB8AFB81FB8913F0E5
:103AA000010F00D162B606E07B681B7B012B02D1BF
:103AB000786800F0BFFB1837BD4680BD80B584B084
:103AC00000AF78600023FB600BE07868F96801F0D4
:103AD000D9FC0346002B01D0FB6807E0FB680133EB
:103AE000FB60FB681F2BF0DD4FF0FF3318461037EB
:103AF000BD4680BD80B588B000AF786039600023D6
:103B0000FB6100F045FC3B681B787868194600F0C3
:103B1000F5FEB861BB69002B2FD0BB695B68002B39
:103B20002BD000F00FFF78617B69002B03D16FF081
:103B30000B03FB6121E0BB695A687B695A60BB6972
:103B40009A687B699A607B690C3318463968082249
:103B500001F01CFCEFF3108372B63B823B8A7B8240
:103B60007B6848337869194601F0ACFC7B8AFB819D
:103B7000FB8913F0010F00D162B600F033FCFB6942
:103B800018462037BD4680BD80B584B000AF02F036
:103B90005BFF0346002B11D040F64040C2F200000C
:103BA00001F0E8FCF860FB68002B2BD140F63840B0
:103BB000C2F2000001F0DEFCF86023E0EFF31083B6
:103BC00072B63B813B897B8140F64040C2F20000E7
:103BD00001F0D0FCF8607B89FB80FB8813F0010FBB
:103BE00000D162B6FB68002B0CD1FB68002B03D11F
:103BF000102002F0C3FAF860FB68002B02D0FB68CB
:103C000001221A73FB6818461037BD4680BD00BFFD
:103C100080B586B000AF7860396000237B617B6837
:103C2000002B06D147F2CC00C0F60200D721FEF7E8
:103C30001BF8EFF3108372B63B823B8A7B827B6872
:103C40001B697B6102E07B691B687B617B69002BE0
:103C500005D07B691B791A463B689A42F3D17B8A6F
:103C6000FB81FB8913F0010F00D162B67B69184616
:103C70001837BD4680BD00BF80B586B000AF786004
:103C800039607B689B683B613B69002B06D147F23A
:103C9000CC00C0F60200F921FDF7E6FF3B681B7877
:103CA00038691946FFF7B4FF78617B69002B07D0AC
:103CB0007B69043318463968082201F067FB1FE06E
:103CC000FFF762FF78617B69002B19D07B690433B1
:103CD00018463968082201F059FBEFF3108372B6D9
:103CE000BB81BB89FB813B6910337869194601F0C0
:103CF000E9FBFB897B817B8913F0010F00D162B660
:103D00007B6918461837BD4680BD00BF80B586B0B8
:103D100000AF7860396000237B617B68002B02D0A4
:103D20003B68002B07D147F2CC00C0F602004FF4ED
:103D3000A071FDF799FF7B6803F138023B681B789F
:103D40001046194601F09EFB0346002B41D0EFF3CD
:103D5000108372B63B823B8A7B827B685B7E062B3C
:103D600021D17B6803F13C023B681B781046194661
:103D700001F088FB0346002B15D07B6858331846AA
:103D80003968082201F002FB7B680022DA63786858
:103D900002F0D6FF7B8AFB81FB8913F0010F00D173
:103DA00062B600BF53E07B8ABB81BB8913F0010F71
:103DB00000D162B678683968FFF75EFF0346002BD2
:103DC00045D147F2CC00C0F602004FF4B071FDF7C8
:103DD0004BFF78683968FFF78DFE7861786843F6A5
:103DE0009161C0F6000102F09BFEEFF3108372B602
:103DF0007B817B897B827B685B7E062B0CD17B6819
:103E0000583318463968082201F0C0FA7B6800224E
:103E1000DA63786802F094FF7B8A3B813B8913F078
:103E2000010F00D162B67B685B7E052B03D17868F9
:103E3000042100F0D5FB7B685B7E072B03D07B68F9
:103E40005B7E082B03D17868042100F08DF87B6934
:103E500018461837BD4680BD80B584B000AF034614
:103E60003960FB80B7F90630184600F00FFAF860A9
:103E7000FB68002B02D16FF0020304E0F868396898
:103E8000FFF744FF034618461037BD4680BD00BF0C
:103E900080B58AB000AF786000F07AFA7B685B6E1C
:103EA0003B627B689B6C7B6252E07B6A1B68FB61B8
:103EB000EFF3108372B67B827B8A7B837B68483307
:103EC000786A194601F01EFB7B685033786A194600
:103ED00001F0F8FA7B8B3B823B8A13F0010F00D193
:103EE00062B67B689B6B7B617B6A9A687B691A43CD
:103EF0007B6A1B7B012101FA03F31A437B689A63F7
:103F00007B6A5B687A6A127B11467A6A0C320846D1
:103F10001146002298477B687A699A63FFF708FD8B
:103F2000EFF3108372B6FB81FB897B837B68503390
:103F3000786A194601F0E6FA7B8BBB81BB8913F0E6
:103F4000010F00D162B6786A00F040FDFB697B6228
:103F50007B6A002BA9D17B683A6A5A6600F042FA64
:103F60002837BD4680BD00BF80B586B000AF786001
:103F70003960EFF3108372B6FB81FB89FB827B68AB
:103F80005B7E072B03D07B685B7E082B40D17B6870
:103F90001B6E3B613B69002B06D147F2E400C0F683
:103FA00002007421FDF760FE7B6800221A667B68C0
:103FB0005B7E072B13D13B695B8A1BB2002B06DCAF
:103FC00047F2E400C0F602007C21FDF74DFE3B699C
:103FD0005B8A9BB2013B9AB23B695A8212E03B6911
:103FE0001B8A1BB2002B06DC47F2E400C0F602007D
:103FF0008121FDF739FE3B691B8A9BB2013B9AB2D6
:104000003B691A827B683A685A66786802F098FEC3
:10401000FB8ABB81BB8913F0010F00D162B6183750
:10402000BD4680BD80B586B000AF786040F65823AD
:10403000C2F200031B683B610023FB6000237B612D
:104040007B68002B06D03B69002B03D03B699B6843
:10405000002B06D147F2F800C0F602005921FDF707
:1040600003FE00F095F93B699B68002B21D03B696A
:104070009B68DB69002B1CD03B699B689B69BB601C
:10408000B86802F07BF8F860FB68002B03D16FF092
:104090000B037B610DE07B68BA689A617B68FA6804
:1040A000DA613B699B68DB69F8681946BA6801F018
:1040B0006DF900F097F97B6918461837BD4680BD49
:1040C00080B483B000AF00237B600DE040F6EC23AA
:1040D000C2F20003796842F60172C0F6000243F8AA
:1040E00021207B6801337B607B684B2BEEDD0C3736
:1040F000BD465DF8047B704780B582B000AF786044
:104100007B68002B03D07B689B68002B06D147F2AD
:104110000C10C0F602004D21FDF7A6FD7B689B68E0
:10412000184601F0BFFA002001217A680CF050FE19
:10413000012006217A680CF04BFE022006217A68E5
:104140000CF046FE002318460837BD4680BD00BF70
:1041500080B586B000AF786040F65823C2F2000305
:104160001B683B617B68002B07D07B689B68002B3A
:1041700003D03B699B68002B06D147F22810C0F69C
:1041800002006121FDF770FD3B699B682433FB60F1
:104190007B689B682433BB6000237B6115E07B69EF
:1041A0001B01FA6813449B68002B0BD07B691B0131
:1041B000FA681A447B691B01B9680B44104619461A
:1041C0000BF068FE7B6901337B617B69042BE6DDC4
:1041D0001837BD4680BD00BF80B584B000AF7860A1
:1041E0007B689B68FB60FB68002B06D147F22810B8
:1041F000C0F60200D621FDF737FD7B685B8B03F02C
:104200000303012B06D147F22810C0F60200D92182
:10421000FDF72AFDFB68203318460BF0FDFD78689A
:10422000FFF796FF7868FFF767FF034618461037D9
:10423000BD4680BD80B584B000AF786002F004FC5C
:104240000346002B04D101F075FF0346002B14D068
:10425000EFF3108372B6BB81BB89FB81786840F6AF
:10426000E421C2F2000101F02DF9FB897B817B89F9
:1042700013F0010F00D162B604E0786801F070FF1E
:1042800001F064FF1037BD4680BD00BF80B485B02B
:1042900000AF0346FB800023FB60B7F90630002B1C
:1042A00018DBFB8803F00B03BB6040F67822C2F2F8
:1042B0000002BB68DB0013449B88B7F906201BB2E1
:1042C0009A4207D140F67823C2F20003BA6853F845
:1042D0003230FB60FB6818461437BD465DF8047B3E
:1042E000704700BF80B485B000AF0346FB80FB88F9
:1042F00003F00B03FB6040F67823C2F20003FA6878
:10430000002143F8321040F67822C2F20002FB6826
:10431000DB0013444FF6FF729A801437BD465DF8F8
:10432000047B704780B584B000AF78600B46FB70AB
:104330000023FB607B68002B24D040F20003C0F216
:104340000003002B05D07B689B891BB21846AFF396
:1043500000807B689B89002B05D07B689B891BB202
:104360001846FFF7BFFF7B68DB6A002B04D0FB78A1
:104370007868194602F0BCFB786800F00FFC78689A
:10438000FFF758FFFB6818461037BD4680BD00BFD9
:1043900080B582B000AF40F65823C2F200031B681C
:1043A0007B607B68002B17D002F04EFB0346002B8E
:1043B00012D17B689B8B1BB27E2B06DD47F2481027
:1043C000C0F602006921FDF74FFC7B689B8B9BB216
:1043D00001339AB27B689A83002318460837BD469A
:1043E00080BD00BF80B584B000AF40F65823C2F254
:1043F00000031B68FB60FB68002B42D002F024FB2B
:104400000346002B3DD1EFF3108372B63B813B890D
:104410007B81FB689B8B002B06D0FB689B8B9BB240
:10442000013B9AB2FB689A83FB689B8B1BB2002B03
:1044300020DCFB6800229A8340F6D823C2F20003F6
:104440001B68002B01D002F011FBFB685B8B03F0B3
:104450001003002B0ED0FB681B6A002B0AD140F61C
:104460005823C2F200031A68FB689A4202D0FB6824
:1044700014221A627B89FB80FB8813F0010F00D1A4
:1044800062B6002318461037BD4680BD80B584B0A3
:1044900000AF78607B689B68FB60FB68002B09D0ED
:1044A000FB685B78012B05D17B689B6874331846E9
:1044B00000F0BCFD1037BD4680BD00BF80B584B0A4
:1044C00000AFF860B9601346FB71FB685B8B03F0CB
:1044D0002003002B00D015E0F86800F017F8FB79F6
:1044E000002B02D1F868FFF7D1FFF86800F056FB07
:1044F000F86800F0ABFAFB685B8B43F020039AB2DC
:10450000FB685A831037BD4680BD00BF80B582B0BE
:1045100000AF7860786800F009F8786800F02CF84F
:10452000786800F0DDFA0837BD4680BD80B584B0FC
:1045300000AF7860EFF3108372B6BB81BB89FB815B
:104540007B685B6A002B0CD07B685B6A184600F0C6
:104550004FFB7B685B6A184600F0B6FB7B68002265
:104560005A62FB897B817B8913F0010F00D162B60F
:104570001037BD4680BD00BF80B586B000AF786003
:10458000EFF3108372B6FB81FB89FB827B685B7E55
:10459000052B1BD17B685B6B3B613B69002B04D017
:1045A0003B691B881BB2002B06DB47F25C10C0F690
:1045B00002007A21FDF758FB3B691B889BB201334F
:1045C0009AB23B691A807B6800225A63FB8ABB81DE
:1045D000BB8913F0010F00D162B61837BD4680BD0C
:1045E00080B586B000AF78603960EFF3108372B6A3
:1045F000FB81FB89FB827B685B7E052B21D17B687D
:104600005B6B3B613B69002B04D03B691B881BB291
:10461000002B06DB47F27410C0F602007421FDF790
:1046200023FB3B691B889BB201339AB23B691A801A
:104630007B6800225A637B683A685A66786802F0A1
:104640007FFBFB8ABB81BB8913F0010F00D162B6EF
:104650001837BD4680BD00BF80B586B000AF78601A
:1046600013460A467A807B707A8813465B001344AF
:10467000DB00184601F082FDF860FB687B610023D7
:104680003B610DE07B697A781A757B6903F118024A
:104690007A611846796800F015FF3B6901333B6188
:1046A0007A883B699A42EDDCFB6818461837BD46AC
:1046B00080BD00BF80B586B000AF786013460A4663
:1046C0007A807B707B881B01184601F057FDF860EB
:1046D000FB687B6100233B610DE07B697A781A738C
:1046E0007B6903F110027A611846796800F0EAFEEE
:1046F0003B6901333B617A883B699A42EDDCFB6898
:1047000018461837BD4680BD80B500AF40F620433F
:10471000C2F2000300221A6040F62043C2F20003F6
:1047200000225A6040F62843C2F2000300221A60B9
:1047300040F62843C2F2000300225A6040F630439C
:10474000C2F2000300221A6040F63043C2F20003B6
:1047500000225A6040F64043C2F2000300221A6071
:1047600040F64043C2F2000300225A6040F638434C
:10477000C2F2000300221A6040F63843C2F200037E
:1047800000225A6040F62840C2F2000010210022A8
:10479000FFF762FF024640F2B063C2F200031A6004
:1047A00040F63040C2F2000008210222FFF754FF19
:1047B000024640F2B463C2F200031A6000F01EF831
:1047C00040F64040C2F2000010210022FFF772FFC5
:1047D000024640F2B863C2F200031A6040F6384065
:1047E000C2F2000008210222FFF764FF024640F2F5
:1047F000BC63C2F200031A6080BD00BF80B582B006
:1048000000AF4FF4A07001F0B9FC024640F2AC6377
:10481000C2F200031A6040F2AC63C2F200031B68EC
:104820007B6000233B600DE07B6803F114027A603B
:10483000184640F62041C2F2000100F043FE3B68FA
:1048400001333B603B680F2BEEDD0837BD4680BD72
:1048500080B584B000AF786040F65823C2F2000300
:104860001B68BB604FF0FF33FB607B68002B07D0F9
:10487000B86800F00BF802467B681A600023FB6002
:10488000FB6818461037BD4680BD00BF80B588B0B4
:1048900000AF78607B689B68BB61BB69002B06D169
:1048A00047F28C10C0F602007721FDF7DDF90023F6
:1048B000FB60EFF3108372B6BB82BB8AFB82BB69DD
:1048C0001B69FB610AE0FB691B7907F10C021046CA
:1048D000194600F099FDFB691B68FB61FB69002B21
:1048E000F1D1FB8A7B827B8A13F0010F00D162B683
:1048F000FB6818462037BD4680BD00BF80B584B038
:1049000000AF786039600023FB607B68002B13D018
:10491000FFF73EFD7B681B6CFB6002E0FB681B68D9
:10492000FB60FB68002B05D0FB681B7C1A463B68CC
:104930009A42F3D1FFF756FDFB6818461037BD4683
:1049400080BD00BF80B584B000AF02F07DF80346A3
:10495000002B11D040F62840C2F2000000F00AFE01
:10496000F860FB68002B2BD140F63040C2F200000B
:1049700000F000FEF86023E0EFF3108372B63B8195
:104980003B897B8140F62840C2F2000000F0F2FD36
:10499000F8607B89FB80FB8813F0010F00D162B6C1
:1049A000FB68002B0CD1FB68002B03D1182001F011
:1049B000E5FBF860FB68002B02D0FB6801221A754A
:1049C000FB6818461037BD4680BD00BF80B586B075
:1049D00000AF78607B681B7D002B14D1EFF3108350
:1049E00072B6BB82BB8AFB82786840F62841C2F26D
:1049F000000100F067FDFB8A7B827B8A13F0010FC8
:104A000000D162B61FE07B681B7D022B14D1EFF34F
:104A1000108372B63B823B8AFB82786840F6304155
:104A2000C2F2000100F04EFDFB8AFB81FB8913F00E
:104A3000010F00D162B606E07B681B7D012B02D11D
:104A40007868FFF7F7FB1837BD4680BD80B584B0A6
:104A500000AF786002E0F86800F038FA7B68403315
:104A6000184600F087FDF860FB68002BF3D102E0E8
:104A7000B868FFF7ABFF7B684833184600F07AFD53
:104A8000B860BB68002BF3D102E0B868FFF79EFF67
:104A90007B685033184600F06DFDB860BB68002B92
:104AA000F3D17B684FF0FF329A637B680022DA63B0
:104AB0001037BD4680BD00BF80B584B000AF7860C0
:104AC00002E0F868FEF7BAFF7B681033184600F082
:104AD00051FDF860FB68002BF3D11037BD4680BD57
:104AE00080B582B000AF78607B685B7E072B18D101
:104AF0007B681B6E002B05D07B681B6E5B8A1BB22C
:104B0000002B06DC47F2A410C0F602006921FDF775
:104B1000ABF87B681A6E538A9BB2013B9BB25382FF
:104B20001BE07B685B7E082B17D17B681B6E002B1C
:104B300005D07B681B6E1B8A1BB2002B06DC47F27C
:104B4000A410C0F602007321FDF78EF87B681A6E80
:104B5000138A9BB2013B9BB213820837BD4680BDCE
:104B600080B582B000AF78607868FFF7A5FF7868FD
:104B700000F0BAF97B68203318460BF065F97868C5
:104B800000F0CCFD786800F0F3F9786800F0DCF90B
:104B90007868FFF74FFB0837BD4680BD80B584B00D
:104BA00000AF78607B68002B07D147F2B810C0F6E1
:104BB00002004FF4C771FDF757F87B689B68FB60F4
:104BC000FB68002B10D0FB685B78012B06D9FB68D3
:104BD0005B78013BDAB2FB685A7002E0F868FFF7D5
:104BE000BFFF7B6800229A601037BD4680BD00BFC2
:104BF00080B588B000AF78604FF0FF337B61EFF392
:104C0000108372B63B823B8A7B827B68002B4ED03E
:104C10007B681B7B03F00103002B48D00023BB61A2
:104C200040F65443C2F200031B68FB6104E0FB69D9
:104C3000BB61FB691B68FB61FB69002B03D0FA6950
:104C40007B689A42F3D1FB69002B06D147F2CC1066
:104C5000C0F602008121FDF707F8FB691B68002BF5
:104C600008D0FB691B68FA6912689168FA69926852
:104C70000A449A60BB69002B07D0B86940F65441DA
:104C8000C2F2000100F096FC05E040F65440C2F28A
:104C9000000000F06FFC7B6800221A607B681B7BC1
:104CA00023F00103DAB27B681A7300237B617B8AED
:104CB000FB81FB8913F0010F00D162B67B691846B6
:104CC0002037BD4680BD00BF80B584B000AF78609E
:104CD0007B68002B06D147F2E010C0F60200642189
:104CE000FCF7C2FFEFF3108372B6BB81BB89FB8177
:104CF0007B681B7B03F00103002B02D07868FFF771
:104D000077FF7B681B7B03F00203002B0AD0FB8933
:104D10007B817B8913F0010F00D162B67868FFF7C1
:104D200089FA2DE07B681B7B03F00403002B27D15D
:104D3000786840F64841C2F2000100F0C3FB40F63B
:104D40005043C2F200031B8801339AB240F650432D
:104D5000C2F200031A8040F65043C2F200031B88DF
:104D6000022B06D947F2E010C0F602009321FCF7AF
:104D70007BFFFB893B813B8913F0010F00D162B6B9
:104D8000002318461037BD4680BD00BF80B582B0F5
:104D900000AF40F62040C2F2000000F0EBFB78606C
:104DA0007B68002B12D1FFF729FD40F62040C2F2AC
:104DB000000000F0DFFB78607B68002B06D147F233
:104DC000F410C0F602006821FCF74EFF7B6818461D
:104DD0000837BD4680BD00BF80B586B000AFF86023
:104DE000B9607A6040F65823C2F200031B683B6149
:104DF000FB681F2B07D9FEF743FC034616221A60F7
:104E00004FF0FF335EE03869F968FFF777FD7861AE
:104E10007B68002B18D07B69002B0CD07B695A680B
:104E20007B681A607B699A687B685A607B69DA687C
:104E30007B689A6008E07B6800221A607B68002229
:104E40005A607B6800229A60BB68002B01D1002366
:104E500038E0BB681B68002B0CD17B69002B30D07D
:104E60003B6940337869194600F04CFB786900F0E3
:104E70002DF826E07B69002B17D1FFF787FF7861BB
:104E80007B69002B07D1FEF7FBFB03460C221A605F
:104E90004FF0FF3316E0FB68DAB27B691A743B69A6
:104EA00040337869194600F00DFBBB681A687B69CE
:104EB0005A60BB685A687B699A60BB689A687B696C
:104EC000DA60002318461837BD4680BD80B582B031
:104ED00000AF7860786840F62041C2F2000100F02F
:104EE000F1FA0837BD4680BD80B584B000AF786068
:104EF0007B68002B06D147F20820C0F60200602133
:104F0000FCF7B2FE13E07B685B68FB60FB681A6825
:104F10007B685A60FB680C331846FEF7D1FBFB68D0
:104F20000A331846FEF7CCFBF868FFF783F97B6875
:104F30005B68002BE7D17B6802331846FEF7C0FBA5
:104F40001037BD4680BD00BF80B582B000AF78602D
:104F500005E07B68D3F8B43018460CF013FA7B6890
:104F6000D3F8B430002BF4D10837BD4680BD00BF64
:104F700080B582B000AF78607B68002B06D147F225
:104F80002420C0F602005221FCF76EFE7B68DB692C
:104F9000002B04D07B68DB691846FFF74BF97B6870
:104FA00000229A617B680022DA610837BD4680BD25
:104FB00080B582B000AF40F2C063C2F200037B60F4
:104FC00040F64843C2F2000300221A6040F648430C
:104FD000C2F2000300225A6040F65443C2F20003BA
:104FE00000221A6040F65443C2F2000300225A60C5
:104FF00000233B600DE07B6803F118027A601846DD
:1050000040F64841C2F2000100F05CFA3B6801330F
:105010003B603B68012BEEDD40F65043C2F20003DB
:1050200002221A800837BD4680BD00BF80B586B019
:1050300000AF786000237B617B68002B2BD0786801
:1050400000F084FB00233B611FE03A6913465B00DC
:1050500013449B007A6813440433FB60FB681B68AD
:10506000002B0FDBFB689B8803F00203002B09D0A9
:10507000F868012100F014F8B860BB68002B01DA71
:10508000BB687B613B6901333B613B69042BDCDD21
:10509000786800F077FB7B6918461837BD4680BDFD
:1050A00080B483B000AF78600B46FB7000231846D5
:1050B0000C37BD465DF8047B704700BF80B586B0F5
:1050C00000AF786000237B617B68002B1FD07A687B
:1050D0004DF68363C4F21B33A3FB02139B0C3B61AD
:1050E0003B69BB603A6944F24023C0F20F0303FB03
:1050F00002F37A68D31A4FF47A7202FB03F3FB606F
:1051000007F10803184600211AF0FCF878617B6962
:1051100018461837BD4680BD80B586B000AF7860B0
:10512000396007F10C031846012100F0BDFF07F1BB
:105130000C03184679683A6800F0AEFD034618463D
:105140001837BD4680BD00BF80B586B000AFF8609F
:10515000B9607A6000237B6140F2A003C2F20003D1
:105160001B781A46FB6842FA03F303F00103002B95
:1051700004D0B8687968FFF7CFFF78617B6918467B
:105180001837BD4680BD00BF0EB480B585B000AFF6
:10519000786007F12003BB607868F969BA68FFF7A7
:1051A000D3FFF860FB6818461437BD46BDE8804061
:1051B00003B0704780B584B000AF7860396007F104
:1051C0000803184600F0F4FE07F108031846796852
:1051D0003A6800F061FD034618461037BD4680BDB1
:1051E00080B586B000AFF860B9607A6000237B615B
:1051F00040F2A003C2F200031B781A46FB6842FA91
:1052000003F303F00103002B04D0B8687968FFF7BB
:10521000D1FF78617B6918461837BD4680BD00BF55
:105220000EB480B585B000AF786007F12003BB6095
:105230007868F969BA68FFF7D3FFF860FB68184629
:105240001437BD46BDE8804003B0704780B485B0D8
:1052500000AF7860EFF3108372B67B817B89FB81AE
:1052600040F2A003C2F200031B787B737B68DAB2C2
:1052700040F2A003C2F200031A70FB893B813B8914
:1052800013F0010F00D162B67B7B18461437BD4680
:105290005DF8047B704700BF80B487B000AFF86052
:1052A000B9607A60FB687B6105E07B695A1C7A61B2
:1052B000BA68D2B21A707B685A1E7A60002BF4D199
:1052C000FB6818461C37BD465DF8047B704700BF7D
:1052D00080B485B000AF786039607B68FB6000BF48
:1052E0007B685A1C7A603A68511C396012781A70CF
:1052F0001B78002BF4D1FB6818461437BD465DF8C7
:10530000047B704780B485B000AF78607B68FB6039
:1053100002E0FB680133FB60FB681B78002BF8D1CF
:10532000FA687B68D31A18461437BD465DF8047BCB
:10533000704700BF80B487B000AFF860B9607A6092
:10534000FB687B61FA687B6813443B61FA683B69E0
:105350009A420AD0FB685A1CFA60BA68511CB960BC
:1053600012781A701B78002BF0D104E0FB685A1CED
:10537000FA6000221A70FA683B699A42F6D17B699A
:1053800018461C37BD465DF8047B704780B487B073
:1053900000AFF860B9607A60FB687B61BB683B6115
:1053A00007E07B695A1C7A613A69511C39611278AD
:1053B0001A707B685A1E7A60002BF2D1FB6818467F
:1053C0001C37BD465DF8047B704700BF80B584B0D4
:1053D00000AFF860B9607A60FB68002B09D07B6889
:1053E000B3F5004F05D27B689AB2FB681A800023A0
:1053F00006E0FEF745F9034616221A604FF0FF3328
:1054000018461037BD4680BD80B582B000AF7860C9
:1054100039603B681F2B07D9FEF732F90346162285
:105420001A604FF0FF3309E07B681A6801213B687E
:1054300001FA03F31A437B681A6000231846083701
:10544000BD4680BD80B582B000AF786039603B68F2
:105450001F2B07D9FEF714F9034616221A604FF0E6
:10546000FF330AE07B681A6801213B6801FA03F305
:10547000DB431A407B681A60002318460837BD4694
:1054800080BD00BF80B485B000AF786039604FF058
:10549000FF33FB603B681F2B0CD87B681A683B68A6
:1054A00022FA03F303F00103002B0CBF00230123B6
:1054B000DBB2FB60FB6818461437BD465DF8047B21
:1054C000704700BF80B483B000AF786039607B68FC
:1054D00000221A603B681B68002B06D13B687A6883
:1054E0001A603B687A685A6006E03B685B687A68D5
:1054F0001A603B687A685A600C37BD465DF8047BD9
:10550000704700BF80B584B000AF786039603B68F9
:105510001B68002B2AD07B68002B27D03B681A68B9
:105520007B689A420CD17B681A683B681A603B68BA
:105530005A687B689A4219D13B6800225A6015E08C
:105540003B681B68FB6002E0FB681B68FB60FB6854
:10555000002B04D0FB681A687B689A42F4D1FB6880
:10556000002B03D0F868396800F024F81037BD46E6
:1055700080BD00BF80B485B000AF78607B681B68D9
:10558000FB60FB68002B0DD0FB681A687B681A6013
:105590007B681B68002B02D17B6800225A60FB6885
:1055A00000221A60FB6818461437BD465DF8047B7C
:1055B000704700BF80B485B000AF786039607B6809
:1055C0001B68FB603B681B68002B15D0FB68002B39
:1055D00012D03B685A68FB689A4206D13B687A68E9
:1055E0005A607B6800221A6003E0FB681A687B68D7
:1055F0001A60FB6800221A60FB6818461437BD4623
:105600005DF8047B704700BF80B483B000AF786062
:1056100039607B6800225A603B681A687B681A60B0
:105620003B681B68002B06D13B687A681A603B68B0
:105630007A685A6006E03B681B687A685A603B6883
:105640007A681A600C37BD465DF8047B704700BF6E
:1056500080B485B000AF786039607B685B68FB60C0
:105660007B681B68BB60FB68002B03D13B68BA6892
:105670001A6002E0FB68BA681A60BB68002B03D1AD
:105680003B68FA685A6002E0BB68FA685A607B6857
:1056900000221A607B6800225A601437BD465DF80C
:1056A000047B704780B584B000AF78607B68002BC6
:1056B00006D147F23C20C0F602005C21FCF7D4FA88
:1056C0007B687433BB60BB68184600210122FFF77A
:1056D0007DFE0023FB601AE0FA6813465B0013446A
:1056E0009B00BA6813440433184600210C22FFF7CC
:1056F000D3FDB968FA6813465B0013449B000B4462
:1057000004334FF0FF321A60FB680133FB60FB6823
:10571000042BE1DD1037BD4680BD00BF80B584B0ED
:1057200000AF78607B68002B06D147F23C20C0F6C2
:1057300002009021FCF798FA7B687433FB60FB68E9
:105740001846FDF7BDFF1037BD4680BD80B582B05D
:1057500000AF78600CE0FDF793FF03461B68042B55
:1057600006D047F25020C0F602005121FCF77CFA27
:105770007B681846FDF7C0FF0346002BEBD10837C6
:10578000BD4680BD80B582B000AF78607B681846AA
:10579000FEF724F80837BD4680BD00BF80B584B051
:1057A00000AF786039603A684CF6CD43CCF6CC4314
:1057B000A3FB0213D9080B469B000B445B00D31AD2
:1057C000FB603A684CF6CD43CCF6CC43A3FB021306
:1057D000DB08BB60BB68002B03D07868B968FFF7B3
:1057E000DDFF7B681B68FA6830327868114698479D
:1057F0001037BD4680BD00BF80B586B000AFF860F1
:10580000B9601346FB710023FB752023BB7527E0AD
:10581000BB7D043BBA6822FA03F3DBB203F00F034B
:105820007B757B7D002B02D1FB7D002B15D00123E6
:10583000FB757B7D092B07D8FB681B687A7D3032AE
:10584000F8681146984708E0FB681B68797DFA798B
:105850000A440A3AF86811469847BB7D043BBB7579
:10586000BB7D002BD4D1FB7D002B04D1FB681B68D2
:10587000F868302198471837BD4680BD80B584B0A0
:1058800000AF786039603B6803F00703FB603B685A
:10589000DB08BB60BB68002B03D07868B968FFF7F2
:1058A000EDFF7B681B68FA683032786811469847CC
:1058B0001037BD4680BD00BF80B584B000AF7860B2
:1058C00039603B6803F00103FB603B685B08BB6029
:1058D000BB68002B03D07868B968FFF7EDFF7B68E1
:1058E0001B68FA6830327868114698471037BD4611
:1058F00080BD00BF80B584B000AFF8607B600B4610
:10590000FB721346BB72FB7A583B202B00F282805D
:1059100001A252F823F000BFB1590008155A00083F
:10592000155A0008155A0008155A0008155A00089B
:10593000155A0008155A0008155A0008155A00088B
:105940000B5A0008155A00089D590008155A0008FE
:10595000155A0008155A0008155A00089D590008E4
:10596000155A0008155A0008155A0008155A00085B
:10597000155A0008ED590008B1590008155A0008D9
:10598000155A0008155A0008155A0008A7590008AA
:10599000155A0008155A0008B1590008F8687968C6
:1059A000FFF7FCFE37E0F8687968FFF7F7FE32E0B2
:1059B000BB7A03F00203002B09D0FB681B68F86870
:1059C00030219847FB681B68F86878219847FB7A74
:1059D000582B05D1F86879684122FFF70DFF1AE0CE
:1059E000F86879686122FFF707FF14E0BB7A03F0DB
:1059F0000203002B04D0FB681B68F868302198472D
:105A0000F8687968FFF73AFF05E0F8687968FFF70A
:105A100053FF00E000BF1037BD4680BD80B485B0A5
:105A200000AF0346B9607A60FB73FB7B583B202BC9
:105A300065D801A252F823F0EF5A0008FF5A000877
:105A4000FF5A0008FF5A0008FF5A0008FF5A0008D2
:105A5000FF5A0008FF5A0008FF5A0008FF5A0008C2
:105A6000EF5A0008FF5A0008BD5A0008FF5A000804
:105A7000FF5A0008FF5A0008FF5A0008BD5A0008E4
:105A8000FF5A0008FF5A0008FF5A0008FF5A000892
:105A9000FF5A0008EF5A0008EF5A0008FF5A0008A2
:105AA000FF5A0008FF5A0008FF5A0008FF5A000872
:105AB000FF5A0008FF5A0008EF5A00087B681B686D
:105AC000002B13DABB681B7863F07F03DAB2BB6884
:105AD0001A70BB681B7823F00103DAB2BB681A7036
