:020000040800F2
:10000000E40F0020B5030008390100084101000891
:100010004901000851010008590100083101000898
:1000200031010008310100083101000861010008B8
:100030006901000831010008710100087901000818
:100040008101000889010008910100089901000858
:10005000A1010008A9010008B1010008B9010008C8
:10006000C1010008C9010008D1010008D901000838
:10007000E1010008E9010008F1010008F9010008A8
:100080000102000809020008110200081902000814
:100090002102000829020008310200083902000884
:1000A00041020008490200085102000859020008F4
:1000B0006102000869020008710200087902000864
:1000C00081020008890200089102000899020008D4
:1000D000A1020008A9020008B1020008B902000844
:1000E000C1020008C9020008D1020008D9020008B4
:1000F000E1020008E9020008F1020008F902000824
:10010000010300080903000811030008190300088F
:1001100021030008290300083103000839030008FF
:10012000410300084903000851030008590300086F
:100130004FF0000000F014B94FF0020000F010B9C9
:100140004FF0030000F00CB94FF0040000F008B9C4
:100150004FF0050000F004B94FF0060000F000B9C0
:100160004FF00B0000F0FCB84FF00C0000F0F8B8B6
:100170004FF00E0000F0F4B84FF00F0000F0F0B8B0
:100180004FF0100000F0ECB84FF0110000F0E8B8AC
:100190004FF0120000F0E4B84FF0130000F0E0B8A8
:1001A0004FF0140000F0DCB84FF0150000F0D8B8A4
:1001B0004FF0160000F0D4B84FF0170000F0D0B8A0
:1001C0004FF0180000F0CCB84FF0190000F0C8B89C
:1001D0004FF01A0000F0C4B84FF01B0000F0C0B898
:1001E0004FF01C0000F0BCB84FF01D0000F0B8B894
:1001F0004FF01E0000F0B4B84FF01F0000F0B0B890
:100200004FF0200000F0ACB84FF0210000F0A8B88B
:100210004FF0220000F0A4B84FF0230000F0A0B887
:100220004FF0240000F09CB84FF0250000F098B883
:100230004FF0260000F094B84FF0270000F090B87F
:100240004FF0280000F08CB84FF0290000F088B87B
:100250004FF02A0000F084B84FF02B0000F080B877
:100260004FF02C0000F07CB84FF02D0000F078B873
:100270004FF02E0000F074B84FF02F0000F070B86F
:100280004FF0300000F06CB84FF0310000F068B86B
:100290004FF0320000F064B84FF0330000F060B867
:1002A0004FF0340000F05CB84FF0350000F058B863
:1002B0004FF0360000F054B84FF0370000F050B85F
:1002C0004FF0380000F04CB84FF0390000F048B85B
:1002D0004FF03A0000F044B84FF03B0000F040B857
:1002E0004FF03C0000F03CB84FF03D0000F038B853
:1002F0004FF03E0000F034B84FF03F0000F030B84F
:100300004FF0400000F02CB84FF0410000F028B84A
:100310004FF0420000F024B84FF0430000F020B846
:100320004FF0440000F01CB84FF0450000F018B842
:100330004FF0460000F014B84FF0470000F010B83E
:100340004FF0480000F00CB84FF0490000F008B83A
:100350004FF04A0000F004B84FF04B0000F000B836
:100360006A4602F12002EFF310832DE9FC0F72B60A
:100370006946DFF838D04DF8041D01F021F85DF82A
:10038000041F884209D000F1280191E8F00F0168AC
:1003900021E9F00F90E8FC0F01E0B1E8FC0F81F3D8
:1003A0000888DFF80CE083F3108870478C03002086
:1003B000F9FFFFFF80B582B000AF00F0EFF900F069
:1003C00073FB00F005FA40F2F023C2F200033B6039
:1003D00004E03B681A1D3A6000221A603A6840F651
:1003E000BC63C2F200039A42F3D347F2A433C0F6CF
:1003F00002037B6040F20003C2F200033B6007E0AF
:100400003B681A1D3A607A68111D796012681A609B
:100410003A6840F2E423C2F200039A42F0D300F0BB
:10042000FFFE02F017F902F07FFA00BF80B483B03C
:1004300000AF41F20C03C4F2020300221A6041F241
:100440001003C4F2020300221A6041F21403C4F242
:10045000020314221A6041F21803C4F202030022BC
:100460001A6041F21C03C4F2020300221A604FF426
:100470008053C4F202031B687B607B6843F0010376
:100480007B604FF48053C4F202037A681A6041F231
:100490000403C4F202031B687B607A680C23CFF26A
:1004A000FF0313407B6041F20403C4F202037A6845
:1004B0001A604FF48053C4F202031B687B607B68B0
:1004C00023F0847323F480337B604FF48053C4F2B1
:1004D00002037A681A604FF48053C4F202031B6867
:1004E0007B607B6823F480237B604FF48053C4F2ED
:1004F00002037A681A6041F20403C4F202031B6823
:100500007B607B6823F4FE037B6041F20403C4F24A
:1005100002037A681A6041F20803C4F2020300225F
:100520001A600C37BD465DF8047B704780B483B019
:1005300000AF14237B607B6843F001037B607B6822
:1005400043F040037B6041F21403C4F202037A6873
:100550001A600C37BD465DF8047B704780B483B0E9
:1005600000AF41F20403C4F202031B687B607B68A6
:1005700023F480037B6041F20403C4F202037A682F
:100580001A6041F21C03C4F202031B687B607B68A3
:1005900043F480437B607B6843F400337B607B687B
:1005A00043F480237B607B6843F400037B6041F26B
:1005B0001C03C4F202037A681A600C37BD465DF86A
:1005C000047B704780B483B000AF41F21803C4F2DB
:1005D00002031B687B607B6843F03D037B6041F254
:1005E0001803C4F202037A681A600C37BD465DF83E
:1005F000047B704780B483B000AF4FF48053C4F2E3
:1006000002031B687B607B6823F480237B607B682C
:1006100043F480337B604FF48053C4F202037A6862
:100620001A6045F6CC53C0F208033B600CE04FF46F
:100630008053C4F202031B6803F40033002B00D084
:1006400005E03B68013B3B603B68002BEFDC3B680F
:10065000002B00D193E04FF40053C4F202031B6857
:100660007B607B6823F007037B607B6843F01203A9
:100670007B604FF40053C4F202037A681A6041F2BF
:100680000403C4F202031B687B607B6823F0F00361
:100690007B6041F20403C4F202037A681A6041F2FB
:1006A0000403C4F202031B687B607B6823F460537D
:1006B0007B6041F20403C4F202037A681A6041F2DB
:1006C0000403C4F202031B687B607B6823F4E063CD
:1006D0007B607B6843F480637B6041F20403C4F277
:1006E00002037A681A6041F20403C4F202031B6831
:1006F0007B607B6823F47C137B607B6843F4E813A6
:100700007B6041F20403C4F202037A681A604FF47A
:100710008053C4F202031B687B607B6843F08073E4
:100720007B604FF48053C4F202037A681A6000BF02
:100730004FF48053C4F202031B6803F00073002BD4
:10074000F6D041F20403C4F202031B687B607B68AD
:1007500023F003037B607B6843F002037B6041F27C
:100760000403C4F202037A681A6000BF41F2040372
:10077000C4F202031B6803F00C03082BF6D10C37FC
:10078000BD465DF8047B704780B500AFFFF7CEFE35
:10079000FFF718FFFFF7E2FE80BD00BF80B500AF96
:1007A000FFF744FEFFF726FFFFF7EEFF80BD00BF17
:1007B00080B483B000AF00237B600423C4F2010344
:1007C0007A681A600C37BD465DF8047B704700BF3D
:1007D00080B500AFFFF7ECFF80BD00BF80B491B0E3
:1007E00000AF78607B6803F070031B09FB62FB6A53
:1007F000032B02D96FF01503C4E044F6D423C0F6EE
:100800000203FA6A53F82230BB627B6803F00F03DD
:100810007B627B6A072B04D8BB6AFB637B6A7B63C2
:1008200005E0BB6A0433FB637B6A083B7B637B6840
:1008300003F40043002B0CBF00230123DBB287F835
:100840002330EFF3108372B67B827B8A3B84FB6B91
:100850001B68FB6197F82330002B02D000233B6319
:1008600004E07B6803F4C053DB0A3B637B6803F45A
:10087000C0435B0B9B003A6B13433B637B6B9B005A
:100880000F2202FA03F3DB43FA691340FB617B6B2F
:100890009B003A6B02FA03F3FA691343FB61FB6BAB
:1008A000FA691A6097F82330002B14D17B6803F49F
:1008B000C043BB61BB69002B0CD0BB69B3F5005FC3
:1008C00008D03B8C3B823B8A13F0010F00D162B60B
:1008D000002357E035E07B6803F48063002B21D0D0
:1008E0007B6A03F00C020823C4F201031344BB63C8
:1008F000BB6B1B68FB617B6A03F003039B007B619E
:100900000F227B6902FA03F3DB43FA691340FB61B0
:10091000FA6A7B6902FA03F3FA691343FB61BB6B62
:10092000FA691A607B6803F4C043B3F5804F08D0BE
:100930003B8CFB81FB8913F0010F00D162B60023D1
:1009400020E07B6803F08003002B03D0BB6A1033E8
:10095000BB6302E0BB6A1433BB63BB6B1B68FB6108
:100960007B6A012202FA03F3FA691343FB61BB6B52
:10097000FA691A603B8CBB81BB8913F0010F00D16F
:1009800062B6002318464437BD465DF8047B7047C5
:1009900080B582B000AF78607B6803F07F037B6036
:1009A0007B6843F420437B607868FFF717FF0346BA
:1009B00018460837BD4680BD80B487B000AF786068
:1009C0000B46FB707B6803F070031B093B613B69BE
:1009D000032B1BD844F6D423C0F602033A6953F81C
:1009E0002230FB607B6803F00F03BB60FB78002BB9
:1009F00002D010237B6101E014237B61FA687B69DC
:100A00001344BA68012101FA02F21A601C37BD468C
:100A10005DF8047B704700BF80B487B000AF78609A
:100A20007B6803F070031B097B617B69032B19D87A
:100A300044F6D423C0F602037A6953F822303B61AE
:100A40007B6803F00F03FB603B6908331A68FB689F
:100A5000012101FA03F31340002B0CBF00230123F3
:100A6000DBB200E0002318461C37BD465DF8047B6E
:100A7000704700BF80B483B000AF0346FB7100BF76
:100A80004FF49043C4F200031B6803F08003002B73
:100A9000F6D044F60403C4F20003FA791A600C3766
:100AA000BD465DF8047B704780B582B000AF04237B
:100AB000C4F201031B687B607B6823F008037B6042
:100AC0007B6823F030037B600423C4F201037A685F
:100AD0001A6045F61A00FFF781FE4AF21B00FFF785
:100AE0007DFE44F61003C4F200031B683B603B68C4
:100AF00023F47D533B6044F61003C4F200033A68CC
:100B00001A6044F60C03C4F200031B683B603B68A8
:100B100023F4BB5323F01C033B6044F60C03C4F2E4
:100B200000033A681A6044F61403C4F200031B6819
:100B30003B603B6823F4E06323F001033B6044F631
:100B40001403C4F200033A681A6044F60803C4F2BE
:100B5000000340F239121A6044F60C03C4F2000399
:100B60001B683B603B6843F4005343F00C033B605D
:100B700044F60C03C4F200033A681A600837BD4615
:100B800080BD00BF80B483B000AF786039607B68FF
:100B90001A6C3B6813441B6818460C37BD465DF859
:100BA000047B704780B485B000AFF860B9607A60AC
:100BB000FB681A6CBB6813447A681A601437BD4628
:100BC0005DF8047B704700BF80B584B000AF7860EB
:100BD0000B467B807B687A889A8578680C21FFF7C2
:100BE000D1FFF860FB6823F4D073FB607B8803F4CB
:100BF000D073FA681343FB6078680C21FA68FFF73A
:100C0000D1FF78681421FFF7BDFFF860FB6823F07F
:100C10000103FB607B8803F00103FA681343FB6068
:100C200078681421FA68FFF7BDFF1037BD4680BD14
:100C300080B584B000AF786039603B68002B17D076
:100C400078680C21FFF79EFFF86078681421FFF7A1
:100C500099FFB860FB689BB203F4D0739AB2BB688B
:100C60009BB203F001039BB213439AB23B681A8014
:100C700078680021FFF7A8FF1037BD4680BD00BF90
:100C800080B588B000AF78607B689B6ABB61BB6948
:100C9000DA6BBB695B6B5B08B2FBF3F37B617B696F
:100CA0005B093B613B691B01FB603B695B017A6946
:100CB000D31A01335B08BB60FA68BB681343FB605F
:100CC000B8690821FA68FFF76DFFB8690C21FFF7D2
:100CD00059FFF861FB6923F4B053FB61BB6993F8DA
:100CE0003030012B04D1FB6943F4C063FB6108E0A1
:100CF000BB6993F83030022B03D1FB6943F4806366
:100D0000FB61BB6993F83130092B09D0BB6993F8BB
:100D10003130082B08D1BB6993F83030002B03D059
:100D2000FB6943F48053FB61B8690C21FA69FFF752
:100D300039FFB8691021FFF725FFF861FB6923F43B
:100D40004053FB61BB6993F83230002B03D0FB6941
:100D500043F40053FB61B8691021FA69FFF722FFE1
:100D6000B8691421FFF70EFFF861FB6923F44073A3
:100D7000FB61B8691421FA69FFF714FF2037BD46FB
:100D800080BD00BF80B586B000AF78600B46FB70B9
:100D90007B689B6AFB60FB681A6C4FF48843C4F263
:100DA00000039A4206D04FF49043C4F200039A42E3
:100DB00009D01FE04FF400337B6141F21C03C4F201
:100DC00002033B6108E04FF480237B6141F21C0386
:100DD000C4F202033B6100BFFB78002B05D03869E9
:100DE00000217A6900F0C4FA04E0386979690022C8
:100DF00000F0BEFA1837BD4680BD00BF80B584B094
:100E000000AF78607B689B6ABB6078680121FFF760
:100E1000B9FFBB685B6C1846FFF7E0FCBB689B6CD6
:100E20001846FFF7DBFCB8681021FFF7ABFEF8604F
:100E3000FB6823F47D53FB60BB6893F83230002BD2
:100E400003D0FB6843F40053FB60B8681021FA68D4
:100E5000FFF7A8FEB8680C21FFF794FEF860FB6866
:100E600023F4BE73FB60B8680C21FA68FFF79AFEA2
:100E7000B8681421FFF786FEF860FB6823F4E0638E
:100E800023F00103FB60B8681421FA68FFF78AFEBB
:100E90007868FFF7F5FEB8680C21FFF773FEF8607D
:100EA000FB6843F4005343F00C03FB60B8680C216B
:100EB000FA68FFF777FEBB6800229A850023184680
:100EC0001037BD4680BD00BF80B584B000AF7860EC
:100ED0007B689B6AFB60F8680021FFF7A9FE7868D1
:100EE0000021FFF74FFFF8680C21FFF74BFEB860B9
:100EF000BB6823F4005323F00C03BB60F8680C219B
:100F0000BA68FFF74FFEFB685B6C1846FFF740FDC1
:100F1000FB689B6C1846FFF73BFD1037BD4680BD54
:100F200080B584B000AF78607B689B6AFB60FB682B
:100F300093F838301A46FB68DB6C1046194601F00E
:100F400083FEB860BB68002B05D1FB6893F838308E
:100F5000184600F065FBBB6818461037BD4680BDDB
:100F600080B584B000AF78607B689B6AFB60FB68EB
:100F700093F83830184600F02DFBFB6893F83830B2
:100F80001846002101F060FE1037BD4680BD00BF4D
:100F900080B584B000AF78600123FB720023FB6052
:100FA0003BE00023FB7278680021FFF7EBFD03466E
:100FB0009AB27B68DA857B68DB8D03F02003002B17
:100FC0000CD07B689B8D03F02003002B06D07B6840
:100FD000184601F0E1FA0123FB7209E07B68DB8D22
:100FE00003F00E03002B03D078680421FFF7CAFD3D
:100FF0007B68DB8D03F08003002B0BD07B689B8D1F
:1010000003F08003002B05D07B68184601F06EFAD0
:101010000123FB72FB680133FB60FB68FF2B02DCE2
:10102000FB7A002BBDD1002318461037BD4680BD8A
:1010300080B487B000AFF860B9607A6000237B614C
:101040006FF018037B6100BF7B6918461C37BD46F3
:101050005DF8047B704700BF80B584B000AF786056
:1010600039607B689B6AFB60F8680421FFF78AFDA2
:10107000B860FB68DB8D1B041A46BB681A433B68EB
:101080001A60FB680022DA85BB68DBB218461037AD
:10109000BD4680BD80B586B000AF78600B46FB7062
:1010A0007B689B6A3B61EFF3108372B6BB81BB899F
:1010B000FB813B699B8DFB82FB78002B04D0FB8A74
:1010C00043F02003FB8205E0FB8A23F4907323F0B6
:1010D0000103FB82FB8A38691946FFF775FDFB891E
:1010E0007B817B8913F0010F00D162B61837BD46B2
:1010F00080BD00BF80B584B000AF78607B689B6A1C
:10110000FB60F8680021FFF73DFD034603F0200374
:10111000002B0CBF00230123DBB218461037BD465D
:1011200080BD00BF80B584B000AF786039607B6857
:101130009B6AFB603B68F86804211A46FFF732FDA2
:101140001037BD4680BD00BF80B586B000AF786067
:101150000B46FB707B689B6A7B61EFF3108372B672
:10116000FB81FB897B82FB78002B0DD07B699B8DFB
:1011700043F080033B823B8A78691946FFF724FDE0
:10118000786801F0B3F908E07B699B8D23F0800358
:101190009BB278691946FFF717FD7B8ABB81BB8933
:1011A00013F0010F00D162B61837BD4680BD00BFF5
:1011B00080B584B000AF78607B689B6AFB60F8689C
:1011C0000021FFF7DFFC034603F08003002B0CBF78
:1011D00000230123DBB218461037BD4680BD00BF97
:1011E00080B582B000AF7860396040F20000C2F292
:1011F0000000FFF7CDFE034618460837BD4680BD08
:1012000080B582B000AF7860396040F25000C2F221
:101210000000FFF7BDFE034618460837BD4680BDF7
:1012200080B582B000AF00237B6016E044F6143333
:10123000C0F602037A6853F82230002B0AD044F635
:101240001433C0F602037A6853F82230184600219E
:10125000FFF7EEFC7B6801337B607B68042BE5D9EC
:1012600040F25003C2F200031846FFF7C7FD0837EB
:10127000BD4680BD80B586B000AF00233B6140F223
:101280005003C2F2000344F62830C0F602001946AB
:1012900001F090F840F25003C2F2000344F63830F7
:1012A000C0F60200194601F085F801233B613B4678
:1012B000184644F64431C0F6020103F055FD002300
:1012C0007B612AE044F61433C0F602037A6953F8CE
:1012D0002230002B00D11DE044F61433C0F6020387
:1012E0007A6953F822301B79002B00D012E03B6959
:1012F0005A1C3A61DBB23033DBB27B7244F61433F2
:10130000C0F602037A6953F822303A46104619466D
:1013100001F050F87B6901337B617B69042BD1D9E3
:101320001837BD4680BD00BF80B584B000AF78607F
:1013300040F25003C2F20003FB6007F10A03F868B1
:101340001946FFF775FC7B680A2B02D10D20FFF7C9
:1013500091FB7B68DBB21846FFF78CFB7B89F86852
:101360001946FFF731FC7B6818461037BD4680BD33
:1013700080B489B000AFF860B9607A60EFF3108391
:1013800072B6FB82FB8AFB83FB681B68BB61BB6890
:10139000DB43BA691340BB61BA697B681343BB6125
:1013A000FB68BA691A60FB8BBB82BB8A13F0010F22
:1013B00000D162B62437BD465DF8047B704700BF9C
:1013C00080B584B000AF78603960042001F024FA61
:1013D00040F64423C2F200031B68FB6040F644233E
:1013E000C2F200033A681A60786800F03FF9786842
:1013F000396801F05BFC40F64423C2F200031B682D
:101400003B6040F64423C2F20003FA681A600420ED
:1014100001F014FA3B6818461037BD4680BD00BF86
:1014200080B485B000AFF860B9607A603B60FB685B
:101430000F2B3DDDFB682F2B0FDC3B6803F1604376
:1014400003F56143BA681360FB68103B012202FA9E
:1014500003F31A467B681A6058E0FB684F2B10DCD8
:101460003A684EF20413CEF200031344BA681360D4
:10147000FB68303B012202FA03F31A467B681A60CC
:1014800044E0FB684B2B10DC3A684EF20813CEF2B6
:1014900000031344BA681360FB68503B012202FA50
:1014A00003F31A467B681A6030E04FF0FF332EE0FA
:1014B000BA684EF62453CEF200031360FB68042B87
:1014C00004D17B684FF480321A601FE0FB68052B63
:1014D00004D17B684FF400321A6017E0FB68062BDA
:1014E00004D17B684FF480221A600FE0FB680F2B59
:1014F00009D1BA684EF21003CEF2000313607B6884
:1015000001221A6002E04FF0FF3300E0002318468A
:101510001437BD465DF8047B704700BF80B584B0CA
:1015200000AF4FF46143CEF2000300221A604EF286
:101530000413CEF2000300221A604EF61853CEF2C6
:1015400000034FF080321A604EF61C53CEF20003B7
:101550004FF080321A604EF62053CEF200034FF067
:1015600080321A604EF20403CEF200031B6801338E
:10157000DB00BB604FF46443CEF20003FB6006E087
:10158000FB684FF080321A60FB680433FB60BB6875
:101590005A1EBA60002BF3D140F64423C2F2000376
:1015A00000221A600B2041F2ED61C0F6000101F04B
:1015B0004BFB032041F28161C0F6000101F044FBC6
:1015C00000237B607B6883F3118862B61037BD46C9
:1015D00080BD00BF80B586B000AF786007F1100213
:1015E00007F10C03786811461A468023FFF718FFAD
:1015F0000346002B11D17B680F2B03DD3B69FA6892
:101600001A600AE03B691B687B61FB68DB437A690F
:1016100013407B613B697A691A601837BD4680BD0B
:1016200080B586B000AF786007F1100207F10C03B7
:10163000786811461A460023FFF7F2FE0346002B96
:1016400010D17B680F2B03DD3B69FA681A6009E053
:101650003B691B687B61FB687A6913437B613B696B
:101660007A691A601837BD4680BD00BF80B483B068
:1016700000AF78600C37BD465DF8047B704700BF53
:1016800080B586B000AF786039603B687B617B696C
:1016900040331B68023B3B613A6940F20003C0F6ED
:1016A00000039A4213D33A6947F29C33C0F602030F
:1016B0009A420CD23B691B88FB81FB89B3F55F4FD3
:1016C00005D17868396800F011F803460AE0EFF3B5
:1016D000108372B6BB8144F65030C0F60200B721C9
:1016E00000F036FA18461837BD4680BD80B584B084
:1016F00000AF786039603B68FB60FB689B6ABB6049
:10170000BB68012B0DD0012B02D3022B13D024E098
:10171000FB682C331B681846F968482203F082FBEB
:101720001BE0FB682C331B681A4640F64423C2F2C8
:1017300000031A6011E0FB682C331B681846F96837
:10174000482203F06FFBFB6830331B681A4640F6F3
:101750004423C2F200031A6000BF0023184610376A
:10176000BD4680BD80B483B000AF6B467B607B68B4
:1017700018460C37BD465DF8047B7047F0B58DB058
:1017800008AF786039607B6823F01F03FB6031E0AD
:10179000FB68BB60BB68D3F800E0BB6804331E681D
:1017A000BB6808331D68BB680C331C68BB6810330A
:1017B0001868BB6814331968BB6818331A68BB68AB
:1017C0001C331B68CDF800E0019602950394049049
:1017D000059106920793032044F66831C0F6020192
:1017E00044F6C442C0F60202FB6803F065FAFB68E7
:1017F0002033FB60FA683B689A42C9D31437BD4670
:10180000F0BD00BFF0B58BB008AF40F64423C2F284
:1018100000031B68002B00F0B98040F64423C2F29D
:1018200000031B6828331C6840F64423C2F20003FF
:101830001B682C33D3F800E040F64423C2F20003C7
:101840001B6830331E6840F64423C2F200031B6855
:1018500034331D6840F64423C2F200031B6808338A
:10186000186840F64423C2F200031B680C33196861
:1018700040F64423C2F200031B6810331A6840F696
:101880004423C2F200031B6814331B68CDF800E048
:10189000019602950390049105920693032044F665
:1018A0009C31C0F6020144F6E442C0F6020223462F
:1018B00003F002FA40F64423C2F200031B68183317
:1018C0001C6840F64423C2F200031B681C33D3F8A3
:1018D00000E040F64423C2F200031B6820331E6878
:1018E00040F64423C2F200031B6824331D6840F60F
:1018F0004423C2F200031B683833186840F64423BF
:10190000C2F200031B68196840F64423C2F20003C8
:101910001B683C331A6840F64423C2F200031B687C
:1019200040331B68CDF800E00196029503900491C6
:1019300005920693032044F6D031C0F6020144F626
:10194000E442C0F60202234603F0B6F940F644230F
:10195000C2F200031B6844331C6840F64423C2F201
:1019600000031B6804331A68EFF314837B607B6801
:1019700000920193032044F60441C0F6020144F6AC
:10198000E442C0F60202234603F096F90C37BD4646
:10199000F0BD00BF80B586B000AF40F65823C2F25C
:1019A00000031B68BB60FFF7DDFE7861BB689B89A5
:1019B000002B0AD144F6D023C0F602031B68043B77
:1019C0003B614FF49673FB6005E0BB681B6B3B61AA
:1019D000BB689B6AFB6040F28C33C2F200037B6001
:1019E0009C233B60032044F63041C0F6020144F6DC
:1019F000D442C0F602027B6903F05EF9032044F68C
:101A00004441C0F6020144F6D442C0F6020203F09B
:101A100053F9032044F65441C0F6020144F6D4427F
:101A2000C0F602027B6803F047F9032044F66841E0
:101A3000C0F6020144F6D442C0F602023B6803F04D
:101A40003BF97A697B689A4209D87A683B68D21A6E
:101A50007B699A4203D278697968FFF78FFE40F676
:101A60004423C2F200031B68002B12D040F644232B
:101A7000C2F200031B681B687B61032044F63041FF
:101A8000C0F6020144F6D442C0F602027B6903F0BC
:101A900013F9032044F67C41C0F6020144F6D44217
:101AA000C0F6020203F008F9032044F65441C0F6E0
:101AB000020144F6D442C0F602023B6903F0FCF88E
:101AC000032044F66841C0F6020144F6D442C0F651
:101AD0000202FB6803F0F0F87A693B699A4209D880
:101AE0003A69FB68D21A7B699A4203D278693969EC
:101AF000FFF744FEFFF786FE1837BD4680BD00BFE6
:101B000080B584B000AF786040F64423C2F2000391
:101B10001B68002B07D140F65823C2F200031B6854
:101B20009B89002B10D1EFF3108372B6FB81072045
:101B300000F072FEFA2000F02FF8072000F07EFE81
:101B4000FA2000F029F8F2E7786801F039FC00BFCC
:101B500080B586B002AF7860396040F65823C2F293
:101B600000031B68FB60062000F056FEFB68C033D4
:101B70003A6800920193032044F69041C0F60201B6
:101B800044F6F442C0F602027B6803F095F8FFF7D2
:101B900001FF0120FFF7B4FF80B485B000AF78608B
:101BA0000023FB600DE00023BB6002E0BB68013353
:101BB000BB60BA6841F26A539A42F7D9FB680133B5
:101BC000FB60FA687B689A42EDD31437BD465DF836
:101BD000047B704780B584B000AFF860B9607A606C
:101BE000F86801F023FCF868B9687A6803F03AF9FC
:101BF000034618461037BD4680BD00BF80B582B091
:101C000000AF78600B46FB7012E001F0EFFB03467B
:101C10001B68042B06D044F61850C0F60200882139
:101C2000FFF796FFFB78002B02D06FF0030306E06E
:101C3000786801F017FC0346002BE6D10023184614
:101C40000837BD4680BD00BF80B588B000AFF860E2
:101C5000B9601346FB71FB68DB899BB21BB2013391
:101C6000FB61FB685B8A1AB2FB699A4201DC0023C4
:101C7000FB61FB681B8A9BB21AB2FB699A420FD0C8
:101C8000FB685A69FB68DB899BB21BB21344BA68D4
:101C9000D2B21A70FB699AB2FB68DA81002340E085
:101CA000FB79002B39D0EFF3108372B6BB82BB8A6D
:101CB000FB82FB68DB78DBB2002B03D06FF06A039A
:101CC000BB6115E0FB6801225A70FB685B6A5B6AC6
:101CD000F86801219847FB68083318460121FFF78F
:101CE0008DFFB861FB685B6A5B6AF8680021984702
:101CF000FB8A7B827B8A13F0010F00D162B6FB68FE
:101D0000DB78DBB2002B02D06FF06A0309E0BB691D
:101D1000002B05DA6FF0030303E06FF00A0300E025
:101D2000A7E718462037BD4680BD00BF80B586B006
:101D300000AFF860B9607A607B687B6110E0BB68D7
:101D40005A1CBA601B783B613B690A2B02D10D20FB
:101D5000FFF7EAFA3869FFF7E7FA7B68013B7B6037
:101D60007B68002BEBD17B6918461837BD4680BDD8
:101D700080B58AB000AFF860B9607A60FB689B6894
:101D8000FB61FB691B69BB617B687B6204F004FD3E
:101D90000346002B04D101F0FBFA0346002B23D1AC
:101DA000BB69DB78DBB2002B02D06FF06A0390E0F6
:101DB000BB691B79002B14D0EFF3108372B67B82C2
:101DC0007B8ABB82B869B9687A68FFF7AFFF38626F
:101DD000BB8A3B823B8A13F0010F00D162B63B6A9B
:101DE00077E04FF0FF3374E0BB690C3318460121F4
:101DF000FFF704FF38623B6A002B01DA3B6A68E0B8
:101E0000BB69DB78DBB2002B07D0BB690C3318460B
:101E100001F08EFB6FF06A035BE0FB681B6803F068
:101E20004003002B14BF00230123DBB2FB75BB6909
:101E30005B6A5B6AB8690021984731E0BB685A1C4D
:101E4000BA601B78BB7500233B62BB691B79002B12
:101E500009D0BB7D0A2B06D1FB7DB8690D211A463E
:101E6000FFF7F2FE38623B6A002B07D1BA7DFB7D9B
:101E7000B86911461A46FFF7E7FE38623B6A002B45
:101E80000BDA7A6A7B689A4204D97A6A7B68D31A39
:101E90007B6208E03B6A7B6205E07B68013B7B601C
:101EA0007B68002BCAD1BB69DB899AB2BB691B8AEC
:101EB0009BB212B21BB29A4205D0BB695B6A5B6AE5
:101EC000B86901219847BB690C33184601F030FB13
:101ED0007B6A18462837BD4680BD00BF80B58CB0F0
:101EE00000AFF860B9607A60FB689B683B623B6A50
:101EF0001B69FB61FB691833BB610023FB62BB6993
:101F000018460121FFF77AFE78627B6A002B01DA1E
:101F10007B6AA4E098E0FB69DB78DBB2002B07D09A
:101F2000FB6A002B03D16FF06A03FB6291E090E043
:101F3000BB699B887B85BB695B889BB2B7F92A200C
:101F40001BB29A421ED0BB699A68B7F92A30134473
:101F50001B78FB757B8D01337B85BB69DB88B7F90B
:101F60002A201BB29A4201DB00237B85BB697A8D54
:101F70009A80BB685A1CBA60FA7D1A70FB6A0133FA
:101F8000FB6261E0FB6A002B00DD62E0FB681B681E
:101F900003F04003002B03D06FF00A03FB6258E00C
:101FA000FB695B6A9B69F86900219847BB695B889C
:101FB0009AB2BB699B889BB212B21BB29A423DD1C6
:101FC000EFF3108372B67B827B8ABB82FB695B6A0C
:101FD0009B69F86901219847FB69DB78DBB2002B2C
:101FE00003D06FF06A037B6209E0FB6901229A70FB
:101FF000FB690A3318460121FFF700FE7862BB8AAD
:102000003B823B8A13F0010F00D162B67B6A002B42
:1020100004DBFB69DB78DBB2002B15D0FB6A002BFD
:102020000BD1FB69DB78DBB2002B02D06FF06A03C7
:1020300001E06FF00303FB620BE00AE0FB695B6AFF
:102040009B69F86901219847FA6A7B689A42FFF414
:1020500062AFFB691833184601F06AFAFB6A18464A
:102060003037BD4680BD00BF80B58CB000AFF86092
:10207000B9607A60FB689B683B623B6A1B69FB61E5
:10208000FB695B6A1B69F868B9687A689847F86207
:10209000FB6A13F1190F77D1BB6840F20532934206
:1020A00004D040F20632934236D06DE0EFF3108355
:1020B00072B6FB82FB8A7B83FB699B8B9AB2FB69BE
:1020C0005B8B9BB212B21BB29A420ADCFB695B8B40
:1020D0009BB21AB2FB699B8B9BB21BB2D31ABB6239
:1020E0000DE0FB69DB8B1AB2FB695B8B9BB219B20B
:1020F000FB699B8B9BB21BB2CB1A1344BB627B8BDD
:10210000BB82BB8A13F0010F00D162B67B68BA6A4A
:102110001A600023FB6237E0EFF3108372B67B8214
:102120007B8A3B83FB69DB899AB2FB691B8A9BB282
:1021300012B21BB29A420BDAFB691B8A9BB21AB22B
:10214000FB69DB899BB21BB2D31A013B7B620EE0B9
:10215000FB695B8A1AB2FB691B8A9BB219B2FB69E5
:10216000DB899BB21BB2CB1A1344013B7B623B8BD6
:102170003B823B8A13F0010F00D162B67B687A6A1A
:102180001A600023FB6200BFFB6A18463037BD4669
:1021900080BD00BF80B586B000AF78607B689B686B
:1021A0007B617B691B693B613B69063318460021F3
:1021B000FFF724FD3B691B78012B0CD93B691B7889
:1021C000013BDAB23B691A703B690633184601F0ED
:1021D000AFF9002365E03B6900221A703B695B6A36
:1021E0009B6938690021984705E04AF22010C0F247
:1021F000070002F0FDFC3B69DB899AB23B691B8A50
:102200009BB212B21BB29A42EFD105E04AF2201003
:10221000C0F2070002F0ECFC3B695B6ADB6A3869DC
:1022200098470346002BF1D0EFF3108372B6BB81C1
:10223000BB89FB813B695B6ADB68386998473B690E
:102240001B79002B04D13B695B6A5B68386998474E
:10225000FB897B817B8913F0010F00D162B63B695A
:102260000833184600210022FFF7B4FC3B690A330B
:10227000184600210022FFF7ADFC3B690C331846DD
:1022800000210122FFF7A6FC3B6918331846002104
:102290000122FFF79FFC3B690633184601F048F91D
:1022A000002318461837BD4680BD00BF80B588B0F2
:1022B00000AF78607B689B68BB61BB691B697B6111
:1022C0007B69063318460121FFF798FCF861FB692A
:1022D000002B01DAFB6969E07B69DB78DBB2002B5C
:1022E00003D06FF06A03FB615AE07B691B7801330E
:1022F000FB74FB7C002B03D16FF01703FB614FE0F5
:10230000FB7C012B49D1EFF3108372B6FB81FB8973
:102310003B827B691B79002B10D17B695B6A1B6850
:1023200078699847F861FB69002B07DA3B8ABB8123
:10233000BB8913F0010F00D162B631E07B695B6AA3
:102340009B6878699847F861FB69002B0CDA7B6918
:102350005B6A5B68786998473B8A7B817B8913F06D
:10236000010F00D162B61BE07B690022DA817B6934
:1023700000221A827B6900225A837B6900229A8399
:102380007B695B6A9B697869012198473B8A3B813D
:102390003B8913F0010F00D162B67B69FA7C1A7099
:1023A0007B690633184601F0C3F8FB6918462037ED
:1023B000BD4680BD80B582B000AF786039603B68B3
:1023C0000C3318460021012202F04CFD3B68183303
:1023D00018460021012202F045FD3B6806331846ED
:1023E0000021012202F03EFD3B680833184600211F
:1023F000002202F037FD3B680A3318460021002214
:1024000002F030FD786844F60051C0F602014FF446
:10241000DB723B680EF0ACF9034618460837BD4640
:1024200080BD00BF80B582B000AF78607B689B78CC
:10243000DBB2002B07D07B6800229A707B680A33DE
:10244000184601F075F80837BD4680BD80B582B0EA
:1024500000AF78607B685B78DBB2002B07D07B68CD
:1024600000225A707B680833184601F061F808377B
:10247000BD4680BD80B584B000AF78600B46FB7070
:10248000EFF3108372B6BB81BB89FB81FB78002B15
:1024900014BF00230123DBB21A467B68DA70FB7895
:1024A000002B19D17B685B78DBB2002B07D07B68EF
:1024B00000225A707B680833184601F039F87B68AF
:1024C0009B78DBB2002B07D07B6800229A707B6878
:1024D0000A33184601F02CF8FB897B817B8913F0C5
:1024E000010F00D162B61037BD4680BD80B584B003
:1024F00000AF78600023FB8122E07B685B6A1B6A87
:102500007A6851697A68128A92B212B20A441278D1
:10251000786811469847FB890133FB817B681B8AE9
:102520009BB201339BB29BB27A68194611827A68DA
:10253000518A1AB20BB29A4202DB7B6800221A82DD
:102540007B68DB899AB27B681B8A9BB212B21BB292
:102550009A4207D07B685B6A9B6A78689847034613
:10256000002BCAD17B68DB899AB27B681B8A9BB23D
:1025700012B21BB29A4205D17B685B6A5B6A7868CB
:1025800000219847FB89002B02D07868FFF75EFF97
:102590001037BD4680BD00BF80B588B000AF786001
:1025A0007B6818337B617B695B889BB21BB201330C
:1025B000FB6100237B837B69DB881AB2FB699A424B
:1025C00002DC0023FB6133E032E07B699B889BB235
:1025D0001AB2FB699A4214BF00230123DBB2FB74D9
:1025E0007B685B6A5B6907F10C0278681146984763
:1025F0000346BB74FB7C002B1AD17B699A687B690C
:102600005B889BB21BB21344BA7C1A707B8B01337C
:102610007B83FB699AB27B695A80FB690133FB615A
:102620007B69DB881BB2FA699A4201DB0023FB61FC
:102630007B685B6ADB69786898470346002BC4D1E6
:102640007B8B002B02D07868FFF7ECFE2037BD466D
:1026500080BD00BF80B500AF00F0CAF800F002F9FD
:1026600000F00AF800F02EF980BD00BF80B400AF82
:10267000BD465DF8047B704780B500AF41F69C0015
:10268000FEF7ACF841F61800FEF7A8F84CF29B40B4
:10269000FEF7A4F841F69900FEF7A0F880BD00BF50
:1026A00080B584B000AFF860B9601346FB71BB68B9
:1026B000022B0BD1FB79002B14BF00230123DBB2CB
:1026C00041F699001946FEF777F90DE0BB68062B35
:1026D0000AD1FB79002B14BF00230123DBB241F6A2
:1026E0009C001946FEF768F91037BD4680BD00BF53
:1026F00080B483B000AF78603960002318460C378F
:10270000BD465DF8047B704780B582B000AF78604D
:102710007B6803F00403002B04D041F688000021FD
:10272000FEF74AF97B6803F00803002B04D041F65A
:102730008A000021FEF740F97B6803F00203002BBA
:1027400004D041F609000021FEF736F97B6803F05A
:102750000103002B04D041F60D000121FEF72CF9F6
:102760000837BD4680BD00BF80B582B000AF78603D
:102770007B6803F00403002B04D041F6880001219C
:10278000FEF71AF97B6803F00803002B04D041F62A
:102790008A000121FEF710F97B6803F00203002B89
:1027A00004D041F609000121FEF706F97B6803F029
:1027B0000103002B04D041F60D000021FEF7FCF8C8
:1027C0000837BD4680BD00BF80B582B000AF7860DD
:1027D0007B681B0903F00F031846FFF7C5FF7B68F2
:1027E00003F00F031846FFF78FFF0837BD4680BD83
:1027F00080B500AF41F60D00FDF7F0FF41F688000F
:10280000FDF7ECFF41F60900FDF7E8FF41F68A000D
:10281000FDF7E4FF80BD00BF80B582B000AF7860F7
:1028200044F62853C0F602037A6833F81230DBB25C
:102830001846FFF7C9FF0837BD4680BD80B582B096
:1028400000AF786044F62853C0F602037A6833F884
:1028500012301B0A9BB2DBB21846FFF7B5FF0837F0
:10286000BD4680BD80B500AF4CF29240FDF7B6FF8B
:1028700080BD00BF80B500AF4CF29240FEF7CCF8AF
:102880000346002B14BF00230123DBB2184680BD92
:1028900080B586B002AF786039600023FB607B684A
:1028A000002B09D13B6800934CF292400121012298
:1028B000012303F047FDF860FB6818461037BD465A
:1028C00080BD00BF80B500AF41F69A00FDF786FFDE
:1028D00080BD00BF80B582B000AF78600B46FB7052
:1028E000FB789BB240F20620194614F07FFCFB787F
:1028F000002B14BF00230123DBB241F69A001946D6
:10290000FEF75AF8002318460837BD4680BD00BFC1
:1029100080B483B000AF78600B46FB700C37BD46C7
:102920005DF8047B704700BF80B584B000AF40F60F
:102930005823C2F2000300221A6040F65823C2F264
:10294000000300225A6040F6D823C2F2000300229E
:102950001A6040F6D823C2F2000300225A6040F603
:102960005023C2F2000300221A6040F65023C2F244
:10297000000300225A6040F67023C2F200030022D6
:102980001A6040F67023C2F2000300225A6040F63B
:102990006023C2F2000300221A6040F66023C2F2F4
:1029A000000300225A6040F64823C2F200030022CE
:1029B0001A6040F64823C2F2000300225A6040F633
:1029C0006823C2F2000300221A6040F66823C2F2B4
:1029D000000300225A6040F6E423C2F20003002202
:1029E0001A6040F6E423C2F2000300225A6040F667
:1029F000E023C2F2000300221A800023FB6014E0EF
:102A000040F67823C2F20003FA68002143F832103E
:102A100040F67822C2F20002FB68DB0013444FF656
:102A2000FF729A80FB680133FB60FB680B2BE7DDCC
:102A300040F67823C2F2000340F2D052C2F2000204
:102A40001A6040F67823C2F2000300229A8040F216
:102A5000D050C2F200000021D02202F069F940F209
:102A6000D053C2F2000303225A7640F2D053C2F28E
:102A7000000342F62912C0F600025A6140F2D05318
:102A8000C2F2000302225A83554844F68051C0F630
:102A90000201072202F09AF940F2D053C2F2000379
:102AA000002283F8C72040F2A063C2F200034C4A20
:102AB0001A6040F2A063C2F2000300225A6040F2A2
:102AC000D053C2F2000340F2A062C2F20002C3F887
:102AD000CC2040F2D050C2F2000040F65821C2F2A1
:102AE000000102F0DDFA40F2D050C2F2000003F023
:102AF00035FE07F108023B1D1046194603F0F2FAB5
:102B0000BA687B681046194602F0D4FF43F65D535D
:102B1000C0F60003002B01D001F020F944F6E523B4
:102B2000C0F60003002B01D001F0DCFF4EF6794324
:102B3000C0F60103002B01D01CF09EF840F2000308
:102B4000C0F20003002B01D0AFF3008044F2013348
:102B5000C0F60003002B01D001F0D2FB4FF2D56389
:102B6000C0F60103002B01D01CF0B4FD4EF20D6342
:102B7000C0F60103002B01D01BF048FD0CF0D6FD80
:102B800003F0CEFD40F2D053C2F200035B8BDBB208
:102B900040F2D050C2F20000194600F0BDF840F2F9
:102BA000D050C2F2000000F0F7F840F2D050C2F26C
:102BB000000000F0DFF840F2D053C2F200039B683F
:102BC00001221A7000F038F802F084FF0346002B4F
:102BD00003D100F039F902F089FF03F0B7FCF3E705
:102BE0009006002080B584B002AFFFF73FFD0023C0
:102BF000009344F68C50C0F6020064214FF45C72DE
:102C000049F2ED13C0F6000300F0AAF978607B6882
:102C1000002B07DC44F69450C0F6020040F21D1170
:102C2000FEF796FF0837BD4680BD00BF80B500AFF8
:102C3000FFF7D8FF80BD00BF80B500AFFFF7F6FFFC
:102C40000023184680BD00BF80B586B000AF786015
:102C500039604FF0FF337B617B684B2B21D8EFF35A
:102C6000108372B63B823B8A7B823B68002B07D184
:102C70007868FEF7AFFC42F6F943C0F600033B600C
:102C800040F6EC23C2F200037A68396843F8221058
:102C90007B8AFB81FB8913F0010F00D162B6002310
:102CA0007B617B6918461837BD4680BD80B584B00E
:102CB00000AF786039607B684B2B08D840F6EC2376
:102CC000C2F200037A6853F82230002B05D142F695
:102CD000F943C0F60003FB6007E040F6EC23C2F2C4
:102CE00000037A6853F82230FB60FB687868396823
:102CF00098471037BD4680BD80B584B000AF78607E
:102D00003960EFF3108372B6FB8144F6A850C0F629
:102D100002005521FEF71CFF80B584B000AF78603B
:102D20000B46FB70BC2002F009FFF860FB68002B2B
:102D300002D16FF00B0319E07B68FA689A60F868BB
:102D400000F0CEFFB860BB68002B07DAF86802F02D
:102D5000D7FE7B6800229A60BB6807E0FB680233FD
:102D600018460021012202F07DF800231846103792
:102D7000BD4680BD80B485B000AF78607B689B683D
:102D8000FB60FB6801225A70002318461437BD46C9
:102D90005DF8047B704700BF80B584B000AF7860F9
:102DA0007B689B68FB60FB68203318460CF012FDC3
:102DB00044F6C050C0F6020003210DF0F3F8B860ED
:102DC000BB68002B0CD1002001210DF025F800205C
:102DD00002210DF021F8786800F0DCFF034607E0DF
:102DE000BB68002B02DDB8680CF0F4FF6FF016032F
:102DF00018461037BD4680BD80B584B000AF19E0DD
:102E0000EFF3108372B6FB80FB88FB8140F6E42071
:102E1000C2F2000002F0FAF8B860FB89BB80BB8800
:102E200013F0010F00D162B6BB68002B02D0B86866
:102E300002F066FE40F6E423C2F200031B68002B9A
:102E4000DED11037BD4680BD80B500AFFFF7D4FF9F
:102E500080BD00BF80B58AB002AFF8607A603B6089
:102E60000B46FB72D02002F069FEB861BB69002BF3
:102E700002D10C23FB6168E0FB7AB8691946FFF7C1
:102E80004BFF78617B69002B03DA7B695B42FB6156
:102E900056E0B86900F0CEFF78617B69002B03DA59
:102EA0007B695B42FB614BE03A68FB7AB86911468B
:102EB0001A4603F0D9FB78617B69002B03DA7B6942
:102EC0005B42FB613CE0FB7A0093B869796843F2AE
:102ED0003932C0F60002BB6A00F0CEF978617B6936
:102EE000002B03DA7B695B42FB6129E0B869F96872
:102EF000FA6A00F0F3F9B869FFF73CFF78617B6983
:102F0000002B03DA7B695B42FB6119E0BB699B899B
:102F10007B82B86900F0F6F978617B69002B0CDAE6
:102F200000F064FA03461B68FB61B86940F668214B
:102F3000C2F2000102F0D8F802E0B7F912300BE05B
:102F4000FB7AB869194601F005F800F04FFA03461C
:102F5000FA691A604FF0FF3318462037BD4680BD2E
:102F600080B586B002AFF860B9607A603B603B68BC
:102F70000093BB690193F8680021BA687B68FFF78A
:102F800069FF034618461037BD4680BD80B586B040
:102F900002AFF860B9607A603B603B680093BB6940
:102FA0000193F8680221BA687B68FFF753FF034674
:102FB00018461037BD4680BD80B586B000AF78603A
:102FC00000F0FEFF00233B6144E040F6E023C2F244
:102FD00000031B889BB201339BB29AB240F6E023F8
:102FE000C2F20003114619801346FB82B7F916306E
:102FF000002B07DC40F6E023C2F2000301221A8016
:103000000123FB82FB8A03F00B03FB6040F678236D
:10301000C2F20003FA6853F83230002B17D140F6A1
:103020007823C2F20003FA68796843F8321040F658
:103030007822C2F20002FB68DB001344FA8A9A800D
:103040007B68FA8A9A8100F0E5FF002309E03B697A
:1030500001333B613B690B2BB7DD00F0DBFF4FF029
:10306000FF3318461837BD4680BD00BF80B586B017
:1030700000AFF860B9607A603B60F868FFF79CFFCA
:1030800078617B69002B3AD1BB68DAB2FB681A76AB
:10309000FB687A681A613A68FB685A6197F82030D1
:1030A00003F0030387F82030FB685B8B23F00303F6
:1030B0009AB2FB685A83FB685A8B97F820309BB210
:1030C00013439AB2FB685A83FB683833032000210C
:1030D0001A4600F083FAFB6800225A76F86803F07B
:1030E0003DFB00F06DFFF86840F66821C2F2000178
:1030F00001F0D6FFFB6804225A7600F08BFF7B6953
:1031000018461837BD4680BD80B582B000AF7860E4
:1031100039603B68002B04D144F6D053C0F602035B
:103120003B607B68C03318463968072201F04EFEC9
:103130007B68002283F8C7200837BD4680BD00BFEA
:1031400080B58AB000AF786039607B68C0337B613E
:10315000786901F023FE034601333B620023FB61E3
:103160003B68002B26D01EE0FB699B003A681344A5
:103170001B68184601F012FE02463B6A13440133F5
:103180003B627B689A6A3B6A9A4202D86FF02303DB
:103190006DE0FB690133FB61FB69B3F5807F02DD04
:1031A0006FF0060363E0FB699B003A6813441B68F9
:1031B000002BD9D1FB6902339B003B617A683969E6
:1031C0003B6A0B441046194603F030FCF860FB687C
:1031D000002B02D16FF00B0349E0FA683B691344FE
:1031E0007B62FB687A6A1A60786901F0D7FD034652
:1031F0000133BB60786A796901F0B6FDBB687A6A11
:1032000013447B620023BB6121E0BB6901339B0057
:10321000FA6813447A6A1A60BB699B003A681344DF
:103220001B68184601F0BAFD03460133BB60BB6959
:103230009B003A6813441B68786A194601F094FDB4
:10324000BB687A6A13447B62BB690133BB61BA69AC
:10325000FB699A42D9DBFB6901339B00FA6813448E
:1032600000221A607B68FA68C3F8CC200023184655
:103270002837BD4680BD00BF80B588B002AFF8607A
:10328000B9607A603B6097F820300093F868B968BD
:103290007A683B68FFF7EAFE78617B69002B04D10E
:1032A000BB68DAB2FB6883F8C8207B691846183718
:1032B000BD4680BD80B586B002AFF860B9607A6067
:1032C0003B6001230093F868B9687A683B68FFF7B0
:1032D000CDFE034618461037BD4680BD80B584B08C
:1032E00000AFF860B9607A60F868B968FFF70CFF62
:1032F000F8687968FFF724FF034618461037BD4683
:1033000080BD00BF80B584B000AF7860EFF310835C
:1033100072B6BB81BB89FB81786803F0B9FBFB897E
:103320007B817B8913F0010F00D162B60023184620
:103330001037BD4680BD00BF80B584B000AF40F6F9
:103340005823C2F200031B68BB600123FB6009E045
:10335000FB680133FB60FB68B3F5807F02DD012071
:1033600000F02EF8BB68D3F8CC20FB689B00134418
:103370001B68002BECD1BB685B69BA68D2F8CC2023
:10338000F868114698477860786800F019F800BF2F
:1033900080B483B000AF40F65823C2F200031B682C
:1033A0007B607B68002B02D07B689B8900E0002358
:1033B0001BB218460C37BD465DF8047B704700BF52
:1033C00080B584B000AF786040F65823C2F20003A5
:1033D0001B68FB607B68DBB27B60F8687968002261
:1033E00000F084FE786803F085F900BF80B582B0F4
:1033F00000AF03F0D1F90346002B0FD140F658235C
:10340000C2F200031B687B607B68002B06D07B68E0
:103410005B7E032B02D17B68643303E040F2A86338
:10342000C2F2000318460837BD4680BD80B582B0A1
:1034300000AF78607B68002B09D07B681B881BB2CB
:10344000002B02DB7B6801221A80002306E0FFF7D5
:10345000CDFF034616221A604FF0FF331846083797
:10346000BD4680BD80B586B000AF786040F6582379
:10347000C2F200031B683B614FF0FF337B61FFF733
:10348000B5FF034616221A607B68002B4AD0EFF383
:10349000108372B6BB81BB89FB817B681B881BB222
:1034A000002B0CDD7B681B889BB2013B9AB27B68CA
:1034B0001A803B6900225A6300237B612BE03B6941
:1034C0005B6B002B06D044F6DC50C0F602008E2168
:1034D000FEF73EFB7B681B889BB2013B9AB27B6880
:1034E0001A803B697A685A63FFF780FF034600221F
:1034F0001A603869052103F02FF8FFF777FF0346BC
:103500001B68042B07D0FFF771FF03461B686E2B67
:1035100001D000237B61FB897B817B8913F0010F44
:1035200000D162B67B6918461837BD4680BD00BF22
:1035300080B586B000AF786000237B614FF0FF3329
:103540003B617B68002B43D0EFF3108372B6BB81E5
:10355000BB89FB817B681B881AB247F6FF739A42CE
:1035600006D144F6F450C0F602007821FEF7F0FAD6
:103570007B681B889BB201339AB27B681A807B6898
:103580001B881BB2002B1ADC40F65023C2F200034A
:103590001B687B6102E07B691B687B617B69002B98
:1035A00004D07B695A6B7B689A42F4D17B69002B0B
:1035B00005D07B6900225A63786903F069FA002319
:1035C0003B61FB897B817B8913F0010F00D162B6DF
:1035D0003B6918461837BD4680BD00BF80B58AB02C
:1035E00000AFF860B9607A6040F65823C2F2000379
:1035F0001B683B6200237B6200F0E2FC3B6A9B6B32
:10360000FB617B68002B02D07B68FA691A60BB689B
:10361000002B2FD0EFF3108372B63B833B8B7B8361
:10362000FB68022B0BD0032B12D0012B15D13B6A68
:103630009A6BBB681B681A433B6A9A6311E03B6A4A
:103640009A6BBB681B68DB431A403B6A9A6308E0CD
:10365000BB681A683B6A9A6303E04FF0FF337B62F2
:1036600000BF7B8BFB82FB8A13F0010F00D162B697
:1036700000F008F800F0CEFC7B6A18462837BD46FB
:1036800080BD00BF90B585B000AF40F65823C2F2B0
:1036900000031B68FB6000F093FCFB689B6BDC4342
:1036A000F86800F0EFFE034623403B601EE03B4617
:1036B000184600F0A3F8B860BB68B3F1FF3F15D01F
:1036C0003B461846B96801F009FCF868B96800F093
:1036D00015F878607B68002B08D07B680433F868A5
:1036E000194600F0A1F9786800F048F83B68002B13
:1036F000DDD100F08FFC1437BD4690BD80B588B099
:1037000000AF786039607B689B687B61EFF3108362
:1037100072B63B823B8A7B820023BB617B691B695B
:10372000FB6104E0FB69BB61FB691B68FB61FB6932
:10373000002B05D0FB691B791A463B689A42F1D1F0
:10374000FB69002B0ED0BB69002B06D07B691033C0
:10375000B869194601F07AFC04E07B691033184619
:1037600001F054FC7B8AFB81FB8913F0010F00D12F
:1037700062B6FB6918462037BD4680BD80B586B06D
:1037800000AF78607B681B7B002B14D1EFF31083B4
:1037900072B6BB82BB8AFB82786840F64041C2F2B7
:1037A000000101F0DBFBFB8A7B827B8A13F0010FB7
:1037B00000D162B61FE07B681B7B022B14D1EFF3B4
:1037C000108372B63B823B8AFB82786840F63841B0
:1037D000C2F2000101F0C2FBFB8AFB81FB8913F0FE
:1037E000010F00D162B606E07B681B7B012B02D182
:1037F000786800F037FB1837BD4680BD80B584B0CF
:1038000000AF78600023FB600BE07868F96801F096
:1038100085FB0346002B01D0FB6807E0FB68013302
:10382000FB60FB681F2BF0DD4FF0FF3318461037AD
:10383000BD4680BD80B588B000AF78603960002398
:10384000FB6100F0BDFB3B681B787868194600F00F
:1038500047FEB861BB69002B2FD0BB695B68002BAA
:103860002BD000F061FE78617B69002B03D16FF0F3
:103870000B03FB6121E0BB695A687B695A60BB6935
:103880009A687B699A607B690C331846396808220C
:1038900001F0C8FAEFF3108372B63B823B8A7B8259
:1038A0007B6848337869194601F058FB7B8AFB81B5
:1038B000FB8913F0010F00D162B600F0ABFBFB698E
:1038C00018462037BD4680BD80B584B000AF02F0F9
:1038D00063FF0346002B11D040F64040C2F20000C7
:1038E00001F094FBF860FB68002B2BD140F63840C8
:1038F000C2F2000001F08AFBF86023E0EFF31083CE
:1039000072B63B813B897B8140F64040C2F20000A9
:1039100001F07CFBF8607B89FB80FB8813F0010FD2
:1039200000D162B6FB68002B0CD1FB68002B03D1E1
:10393000102002F0F3F8F860FB68002B02D0FB685F
:1039400001221A73FB6818461037BD4680BD00BFC0
:1039500080B487B000AF7860396000237B61EFF3FB
:10396000108372B63B823B8A7B827B681B697B61DA
:1039700002E07B691B687B617B69002B05D07B695A
:103980001B791A463B689A42F3D17B8AFB81FB89FB
:1039900013F0010F00D162B67B6918461C37BD4693
:1039A0005DF8047B704700BF80B586B000AF7860DB
:1039B00039607B689B683B613B681B7838691946B6
:1039C000FFF7C6FF78617B69002B07D07B69043362
:1039D00018463968082201F025FA1FE0FFF774FF46
:1039E00078617B69002B19D07B69043318463968EC
:1039F000082201F017FAEFF3108372B6BB81BB897E
:103A0000FB813B6910337869194601F0A7FAFB89FD
:103A10007B817B8913F0010F00D162B67B69184668
:103A20001837BD4680BD00BF80B586B000AF786056
:103A3000396000237B617B6803F138023B681B78A7
:103A40001046194601F06AFA0346002B41D0EFF305
:103A5000108372B63B823B8A7B827B685B7E062B3F
:103A600021D17B6803F13C023B681B781046194664
:103A700001F054FA0346002B15D07B6858331846E2
:103A80003968082201F0CEF97B680022DA63786891
:103A900002F0FEFF7B8AFB81FB8913F0010F00D14E
:103AA00062B600BF53E07B8ABB81BB8913F0010F74
:103AB00000D162B678683968FFF776FF0346002BBD
:103AC00045D144F60C60C0F602004FF4B071FEF729
:103AD0003FF878683968FFF7ADFE7861786843F69B
:103AE0009131C0F6000102F0C3FEEFF3108372B60D
:103AF0007B817B897B827B685B7E062B0CD17B681C
:103B0000583318463968082201F08CF97B68002286
:103B1000DA63786802F0BCFF7B8A3B813B8913F053
:103B2000010F00D162B67B685B7E052B03D17868FC
:103B3000042100F061FB7B685B7E072B03D07B6870
:103B40005B7E082B03D17868042100F08DF87B6937
:103B500018461837BD4680BD80B584B000AF034617
:103B60003960FB80B7F90630184600F0A7F9F86015
:103B7000FB68002B02D16FF0020304E0F86839689B
:103B8000FFF752FF034618461037BD4680BD00BF01
:103B900080B58AB000AF786000F012FA7B685B6E87
:103BA0003B627B689B6C7B6252E07B6A1B68FB61BB
:103BB000EFF3108372B67B827B8A7B837B6848330A
:103BC000786A194601F0EAF97B685033786A194639
:103BD00001F0C4F97B8B3B823B8A13F0010F00D1CB
:103BE00062B67B689B6B7B617B6A9A687B691A43D0
:103BF0007B6A1B7B012101FA03F31A437B689A63FA
:103C00007B6A5B687A6A127B11467A6A0C320846D4
:103C10001146002298477B687A699A63FFF732FD64
:103C2000EFF3108372B6FB81FB897B837B68503393
:103C3000786A194601F0B2F97B8BBB81BB8913F01E
:103C4000010F00D162B6786A00F0B2FCFB697B62BA
:103C50007B6A002BA9D17B683A6A5A6600F0DAF9D0
:103C60002837BD4680BD00BF80B586B000AF786004
:103C70003960EFF3108372B6FB81FB89FB827B68AE
:103C80005B7E072B03D07B685B7E082B1ED17B6895
:103C90001B6E3B617B6800221A667B685B7E072B8C
:103CA00007D13B695B8A9BB2013B9AB23B695A825E
:103CB00006E03B691B8A9BB2013B9AB23B691A82C0
:103CC0007B683A685A66786802F0E2FEFB8ABB813C
:103CD000BB8913F0010F00D162B61837BD4680BD15
:103CE00080B586B000AF786040F65823C2F200037A
:103CF0001B683B610023FB6000237B6100F060F9DF
:103D00003B699B68002B21D03B699B68DB69002BDA
:103D10001CD03B699B689B69BB60B86801F0FEFEE4
:103D2000F860FB68002B03D16FF00B037B610DE0A3
:103D30007B68BA689A617B68FA68DA613B699B685C
:103D4000DB69F8681946BA6801F06CF800F062F9AE
:103D50007B6918461837BD4680BD00BF80B483B06C
:103D600000AF00237B600DE040F6EC23C2F20003BD
:103D7000796842F6F942C0F6000243F821207B68D8
:103D800001337B607B684B2BEEDD0C37BD465DF865
:103D9000047B704780B582B000AF78607B689B6819
:103DA000184601F0CBF9002001217A680CF076FC6E
:103DB000012006217A680CF071FC022006217A6845
:103DC0000CF06CFC002318460837BD4680BD00BFD0
:103DD00080B586B000AF786040F65823C2F2000389
:103DE0001B683B613B699B682433FB607B689B6875
:103DF0002433BB6000237B6115E07B691B01FA68FB
:103E000013449B68002B0BD07B691B01FA681A4492
:103E10007B691B01B9680B44104619460BF004FD81
:103E20007B6901337B617B69042BE6DD1837BD4676
:103E300080BD00BF80B584B000AF78607B689B68B0
:103E4000FB60FB68203318460BF0C4FC7868FFF772
:103E5000BFFF7868FFF79EFF034618461037BD4640
:103E600080BD00BF80B584B000AF786002F094FCE4
:103E70000346002B04D101F02DFE0346002B14D085
:103E8000EFF3108372B6BB81BB89FB81786840F683
:103E9000E421C2F2000101F061F8FB897B817B899A
:103EA00013F0010F00D162B604E0786801F028FE3B
:103EB00001F01CFE1037BD4680BD00BF80B485B048
:103EC00000AF0346FB800023FB60B7F90630002BF0
:103ED00018DBFB8803F00B03BB6040F67822C2F2CC
:103EE0000002BB68DB0013449B88B7F906201BB2B5
:103EF0009A4207D140F67823C2F20003BA6853F819
:103F00003230FB60FB6818461437BD465DF8047B11
:103F1000704700BF80B485B000AF0346FB80FB88CC
:103F200003F00B03FB6040F67823C2F20003FA684B
:103F3000002143F8321040F67822C2F20002FB68FA
:103F4000DB0013444FF6FF729A801437BD465DF8CC
:103F5000047B704780B584B000AF78600B46FB707F
:103F60000023FB607B68002B24D040F20003C0F2EA
:103F70000003002B05D07B689B891BB21846AFF36A
:103F800000807B689B89002B05D07B689B891BB2D6
:103F90001846FFF7BFFF7B68DB6A002B04D0FB7875
:103FA0007868194602F04CFC786800F0C9FB786824
:103FB000FFF758FFFB6818461037BD4680BD00BFAD
:103FC00080B582B000AF40F65823C2F200031B68F0
:103FD0007B607B68002B17D002F0DEFB0346002BD2
:103FE00012D17B689B8B1BB27E2B06DD44F62460CE
:103FF000C0F602006921FDF7ABFD7B689B8B9BB28D
:1040000001339AB27B689A83002318460837BD466D
:1040100080BD00BF80B584B000AF40F65823C2F227
:1040200000031B68FB60FB68002B42D002F0B4FB6E
:104030000346002B3DD1EFF3108372B63B813B89E1
:104040007B81FB689B8B002B06D0FB689B8B9BB214
:10405000013B9AB2FB689A83FB689B8B1BB2002BD7
:1040600020DCFB6800229A8340F6D823C2F20003CA
:104070001B68002B01D002F0A1FBFB685B8B03F0F7
:104080001003002B0ED0FB681B6A002B0AD140F6F0
:104090005823C2F200031A68FB689A4202D0FB68F8
:1040A00014221A627B89FB80FB8813F0010F00D178
:1040B00062B6002318461037BD4680BD80B584B077
:1040C00000AF78607B689B68FB60FB68002B09D0C1
:1040D000FB685B78012B05D17B689B6874331846BD
:1040E00000F03EFD1037BD4680BD00BF80B584B0F6
:1040F00000AFF860B9601346FB71FB685B8B03F09F
:104100002003002B00D015E0F86800F017F8FB79C9
:10411000002B02D1F868FFF7D1FFF86800F010FB20
:10412000F86800F085FAFB685B8B43F020039AB2D5
:10413000FB685A831037BD4680BD00BF80B582B092
:1041400000AF7860786800F009F8786800F02CF823
:10415000786800F0B7FA0837BD4680BD80B584B0F6
:1041600000AF7860EFF3108372B6BB81BB89FB812F
:104170007B685B6A002B0CD07B685B6A184600F09A
:10418000FDFA7B685B6A184600F064FB7B680022DE
:104190005A62FB897B817B8913F0010F00D162B6E3
:1041A0001037BD4680BD00BF80B487B000AF7860D7
:1041B000EFF3108372B6FB81FB89FB827B685B7E29
:1041C000052B0CD17B685B6B3B613B691B889BB209
:1041D00001339AB23B691A807B6800225A63FB8ADA
:1041E000BB81BB8913F0010F00D162B61C37BD46FD
:1041F0005DF8047B704700BF80B586B000AF786083
:104200003960EFF3108372B6FB81FB89FB827B6818
:104210005B7E052B12D17B685B6B3B613B691B8826
:104220009BB201339AB23B691A807B6800225A63C1
:104230007B683A685A66786802F02AFCFB8ABB8180
:10424000BB8913F0010F00D162B61837BD4680BD9F
:1042500080B586B000AF786013460A467A807B70DE
:104260007A8813465B001344DB00184601F056FCC5
:10427000F860FB687B6100233B610DE07B697A7825
:104280001A757B6903F118027A611846796800F0A3
:1042900065FE3B6901333B617A883B699A42EDDCFC
:1042A000FB6818461837BD4680BD00BF80B586B094
:1042B00000AF786013460A467A807B707B881B01CA
:1042C000184601F02BFCF860FB687B6100233B6122
:1042D0000DE07B697A781A737B6903F110027A61C9
:1042E0001846796800F03AFE3B6901333B617A88F1
:1042F0003B699A42EDDCFB6818461837BD4680BD25
:1043000080B500AF40F62043C2F2000300221A60DD
:1043100040F62043C2F2000300225A6040F62843D0
:10432000C2F2000300221A6040F62843C2F20003E2
:1043300000225A6040F63043C2F2000300221A60A5
:1043400040F63043C2F2000300225A6040F6404378
:10435000C2F2000300221A6040F64043C2F200039A
:1043600000225A6040F63843C2F2000300221A606D
:1043700040F63843C2F2000300225A6040F628405B
:10438000C2F2000010210022FFF762FF024640F255
:10439000B063C2F200031A6040F63040C2F200007F
:1043A00008210222FFF754FF024640F2B463C2F232
:1043B00000031A6000F01EF840F64040C2F2000010
:1043C00010210022FFF772FF024640F2B863C2F2EA
:1043D00000031A6040F63840C2F2000008210222B1
:1043E000FFF764FF024640F2BC63C2F200031A60AA
:1043F00080BD00BF80B582B000AF4FF4A07001F067
:104400008DFB024640F2AC63C2F200031A6040F238
:10441000AC63C2F200031B687B6000233B600DE0CD
:104420007B6803F114027A60184640F62041C2F21C
:10443000000100F093FD3B6801333B603B680F2BAC
:10444000EEDD0837BD4680BD80B584B000AF786032
:1044500040F65823C2F200031B68BB604FF0FF33E5
:10446000FB607B68002B07D0B86800F00BF80246B1
:104470007B681A600023FB60FB6818461037BD4656
:1044800080BD00BF80B588B000AF78607B689B6856
:10449000BB610023FB60EFF3108372B6BB82BB8A63
:1044A000FB82BB691B69FB610AE0FB691B7907F1B1
:1044B0000C021046194600F0F3FCFB691B68FB6117
:1044C000FB69002BF1D1FB8A7B827B8A13F0010F01
:1044D00000D162B6FB6818462037BD4680BD00BFDC
:1044E00080B584B000AF786039600023FB607B68E2
:1044F000002B13D0FFF764FD7B681B6CFB6002E0B0
:10450000FB681B68FB60FB68002B05D0FB681B7C0D
:104510001A463B689A42F3D1FFF77CFDFB681846C8
:104520001037BD4680BD00BF80B584B000AF02F03B
:1045300033F90346002B11D040F62840C2F20000A8
:1045400000F064FDF860FB68002B2BD140F6304092
:10455000C2F2000000F05AFDF86023E0EFF3108390
:1045600072B63B813B897B8140F62840C2F2000055
:1045700000F04CFDF8607B89FB80FB8813F0010F95
:1045800000D162B6FB68002B0CD1FB68002B03D175
:10459000182001F0C3FAF860FB68002B02D0FB681A
:1045A00001221A75FB6818461037BD4680BD00BF52
:1045B00080B586B000AF78607B681B7D002B14D17E
:1045C000EFF3108372B6BB82BB8AFB82786840F639
:1045D0002841C2F2000100F0C1FCFB8A7B827B8A89
:1045E00013F0010F00D162B61FE07B681B7D022B28
:1045F00014D1EFF3108372B63B823B8AFB8278685A
:1046000040F63041C2F2000100F0A8FCFB8AFB81B9
:10461000FB8913F0010F00D162B606E07B681B7DB9
:10462000012B02D17868FFF71DFC1837BD4680BD0D
:1046300080B584B000AF786002E0F86800F0F4F96B
:104640007B684033184600F0E1FCF860FB68002B03
:10465000F3D102E0B868FFF7ABFF7B684833184638
:1046600000F0D4FCB860BB68002BF3D102E0B8685E
:10467000FFF79EFF7B685033184600F0C7FCB86018
:10468000BB68002BF3D17B684FF0FF329A637B68E5
:104690000022DA631037BD4680BD00BF80B584B00C
:1046A00000AF786002E0F868FFF768F87B681033C5
:1046B000184600F0ABFCF860FB68002BF3D1103714
:1046C000BD4680BD80B483B000AF78607B685B7E00
:1046D000072B07D17B681A6E538A9BB2013B9BB2B2
:1046E00053820AE07B685B7E082B06D17B681A6EDA
:1046F000138A9BB2013B9BB213820C37BD465DF817
:10470000047B704780B582B000AF78607868FFF7AF
:10471000C5FF786800F096F97B68203318460BF0E7
:1047200067F8786800F03CFD786800F0C5F97868B3
:1047300000F0AEF97868FFF795FB0837BD4680BDFD
:1047400080B584B000AF78607B689B68FB60FB68D5
:10475000002B10D0FB685B78012B06D9FB685B78D7
:10476000013BDAB2FB685A7002E0F868FFF7CAFF53
:104770007B6800229A601037BD4680BD80B588B046
:1047800000AF78604FF0FF337B61EFF3108372B6B8
:104790003B823B8A7B827B68002B4ED07B681B7BF5
:1047A00003F00103002B48D00023BB6140F65443C3
:1047B000C2F200031B68FB6104E0FB69BB61FB699B
:1047C0001B68FB61FB69002B03D0FA697B689A4286
:1047D000F3D1FB69002B06D144F63860C0F6020025
:1047E0008121FDF7B5F9FB691B68002B08D0FB6937
:1047F0001B68FA6912689168FA6992680A449A60BB
:10480000BB69002B07D0B86940F65441C2F20001E1
:1048100000F01CFC05E040F65440C2F2000000F03D
:10482000F5FB7B6800221A607B681B7B23F0010389
:10483000DAB27B681A7300237B617B8AFB81FB8978
:1048400013F0010F00D162B67B6918462037BD46D0
:1048500080BD00BF80B584B000AF7860EFF31083F7
:1048600072B6BB81BB89FB817B681B7B03F00103B4
:10487000002B02D07868FFF781FF7B681B7B03F079
:104880000203002B0AD0FB897B817B8913F0010F87
:1048900000D162B67868FFF7E5FA1FE07B681B7B02
:1048A00003F00403002B19D1786840F64841C2F2A6
:1048B000000100F053FB40F65043C2F200031B8896
:1048C00001339AB240F65043C2F200031A80FB89CA
:1048D0003B813B8913F0010F00D162B600231846DB
:1048E0001037BD4680BD00BF80B582B000AF40F636
:1048F0002040C2F2000000F089FB78607B68002B4A
:1049000012D1FFF777FD40F62040C2F2000000F020
:104910007DFB78607B68002B06D144F64C60C0F6C6
:1049200002006821FDF714F97B6818460837BD4678
:1049300080BD00BF80B586B000AFF860B9607A6016
:1049400040F65823C2F200031B683B61FB681F2B33
:1049500007D9FEF74BFD034616221A604FF0FF33CE
:104960005EE03869F968FFF7BBFD78617B68002B72
:1049700018D07B69002B0CD07B695A687B681A6061
:104980007B699A687B685A607B69DA687B689A60A1
:1049900008E07B6800221A607B6800225A607B680E
:1049A00000229A60BB68002B01D1002338E0BB686D
:1049B0001B68002B0CD17B69002B30D03B69403346
:1049C0007869194600F0EAFA786900F02DF826E0D7
:1049D0007B69002B17D1FFF787FF78617B69002B7C
:1049E00007D1FEF703FD03460C221A604FF0FF3398
:1049F00016E0FB68DAB27B691A743B694033786968
:104A0000194600F0ABFABB681A687B695A60BB684C
:104A10005A687B699A60BB689A687B69DA60002390
:104A200018461837BD4680BD80B582B000AF7860AB
:104A3000786840F62041C2F2000100F08FFA083792
:104A4000BD4680BD80B584B000AF786013E07B6860
:104A50005B68FB60FB681A687B685A60FB680C3314
:104A60001846FEF7E3FCFB680A331846FEF7DEFC47
:104A7000F868FFF7F7F97B685B68002BE7D17B6884
:104A800002331846FEF7D2FC1037BD4680BD00BF8A
:104A900080B582B000AF786005E07B68D3F8B430B1
:104AA00018460CF0BBF87B68D3F8B430002BF4D177
:104AB0000837BD4680BD00BF80B582B000AF7860CA
:104AC0007B68DB69002B04D07B68DB691846FFF745
:104AD000C9F97B6800229A617B680022DA61083795
:104AE000BD4680BD80B582B000AF40F2C063C2F267
:104AF00000037B6040F64843C2F2000300221A60C4
:104B000040F64843C2F2000300225A6040F6544384
:104B1000C2F2000300221A6040F65443C2F20003BE
:104B200000225A6000233B600DE07B6803F118020D
:104B30007A60184640F64841C2F2000100F00EFAD1
:104B40003B6801333B603B68012BEEDD40F6504390
:104B5000C2F2000302221A800837BD4680BD00BFA2
:104B600080B586B000AF786000237B617B68002B46
:104B70002BD0786800F022FB00233B611FE03A69EC
:104B800013465B0013449B007A6813440433FB60B4
:104B9000FB681B68002B0FDBFB689B8803F002039C
:104BA000002B09D0F868012100F014F8B860BB6848
:104BB000002B01DABB687B613B6901333B613B69D8
:104BC000042BDCDD786800F015FB7B69184618378C
:104BD000BD4680BD80B483B000AF78600B46FB70EB
:104BE000002318460C37BD465DF8047B704700BFB4
:104BF00080B586B000AF786000237B617B68002BB6
:104C00001FD07A684DF68363C4F21B33A3FB0213F3
:104C10009B0C3B613B69BB603A6944F24023C0F2A4
:104C20000F0303FB02F37A68D31A4FF47A7202FB84
:104C300003F3FB6007F108031846002119F08CF913
:104C400078617B6918461837BD4680BD80B584B051
:104C500000AF7860396007F10803184600F0D6FE0F
:104C600007F10803184679683A6800F04DFD0346DD
:104C700018461037BD4680BD80B586B000AFF860DD
:104C8000B9607A6000237B6140F2A003C2F20003A6
:104C90001B781A46FB6842FA03F303F00103002B6A
:104CA00004D0B8687968FFF7D1FF78617B6918464E
:104CB0001837BD4680BD00BF0EB480B585B000AFCB
:104CC000786007F12003BB607868F969BA68FFF77C
:104CD000D3FFF860FB6818461437BD46BDE8804036
:104CE00003B0704780B485B000AF7860EFF31083F5
:104CF00072B67B817B89FB8140F2A003C2F2000384
:104D00001B787B737B68DAB240F2A003C2F2000327
:104D10001A70FB893B813B8913F0010F00D162B609
:104D20007B7B18461437BD465DF8047B704700BF97
:104D300080B487B000AFF860B9607A60FB687B61CF
:104D400005E07B695A1C7A61BA68D2B21A707B6836
:104D50005A1E7A60002BF4D1FB6818461C37BD46FA
:104D60005DF8047B704700BF80B485B000AF786009
:104D700039607B68FB6000BF7B685A1C7A603A68C8
:104D8000511C396012781A701B78002BF4D1FB6823
:104D900018461437BD465DF8047B704780B485B073
:104DA00000AF78607B68FB6002E0FB680133FB606A
:104DB000FB681B78002BF8D1FA687B68D31A184679
:104DC0001437BD465DF8047B704700BF80B487B0E0
:104DD00000AFF860B9607A60FB687B61FA687B6855
:104DE00013443B61FA683B699A420AD0FB685A1C3B
:104DF000FA60BA68511CB96012781A701B78002BDF
:104E0000F0D104E0FB685A1CFA6000221A70FA68BC
:104E10003B699A42F6D17B6918461C37BD465DF85E
:104E2000047B704780B487B000AFF860B9607A60E7
:104E3000FB687B61BB683B6107E07B695A1C7A6158
:104E40003A69511C396112781A707B685A1E7A606F
:104E5000002BF2D1FB6818461C37BD465DF8047B79
:104E6000704700BF80B584B000AFF860B9607A6069
:104E7000FB68002B09D07B68B3F5004F05D27B6837
:104E80009AB2FB681A80002306E0FEF7AFFA0346E9
:104E900016221A604FF0FF3318461037BD4680BD0A
:104EA00080B582B000AF786039603B681F2B07D9AE
:104EB000FEF79CFA034616221A604FF0FF3309E012
:104EC0007B681A6801213B6801FA03F31A437B6887
:104ED0001A60002318460837BD4680BD80B582B0F1
:104EE00000AF786039603B681F2B07D9FEF77EFA68
:104EF000034616221A604FF0FF330AE07B681A68F7
:104F000001213B6801FA03F3DB431A407B681A6016
:104F1000002318460837BD4680BD00BF80B485B069
:104F200000AF786039604FF0FF33FB603B681F2BA8
:104F30000CD87B681A683B6822FA03F303F001037C
:104F4000002B0CBF00230123DBB2FB60FB6818467B
:104F50001437BD465DF8047B704700BF80B483B052
:104F600000AF786039607B6800221A603B681B687C
:104F7000002B06D13B687A681A603B687A685A60F1
:104F800006E03B685B687A681A603B687A685A603A
:104F90000C37BD465DF8047B704700BF80B584B018
:104FA00000AF786039603B681B68002B2AD07B68B3
:104FB000002B27D03B681A687B689A420CD17B682B
:104FC0001A683B681A603B685A687B689A4219D134
:104FD0003B6800225A6015E03B681B68FB6002E0FA
:104FE000FB681B68FB60FB68002B04D0FB681A6839
:104FF0007B689A42F4D1FB68002B03D0F8683968CB
:1050000000F024F81037BD4680BD00BF80B485B0E5
:1050100000AF78607B681B68FB60FB68002B0DD0DD
:10502000FB681A687B681A607B681B68002B02D1DA
:105030007B6800225A60FB6800221A60FB681846F1
:105040001437BD465DF8047B704700BF80B485B05F
:1050500000AF786039607B681B68FB603B681B6849
:10506000002B15D0FB68002B12D03B685A68FB68F8
:105070009A4206D13B687A685A607B6800221A60BF
:1050800003E0FB681A687B681A60FB6800221A60FC
:10509000FB6818461437BD465DF8047B704700BFB7
:1050A00080B483B000AF786039607B6800225A60BA
:1050B0003B681A687B681A603B681B68002B06D146
:1050C0003B687A681A603B687A685A6006E03B6819
:1050D0001B687A685A603B687A681A600C37BD466C
:1050E0005DF8047B704700BF80B485B000AF786086
:1050F00039607B685B68FB607B681B68BB60FB6832
:10510000002B03D13B68BA681A6002E0FB68BA68FA
:105110001A60BB68002B03D13B68FA685A6002E052
:10512000BB68FA685A607B6800221A607B680022BC
:105130005A601437BD465DF8047B704780B584B073
:1051400000AF78607B687433BB60BB681846002191
:105150000122FFF787FE0023FB601AE0FA6813467E
:105160005B0013449B00BA681344043318460021C3
:105170000C22FFF7DDFDB968FA6813465B001344A3
:105180009B000B4404334FF0FF321A60FB6801337D
:10519000FB60FB68042BE1DD1037BD4680BD00BF1E
:1051A00080B584B000AF78607B687433FB60FB68C7
:1051B0001846FEF73BF91037BD4680BD80B582B07A
:1051C00000AF78600CE0FEF711F903461B68042B72
:1051D00006D044F66060C0F602005121FCF7B8FC2E
:1051E0007B681846FEF73EF90346002BEBD10837E3
:1051F000BD4680BD80B582B000AF78607B68184640
:10520000FEF796F90837BD4680BD00BF80B584B073
:1052100000AF786039603A684CF6CD43CCF6CC43A9
:10522000A3FB0213D9080B469B000B445B00D31A67
:10523000FB603A684CF6CD43CCF6CC43A3FB02139B
:10524000DB08BB60BB68002B03D07868B968FFF748
:10525000DDFF7B681B68FA68303278681146984732
:105260001037BD4680BD00BF80B586B000AFF86086
:10527000B9601346FB710023FB752023BB7527E043
:10528000BB7D043BBA6822FA03F3DBB203F00F03E1
:105290007B757B7D002B02D1FB7D002B15D001237C
:1052A000FB757B7D092B07D8FB681B687A7D303244
:1052B000F8681146984708E0FB681B68797DFA7921
:1052C0000A440A3AF86811469847BB7D043BBB750F
:1052D000BB7D002BD4D1FB7D002B04D1FB681B6868
:1052E000F868302198471837BD4680BD80B584B036
:1052F00000AF786039603B6803F00703FB603B68F0
:10530000DB08BB60BB68002B03D07868B968FFF787
:10531000EDFF7B681B68FA68303278681146984761
:105320001037BD4680BD00BF80B584B000AF786047
:1053300039603B6803F00103FB603B685B08BB60BE
:10534000BB68002B03D07868B968FFF7EDFF7B6876
:105350001B68FA6830327868114698471037BD46A6
:1053600080BD00BF80B584B000AFF8607B600B46A5
:10537000FB721346BB72FB7A583B202B00F28280F3
:1053800001A252F823F000BF215400088554000800
:105390008554000885540008855400088554000889
:1053A0008554000885540008855400088554000879
:1053B0007B540008855400080D54000885540008EB
:1053C0008554000885540008855400080D540008D1
:1053D0008554000885540008855400088554000849
:1053E000855400085D5400082154000885540008C5
:1053F0008554000885540008855400081754000897
:10540000855400088554000821540008F86879681C
:10541000FFF7FCFE37E0F8687968FFF7F7FE32E047
:10542000BB7A03F00203002B09D0FB681B68F86805
:1054300030219847FB681B68F86878219847FB7A09
:10544000582B05D1F86879684122FFF70DFF1AE063
:10545000F86879686122FFF707FF14E0BB7A03F070
:105460000203002B04D0FB681B68F86830219847C2
:10547000F8687968FFF73AFF05E0F8687968FFF7A0
:1054800053FF00E000BF1037BD4680BD80B485B03B
:1054900000AF0346B9607A60FB73FB7B583B202B5F
:1054A00065D801A252F823F05F5500086F55000837
:1054B0006F5500086F5500086F5500086F550008BC
:1054C0006F5500086F5500086F5500086F550008AC
:1054D0005F5500086F5500082D5500086F550008EE
:1054E0006F5500086F5500086F5500082D550008CE
:1054F0006F5500086F5500086F5500086F5500087C
:105500006F5500085F5500085F5500086F5500088B
:105510006F5500086F5500086F5500086F5500085B
:105520006F5500086F5500085F5500087B681B68C1
:10553000002B13DABB681B7863F07F03DAB2BB6819
:105540001A70BB681B7823F00103DAB2BB681A70CB
:105550007B681B685A427B681A6009E008E0BB68F8
:105560001B7803F07E03DAB2BB681A7000E000BF5C
:105570001437BD465DF8047B704700BF80B584B02A
:1055800000AF0B463A600246FA71BB7107F108039F
:10559000184600F05DFA07F10801FA79BB79084670
:1055A00011461A463B68FFF7DDFEFB6818461037C8
:1055B000BD4680BD80B586B000AFF8607B600B460D
:1055C000FB721346BB72FB7A012B5AD0022B2DD0F3
:1055D000BB7A03F08103002B02D03B6A01333B62AC
:1055E0007A683B6AD31A7B6107E0FB681B68F8683E
:1055F000202198477B69013B7B617B69002BF4DCB0
:10560000BB7A5BB2002B05DAFB681B68F8682D21BA
:1056100098470AE0BB7A03F00103002B05D0FB6832
:105620001B68F8682B21984740E03FE0BB7A5BB2EB
:10563000002B08DAFB681B68F8682D2198473B6A45
:1056400001333B620CE0BB7A03F00103002B07D06F
:10565000FB681B68F8682B2198473B6A01333B6263
:105660007A683B6AD31A7B6107E0FB681B68F868BD
:10567000302198477B69013B7B617B69002BF4DC1F
:1056800014E0BB7A5BB2002B05DAFB681B68F86894
:105690002D21984709E0BB7A03F00103002B04D0C9
:1056A000FB681B68F8682B21984700BF1837BD4678
:1056B00080BD00BF80B586B000AFF8607B600B4650
:1056C000FB721346BB72FB7A012B00D018E0BB7A49
:1056D00003F08103002B02D03B6A01333B627A68FE
:1056E0003B6AD31A7B6107E0FB681B68F8682021DE
:1056F00098477B69013B7B617B69002BF4DC00BF31
:105700001837BD4680BD00BF80B590B002AFF860CD
:10571000B9607A605BE1BB681B78252B07D0FB681A
:105720001B68BA681278F868114698474CE1BB6864
:105730000133BB600023FB75002387F82F30002363
:105740003B6381E0BB681B7844F68060C0F60200D2
:10575000194600F08FF90346002B00D079E0BB68B2
:105760001B782D2B03D1012387F82F3069E0BB680C
:105770001B78302B03D1022387F82F3061E0BB6800
:105780001B782A2B12D17B681A1D7A601B687B62FA
:10579000FB7D03F00403002B07D17B6A3B63FB7D99
:1057A00043F00803DBB2FB754BE04AE0BB681B78B3
:1057B000302B29D9BB681B78392B25D8BB681B78BF
:1057C000303BBB62BB680133BB60BB681B782F2BCF
:1057D0000FD9BB681B78392B0BD8BA6A13469B00CC
:1057E00013445B001A46BB681B78303B1344BB6212
:1057F000E8E7FB7D03F00403002B01D1BB6A3B63A8
:10580000BB68013BBB601CE0BB681B782E2B05D13D
:10581000FB7D43F00403DBB2FB7512E0BB681B7831
:105820002B2B05D1FB7D43F00103DBB2FB7508E0B8
:10583000BB681B78232B04D1FB7D43F00203DBB252
:10584000FB75BB680133BB60BB681B78002B7FF422
:1058500079AFBB681B78252B05D1FB681B68F868FE
:1058600025219847B0E0BB681B78732B35D17B6846
:105870001A1D7A601B687B637B6B002B04D144F696
:105880007863C0F602037B63786BFFF787FA034601
:105890003B6297F82F303A6A0092F8681946002266
:1058A0003B6BFFF787FE09E0FB681B687A6B127899
:1058B000F868114698477B6B01337B637B6B1B78E1
:1058C000002BF1D197F82F303A6A0092F868194608
:1058D00000223B6BFFF7EEFE76E0BB681B78632B84
:1058E0000AD17B681A1D7A601B68FB61FB681B6824
:1058F000F868F969984767E0BB681B784C2B08D1BA
:10590000FB7D43F04003DBB2FB75BB680133BB603A
:1059100017E0BB681B786C2B13D1FB7D43F0200391
:10592000DBB2FB75BB680133BB60BB681B786C2BBB
:1059300007D1FB7D43F04003DBB2FB75BB6801334D
:10594000BB60BB681B7844F69460C0F60200194641
:1059500000F090F80346002B36D07B681A1D7A6061
:105960001B683B61BB68197807F1170207F1100348
:10597000084611461A46FFF789FDBB681978FA7D7B
:105980003B69084611461A46FFF7F8FDB861FB7DF2
:1059900097F82F20B9690091F86811461A463B6BB9
:1059A000FFF708FEBB681978FA7D3B69F868FFF7D6
:1059B000D9FCFB7D97F82F20B9690091F868114652
:1059C0001A463B6BFFF776FEBB680133BB60BB68D2
:1059D0001B78002B7FF49FAEFB685B681846383756
:1059E000BD4680BD80B582B000AF78603960386850
:1059F000FBF79AFC0346B3F1FF3F04D07B685B687A
:105A00005A1C7B685A600837BD4680BD80B483B09D
:105A100000AF78607A6845F6E513C0F600031360BE
:105A20007B6800225A600C37BD465DF8047B7047E6
:105A300080B483B000AF786039607B685B685A1CC3
:105A40007B685A600C37BD465DF8047B704700BF29
:105A500080B483B000AF78607A6845F63123C0F631
:105A6000000313607B6800225A600C37BD465DF866
:105A7000047B704780B483B000AF786039607B6886
:105A8000002B10D07B681B781A463B689A4201D1E4
:105A90007B6809E07B681B78002B00D103E07B6802
:105AA00001337B60EEE7002318460C37BD465DF8F6
:105AB000047B704780B582B000AF7860396040F6F3
:105AC0005C40C2F2000079683A6800F095F8083747
:105AD000BD4680BD80B500AF40F65C40C2F200001C
