:020000040800F2
:10000000240E0020B5030008390100084101000852
:100010004901000851010008590100083101000898
:1000200031010008310100083101000861010008B8
:100030006901000831010008710100087901000818
:100040008101000889010008910100089901000858
:10005000A1010008A9010008B1010008B9010008C8
:10006000C1010008C9010008D1010008D901000838
:10007000E1010008E9010008F1010008F9010008A8
:100080000102000809020008110200081902000814
:100090002102000829020008310200083902000884
:1000A00041020008490200085102000859020008F4
:1000B0006102000869020008710200087902000864
:1000C00081020008890200089102000899020008D4
:1000D000A1020008A9020008B1020008B902000844
:1000E000C1020008C9020008D1020008D9020008B4
:1000F000E1020008E9020008F1020008F902000824
:10010000010300080903000811030008190300088F
:1001100021030008290300083103000839030008FF
:10012000410300084903000851030008590300086F
:100130004FF0000000F014B94FF0020000F010B9C9
:100140004FF0030000F00CB94FF0040000F008B9C4
:100150004FF0050000F004B94FF0060000F000B9C0
:100160004FF00B0000F0FCB84FF00C0000F0F8B8B6
:100170004FF00E0000F0F4B84FF00F0000F0F0B8B0
:100180004FF0100000F0ECB84FF0110000F0E8B8AC
:100190004FF0120000F0E4B84FF0130000F0E0B8A8
:1001A0004FF0140000F0DCB84FF0150000F0D8B8A4
:1001B0004FF0160000F0D4B84FF0170000F0D0B8A0
:1001C0004FF0180000F0CCB84FF0190000F0C8B89C
:1001D0004FF01A0000F0C4B84FF01B0000F0C0B898
:1001E0004FF01C0000F0BCB84FF01D0000F0B8B894
:1001F0004FF01E0000F0B4B84FF01F0000F0B0B890
:100200004FF0200000F0ACB84FF0210000F0A8B88B
:100210004FF0220000F0A4B84FF0230000F0A0B887
:100220004FF0240000F09CB84FF0250000F098B883
:100230004FF0260000F094B84FF0270000F090B87F
:100240004FF0280000F08CB84FF0290000F088B87B
:100250004FF02A0000F084B84FF02B0000F080B877
:100260004FF02C0000F07CB84FF02D0000F078B873
:100270004FF02E0000F074B84FF02F0000F070B86F
:100280004FF0300000F06CB84FF0310000F068B86B
:100290004FF0320000F064B84FF0330000F060B867
:1002A0004FF0340000F05CB84FF0350000F058B863
:1002B0004FF0360000F054B84FF0370000F050B85F
:1002C0004FF0380000F04CB84FF0390000F048B85B
:1002D0004FF03A0000F044B84FF03B0000F040B857
:1002E0004FF03C0000F03CB84FF03D0000F038B853
:1002F0004FF03E0000F034B84FF03F0000F030B84F
:100300004FF0400000F02CB84FF0410000F028B84A
:100310004FF0420000F024B84FF0430000F020B846
:100320004FF0440000F01CB84FF0450000F018B842
:100330004FF0460000F014B84FF0470000F010B83E
:100340004FF0480000F00CB84FF0490000F008B83A
:100350004FF04A0000F004B84FF04B0000F000B836
:100360006A4602F12002EFF310832DE9FC0F72B60A
:100370006946DFF838D04DF8041D00F021FC5DF827
:10038000041F884209D000F1280191E8F00F0168AC
:1003900021E9F00F90E8FC0F01E0B1E8FC0F81F3D8
:1003A0000888DFF80CE083F3108870470004002011
:1003B000F9FFFFFF10B500F04DF800F0B9F900F0BB
:1003C0000BF9412000F0A6F940F2002340F6284244
:1003D000C2F20003C2F2000293420AD2D94311448E
:1003E00021F0030119440022043B43F8042F8B42FF
:1003F000FBD1422000F08EF940F2000140F2F413EC
:10040000C2F20001C2F2000399420ED2CC431C4456
:1004100024F0030448F2A8100434C0F601000023BD
:10042000C258CA500433A342FAD1432000F072F9F3
:1004300000F02CFB442000F06DF901F06FFA46202B
:1004400000F068F90D2000F065F90A2000F062F96B
:1004500001F09AFAF0B441F2180041F20C0641F2B0
:10046000100541F2140441F21C010022C4F20205FD
:10047000C4F20204C4F20200C4F20201C4F2020691
:1004800014274FF480533260C4F202032A602760BD
:1004900002600A60186841F2040140F0010018602F
:1004A000C4F202010C680C20CFF2FF00204008606B
:1004B000186841F2080420F0847020F4803018603D
:1004C0001868C4F2020420F4802018600D6845F614
:1004D000CC5025F4FE050D6022601A6882B022F42B
:1004E000802242F48032C0F208001A600190019A22
:1004F000002A0DDD1A6890030AD41A4602E0136838
:10050000990305D4019B013B0193019B002BF6DC71
:10051000019B002B3DD04FF40052C4F2020211683F
:1005200041F2040321F0070141F012011160C4F20D
:1005300002031A684FF4805122F0F0021A601A6820
:10054000C4F2020122F460521A6018680A4620F4CC
:10055000E06040F480601860186820F47C1040F47B
:10056000E81018600B6843F080730B6013689B0100
:10057000FCD541F20403C4F2020319681A4621F0C3
:10058000030141F002011960136803F00C03082B0A
:10059000FAD141F21402C4F20202552141F21803C9
:1005A0001160C4F20203196841F2040241F03D01F6
:1005B0001960C4F20202116841F21C0321F48001A7
:1005C0001160C4F202031A6842F4040242F4804249
:1005D0001A6002B0F0BC70470423C4F20103002289
:1005E0001A607047C0F3021103292DE9F0075AD8A9
:1005F00045F6D033C0F6010300F00F0253F8214056
:10060000072A87BF231DA2F1080616462346EFF3EB
:10061000108772B610F4004F1D684FEA86061DD190
:100620000F21B140C0F3C32C0CFA06F625EA0105F0
:100630002E4345041E6009D4012303FA02F2010689
:100640004CBF1034143423681A43226017F0010F92
:1006500000D162B60020BDE8F00770474FF00F08E8
:1006600000F4C04C08FA06F94FEADC2A0AFA06F64A
:1006700025EA09052E431E60430510D500F003034B
:100680009B0008FA03F899400823C4F2010300F024
:100690000C05EE5826EA080848EA0101E950BCF5C5
:1006A000804FD3D1C8E76FF01500D4E700F07F008A
:1006B00040F42040FFF796BFC0F30213032B0FD87E
:1006C000012200F00F0002FA00F045F6D032C0F629
:1006D000010252F8233000290CBF14211021C85008
:1006E000704700BFC0F30213032B10D8012200F0A3
:1006F0000F0002FA00F045F6D032C0F6010252F8BF
:1007000023309B6803420CBF00200120704700206B
:10071000704700BF4FF49042C4F2000213681B06FA
:10072000FCD544F60403C4F200031860704700BF10
:1007300010B50423C4F201031A6845F61A0022F02A
:1007400030021A60FFF74EFF4AF21B00FFF74AFF24
:1007500044F61002C4F20002116844F60C0321F4BE
:100760007D511160C4F20003196844F6140221F4AB
:10077000BB5121F01C011960C4F20002146844F658
:10078000080124F4E06424F00104C4F2000140F202
:100790003910146008601A6842F4005242F00C02EA
:1007A0001A6010BD6FF01800704700BF30B4836A44
:1007B00000241A6CDD8D506840EA05420A60DC8531
:1007C000C0B230BC704700BF30B4826AEFF3108013
:1007D00072B6948D44F0200311B94FF6DE632340C6
:1007E000116C9385CC6803F4D07524F4D0742C4339
:1007F000CC60126C03F00103516921F001010B433D
:10080000536110F0010F00D162B630BC704700BFD9
:10081000836A1B6C1868C0F340107047836A1B6CB6
:1008200059607047836A1B6C1868C0F3C01070472A
:1008300070B5836AEFF3108472B69A8DB9B9196CEA
:1008400022F080009885C86802F4907520F4D0707A
:100850002843C8601B6C02F00102596921F00101B4
:100860000A435A6114F0010F00D162B670BD196CD1
:1008700042F080059D85CE6802F4D07526F4D076CE
:1008800045F080053543CD601B6C02F001025969CB
:1008900021F001010A435A6100F0D6FFE2E700BFF0
:1008A00010B5846A94F8380000F0EEFA94F8380035
:1008B0000021BDE8104001F095B900BF38B5846A49
:1008C00094F83800E16C01F08DF9054618B994F8F8
:1008D000380000F0EDFA284638BD00BF38B5846A0C
:1008E0004FF49043226CC4F200039A42054608D1AB
:1008F00041F21C00C4F2020000214FF4802200F0FB
:100900004FF9606CFFF76EFEA06CFFF76BFE226C78
:1009100094F83210136923F47D5309B143F4005362
:100920001361236CDA6822F4BE72DA60236C5A69B0
:1009300022F4E06222F001025A61AB6A596BDA6B71
:100940004908B2FBF1F14A090131A1EB4211490812
:10095000186C41EA02128260196C93F83000CA6880
:10096000012822F4B05208BF42F4C06203D002282A
:1009700008BF42F4806293F83150092D1ED0082D33
:100980001AD0CA60196C93F832000A6922F44052F6
:1009900008B142F400520A611B6C002259691046EA
:1009A00021F440715961216CCB6843F4005343F04A
:1009B0000C03CB60A28538BD0028E2D042F48052FF
:1009C000DFE700BF70B540F20005C2F200052E4619
:1009D000002412E013F00E001CBF526800201A061B
:1009E00002D5AB8D1B061AD400F001000134FF2C98
:1009F000CCBF002000F00100C8B12A6C13689BB284
:100A00009806EB85E6D5B18D8906E3D540F2000066
:100A1000C2F2000000F050FFF38D0120DFE740F24A
:100A20000000C2F2000000F00FFF0120DEE770BD01
:100A300038B5846A0022216CA285CD684FF49043BA
:100A400025F4D075CD60216CC4F200034D6925F00A
:100A500001054D61816A096C994207D141F21C0080
:100A6000C4F202004FF4802100F09AF8236CDA6897
:100A700022F4005222F00C02DA60606CFFF716FEDE
:100A8000A06CBDE83840FFF711BE00BF0D4A30B47E
:100A9000002502F1140452F8043F53B1196C9D85EE
:100AA000C86820F4D070C8601B6C596921F001013E
:100AB0005961A242EFD130BC40F20000C2F2000006
:100AC0000CE700BFDC5B010870B545F6244040F23E
:100AD000000184B0C2F20001C0F6010000F048FE3F
:100AE00045F6344040F20001C2F20001C0F60100B8
:100AF00000F03EFE0E4C45F640416846C0F601014E
:100B000002F0CAFB04F11405012254F8041F09B1D4
:100B10000B791BB1AC42F8D104B070BD02F13003C7
:100B2000561C68468DF8093000F022FE3246F1E787
:100B3000DC5B010870B540F20004C2F20004236CD3
:100B40000021DE685A69A185D96806F4D07621F4BF
:100B5000D071D960236C02F0010259690A2821F092
:100B60000101054642EA0606596115D0E8B2FFF7D1
:100B7000D1FD236CA685DA6806F4D07122F4D07218
:100B80000A43DA60236C06F001065A69284622F00F
:100B9000010216435E6170BD0D20FFF7BBFDE5E766
:100BA00010B4EFF3108372B6046824EA0101114314
:100BB000016013F0010F00D162B65DF8044B70477D
:100BC000F8B540F61C14C2F2000426680D4607462C
:100BD000216000F07FF93846294601F021F82068AD
:100BE0002660F8BD08B5EFF3108372B645F6B04144
:100BF00045F64C42C0F60101C0F60102032002F0A6
:100C0000E9FA45F6D440C0F60100C12100F08EF9A2
:100C100008B5EFF3108372B645F6E841C0F601015E
:100C20000320054A02F0D6FA45F6D440C0F601008A
:100C3000B92100F07BF900BF5C5C010808B5EFF357
:100C4000108372B645F61051C0F601010320054A23
:100C500002F0C0FA45F6D440C0F60100B12100F020
:100C600065F900BF705C010808B5EFF3108372B638
:100C70004EF62853CEF2000345F63051C0F601017E
:100C80001B680320044A02F0A5FA45F6D440C0F6DA
:100C90000100A92100F04AF9805C010808B5EFF3D2
:100CA000108372B64EF62853CEF2000345F65C511F
:100CB000C0F601011B680320044A02F08BFA45F6D6
:100CC000D440C0F60100A12100F030F9945C010885
:100CD00008B5EFF3108372B645F68451C0F60101F2
:100CE0000320054A02F076FA45F6D440C0F601002A
:100CF000992100F01BF900BFA45C010838B5841EDF
:100D0000492C42D80F2818DC4EF62453CEF20003AB
:100D100004280B602AD005282DD0062830D00F28B3
:100D200001BF4EF21003CEF2000301240B6006BF98
:100D3000002014604FF0FF3038BD2F280BDD303815
:100D4000012585404EF20414CEF200041C440C60D0
:100D50000020156038BD10380124844003F1604341
:100D600003F561430B600020146038BD4FF48033FD
:100D70001360002038BD4FF400331360002038BDED
:100D80004FF480231360002038BD45F6D440C0F6F0
:100D90000100E92100F0CAF8F8B54EF61C504FF4F6
:100DA00061474EF204154EF618544EF620524FF09D
:100DB00080310026CEF20002CEF20007CEF200050E
:100DC000CEF20004CEF200004EF204033E60CEF2FA
:100DD00000032E602160016011601A680132D200A8
:100DE000531E42B14FF46442CEF20002013B581C44
:100DF00042F8041BFAD140F61C1341F2D911C2F299
:100E000000030024C0F600010B201C6000F0EAFE85
:100E100041F27511C0F60001032000F0E3FE40F638
:100E2000D141C0F60001022000F0DCFE41F21D11AC
:100E3000C0F60001042000F0D5FE40F69D41C0F64A
:100E40000001052000F0CEFE40F66941C0F6000129
:100E5000062000F0C7FE40F63D41C0F600010E201E
:100E600000F0C0FE40F61141C0F600010C2000F079
:100E7000B9FE40F6E5312046C0F6000100F0B2FEB2
:100E800084F3118862B6F8BD10B582B0694601AA34
:100E900080230446FFF732FF38B9009B0F2C019ADC
:100EA000DCBF196821EA02021A6002B010BD00BF5F
:100EB00010B582B0694601AA00230446FFF71EFF61
:100EC00030B9009B0F2C019ADCBF19680A431A60E5
:100ED00002B010BD704700BF70B520F01F048C42F7
:100EE00088B00E461FD2236845F6DC510093636834
:100EF00045F6A0520193A368C0F601010293E3688E
:100F0000C0F6010203932369032004936569234615
:100F10000595A5692034069554F8045C079502F000
:100F200091F9A642DFD808B070BD00BF80B56C460D
:100F300040F63016C2F20006326888B00091C03226
:100F400045F6106103460192C0F60101704A032084
:100F500002F078F93368B3F90C20002A40F0C2801F
:100F600045F6CC33C0F601031F684FF40078043F08
:100F700045F644612346C0F60101664A032002F0AB
:100F800061F945F65861C0F60101624A032040F25A
:100F9000004502F057F9C2F2000545F668612B469C
:100FA000C0F601015B4A032002F04CF945F67C6172
:100FB000C0F601010320574A4FF4007302F042F9D2
:100FC000AC4204D8A5F500739C4200F28F8040F635
:100FD0001C15C2F200052B684BB11C6845F6446134
:100FE0002346C0F6010103204A4A02F02BF945F6D8
:100FF0009061C0F60101474A032002F023F945F64B
:101000006861C0F60101434A3B46032002F01AF929
:1010100045F67C61C0F6010103203E4A434602F0DA
:1010200011F9A74203D3C8EB070844456BD82A68D7
:1010300040F61C14C2F20004002A5CD0936AD2F875
:101040002C90D2F83080D2F834C0D2F808E0D768BB
:101050001069526945F6A461CDF80090CDF804807E
:10106000CDF808C0CDF80CE0049705900692C0F6C4
:101070000101294A032002F0E5F8226845F6D8610B
:101080009369D2F81C90D2F82080D2F824C0D2F80C
:1010900038E01768D06B126CC0F60101059006921B
:1010A000CDF80090CDF80480CDF808C0CDF80CE064
:1010B0000497194A032002F0C5F82268536C50685F
:1010C000EFF3148245F60C718DE80500C0F60101BE
:1010D0000320114A02F0B6F82B6863B1EFF31083D6
:1010E00072B6FEE71F6BD3F8288041E729462046F9
:1010F000FFF7F2FE6BE73368B3F90C30002BEDD04D
:10110000012001F003F820463946FFF7E5FE8EE79F
:10111000B05D0108BC5D0108CC5D010800B583B07D
:10112000EFF3108372B645F63874C0F6010445F645
:1011300044712246C0F60101032002F083F84EF606
:1011400028534EF63452CEF20002CEF200031B6852
:10115000106845F66C710090C0F60101224603202C
:1011600002F070F845F69070C0F601008021FFF79C
:10117000DDFE00BF10B50A6C40F20003941EC0F6FD
:1011800000039C420ED348F2A013C0F601039C4218
:1011900008D232F8023CB3F55F4F03D1BDE81040EE
:1011A00000F01AB8EFF3108372B64EF62C53CEF25D
:1011B000000345F6B87145F6A872C0F601011B6838
:1011C000C0F60102032002F03DF845F6D870C0F6E3
:1011D0000100B721FFF7AAFE38B50D4641B340F62E
:1011E0001C14C2F200042368994221D18B6A012B9E
:1011F00014D00CD3022B08D1C86A00B30B6BF3B127
:10120000482202F07BF82B6B2360002038BDC86AAF
:10121000E8B1482202F072F8002038BDCB6A002BFA
:10122000F2D145F6F070C0F60100E921FFF77EFE2D
:1012300045F6F070C0F60100A021FFF777FE45F6F5
:10124000F070C0F601004FF48071FFF76FFE45F6B5
:10125000F070C0F60100CF21FFF768FE70B583681B
:101260000D461C691646636A1B69984710F1190FF1
:1012700000D070BD40F205339D4219D001339D422C
:1012800015D1EFF3108272B6E189238A09B21BB23D
:1012900099421CDA218AE38909B21BB2CB1A013BBD
:1012A00012F0010F00D162B63360002070BD70BD36
:1012B000EFF3108272B6A18B638B09B21BB2994215
:1012C0000FDC618BA38B09B21BB2CB1AE8E7208A33
:1012D000E38900B21BB2B4F91210C31A0B44013BEC
:1012E000DEE7608BA38B00B21BB2B4F91E10C31AE9
:1012F0000B44D5E738B504460D4605E000F016FF6F
:101300000368042B09D12DB9204600F037FF0028CF
:10131000F4D138BD6FF0030038BD46F22C00C0F6A2
:1013200001008821FFF702FE2DE9F04FB0F80EA072
:10133000B0F912300FFA8AFA83B00AF1010A0446B2
:10134000019193469A45A8BF4FF0000A00F10807A3
:10135000012608E019F0010F00D162B6E378002BF6
:1013600035D1002D38DB238A1BB253451DD1BBF18B
:10137000000F27D0EFF3108972B6E3786FF06A059B
:1013800003F0FF08002BE5D1636A66705B6A2046B4
:101390000121984738460121FFF7ACFF636A0546F3
:1013A00041465B6A20469847D4E7E2896369019920
:1013B0001FFA8AFA12B200209954A4F80EA003B0C2
:1013C000BDE8F08F6FF00A0003B0BDE8F08F6FF05A
:1013D0006A0003B0BDE8F08F6FF0030003B0BDE812
:1013E000F08F00BF2DE9F84F8368074614460E467C
:1013F0001D69904602F01CFE10B3EB78002B70D1F3
:101400002B79002B52D0EFF3108772B62CB910E075
:101410002846FFF78FFB013C0BD016F8015B0A2D25
:10142000F6D10D20FFF786FB2846FFF783FB013C32
:10143000F3D117F0010F00D162B64046BDE8F88F36
:1014400000F05AFE0028D8D005F10C0A50460121C0
:10145000FFF750FF00282BDBEB7803F0FF01002B98
:1014600043D13A686B6A82F0400B5B6A2846CBF343
:10147000801B984724B3274608E0494628465A4629
:10148000FFF752FF002815DB013F19D02B7916F822
:10149000019B002BF1D0B9F10A0FEED128460D21A6
:1014A0005A46FFF741FF0028ECD1E6E74FF0FF3046
:1014B000BDE8F88FA74238BFC7EB040800D38046C9
:1014C000EA892B8A12B21BB29A4204D06B6A284670
:1014D0005B6A01219847504600F0A0FE4046BDE8F7
:1014E000F88F6FF06A00BDE8F88F504600F096FE66
:1014F0006FF06A00BDE8F88F2DE9F04F836883B084
:101500001C69074604F11808894640460121164621
:10151000FFF7F0FE002827DB04F10A0300254FF057
:10152000010A0193B5421BD2E378002B59D1A38B5A
:10153000628B9BB219B212B28A4218D0226A01336E
:101540009BB2B4F91EE0525C18B201358645D8BF93
:101550000023B542A38309F1010909F8012CE3D363
:10156000404600F05BFE284603B0BDE8F08F002D3A
:10157000F6D13B685B0639D4636A20469B692946ED
:101580009847628BA38B12B21BB29A4205D0636A52
:1015900020469B6901219847C4E7EFF3108B72B690
:1015A000636A20469B6901219847E3786FF06A00DF
:1015B00083B11BF0010F00D162B6002802DBE37893
:1015C000002BAFD0E3786FF00305002BC8D06FF08D
:1015D0006A05C5E784F802A001980121FFF78AFE99
:1015E000E7E7002DBCD16FF06A05B9E76FF00A0597
:1015F000B6E700BF2DE9F041836801211C69A51DF4
:101600002846FFF777FE061E06DBE3783BB16FF056
:101610006A06284600F002FE3046BDE8F0812378D5
:10162000013313F0FF0708BF6FF01706F1D0012F49
:1016300001D02770EDE7EFF3108872B6237953B924
:10164000636A20461B689847061E04DA18F0010FEB
:1016500000D162B6DDE7636A20469B689847061EA4
:101660000FDB0023626AE38123826383A383936990
:1016700020460121984718F0010F00D162B627706B
:10168000C7E7636A20465B689847DFE770B5836801
:1016900000211C69A51D2846FFF72CFE2378012B8D
:1016A00006D9013B2370284600F0B8FD002070BD2C
:1016B0000021636A21709B692046984705E04AF241
:1016C0002010C0F2070001F04DFDE289238A12B21A
:1016D0001BB29A42F3D105E04AF22010C0F2070093
:1016E00001F040FD636A2046DB6A98470028F3D08A
:1016F000EFF3108672B6636A2046DB689847237959
:10170000002B2FD016F0010F00D162B604F10806AD
:10171000304600F01FFD00210A46304604F10A065B
:1017200001F0FAFD304600F015FD00210A46304672
:1017300004F10C0601F0F0FD304600F00BFD18340A
:1017400000210122304601F0E7FD204600F002FDB5
:1017500000210122204601F0DFFD284600F05EFD59
:10176000002070BD636A20465B689847CAE700BFE7
:1017700070B50C460646002104F10C00012201F070
:10178000CBFD04F118000021012201F0C5FDA01DD0
:101790000021012201F0C0FD00210A4604F10800E9
:1017A00001F0BAFD00210A4604F10A0046F20405E0
:1017B00001F0B2FDC0F6010546F23C012A4633466F
:1017C000C0F60101032001F005FD304605F11001CE
:1017D00023464FF4DB72BDE8704008F0D5B800BF77
:1017E000837803B97047002383700A3000F016BD78
:1017F000437803B9704700234370083000F00EBDF2
:1018000038B50446EFF3108572B6D1F1010138BF47
:101810000021C17019B143786BB9A37823B915F0D1
:10182000010F00D162B638BD0023A37004F10A0095
:1018300000F0F4FCF3E700234370083000F0EEFC06
:10184000A378002BEBD0EFE770B5002504462E46B9
:1018500018E0636A9B6A9847D8B1218A6269636A13
:1018600009B2515C1B6A20469847238AB4F91210CA
:101870009BB201339BB21AB2013591422382ADB2C1
:10188000D8BF2682E289238A12B21BB29A4220462E
:10189000DFD1E289238A12B21BB29A4206D005B97F
:1018A00070BD2046BDE87040FFF7A2BF636A2046C6
:1018B0005B6A00219847F2E7F0B5468BB0F91E301D
:1018C00036B2013683B004469E42A8BF00260027E8
:1018D00008E0A58B636AADB25B6920462DB29847DC
:1018E000B5420CD1636A2046DB69984701A90028FC
:1018F000EFD117B12046FFF773FF03B0F0BD628B45
:10190000236A12B29854B4F91E20B3B201370136DB
:10191000BFB29642A8BF00266383E3E708B500F094
:1019200007F8BDE8084000F021B800BF704700BFCD
:1019300008B541F69C00FEF755FE41F6A800FEF7FB
:1019400051FEBDE8084041F6A900FEF74BBE00BFBE
:10195000022900D07047D2F1010138BF002141F6C1
:101960009C00FEF7A9BE00BF0020704741F68A0028
:10197000FEF738BE08B541F68A00FEF79DFE00204E
:1019800008BD00BF704700BF80B540F6301C40F670
:10199000B01940F6281E40F6481740F6381640F6B3
:1019A000201540F6401440F6BC1140F6B81A00234A
:1019B000C2F2000CC2F20009C2F2000EC2F200072D
:1019C000C2F20006C2F20005C2F20004C2F2000137
:1019D000C2F2000A40F65010CCF8003082B0CCF8C9
:1019E00004301A46C9F800309846C9F80430C2F2EB
:1019F0000000CEF800304FF6FF7CCEF804303B609C
:101A00007B60336073602B606B60236063600B608E
:101A10004B60AAF8003040F802808118083240F686
:101A20005013602AC2F20003A1F804C04FF0000571
:101A3000F1D140F20064C2F200042946D0229D8018
:101A40001C60204601F01EFC04F1C00641F689131B
:101A500046F250014FF0030E0722C0F60003C0F615
:101A600001010227304684F819E06361678301F0C1
:101A700027FC40F6301104F1D003C2F200012046E9
:101A8000C4F8CC30C4F8D06084F8C750C4F8D4503F
:101A900001F0C4FC204602F0B7FA684601A902F042
:101AA0000DFA9DE8030002F00BF842F2C573C0F690
:101AB00000030BB100F086FE43F2D903C0F6000329
:101AC0000BB101F009FB42F60543C0F601030BB16F
:101AD00011F098F840F20003C0F200030BB1AFF32D
:101AE000008042F61D33C0F600030BB101F016F87A
:101AF00043F22133C0F601030BB111F011FC42F6A1
:101B00001123C0F601030BB110F082FF40F2006513
:101B1000C2F2000507F0CEF902F05CFAA17E284679
:101B200000F0AEF8002824DB284600F0DFF800289B
:101B300017DB284600F0CAF8002822DBAB68012238
:101B40001A7000F02FF8002802DA22E002F0C2F941
:101B500001F0C0FF0028F9D100F0F2F801F0C0FF59
:101B6000F4E746F2A400C0F601004FF40271FFF75B
:101B7000DDF946F2A400C0F601004FF40071FFF752
:101B8000D5F946F2A400C0F601004FF40471FFF746
:101B9000CDF946F2A400C0F6010040F21721FFF78C
:101BA000C5F900BF10B582B0FFF7C0FE002446F2B1
:101BB000B40045F25D730094C0F60100C0F6000366
:101BC00064214FF4006200F033F9A04202DD2046A8
:101BD00002B010BD46F2BC00C0F6010040F21D117B
:101BE000FFF7A4F94B2838B5044616D8EFF3108553
:101BF00072B659B140F6C413C2F2000343F8241080
:101C000015F0010F00D162B6002038BDFFF73CF996
:101C100041F65141C0F60001ECE74FF0FF3038BD0E
:101C20004B2808B584BF41F65143C0F600030CD8D9
:101C300040F6C413C2F2000353F8203041F651427B
:101C4000C0F60002002B08BF1346984708BD00BF2E
:101C500008B50346EFF3108272B646F2E40146F28D
:101C6000D002C0F60101C0F60102032001F0EAFA39
:101C700046F2F400C0F601005521FFF757F900BF06
:101C8000F8B50446D8B18568CDB9BC2001F03EFF57
:101C9000064688B1A06000F059FD071E06DBB01CA7
:101CA0002946012201F038FB2846F8BD304601F0F4
:101CB0001DFFA5603846F8BD6FF00B00F8BD46F279
:101CC0000C10C0F60100B821FFF730F908B528B1B3
:101CD00083681BB101225A70002008BD46F20C1027
:101CE000C0F601004FF48E71FFF720F938B50446B5
:101CF0008068E8B1203007F00FF945F62440C0F6BF
:101D00000100032107F0D4FB051E05D001DD07F01B
:101D10003FFB6FF0160038BD012107F04DFB284650
:101D2000022107F049FB2046BDE8384000F058BDCD
:101D300046F22410C0F601005A21FFF7F7F800BF61
:101D400038B540F6BC15C2F200050DE0EFF3108483
:101D500072B640F6BC10C2F2000001F043FB14F072
:101D6000010F00D162B618B92B68002BEED138BD37
:101D700001F0BCFEF8E700BF2DE9F041804682B0DB
:101D8000D0200D4617461E4601F0C0FE044600282E
:101D900040D02946FFF774FF00282DDB204600F0D5
:101DA0003FFD002828DB314620462A4602F0E2F8B3
:101DB000002821DB42F2A90200953946C0F6000254
:101DC0002046089B00F08CF8002815DB4146099A54
:101DD000204600F0EBF82046FFF778FF00280BDBE9
:101DE0002046A68900F054F90028A8BF33B213DBBF
:101DF000184602B0BDE8F08146422046294600F070
:101E00007FFD00F093F94FF0FF330660184602B0F3
:101E1000BDE8F0810C26F4E700F088F940F64011A7
:101E20000668C2F20001204601F004FBE5E700BFAE
:101E300030B583B0069C154600930A462B460194A4
:101E40000021FFF799FF03B030BD00BF30B583B06C
:101E5000069C154600930A462B4601940221FFF783
:101E60008BFF03B030BD00BF2DE9F04140F6B81440
:101E70000746C2F2000400F06FFD40F6501EA04677
:101E8000C2F2000E0C214FF0010C228892B20132F6
:101E900092B293B218B20028CCBF02F00B05012514
:101EA0005EF8356040F650122380C2F20002DCBFBB
:101EB000A8F800C02B463EB10139E6D100F066FD1E
:101EC0004FF0FF30BDE8F08102EBC50142F83570FC
:101ED0008B80BB8100F05AFD3046BDE8F08100BF29
:101EE0002DE9F843884617461E4604469DF8209083
:101EF000FFF7BAFF054638BB638B09F0030923F0EF
:101F0000030349EA03095FFA88F804F13802294615
:101F100084F8188027616661A4F81A90032000F005
:101F2000ADF92046657602F06FF800F015FD40F639
:101F300040112046C2F2000101F070FA04236376DA
:101F400000F024FD84F8C8802846BDE8F88300BF6F
:101F50002DE9F041884617461E460446FFF784FFE8
:101F6000054600BB638B294623F0030343F00103BE
:101F7000638304F1380284F81880276166610320C6
:101F800000F07CF92046657602F03EF800F0E4FCB3
:101F900040F640112046C2F2000101F03FFA04234E
:101FA000637600F0F3FC2846BDE8F0812DE9F84F98
:101FB00046F24413C0F6010300F1C00806460029AA
:101FC00008BF1946914640460722002401F078F9DF
:101FD000404686F8C74001F067F9451CB9F1000F8B
:101FE0004BD0A9F1040A40F2011709E001F05CF9B5
:101FF000B36A013005449D4237D20134BC4238D027
:102000005AF8040F0028F1D1A71CBF0079193046F7
:1020100002F0B8F8824698B307440760404601F0E2
:1020200043F905464146384601353D4401F034F94F
:10203000D04600278CB148F8045FD9F8000001F0C1
:1020400033F90137834659F8041B284601F024F977
:102050000BF1010BA7425D44EDD1013400204AF899
:102060002400C6F8CCA0BDE8F88F6FF02300BDE8CF
:10207000F88F6FF00600BDE8F88F08274C46C5E7DB
:1020800046F25010C0F6010040F20E21FEF74EFF5E
:1020900010B5EFF3108472B602F088F814F0010F57
:1020A00000D162B6002010BD38B540F63013C2F240
:1020B00000031D686B8B03F00303012B14D0D5F8CC
:1020C000CC1001200B4640F2011402E00130A04286
:1020D00007D053F8042F002AF8D16B69984700F015
:1020E00015F8012000F012F846F26410C0F6010065
:1020F0006B21FEF71BFF00BF40F63013C2F2000356
:10210000186800B1808900B2704700BF08B540F67A
:102110003013C2F200031B68C4B2214618460022E5
:1021200000F064FC204601F047FF00BF08B501F055
:102130007FFF40B940F63013C2F20003186810B1B7
:10214000437E032B04D040F2D860C2F2000008BDE9
:10215000643008BD08B548B1B0F90030002B03DB8E
:1021600001230380002008BD002008BDFFF7DEFF2B
:10217000162303604FF0FF3008BD00BFF8B540F6EE
:102180003013C2F2000304461D6801F051FF00281D
:1021900036D1FFF7CBFF16230360002C2DD0EFF3D1
:1021A000108672B623881AB2002A09DD0022013B8C
:1021B000238010466A6316F0010F00D162B6F8BDA5
:1021C0006F6B27BB013B23806C63FFF7AFFF0521DB
:1021D0000760284601F080FEFFF7A8FF0368042B84
:1021E00008BF4FF0FF30E6D0FFF7A0FF00686E2871
:1021F00014BF00206FF00000DDE74FF0FF30F8BDA6
:1022000046F27810C0F601006921FEF78FFE46F213
:102210007810C0F601008E21FEF788FE10B518B3C5
:10222000EFF3108472B6038847F6FF7293421ED014
:1022300001339BB21AB2002A038005DD14F0010FAE
:1022400000D162B6002010BD40F62813C2F2000390
:102250001B68002BF2D05A6B8242F9D100225A63DC
:10226000184601F0A3FFE9E74FF0FF3010BD46F23A
:102270009010C0F601007821FEF758FEF8B540F640
:102280003013C2F200031C68164605460F4600F0E4
:1022900063FBA36B06B13360B7B1EFF3108372B683
:1022A000022D19D0032D13D0012D18BF4FF0FF3789
:1022B00004D13968A26B00270A43A26313F0010F0F
:1022C00000D162B600F010F800F060FB3846F8BDAF
:1022D0003A680027A263F1E73968A26B002722EA77
:1022E0000102A263EAE700BF70B540F63013C2F204
:1022F00000031E6882B000F02FFBB36B3046DC4356
:1023000000F08EFC02AD204045F8040D034605E0C8
:1023100000F074F8431C044607D1019B2846002BAB
:10232000F6D100F033FB02B070BD2146284601F023
:1023300017F82146304600F00BF804460028ECD090
:102340003046211D00F06CF8204600F02FF8E4E73D
:1023500070B582681AB3EFF3108672B61569E5B1ED
:102360002B798B4204D112E023798B4209D0254688
:102370002C68002CF8D116F0010F00D162B620466F
:1023800070BD284602F1100101F038F8F3E702F1C0
:10239000100001F027F82C46EDE72C46EBE746F25B
:1023A000A810C0F601005E21FEF7C0FD037B10B54A
:1023B00023B1022B14D0012B0ED010BDEFF31084EB
:1023C00072B640F61831C2F2000100F0E7FF14F0D7
:1023D000010F00D162B610BDBDE8104000F05EBA3A
:1023E000EFF3108472B640F61031C2F2000100F033
:1023F000D5FF14F0010F00D162B610BD38B5054607
:10240000002402E00134202C07D02846214600F0A9
:10241000BBFF0028F6D0204638BD4FF0FF3038BD56
:10242000002918BF0028F8B504460D4600F0E780E3
:102430003830097800F0A8FF002827D0EFF3108685
:1024400072B6637E062B66D016F0010F00D162B61D
:10245000A468002C00F0DB802A78EFF3108172B6BC
:10246000206910B904E0006810B103799342FAD1F1
:1024700011F0010F00D162B6002864D00430294663
:10248000082200F03BFF00263046F8BD00F064FA59
:102490002046297800F0F6FB0746E0B14668DEB139
:1024A00000F002FC0646002800F0A6807B68294662
:1024B0007360BB680822B3600C3000F01FFFEFF3BD
:1024C000108772B6304604F1480100F067FF17F03C
:1024D000010F00D162B6002600F058FA42F23961CD
:1024E0002046C0F6000101F0D9FDEFF3108772B667
:1024F000637E062B5DD017F0010F00D162B6637EBC
:10250000052B62D0073BDBB2012BBDD8204604214E
:1025100000F0DEF8B8E704F13C00297800F034FF61
:10252000002891D02946082204F1580000F0E6FE68
:102530000023E363204601F039FE16F0010F00D1BD
:1025400062B60026A0E701F073FDD0B140F6183066
:10255000C2F2000000F046FF064600283BD02946A4
:10256000301D082200F0CAFEEFF3108572B6304627
:1025700004F1100100F012FF15F0010F00D162B656
:1025800081E7EFF3108772B640F61830C2F2000010
:1025900000F028FF064617F0010F00D162B60028B0
:1025A000DDD1102001F0AAFA0646E8B10123037339
:1025B000D5E7294604F15800082200F09FFE0023C9
:1025C000E363204601F0F2FD95E72046042100F088
:1025D00069FA637E96E740F61030C2F2000000F020
:1025E00001FF06460028BAD146F2CC10C0F6010021
:1025F0004FF4B071FEF79AFC6FF00B066CE746F2F1
:10260000CC10C0F601004FF4A071FEF78FFC46F22B
:10261000CC10C0F60100F921FEF788FC10B50C467D
:1026200000F05AF920B12146BDE81040FFF7F8BE8E
:102630006FF0020010BD00BF2DE9F84F054600F015
:102640008BF9AC6CD5F864B005F1480905F150067A
:102650004FF001080CB934E05446D4F800A0EFF371
:10266000108772B62046494600F0A4FE2046314647
:1026700000F094FE17F0010F00D162B6217BAF6B22
:1026800008FA01F1A26823463A430A43AA6313F801
:102690000C0F0022194663689847AF63FFF724FECA
:1026A000EFF3108772B62046314600F083FE17F034
:1026B000010F00D162B6204600F022FBBAF1000FF4
:1026C000CAD1C5F864B0BDE8F84F00F05FB900BFEB
:1026D00038B5EFF3108472B6437EDA1FD2B2012A06
:1026E00004D914F0010F00D162B638BD026EF2B108
:1026F0000025072B05660BD0138A1DB2002DC4BF21
:1027000003F1FF33138219DD416601F04FFDE8E765
:10271000538A1DB2002DC4BF03F1FF335382F3DC93
:1027200046F2E410C0F601007C21FEF7FFFB46F202
:10273000E410C0F601007421FEF7F8FB46F2E41045
:10274000C0F601008121FEF7F1FB00BFF8B540F6AD
:102750003013C2F200031C680546002C18BF002885
:1027600014BF0027012725D0A2681AB300F0F4F89F
:10277000A368BBB1DA6982B19E69304601F0BEF947
:10278000A8B1AE61E861A3683246D96900F0B6FD30
:102790003C4600F0FBF82046F8BD144600F0F6F881
:1027A0002046F8BD1C4600F0F1F82046F8BD6FF059
:1027B0000B04EEE746F2F810C0F601005921FEF7CF
:1027C000B5FB00BF054B41F6514203F59871C0F6C9
:1027D000000243F8042F8B42FBD17047C009002050
:1027E00010B50446A0B1806890B100F035FE2246D5
:1027F0000121002007F06AF822460621012007F097
:1028000065F822460621022007F060F8002010BD7E
:1028100046F20C20C0F601004D21FEF787FB00BFF9
:10282000F8B50646806888B3738B03F00303012B69
:1028300025D0203006F070FB40F63013B768C2F2A6
:1028400000031B68A7B19D6895B124372435002487
:10285000AB681BB12846391906F086FB1034502CA2
:1028600005F11005F4D13046BDE8F840FFF7B8BFD8
:1028700046F22820C0F601006121FEF757FB46F220
:102880002820C0F60100D921FEF750FB46F228208F
:10289000C0F60100D621FEF749FB00BF38B504465B
:1028A00001F0C6FB10B901F015F970B1EFF3108516
:1028B00072B640F6BC112046C2F2000100F06EFD77
:1028C00015F0010F00D162B638BD204601F00EF9B7
:1028D000BDE8384001F004B900280EDB40F6501383
:1028E000C2F2000300F00B0203EBC201B1F90410C5
:1028F000814202D153F8320070470020704700BF78
:1029000070B504460D46B0B140F20003C0F20003BA
:102910001BB1B0F90C00AFF30080A2896AB9E36A79
:102920001BB12946204601F0ADFB204600F06AFAB3
:102930002046FFF7B3FF002070BD40F6501302F0B1
:102940000B02C2F20003002603EBC2014FF6FF7038
:1029500043F832608880E2E710B540F63013C2F2E7
:1029600000031C684CB101F063FB30B9A38B1AB2B1
:102970007E2ADCBF0133A38301DC002010BD46F2B8
:102980004820C0F601006921FEF7D0FA70B540F684
:102990003014C2F20004256835B301F049FB18BBBE
:1029A000EFF3108672B6AB8BA3B940F6B013C2F248
:1029B00000031B680022AA830BB101F043FB6B8B61
:1029C000DB060DD52B6A5BB92368AB421CBF142311
:1029D0002B6205E0013B9BB21AB2002AAB83E4DD17
:1029E00016F0010F00D162B6002070BD38B5438BE0
:1029F00004469B06154600D538BD00F015F825B9EC
:102A0000A06810B14378012B0AD0204600F0FAF9F3
:102A1000204600F09DF9638B43F02003638338BDAB
:102A2000743000F07BFBF0E710B5044600F008F8C6
:102A3000204600F019F82046BDE8104000F0BAB971
:102A400038B50446EFF3108572B6406A30B100F035
:102A500005FA606A00F04EFA0023636215F0010F78
:102A600000D162B638BD00BF10B5EFF3108272B668
:102A7000437E052B04D012F0010F00D162B610BDC9
:102A8000436B3BB119880C0441BF0131002419800C
:102A90004463F0D446F25C20C0F601007A21FEF7D0
:102AA00045FA00BF38B50346EFF3108472B6427E94
:102AB000052A04D014F0010F00D162B638BD426B74
:102AC0005AB11088050408D5013000251080184639
:102AD00059665D6301F06AFBECE746F27420C0F6CC
:102AE00001007421FEF722FA38B54FF4A07001F00E
:102AF00005F840F2DC63C2F20003186000F5A0752F
:102B000000E0204640F6F82100F11404C2F2000172
:102B100000F044FCAC42F4D138BD00BF2DE9F041D7
:102B200040F6083140F6F82640F6003540F61832F7
:102B300040F610330024C2F20006C2F20005C2F2D1
:102B40000001C2F20002C2F200034FF4C070346010
:102B500074602C606C600C604C60146054601C608D
:102B60005C6000F0CBFF2646074600F5C07500E02C
:102B7000204640F6003100F118040675C2F200014B
:102B800000F00CFCAC42F3D140F2DC66C2F200066D
:102B9000C020776000F0B2FF0225804600F1C00738
:102BA00000E0204640F6083100F118040575C2F235
:102BB000000100F0F3FBBC42F3D1C6F80880FFF738
:102BC00093FF4FF4807000F099FF0025804600F5D8
:102BD000807700E0204640F6183100F110040573BC
:102BE000C2F2000100F0DAFBBC42F3D18020C6F84B
:102BF0000C8000F083FF0225804600F1800700E092
:102C0000204640F6103100F110040573C2F20001B5
:102C100000F0C4FBBC42F3D1C6F81080BDE8F081DF
:102C200030B5836883B0A3B100220192EFF3108521
:102C300072B61C6934B1217901A800F07DFB2468CB
:102C4000002CF8D115F0010F00D162B6019803B045
:102C500030BD46F28C20C0F601007721FEF766F900
:102C600010B540F630130446C2F2000318682CB1C8
:102C7000FFF7D6FF00232060184610BD4FF0FF334A
:102C8000FAE700BF38B504460D4658B1FFF764FEB9
:102C9000246C14B904E0246814B1237CAB42FAD14B
:102CA000FFF774FE204638BD10B501F0C1F938B108
:102CB00040F60030C2F2000000F094FBB8B110BD45
:102CC000EFF3108472B640F60030C2F2000000F05C
:102CD00089FB14F0010F00D162B60028EFD1182053
:102CE00000F00CFF0028EAD001230375E7E740F667
:102CF0000830C2F20000BDE8104000F073BB00BF16
:102D0000037D10B523B1022B14D0012B0ED010BDC2
:102D1000EFF3108472B640F60031C2F2000100F009
:102D20003DFB14F0010F00D162B610BDBDE81040AC
:102D3000FFF7B4BDEFF3108472B640F60831C2F26B
:102D4000000100F02BFB14F0010F00D162B610BDA2
:102D500038B5054600F1400401E000F079F920465D
:102D600000F040FB0028F8D105F1480401E0FFF72E
:102D7000C7FF204600F036FB0028F8D105F15004CB
:102D800001E0FFF7BDFF204600F02CFB0028F8D142
:102D90004FF0FF32E863AA6338BD00BF10B500F101
:102DA000100401E0FFF702FB204600F01BFB0028A7
:102DB000F8D110BD08B5437E072B13D0082B00D0E7
:102DC00008BD036E3BB11A8A11B20029C4BF02F1DB
:102DD000FF321A82F4DC46F2A420C0F6010073210F
:102DE000FEF7A4F8036E33B15A8A11B2002902DD4E
:102DF000013A5A8208BD46F2A420C0F601006921BA
:102E0000FEF794F838B5054600B3846834B16378AA
:102E1000012B04D9013B63700023AB6038BD204611
:102E2000FFF7BCFF204600F019F904F1200006F07E
:102E300083F8204600F036FB204600F03BF92046A0
:102E400000F02CF92046FFF729FDE5E746F2B8200F
:102E5000C0F601004FF4C771FEF768F838B50446B4
:102E6000EFF3108572B6002839D0037BDB0736D527
:102E700040F62C33C2F200031A68904218BF002AB1
:102E80000CBF0021012101D126E01A4613689C42A3
:102E900018BF002BF9D12BB3196819B198688B684A
:102EA00003448B608AB140F62C311046C2F2000117
:102EB00000F0A4FA237B002023F001032373206099
:102EC00015F0010F00D162B638BD40F62C30C2F2C9
:102ED000000000F087FAEDE713460A46DBE74FF003
:102EE000FF30EDE746F2CC20C0F601008121FEF76D
:102EF0001DF800BF38B50446002830D0EFF3108528
:102F000072B6037BD9071CD49A071FD45B0701D57F
:102F1000002038BD40F620312046C2F2000100F00A
:102F20003DFA40F62833C2F200031A88013292B209
:102F3000022A1A801AD815F0010F00D162B60020BB
:102F400038BDFFF78BFF237B9A07DFD515F0010F04
:102F500000D162B62046FFF7A1FC002038BD46F242
:102F6000E020C0F601006421FDF7E0FF46F2E0201A
:102F7000C0F601009321FDF7D9FF00BF2DE9F04114
:102F800040F63013C2F200031F2807460D461646CE
:102F9000D3F800803FD840463946FFF773FE044619
:102FA00036B108B34368336083687360C368B36045
:102FB000F5B12E6846B1F4B166606B680020A3607D
:102FC000AB68E360BDE8F0816CB308F140012046D6
:102FD00000F0F0F940F6F8212046C2F2000100F0BE
:102FE000DDF93046BDE8F08130607060B060DFE749
:102FF0002846BDE8F08140F6F820C2F2000000F05B
:10300000F1F9044690B1277408F14001204600F020
:10301000C5F92E68D0E7FFF789F8162303604FF053
:10302000FF30BDE8F0812046BDE8F081FFF75CFD90
:1030300040F6F820C2F2000000F0D4F9044600285F
:10304000E1D146F2F420C0F601006821FDF76EFFE1
:1030500040F6F821C2F2000100F0A0B938B50546EB
:1030600068B914E0204650F80C3B6B60FFF772F82B
:1030700004F10A00FFF76EF82046FFF70FFC6C68BA
:10308000002CEFD1A81CBDE83840FFF763B846F22A
:103090000830C0F601006021FDF748FF10B5044676
:1030A000D0F8B40028B106F0DDFDD4F8B400002853
:1030B000F9D110BD10B5044638B1C06908B1FFF7A9
:1030C000EDFB0023A361E36110BD46F22430C0F69E
:1030D00001005221FDF72AFF38B540F6203440F2B6
:1030E000F065C2F20004C2F2000540F62C33002263
:1030F000C2F20003214628461A605A6022606260CC
:1031000000F04CF905F11800214600F047F940F6AF
:103110002833C2F2000302221A8038BDF8B50746F0
:10312000064690B100F0CCF93C46052500266368C0
:10313000201D002B02DB23899B0708D4013D04F1ED
:103140000C04F4D1384600F0D1F93046F8BD012125
:1031500000F006F836EA200628BF0646EEE700BF74
:103160000020704700B583B0B0B14DF68363C4F260
:103170001B33A3FB002344F240229B0CC0F20F023E
:1031800002FB13004FF47A7202FB00F20021684642
:10319000009301920FF08AFA03B05DF804FB00BFC0
:1031A00030B540F25003C2F200031B7885B043FAF9
:1031B00000F010F001000C46154608D001A80121CE
:1031C00000F064FC01A821462A4600F07FFA05B011
:1031D00030BD00BF0EB410B540F25003C2F2000380
:1031E0001B7885B043FA00F007AC54F8043B10F0AC
:1031F0000100009408D001A8012100F047FC01A8BB
:103200000799224600F062FA05B0BDE8104003B00D
:10321000704700BF30B540F25003C2F200031B7884
:1032200083B043FA00F010F001000D46144607D0B9
:10323000684600F0DFFB68462946224600F046FA61
:1032400003B030BD0EB400B582B003AB53F8041B1D
:103250001A460193FFF7DEFF02B05DF804EB03B0FE
:10326000704700BFEFF3108172B640F25003C2F214
:1032700000031A78187011F0010F00D162B61046E1
:10328000704700BF32B1C9B20244034603F8011BC4
:103290009342FBD1704700BF024611F8013B02F890
:1032A000013B002BF9D1704702783AB1431C1978E1
:1032B0001A4601330029FAD1101A70471046704798
:1032C0000244904210B40BD00C78431C04702CB90B
:1032D00009E011F8014F03F8014B24B19342F8D1F2
:1032E0005DF8044B70479A4218BF0021F8D003F8EC
:1032F000011B9342FBD15DF8044B704710B43AB107
:103300000244034611F8014B03F8014B9342F9D1F3
:103310005DF8044B704700BF002818BFB2F5004F9E
:1033200008B502D20280002008BDFEF7FFFE16237A
:1033300003604FF0FF3008BD1F2908B5034607D8CA
:10334000012202FA01F1026800200A431A6008BD56
:10335000FEF7ECFE162303604FF0FF3008BD00BF00
:103360001F2908B5034608D8012202FA01F10268B4
:10337000002022EA01021A6008BDFEF7D7FE1623DC
:1033800003604FF0FF3008BD1F299DBF006820FA81
:1033900001F101F001004FF0FF307047002303609E
:1033A0000B681BB14B681860486070470860486044
:1033B000704700BF0A684AB140B1824201D109E0BA
:1033C0001A461368834202D0002BF9D17047104689
:1033D00000F014B84B6810689A420860F6D10023D8
:1033E0004B607047036823B11A6802601AB100226B
:1033F0001A60184670474260F9E700BF0A68036820
:103400004AB143B14A689A4212BF1A680022486022
:10341000026000221A601846704700BF0023436014
:103420000B6803600B6813B1586008607047086050
:10343000486070474268036832B113603BB15A601C
:1034400000230360436070470B60002BF7D100231B
:103450004A600360436070472DE9F0410646D0B1F1
:1034600000F17407384600210122FFF755FF06F1ED
:10347000780405254FF0FF38204600210C22FFF785
:1034800001FFA31B3B44013D43F8748C04F10C0481
:10349000F2D1BDE8F08146F23C30C0F601005C217B
:1034A000FDF744FD08B520B17430BDE80840FEF7D3
:1034B00051BE46F23C30C0F601009021FDF736FDCA
:1034C00010B5044604E0FEF731FE0368042B05D175
:1034D0002046FEF753FE0028F5D110BD46F25030CD
:1034E000C0F601005121FDF721FD00BFFEF796BE99
:1034F00038B54CF6CD44CCF6CC44A4FB0134E408FA
:10350000234604EB8404A1EB4404054613B1194699
:10351000FFF7EEFF04F130012B682846984738BDCD
:1035200038B501F00705C908044601D0FFF7F8FFD8
:1035300005F1300123682046984738BD38B501F0C1
:1035400001054908044601D0FFF7F8FF05F13001F5
:1035500023682046984738BD70B5012982B01646C9
:103560000446069D26D002290ED1320632D4F10738
:1035700029D45D1B002D05DD2368204630219847A6
:10358000013DF9D102B070BD12F0810F18BF0135B5
:103590005D1B002D05DD2368204620219847013D55
:1035A000F9D130061DD4F107ECD5236820462B2134
:1035B0009847E7E7320619D4F307E3D503682B21D0
:1035C000984702B070BD02682B21019390470135E6
:1035D000019BCEE702682D21019390470135019BA5
:1035E000C7E7236820462D219847CBE703682D21A4
:1035F0009847C7E72DE9F04106460F4690461C2440
:10360000002527FA04F303F00F010D4309D009291F
:1036100088BF41443268304694BF30310A39904700
:103620000125043C231DECD11DB9336830463021FF
:103630009847BDE8F08100BF70B5A1F1580482B091
:103640000D460646202C35D8DFE804F02834343403
:10365000343434343434163411343434341134348E
:103660003434341B283434343411343428001946AB
:1036700002B0BDE870403BE7194602B0BDE87040BB
:103680005CE7920704D50268302101939047019BC3
:103690003046194602B0BDE8704041E791070BD4AF
:1036A000582D304619460CBF4122612202B0BDE8B8
:1036B00070409FE702B070BD0268302101939047CF
:1036C0003268304678219047019BE9E72DE9F04FB9
:1036D0008C46097887B006469146002900F0AA80FA
:1036E00046F26832C0F6010203920AE033683046BF
:1036F000E34698479BF801100BF1010C002900F0FC
:1037000099802529F2D19CF801100CF1010B0029B8
:1037100000F057810027B846BA4646F27030C0F62E
:10372000010000F0BDF9002840F0C8809BF800407F
:103730002D2C00F08680302C00F08B802A2C00F09D
:10374000A180A4F13103DBB2082B00F28A809BF840
:103750000110303CA1F13005EAB2092A0BF1010356
:1037600000F200810BF102039C4613F8011B04EBED
:10377000840405EB4404A1F13005EAB2092AF3D927
:1037800017F0040F08BFA246E3460029C5D146F250
:103790008430C0F6010000F083F90028AAD09BF81D
:1037A000001009F10404A1F15803D9F80050202BAE
:1037B00019D8DFE803F04318181818181818181843
:1037C0004318111818181811181818181843431806
:1037D0001818181818184300002DBEBF07F0FE0770
:1037E00047F080076D4204A8029100F019F904A87F
:1037F00002993A462B46FFF71FFFDDF8149030463A
:1038000041463A465346CDF80090FFF7A5FE3046B4
:103810002B469BF800103A46FFF70EFFB8F1010F58
:1038200000F0B3809BF80110A1460BF1010C0029B8
:103830007FF467AF706807B0BDE8F08F07F07E07D0
:10384000D1E71BF8011F4FF0010800297FF465AF95
:103850009DE71BF8011F4FF0020800297FF45DAFC0
:1038600095E72E2C21D02B2C47D0232C11BF1BF8F1
:10387000011F1BF8011F47F00207FFB200297FF468
:103880004CAF84E77807D9F800201BF8011F09F135
:10389000040357BF47F008079946FFB2994658BF3F
:1038A000924600297FF439AF71E71BF8011F47F0FA
:1038B0000407FFB200297FF430AF68E79BF80010DF
:1038C00025295ED0732921D0632971D04C2950D08D
:1038D0006C297FF45CAF9BF801106C2913BF47F093
:1038E000200747F060079BF80210FFB212BF0BF1F0
:1038F000010BFFB20BF1020B49E71BF8011F47F068
:103900000107FFB200297FF408AF40E7D9F8004073
:10391000039B09F10409002C08BF1C462046FFF751
:10392000C3FC414600900546002230465346FFF74F
:1039300013FE217831B133683046984714F8011FDF
:103940000029F8D1B8F1010F7FF4D4AEC5EB0A0518
:10395000002D7FF7CFAE3368304620219847013DD8
:10396000F9D1C7E69C4617F0040F08BFA246E3460C
:103970000BE747F040079BF80110FFB20BF1010B7A
:1039800005E7336830469847B4E617F0810F18BF53
:1039900009F10109C9EB0A0ABAF1000F7FF742AF3A
:1039A0003368304620219847BAF1010AF8D139E747
:1039B00009F10402D9F8001033683046914698475F
:1039C00098E68A4688460F46E1E600BF10B50446F1
:1039D00040B10846FDF7AEF801301EBF6368013301
:1039E000636010BD46F29030C0F601003D21FDF746
:1039F0009DFA00BF43F6CD13C0F60003002203601A
:103A00004260704708B518B143680133436008BD90
:103A100046F2AC30C0F601003421FDF787FA00BF52
:103A200043F60523C0F6000300220360426070479E
:103A300030B583B005468DF80710F8B180680028CE
:103A400008DA1BE0FEF772FB002C03680FDA042B88
:103A50000BD1A8680DF10701012205F021FF012813
:103A60000446EFD16B6801336B6003B030BD46F2A2
:103A7000C830C0F601005221FDF758FA46F2C830AE
:103A8000C0F601003D21FDF751FA00BF43F6312396
:103A9000C0F600030022816003604260704700BFEF
:103AA00068B102788A420AD042B1431C00E02AB1D0
:103AB000184613F8012B8A42F9D170471046704717
:103AC000034640F634300A46C2F20000194600F0C0
:103AD0005BB800BF40F63430C2F2000000F084B89A
:103AE00040F63430C2F2000000F0BCB8014640F6A7
:103AF0003430C2F2000000F017B900BF014640F6B2
:103B00003430C2F2000000F075B900BF014640F643
:103B10003430C2F2000000F0C5B900BFB2F5803FFA
:103B20002DE9F04128D80A4401F10F0424F00F04D4
:103B3000816822F00F02161B8F1904252146C460EC
:103B4000876021F8045BC768A6F1080C4FF40048B1
:103B5000161FA7F80280A4F804C04D80066122F861
:103B6000045CA28803696FEA42426FEA52425A80BB
:103B7000BDE8F04100F09CB846F2E030C0F601002C
:103B80006421FDF7D3F900BF2DE9F041002306467B
:103B900000F11405B360884617461946284690225E
:103BA000FFF770FB0B2406F1200300E00C33013C0F
:103BB0009D6043F8083C1D46F8D1304600F008F8F7
:103BC000304641463A46BDE8F041FFF7A7BF00BF87
:103BD00010B5012200210446FFF79EFB4FF6FF724D
:103BE00000236280636010BD38B50446FEF784FA96
:103BF000B4F902300546834207D020460EF0FCFCA3
:103C000040B901236580636038BD636800200133DB
:103C1000636038BD4FF0FF3038BD00BF38B5044693
:103C2000FEF76AFAB4F902300546834205D10DE089
:103C3000FEF77CFA0368042B0CD12046FEF79EFAAF
:103C40000028F5D101236580636038BD63680133C6
:103C5000636038BD46F2F830C0F60100AB21FDF7D5
:103C600065F900BF10B50446FEF746FAB4F9023014
:103C700083420FD16368012B02DD013B636010BDFD
:103C80004FF6FF720023628063602046FEF7C6FA9B
:103C900038B910BD46F2F830C0F60100C721FDF773
:103CA00045F946F2F830C0F60100DC21FDF73EF997
:103CB00070B5064608880D4600F024F800EB400079
:103CC0008300F218946902F11406CCB1228882B103
:103CD0002888904205D80CE01A8862B182420AD244
:103CE0001C466368002BF7D100236560AC606B60F5
:103CF00070BD234634466560AC606B609D6070BDEE
:103D00003446F1E7B0F5004F01D30B2070470309AB
:103D1000012B4FF0000005D95B08012B00F10100D9
:103D2000FAD87047704700BFF8B50C46074600291F
:103D300048D0FFF773FF34F8021C34F8046CC1F369
:103D40000E01221F24F8021C9319B3F90200002867
:103D500039DB955B99681D44002943D05868486059
:103D6000596809B19B688B60915B34F8043C0B4443
:103D70009BB224F8043C698801F400410B436B803A
:103D800034F8021C511AB1F90230002B21DB8B6888
:103D90000BB34A685A604B680BB18A689A6034F872
:103DA000042C0B8813449BB20B806A8802F40042F7
:103DB00013436B803846FFF77BFF3846BDE8F84079
:103DC000FFF750BFF8BD511A1D46B1F90230002B64
:103DD000DDDA1146EEE746F20C40C0F6010089211B
:103DE000FDF7A4F846F20C40C0F601007021FDF783
:103DF0009DF800BF70B50646002939D001F11305C2
:103E000025F00F05FFF70AFFB5F5004F28BF0B207F
:103E10002AD300EB400006EB8000846914B91DE052
:103E20006468DCB123889D42FAD8A368002B31D0A6
:103E300062685A6063680BB1A2689A6023885A1B53
:103E40000B2A17D8638830466FEA43436FEA53431F
:103E5000251D6380FFF706FF284670BD30462546C6
:103E6000FFF700FF284670BD2846FFF74BFFD0E75D
:103E7000084670BDA8B292B26119625323444880CB
:103E80002080588800F4004002435A803046FFF7F3
:103E90000FFFD7E746F22040C0F601009421FDF75E
:103EA00045F800BF38B50D46FFF7A4FF044618B12A
:103EB0002A460021FFF7E6F9204638BD45F6CC3307
:103EC000C0F601031B68C3F1005202F580320360A3
:103ED0000A607047704700BF2DE9F041437E40F60D
:103EE0003014023BDBB2C2F20004012B06460F463F
:103EF000D4F800802AD80EF007F839460546304637
:103F00000EF094F840F6B013C2F200031B681BB128
:103F10000EF048F82843C5B275B140F61C15C2F240
:103F20000005296851B108F1780000F017F82368FE
:103F300078332B60BDE8F081BDE8F081216808F19D
:103F400078007831BDE8F04100F067B946F23440BE
:103F5000C0F601005F21FCF7E9FF00BF814207D0F6
:103F600000F1480251F8043B40F8043B9042F9D17B
:103F7000704700BF70B5C36A04460D4693B1866AA8
:103F80008E4204D0114600F07DF8E36A53B1043D3F
:103F90001D4425F00705C3F104032B442563A362E8
:103FA000002070BD2846FFF7A9FD0346E062002807
:103FB000EDD14FF0FF3070BD08B5EFF3108372B64E
:103FC0000EF0EEF840F63013C2F2000318687830B5
:103FD00000F01EF908B540F61C13C2F200030022DF
:103FE0001A60FCF7D9FE45F26923C0F601030BB154
:103FF00011F03AF900F01EF90DF09CF9FCF764FDA0
:10400000BDE8084001F078BB10B5002104465822F5
:104010006830FFF737F92269236B22F001024FF075
:104020008071A367C4F8B820C4F8BC1010BD00BFED
:1040300040F61C13C2F200031868003018BF0120BC
:10404000704700BF70B540F63014C2F20004266815
:104050000DF0A8FF68B140F61C15C2F200052968F2
:1040600041B106F17800FFF779FF236878332B60C0
:1040700070BD70BD216806F178007831BDE87040F0
:1040800000F0CBB810B50446C06A18B1FEF706FCC4
:104090000023E3620023A36210BD00BFF8B5836E66
:1040A00003B1F8BDEFF3108472B640F63013C2F2DC
:1040B00000031B68834219D044F22D13C0F600039D
:1040C000D0F8B860C56FC0F8B830D0F8BC30012265
:1040D0004FF080778166C66605674367C267C0F8A0
:1040E000BC7014F0010F00D162B6F8BD40F61C128E
:1040F000C2F200021268B2B19966106C44F22D113E
:10410000D8665068C0F600011867506C01264FF061
:1041100080755867116403F1780056601146556444
:10412000FFF71CFFDDE718468847DAE730B540F6B1
:104130003013C2F200031C6893B0A36E656ED3B156
:1041400004F178016846FFF709FFE36E0021109340
:10415000626F236F1192A26E0193A16613F0010F9B
:1041600000D162B620469047EFF3108372B66566C1
:10417000684600F04DF846F24C40C0F6010064215C
:10418000FCF7D4FE0346C06A073121F0070158B19D
:104190009A6A914207D2186B521A401A18639867AC
:1041A0009A62043070470020704700BF70B5437EAC
:1041B00040F63014043BDBB2C2F20004042B054687
:1041C00026681ED80DF052FF14232B6228460DF0EE
:1041D00065FE68B140F61C15C2F20005296841B1C0
:1041E00006F17800FFF7BAFE236878332B6070BDC4
:1041F00070BD216806F178007831BDE8704000F0AC
:104200000CB846F26440C0F601005921FCF78EFE5E
:1042100001464FF0010000DF70470A4601464FF0AB
:10422000020000DF7047000008B50DF08DFF002090
:1042300008BD00BF10B54EF62053CEF200031C6837
:104240004EF2140224F07F444FF67F40CEF200027B
:1042500044F00044C0F20A0044F229211C60C0F678
:10426000000110600F20FDF7BDFC4EF21003CEF2EE
:10427000000307221A600F20BDE81040FCF718BEAB
:1042800038B50446EFF3108072B6236923B15A693A
:10429000226122B300225A6110F0010F00D162B6F0
:1042A00083B12079627E400602F001050BD0002226
:1042B00059815A611946DA6820469047637E65F352
:1042C0000003637638BDE068007CB0F1050EDEF1D6
:1042D000000050EB0E0060F300026276E7E76261D7
:1042E000D8E700BF30B5044683B080B1C06870B174
:1042F000B4F86420036800929D68214604F1240309
:1043000004F11C02A8470028BCBF0523237403B096
:1043100030BD00BF10B4047D002344FA03F2D2077D
:104320000DD4980000F1804000F5B840028822F4D6
:10433000E04222F07F021204120C1A430280013381
:10434000082BEAD145F64C4341F08001C4F200034A
:1043500019805DF8044B7047002918BF002838B554
:10436000044612D0EFF3108572B603693BB12046C4
:104370006FF06B01FFF784FF2369002BF7D115F075
:10438000010F00D162B6002038BD6FF0150038BDB6
:1043900038B145F64840C4F200000088C0F30A0076
:1043A00070476FF015007047034628B1C27C0020AB
:1043B00061F34102DA7470476FF01200704700BF7A
:1043C00045F6404310B5C4F2000304461B8823F0B1
:1043D00004031B0445F640421B0CC4F20002138088
:1043E0000121FDF7CFFA45F64043C4F200034FF434
:1043F0000C421A80E06820B103685B690BB121466A
:10440000984710BD38B5044638B3EFF3108572B63F
:10441000FFF7D6FF638B012123F4C8531B041B0C49
:1044200043F4807345F6404261746383C4F2000232
:10443000118845F64042C9B20B43C4F20002138012
:1044400045F64443C4F200034FF6FF621A8015F0AC
:10445000010F00D162B6002038BD6FF0150038BDE5
:10446000002818BF002900D170470846FFF73EBB5F
:1044700010B550B11820FFF741FB044628B10021C8
:104480001822FEF7FFFE204610BD10BD91F804C0B3
:10449000F0B40CF07F0C002B41D045F65044C4F230
:1044A00000042488A4B24FEACC0C6444640004F1F4
:1044B000804404F5C04424689BB25F1CA4B27F1002
:1044C0004FEA440514D046F204040232C4F2000458
:1044D00002EB47072C4412F8016C12F8025C02321E
:1044E00045EA0625BA4224F8045C04F10404F2D13A
:1044F00045F65042C4F20002128892B20CF1020456
:104500001444640004F1804404F5C0443022236064
:1045100002804B7EF0BC43F004034B7670474FEAB9
:10452000CC0CE5E770B54B7E0C696FF382030D464A
:104530004B76002C32D0E6882289DBB2B61A6FF3B4
:10454000C303002E4B7602DDCB889E4210DA23682F
:10455000228918301A4429463346FFF797FF2289EB
:10456000E3881644B6B2B34226810CD0002070BD59
:1045700018BF1E46EBD12379D90742BF6B7E43F0AB
:1045800008036B76E3E76C7EC4F3C004002CEDD126
:1045900028462146FFF774FE204670BD6FF00100EB
:1045A00070BD00BFF8B5002900F08180CB68002BFA
:1045B0007DD00B68002B7AD0002878D0C468E368DF
:1045C000002B77D04FF68D72002306794A810B813C
:1045D000EFF3108572B6437E13F0010239D190F9E2
:1045E000047006F07F06002F13DB96B162F3C3035D
:1045F00043764A610369002B56D043695961416192
:10460000E37CD8072DD4002015F0010F00D162B64D
:10461000F8BD00234B610369002B42D04369596107
:104620004161437E5F07EED4202301462383204669
:10463000002E2ED0FFF776FFB60006F1804606F575
:10464000B8463288218B48F6BF734A401340338006
:10465000DAE74FF6F0734B81CB6898476FF00F00A5
:10466000D2E7B6004FF4405306F1804606F5B8464F
:10467000E382338823F4804323F070031B041B0C74
:1046800083F440533380E37C00206FF30003E37432
:10469000BAE7FFF747FF00280CBF0323002323746A
:1046A000CAE701614161BCE701614161A8E76FF0C0
:1046B0001500F8BD6FF06B00F8BD00BFF8B50279CA
:1046C000056902F07F02002D4CD0E988002942D014
:1046D000B5F808C02B6845F650446344C4F20004A2
:1046E0002488D200A4B2161D2644760006F1804626
:1046F00006F5C04645F650443768C4F200042488E5
:10470000A4B206322244520002F1804202F5C042B5
:104710001668BAB2C6F309068E42B4BF37460F46D2
:1047200052007C1C02F18042641002F5C04209D0A4
:1047300003EB440452F8041B23F8021BA342F9D1F3
:10474000B5F808C06744BFB22F81C3889E4202DB20
:10475000EB88BB4204D80021FFF792FD0020F8BD92
:104760000020F8BD6FF00100F8BD00BFF0B40028D4
:1047700052D011F07F0135D007294DD8012303FA1B
:1047800001F1C9B2EFF3108772B6067D31404AD00D
:1047900001231C4604FA03F215460A4024D10133D2
:1047A000082BF7D117F0010F00D162B6002A33D0E1
:1047B000EFF3108772B6447D0223012505FA03F159
:1047C0000C420E462BD10133072BF7D14FF0FF33AC
:1047D00017F0010F00D162B6591C0ED013761046A7
:1047E000F0BC7047FF21CDE7C3EBC30300EB8302AE
:1047F00026EA050568320575D4E7EFF3108372B633
:104800001279012102F07F029140027D0A43027574
:1048100013F0010F00D162B60020F0BC704724EA0B
:1048200006044475D4E70A46BCE700BF002918BF58
:10483000002810B41DD0EFF3108372B60A7E012455
:1048400004FA02F2047D2243027513F0010F00D135
:1048500062B6EFF3108372B60A79012102F07F028B
:1048600001FA02F2017D0A43027513F0010F00D133
:1048700062B65DF8044B704708B545F65043C4F284
:1048800000031B889BB203EBC0000630400000F120
:1048900080403E2900F5C0400AD94909013989B252
:1048A0000F299CBF890241F4004111D8016008BD65
:1048B0000029FBD0013149101F2918BF8902F5D109
:1048C00046F2B840C0F601004FF45871FCF72EFBD9
:1048D00046F2B840C0F601004FF45671FCF726FBD3
:1048E000F8B50346002800F0A2800079DE6800F0E9
:1048F0007F00EFF3108772B693F90440820002F153
:10490000804505F5B845002C2D88B4BF05F030056D
:1049100005F4405535B900284CD1052333746FF0A8
:104920001200F8BD49B3597E02F180426FF30001D5
:10493000002C597602F5B8444EDB228802F440522E
:10494000B2F5805F30D1002869D023889BB258042B
:1049500005D548F68F721A4042F4804222804FF407
:104960004053F382238823F4804323F070031B0415
:104970001B0C83F44053238016E0597E002C41F039
:104980000101597602F1804217DB4FF4805302F5A2
:10499000B842F382138823F4804323F070031B048E
:1049A0001B0C83F48053138017F0010F00D162B603
:1049B0000020F8BD6FF01200F8BD102302F5B842D8
:1049C0003383138823F4E04323F040031B041B0CC0
:1049D00083F010031380E7E7228802F03002102AE8
:1049E000E2D1228892B2550605D548F68F71114062
:1049F00041F04001218020223283194698B9304687
:104A0000FFF790FD00280CBF03200020307422889F
:104A1000318B48F6BF734A4013402380C4E7D988DE
:104A2000FFF72AFF9BE73046FFF77CFDEFE76FF0CB
:104A30001500F8BD2DE9F047856F82B0044600F1FE
:104A400068064FF6B97765B12989EB8830469942F7
:104A500014BF3946002109B2FFF712FCA26F002AE9
:104A6000F2D194F88130227C03F0FE036FF38203CD
:104A7000022A84F8813066D045F65042C4F2000222
:104A800004F11C03128892B20432520002F18042F7
:104A900002F5C042126804F1240092B2520002F101
:104AA000804202F5C04252F8041B23F8021B8342E5
:104AB000F9D1237F94F8222094F8219094F82010C3
:104AC00094F82380180642EA082841EA092994F854
:104AD0001FA0A27F02D4B8F1000F12D1022142EA36
:104AE0000A2A217413F0600F17D1627F0C2A25D88F
:104AF000DFE802F07B59240C244A4747193D131381
:104B00002B000123237402B0BDE8F08713F01F03CC
:104B100040F09680BAF1020F18D02046FFF7E2FB72
:104B200002B0BDE8F087DF0608D1BAF1000F05D169
:104B30001FFA89F313B9B8F1010FEED005232374DE
:104B400002B0BDE8F087237FCCE70023227C052A52
:104B5000D9D04345A8BF4346314604F1180001AA05
:104B6000FFF794FC0023237402B0BDE8F087DE0653
:104B7000E4D11FFA89F3002BE0D1B8F1000FDDD1A9
:104B8000CBE7DB06DAD1C8E7DA06D7D11FFA89F31B
:104B9000002BD3D1B8F1000FD0D1BAF17F0F98BF5D
:104BA0004346D3D9CAE703F01F03022BB5D109F05E
:104BB0007F03072BC2D8C9F30722002ABED1BAF15E
:104BC000000FBBD1B8F1000FB8D1C3EBC30304EBA6
:104BD000830393F88120683368F3410218465A76BC
:104BE0000121FFF77DFE4346B0E7B8F1020FA5D1E2
:104BF0001906A3D5C9F30722002A9FD1BAF1000FE5
:104C00009CD103F01F03012B3FD04CD3022B95D135
:104C10005FFA89F909F07F03072B8FD89B0003F116
:104C2000804319F0800FADF804A003F5B84330D1EC
:104C30001B8803F44053B3F5805F2FD0022385E730
:104C4000022B7FF46AAF09F07F03072B3FF676AFA4
:104C5000C9F30722002A7FF471AFBAF1000F7FF485
:104C60006DAFB8F1000F7FF469AFC3EBC30304EB82
:104C7000830393F88120683342F0020218465A7683
:104C80004146FFF72DFE434660E7ADF804A04346DA
:104C90005CE71B8803F03003102BCFD101238DF884
:104CA0000430022352E71FFA89F3002B7FF446AF4A
:104CB000E37CADF804A0C3F3400343F002038DF896
:104CC0000430434642E700BF70B5044600282ED0AA
:104CD000057905F07F05EFF3108672B603693BB1E5
:104CE00020466FF06B01FFF7CBFA2369002BF7D159
:104CF00028460021FFF7C0FDAA0002F1804202F51C
:104D0000B842138823F4804323F070031B041B0C68
:104D10001380138823F4E04323F040031B041B0C8F
:104D2000138016F0010F00D162B6002070BD6FF045
:104D3000150070BD002918BF002870B514BF0023EE
:104D4000012300F084808A78057902F07F0205F063
:104D50007F05AA427ED1CC7804F00304022C08BF60
:104D60001D460AD0032C08BF4FF4C06505D0012CA6
:104D70000CBF4FF480654FF40075940004F180443B
:104D800004F5B844238823F4EC4323F070031B0498
:104D90001B0C2B4323804E790B79057E43EA0623B7
:104DA000AD01402B05F140055CD8C38091F902109C
:104DB000002927DB45F650410271C4F20001098841
:104DC00089B201EBC2010431490001F1804101F5D2
:104DD000C0410D6010461946FFF74EFD238823F4AD
:104DE000804323F070031B041B0C83F44053238087
:104DF000238823F4E04323F040031B041B0C23808F
:104E0000002070BD62F07F0145F650430171C4F28D
:104E100000031B889BB203EBC202520002F18042E6
:104E200002F5C0421560238823F4E04323F04003D9
:104E30001B041B0C83F020032380238823F480436E
:104E400023F070031B041B0C2380002070BD6FF047
:104E5000150070BD46F2B840C0F6010040F625319D
:104E6000FCF764F846F2B840C0F6010040F64B315A
:104E7000FCF75CF808B540F22073C2F20003002191
:104E800045F640421972C4F200020123138045F630
:104E90004443C4F2000300221A8040F22070C2F2A0
:104EA0000000FCF767FD45F64043C4F2000303220F
:104EB0001A8008BD38B545F64043C4F2000303220A
:104EC0001A8040F22074C2F2000420460021FCF750
:104ED00051FD204600214FF4A472FEF7D3F946F2AB
:104EE00080432246C0F6010342F8683B7C202146FD
:104EF000FE25607562602575002203F11C044020C8
:104F00000B4683F86C200132082A9C665967A3F887
:104F10006E0003F11C03F4D145F64043C4F20003D4
:104F200001221A800520BDE8384000F0FDBB00BF1B
:104F300008B545F64043C4F2000301221A8040F24E
:104F40002073C2F20003002245F640415A83C4F2A6
:104F500000010A8045F65043C4F200031A804FF462
:104F6000B843C4F200031B8823F4EC4323F070031E
:104F70001B041B0C4FF4B84243F40073C4F200024C
:104F800013804FF4B843C4F200031B8823F4E043BA
:104F900023F040031B041B0C4FF4B84283F02003A2
:104FA000C4F20002138045F65043C4F200031B888C
:104FB0009BB204335B0003F1804303F5C0434021FF
:104FC00019600020FFF758FC45F65043C4F2000377
:104FD0001A8892B2520002F1804202F5C04280214A
:104FE0004FF4B8431160C4F200031B8823F4E2437A
:104FF00023F070031B044FF4B8421B0CC4F20002F0
:1050000013804FF4B843C4F200031B8823F4804399
:1050100023F070031B041B0C4FF4B84283F440537D
:10502000C4F20002138040F22070C2F2000000219E
:10503000FFF770F945F64443C4F2000300221A80DA
:1050400040F22073C2F200039A7E45F6404142F4DA
:105050000C425A83C4F20001098845F64043C9B2A4
:105060000A43C4F200031A8008BD00BF45F640435E
:1050700070B5C4F2000301221A8040F22075C2F21A
:105080000005E8682946036805F16804DB6898476D
:10509000EA7C002363F30002EA742B746B7405F559
:1050A000A47604E020466FF06B01FFF7E9F823696E
:1050B000002BF7D1637E1C3403F0F8036FF3C303B6
:1050C00004F8033CB442F2D1FFF732FF02232B7203
:1050D00070BD00BF70B5850005F1804505F5B84588
:1050E0002B8840F220741AB2C0EBC006C2F2000452
:1050F00004EB8606002A06F168069BB221DB1B063C
:105100001ED52B8823F4E14323F070031B041B0CF2
:105110002B802023238300282ED140F2207031469B
:10512000C2F20000FFF7FEF900280CBF03200020A8
:1051300020742A88218B48F6BF734A4013402B8085
:1051400070BD336903B33046FFF7B8FA4FF44053EC
:10515000E3823269C2B119462A8822F07002120530
:10516000120D2A802A8822F4804323F070031B0446
:105170001B0C4B402B8070BD40F220703146C2F2B8
:105180000000FFF7CFF9D4E7E37C4FF4005143F080
:105190000103E374E182DFE745F6444038B5C4F229
:1051A0000000008803B2002B80B20FDA45F64444B9
:1051B000C4F2000447F6FF75258000F00F00FFF7EA
:1051C00089FF208803B2002B80B2F5DB002038BDB8
:1051D00010B540F22074C2F2000494F88130227CB1
:1051E0006FF38203032A84F881300FD012B10523B4
:1051F000237410BD637F052BFBD1237F5A06F8D1A2
:105200002046A17FBDE81040FFF784B8204604F196
:105210006801FFF787F900280CBF032000202074E5
:1052200010BD00BF2DE9F04145F64444C4F200042E
:105230002488A4B2610500F17F8140F22075C2F29A
:1052400000056B8B03F48052144240F0348104F467
:105250000062134240F0D98004F48072134240F09F
:10526000928004F40044234202D10020BDE8F08182
:1052700045F644484FF4B84440F2207645F650478E
:10528000C4F20008C4F20004C2F20006C4F200072F
:10529000B8F8002013B2002B92B2E6DA47F6FF739B
:1052A000A8F8003012F00F003DD14FF40051202338
:1052B000E9822B83238823F4804323F070031B04AB
:1052C0001B0C83F400532380238823F4E04323F052
:1052D00040031B041B0C83F020032380D30625D539
:1052E000228893B2180621D4190500F10F8112B259
:1052F000002ACDDA238823F070031B051B0D2380C1
:105300002B7C012B00F03C8104D3042B1CBF052314
:10531000337415D19948FFF7D1F900280CBF042048
:10532000002028740CE0FFF7D5FEB1E7238823F4B2
:10533000E14323F070031B041B0C2380FFF748FF9D
:1053400000204021FFF798FA2B7C052B14D0F38A1C
:10535000B3F5005F00F0E780308B9C4621884BF668
:105360008F738CEA01010B402380228848F6BF73BB
:105370004240134023808BE74FF4805C1020A6F856
:1053800016C03083EAE745F64442C4F200024FF605
:10539000FF611180697C40F220720129C2F2000293
:1053A00000F0D680022940F0E580917C0139C9B235
:1053B000917400297FF455AF45F64042C4F20002D3
:1053C000128822F01002120445F64041120CC4F279
:1053D00000010A8023F4106343F48053002145F652
:1053E00040426B836974C4F20002118845F6404262
:1053F000C9B21943C4F20002118045F64442C4F216
:1054000000024EF6FF7111802BE7E86840F220762B
:10541000C2F2000628B10268126912B13146904703
:10542000738B4EF2FF621A4042F4805245F64043BD
:105430006A83C4F20003198845F64043C9B20A439F
:10544000C4F200031A8045F64443C4F200034EF64A
:10545000FF721A8045F64043C4F200031A8845F6ED
:10546000404392B242F00802C4F200031A8040F2B4
:105470002075C2F20005EB7C9A070CD445F6404338
:10548000C4F200031A8845F6404392B242F0040287
:10549000C4F200031A8040F22070C2F20000002122
:1054A000FCF770FA45F64443C4F200034FF2FF7272
:1054B0001A806B8BD0E645F64443C4F200034EF6E7
:1054C000FF721A8040F22070C2F20000FEF778FFEF
:1054D0006B8B002123F4C8531B041B0C43F40063A3
:1054E00045F6404269746B83C4F20002118845F6A8
:1054F0004042C9B21943C4F20002118045F6444249
:10550000C4F200024FF2FF711180A0E6238823F05D
:1055100070031B051B0D238040F22070C2F20000B7
:10552000FFF788FA0CE7308B202806BF4FF4405C69
:10553000A6F816C09C4611E745F64443C4F20003A2
:105540004FF6FF321A80FFF791FD0020BDE8F08191
:1055500045F64042C4F20002118845F6404289B245
:1055600041F01001C4F20002118002210A22697484
:10557000AA7476E60021517473E600BF8807002004
:105580003B889BB206335B0003F1804303F5C043C5
:105590001B68C3F3090EBEF1400FA8BF4FF0400EC9
:1055A0003B889BB204335B0003F1804303F5C043A7
:1055B0001A680EF1010392B2520002F180425B10B0
:1055C00002F5C0420AD003F112000C4B05EB40007B
:1055D00052F8041B23F8021B8342F9D140F22070D9
:1055E0000223C2F200002B74A5F864E0FFF722FA50
:1055F0000023A5F864302B74A2E600BF4407002006
:1056000038B548B30368196831B3596821B3D9680C
:1056100011B39B6803B340F22074C2F20004E36844
:105620003BB9E060036821461B689847054618B1FE
:1056300038BD6FF00F0038BDFFF77AFC2320FBF771
:1056400037FC2420FBF734FC20460121FCF792F9BB
:1056500002232372284638BD6FF0150038BD00BF05
:1056600070B540F22074C2F20004E56885421ED194
:10567000EFF3108672B6FFF7F9FC2B6840F2207149
:105680005B68C2F20001284698472320FBF7FCFB29
:105690002420FBF7F9FBFFF7EDFBFFF70BFC0023E2
:1056A000E36016F0010F00D162B6002070BD6FF00C
:1056B000150070BD10B5EFF3108472B62320FBF710
:1056C000E3FB2420FBF7E0FB00212320FCF78AFA10
:1056D00024200021FCF786FA40F22073C2F2000376
:1056E000D86808B1FFF7BCFFFFF7C4FB14F0010F47
:1056F00000D162B610BD00BF08B5FFF7DBFB45F275
:105700009911C0F600012320FCF76CFA38B945F274
:105710002521C0F600012420FCF764FA18B1BDE889
:105720000840FFF7C7BF08BD82B000210091009B71
:10573000984211D941F26A520191019B934205D8D6
:10574000019B01330193019B9342F9D9009B0133E3
:105750000093009B8342EFD302B0704710B500F076
:1057600011F80020014600F045F804460CF096FCC4
:1057700046F2CC412246C0F601011C300EF0B8F9C9
:10578000012010BD41F6011000210DF08DBF00BFBA
:1057900010B504460CF082FC04300EF09DF80CF0BD
:1057A0007DFC10300EF098F80CF078FC1C300EF0F8
:1057B00093F82046002103F0FFFD2046012103F06D
:1057C000FBFD2046022103F0F7FD46F2F44447F2C8
:1057D0005C21C0F60104C0F6010100200EF04EF875
:1057E000214601200EF04AF821460220BDE8104073
:1057F0000EF044B8F0B583B000F01AFA074600285E
:1058000049D00020014600F0FFF8002646F20C5077
:10581000C0F60100032103F04BFE041E32DB00251D
:1058200020460DF1070101228DF8076003F0C0FE4C
:10583000012805D00028F2DC204603F0A9FDE5E7A9
:105840009DF807300A2B18BF0D2BE8D10135022D2A
:10585000E6DD2046FFF79CFF022C02DD204603F028
:1058600097FD384600F022FA46F21C50C0F60100BF
:10587000032103F01DFE041EC8DBFFF789FF022C85
:10588000C4DDD9E7FCF752FC03686B2B0BD1022077
:105890000EF0E2FABAE746F2F840C0F601004FF423
:1058A0009271FBF743FB46F2F840C0F60100C221BB
:1058B000FBF73CFBF0B540F6D834C2F20004656853
:1058C00083B00646002D5BD146F23C500121C0F664
:1058D00001000DF001FF0120211D09F0F1FC071E60
:1058E00027DB46F2A4506168C0F601000DF0F4FE1B
:1058F00046F2CC5046F2F451C0F60101C0F6010068
:105900000DF0EAFE46F2F4512A46009501952B4629
:105910006068C0F6010109F051FB051E13DB31463A
:10592000606809F0F7FB051EA8BF28461CDB03B022
:10593000F0BD46F270507942C0F601000DF0CCFE89
:10594000384603B0F0BD46F2046046F2F451C0F6AA
:1059500001016A42C0F601000DF0BEFE606809F068
:1059600043FC284603B0F0BD46F248606942C0F6E9
:1059700001000DF0B1FE606809F036FC2846D6E75C
:1059800046F22850C0F6010040F20F21FBF7CEFA94
:1059900008B540F6D833C2F20003586818B1BDE824
:1059A000084009F021BC46F22850C0F601004FF42F
:1059B0001C71FBF7BBFA00BF10B5044646F28060CD
:1059C000C0F601000DF088FE2146002008F062FFBD
:1059D000041E01DB204610BD46F2B8606142C0F6ED
:1059E00001000DF079FE204610BD00BF08B518B1CA
:1059F000BDE8084008F0DCBF46F22850C0F60100C0
:105A000040F2A921FBF792FA38B540F6D834C2F239
:105A1000000425683DB146F20470C0F601000DF0A7
:105A20005BFE012038BD46F22C70C0F601000DF07F
:105A300053FE0BF073FF011E11DB0BF0BFFB206068
:105A4000B0B146F2C070C0F601000DF045FE46F25E
:105A5000D870C0F601000DF03FFE284638BD46F272
:105A600068704942C0F601000DF036FE012038BDD5
:105A700046F29870C0F601000DF02EFE012038BDF0
:105A800038B540F6D834C2F20004206858B10BF0A3
:105A9000BFFB46F610000025C0F6010025600DF0A2
:105AA0001BFE284638BD46F2EC70C0F601000DF032
:105AB00013FE012038BD00BF3830704770B5154661
:105AC00004460E463AB1406B08B10DF0E1FF236B7E
:105AD0002B60636B6B6000232663636370BD00BF44
