:020000040800F2
:10000000040D0020B5030008390100084101000873
:100010004901000851010008590100083101000898
:1000200031010008310100083101000861010008B8
:100030006901000831010008710100087901000818
:100040008101000889010008910100089901000858
:10005000A1010008A9010008B1010008B9010008C8
:10006000C1010008C9010008D1010008D901000838
:10007000E1010008E9010008F1010008F9010008A8
:100080000102000809020008110200081902000814
:100090002102000829020008310200083902000884
:1000A00041020008490200085102000859020008F4
:1000B0006102000869020008710200087902000864
:1000C00081020008890200089102000899020008D4
:1000D000A1020008A9020008B1020008B902000844
:1000E000C1020008C9020008D1020008D9020008B4
:1000F000E1020008E9020008F1020008F902000824
:10010000010300080903000811030008190300088F
:1001100021030008290300083103000839030008FF
:10012000410300084903000851030008590300086F
:100130004FF0000000F014B94FF0020000F010B9C9
:100140004FF0030000F00CB94FF0040000F008B9C4
:100150004FF0050000F004B94FF0060000F000B9C0
:100160004FF00B0000F0FCB84FF00C0000F0F8B8B6
:100170004FF00E0000F0F4B84FF00F0000F0F0B8B0
:100180004FF0100000F0ECB84FF0110000F0E8B8AC
:100190004FF0120000F0E4B84FF0130000F0E0B8A8
:1001A0004FF0140000F0DCB84FF0150000F0D8B8A4
:1001B0004FF0160000F0D4B84FF0170000F0D0B8A0
:1001C0004FF0180000F0CCB84FF0190000F0C8B89C
:1001D0004FF01A0000F0C4B84FF01B0000F0C0B898
:1001E0004FF01C0000F0BCB84FF01D0000F0B8B894
:1001F0004FF01E0000F0B4B84FF01F0000F0B0B890
:100200004FF0200000F0ACB84FF0210000F0A8B88B
:100210004FF0220000F0A4B84FF0230000F0A0B887
:100220004FF0240000F09CB84FF0250000F098B883
:100230004FF0260000F094B84FF0270000F090B87F
:100240004FF0280000F08CB84FF0290000F088B87B
:100250004FF02A0000F084B84FF02B0000F080B877
:100260004FF02C0000F07CB84FF02D0000F078B873
:100270004FF02E0000F074B84FF02F0000F070B86F
:100280004FF0300000F06CB84FF0310000F068B86B
:100290004FF0320000F064B84FF0330000F060B867
:1002A0004FF0340000F05CB84FF0350000F058B863
:1002B0004FF0360000F054B84FF0370000F050B85F
:1002C0004FF0380000F04CB84FF0390000F048B85B
:1002D0004FF03A0000F044B84FF03B0000F040B857
:1002E0004FF03C0000F03CB84FF03D0000F038B853
:1002F0004FF03E0000F034B84FF03F0000F030B84F
:100300004FF0400000F02CB84FF0410000F028B84A
:100310004FF0420000F024B84FF0430000F020B846
:100320004FF0440000F01CB84FF0450000F018B842
:100330004FF0460000F014B84FF0470000F010B83E
:100340004FF0480000F00CB84FF0490000F008B83A
:100350004FF04A0000F004B84FF04B0000F000B836
:100360006A4602F12002EFF310832DE9FC0F72B60A
:100370006946DFF838D04DF8041D00F00DFC5DF83B
:10038000041F884209D000F1280191E8F00F0168AC
:1003900021E9F00F90E8FC0F01E0B1E8FC0F81F3D8
:1003A0000888DFF80CE083F310887047AC02002067
:1003B000F9FFFFFF10B500F039F800F0A5F900F0E3
:1003C000F7F840F2102340F6DC32C2F20003C2F22A
:1003D000000293420AD2D943114421F00301194487
:1003E0000022043B43F8042F8B42FBD140F2000172
:1003F00040F21023C2F20001C2F2000399420ED271
:10040000CC431C4424F003044AF2D8400434C0F620
:1004100001000023C258CA500433A342FAD100F0AD
:1004200021FB01F077F901F04FFA00BFF0B441F27F
:10043000180041F20C0641F2100541F2140441F299
:100440001C010022C4F20205C4F20204C4F202003C
:10045000C4F20201C4F2020614274FF48053326042
:10046000C4F202032A60276002600A60186841F241
:10047000040140F001001860C4F202010C680C2075
:10048000CFF2FF0020400860186841F2080420F015
:10049000847020F4803018601868C4F2020420F4DC
:1004A000802018600D6845F6CC5025F4FE050D60DF
:1004B00022601A6882B022F4802242F48032C0F2B4
:1004C00008001A600190019A002A0DDD1A68900355
:1004D0000AD41A4602E01368990305D4019B013B34
:1004E0000193019B002BF6DC019B002B3DD04FF4C8
:1004F0000052C4F20202116841F2040321F0070124
:1005000041F012011160C4F202031A684FF48051E5
:1005100022F0F0021A601A68C4F2020122F460525A
:100520001A6018680A4620F4E06040F480601860A1
:10053000186820F47C1040F4E81018600B6843F051
:1005400080730B6013689B01FCD541F20403C4F275
:10055000020319681A4621F0030141F002011960F3
:10056000136803F00C03082BFAD141F21402C4F211
:100570000202552141F218031160C4F20203196806
:1005800041F2040241F01D011960C4F20202116837
:1005900041F21C0321F480011160C4F202031A68C5
:1005A00042F4020242F480421A6002B0F0BC70478A
:1005B0000423C4F2010300221A607047C0F3021141
:1005C00002292DE9F0075AD847F62C43C0F601035B
:1005D00000F00F0253F82140072A87BF231DA2F124
:1005E000080616462346EFF3108772B610F4004F44
:1005F0001D684FEA86061DD10F21B140C0F3C32C00
:100600000CFA06F625EA01052E4345041E6009D4BE
:10061000012303FA02F201064CBF1034143423689C
:100620001A43226017F0010F00D162B60020BDE826
:10063000F00770474FF00F0800F4C04C08FA06F9B5
:100640004FEADC2A0AFA06F625EA09052E431E605F
:10065000430510D500F003039B0008FA03F8994006
:100660000823C4F2010300F00C05EE5826EA08083E
:1006700048EA0101E950BCF5804FD3D1C8E76FF0DB
:100680001500D4E700F07F0040F42040FFF796BF4C
:10069000C0F30213022B0FD8012200F00F0002FA60
:1006A00000F047F62C42C0F6010252F82330002930
:1006B0000CBF14211021C850704700BFC0F30213B3
:1006C000022B10D8012200F00F0002FA00F047F6CA
:1006D0002C42C0F6010252F823309B6803420CBF43
:1006E0000020012070470020704700BF4FF488426F
:1006F000C4F2000213681B06FCD544F20443C4F2A2
:1007000000031860704700BF10B50423C4F2010352
:100710001A6845F6020022F038021A60FFF74EFF11
:100720004AF20300FFF74AFF44F21042C4F200020B
:10073000116844F20C4321F47D511160C4F20003AE
:10074000196844F2144221F4BB5121F01C011960D4
:10075000C4F20002146844F2084124F4E06424F076
:100760000104C4F2000140F23910146008601A68F4
:1007700042F4005242F00C021A6010BD6FF01800F3
:10078000704700BF30B4836A00241A6CDD8D506856
:1007900040EA05420A60DC85C0B230BC704700BF49
:1007A00030B4826AEFF3108072B6948D44F0200367
:1007B00011B94FF6DE632340116C9385CC6803F4C6
:1007C000D07524F4D0742C43CC60126C03F0010378
:1007D000516921F001010B43536110F0010F00D169
:1007E00062B630BC704700BF836A1B6C1868C0F3E8
:1007F00040107047836A1B6C59607047836A1B6C9A
:100800001868C0F3C010704770B5836AEFF31084A6
:1008100072B69A8DB9B9196C22F080009885C868B3
:1008200002F4907520F4D0702843C8601B6C02F06D
:100830000102596921F001010A435A6114F0010FC4
:1008400000D162B670BD196C42F080059D85CE68FE
:1008500002F4D07526F4D07645F080053543CD609E
:100860001B6C02F00102596921F001010A435A612F
:1008700000F0E6FEE2E700BF10B5846A94F83800A5
:1008800000F036FA94F838000021BDE8104001F07D
:1008900025B900BF38B5846A94F83800E16C01F0DE
:1008A0001DF9054618B994F8380000F035FA2846C5
:1008B00038BD00BF38B5846A4FF48843226CC4F257
:1008C00000039A42054608D141F21C00C4F202001E
:1008D00000214FF4003200F04FF9606CFFF76EFE1C
:1008E000A06CFFF76BFE226C94F83210136923F4AE
:1008F0007D5309B143F400531361236CDA6822F489
:10090000BE72DA60236C5A6922F4E06222F00102BE
:100910005A61AB6A596BDA6B4908B2FBF1F14A09CB
:100920000131A1EB42114908186C41EA02128260C0
:10093000196C93F83000CA68012822F4B05208BF3D
:1009400042F4C06203D0022808BF42F4806293F8E8
:100950003150092D1ED0082D1AD0CA60196C93F899
:1009600032000A6922F4405208B142F400520A618E
:100970001B6C00225969104621F440715961216CA9
:10098000CB6843F4005343F00C03CB60A28538BD21
:100990000028E2D042F48052DFE700BF70B540F299
:1009A0000005C2F200052E46002412E013F00E00EE
:1009B0001CBF526800201A0602D5AB8D1B061AD444
:1009C00000F001000134FF2CCCBF002000F001003A
:1009D000C8B12A6C13689BB29806EB85E6D5B18D39
:1009E0008906E3D540F20000C2F2000000F060FE8C
:1009F000F38D0120DFE740F20000C2F2000000F0BA
:100A00001FFE0120DEE770BD38B5846A0022216C2C
:100A1000A285CD684FF4884325F4D075CD60216C54
:100A2000C4F200034D6925F001054D61816A096C2E
:100A3000994207D141F21C00C4F202004FF4003188
:100A400000F09AF8236CDA6822F4005222F00C02CB
:100A5000DA60606CFFF716FEA06CBDE83840FFF767
:100A600011BE00BF0D4A30B4002502F10C0452F84B
:100A7000043F53B1196C9D85C86820F4D070C860DC
:100A80001B6C596921F001015961A242EFD130BCC0
:100A900040F20000C2F200000CE700BF347C010805
:100AA00070B547F6744040F2000184B0C2F2000114
:100AB000C0F6010000F064FD47F6844040F20001FA
:100AC000C2F20001C0F6010000F05AFD0E4C47F6DC
:100AD00090416846C0F6010102F006FA04F10C05E7
:100AE000012254F8041F09B10B791BB1AC42F8D1B3
:100AF00004B070BD02F13003561C68468DF8093011
:100B000000F03EFD3246F1E7347C010870B540F25A
:100B10000004C2F20004236C0021DE685A69A1853A
:100B2000D96806F4D07621F4D071D960236C02F034
:100B3000010259690A2821F00101054642EA060628
:100B4000596115D0E8B2FFF7D1FD236CA685DA68AC
:100B500006F4D07122F4D0720A43DA60236C06F0F6
:100B600001065A69284622F0010216435E6170BDF3
:100B70000D20FFF7BBFDE5E710B4EFF3108372B66D
:100B8000046824EA01011143016013F0010F00D150
:100B900062B65DF8044B7047F8B5064640F26474DF
:100BA00004200D46C2F2000400F046FE30462768DD
:100BB000256000F0C3F82946304600F0ADFF2568F7
:100BC0000420276000F040FE2846F8BD0F2830B40E
:100BD00007DD2F282BDD4F2835DD4FF0FF3030BCEF
:100BE00070474EF62453CEF2000304280B6002BF78
:100BF0004FF4803313600020F1D0052802BF4FF47A
:100C0000003313600020EAD0062802BF4FF480238F
:100C100013600020E3D00F28DFD14EF2100301242F
:100C2000CEF200030B600020146030BC7047103817
:100C30000124844003F1604303F561430B6000200D
:100C4000146030BC70473038012585404EF20414E2
:100C5000CEF200041C440C600020156030BC7047CC
:100C6000F8B54EF61C504FF461474EF204154EF69F
:100C700018544EF620524FF080310026CEF200027A
:100C8000CEF20007CEF20005CEF20004CEF2000054
:100C90004EF204033E60CEF200032E60216001603C
:100CA00011601A680132D200531E42B14FF46442FF
:100CB000CEF20002013B581C42F8041BFAD140F26C
:100CC000647340F68551C2F200030024C0F60001AF
:100CD0000B201C6000F002FF40F64151C0F60001FD
:100CE000032000F0FBFE84F3118862B6F8BD00BF5C
:100CF00010B582B0694601AA80230446FFF766FF5B
:100D000038B9009B0F2C019ADCBF196821EA020256
:100D10001A6002B010BD00BF10B582B0694601AACA
:100D200000230446FFF752FF30B9009B0F2C019AB5
:100D3000DCBF19680A431A6002B010BD704700BFDB
:100D400010B50A6C40F20003941EC0F600039C42EA
:100D50000ED34AF2D043C0F601039C4208D232F8C7
:100D6000023CB3F55F4F03D1BDE8104000F00AB874
:100D7000EFF3108372B647F69C40C0F60100B7212E
:100D800000F04CF88B6A10B5012B0C4614D00DD333
:100D9000022B09D14822C86A02F0D8F8226B40F22F
:100DA0006473C2F200031A60002010BDC86A4822B2
:100DB00002F0CCF8002010BDCA6A40F26473C2F29F
:100DC00000031A60002010BD70B520F01F048C4293
:100DD00088B00E461FD2236847F6F041009363683F
:100DE00047F6B4420193A368C0F601010293E36899
:100DF000C0F6010203932369032004936569234627
:100E00000595A5692034069554F8045C079502F011
:100E100041F8A642DFD808B070BD00BF80B56C466F
:100E200040F27876C2F20006376888B08046062025
:100E30000D46C03700F000FD47F6245143467B4A7B
:100E40008DE8A000C0F60101032002F023F833680A
:100E5000B3F90C20002A40F0CD8047F62843C0F6B5
:100E600001031F684FF49678043F47F65851234614
:100E7000C0F601016E4A032002F00CF847F66C51EF
:100E8000C0F601016A4A032040F2AC2502F002F8E4
:100E9000C2F2000547F67C512B46C0F60101644AB8
:100EA000032001F0F7FF47F69051C0F6010103203F
:100EB0005F4A9C2301F0EEFFAC4204D8A5F19C03ED
:100EC0009C4200F2AE8040F26475C2F200052B68CD
:100ED0004BB11C6847F658512346C0F60101032068
:100EE000534A01F0D7FF47F6A451C0F60101504A1A
:100EF000032001F0CFFF47F67C51C0F601014C4AB8
:100F00003B46032001F0C6FF47F69051C0F60101B1
:100F10000320474A434601F0BDFFA74203D3C8EB75
:100F2000070844456AD82A6840F26474C2F2000493
:100F3000002A6ED0936AD2F82C90D2F83080D2F882
:100F400034C0D2F808E0D7681069526947F6B85142
:100F5000CDF80090CDF80480CDF808C0CDF80CE0B5
:100F6000049705900692C0F60101324A032001F071
:100F700091FF226847F6EC519369D2F81C90D2F8A1
:100F80002080D2F824C0D2F838E01768D06B126CF9
:100F9000C0F6010105900692CDF80090CDF80480CE
:100FA000CDF808C0CDF80CE00497224A032001F0E8
:100FB00071FF2268536C5068EFF3148247F620618A
:100FC0008DE80500C0F6010103201A4A01F062FF16
:100FD0002B68F3B1EFF3108372B6072000F02CFCFE
:100FE000FA2000F029F8072000F02EFCFA2000F08B
:100FF00023F8F2E71F6BD3F8288036E720463946FE
:10100000FFF7E2FE2A6840F26474C2F20004002A8C
:1010100090D13368B3F90C30002BDBD0012000F005
:10102000BDFF29462046FFF7CFFE4CE7C47C0108F0
:10103000D07C0108E07C010882B000210091009B77
:10104000984211D941F26A520191019B934205D80D
:10105000019B01330193019B9342F9D9009B01331A
:101060000093009B8342EFD302B0704770B5836852
:101070000D461C691646636A1B69984710F1190FE3
:1010800000D070BD40F205339D4219D001339D421E
:1010900015D1EFF3108272B6E189238A09B21BB22F
:1010A00099421CDA218AE38909B21BB2CB1A013BAF
:1010B00012F0010F00D162B63360002070BD70BD28
:1010C000EFF3108272B6A18B638B09B21BB2994207
:1010D0000FDC618BA38B09B21BB2CB1AE8E7208A25
:1010E000E38900B21BB2B4F91210C31A0B44013BDE
:1010F000DEE7608BA38B00B21BB2B4F91E10C31ADB
:101100000B44D5E738B504460D4605E000F056FF20
:101110000368042B09D12DB9204600F077FF002881
:10112000F4D138BD6FF0030038BD47F66460C0F6F7
:1011300001008821FFF772FE2DE9F04FB0F80EA0F4
:10114000B0F912300FFA8AFA83B00AF1010A0446A4
:10115000019193469A45A8BF4FF0000A00F1080795
:10116000012608E019F0010F00D162B6E378002BE8
:1011700035D1002D38DB238A1BB253451DD1BBF17D
:10118000000F27D0EFF3108972B6E3786FF06A058D
:1011900003F0FF08002BE5D1636A66705B6A2046A6
:1011A0000121984738460121FFF7ACFF636A0546E5
:1011B00041465B6A20469847D4E7E2896369019912
:1011C0001FFA8AFA12B200209954A4F80EA003B0B4
:1011D000BDE8F08F6FF00A0003B0BDE8F08F6FF04C
:1011E0006A0003B0BDE8F08F6FF0030003B0BDE804
:1011F000F08F00BF2DE9F84F8368074614460E466E
:101200001D69904602F060FF10B3EB78002B70D19F
:101210002B79002B52D0EFF3108772B62CB910E067
:101220002846FFF773FC013C0BD016F8015B0A2D32
:10123000F6D10D20FFF76AFC2846FFF767FC013C5A
:10124000F3D117F0010F00D162B64046BDE8F88F28
:1012500000F09AFE0028D8D005F10C0A5046012172
:10126000FFF750FF00282BDBEB7803F0FF01002B8A
:1012700043D13A686B6A82F0400B5B6A2846CBF335
:10128000801B984724B3274608E0494628465A461B
:10129000FFF752FF002815DB013F19D02B7916F814
:1012A000019B002BF1D0B9F10A0FEED128460D2198
:1012B0005A46FFF741FF0028ECD1E6E74FF0FF3038
:1012C000BDE8F88FA74238BFC7EB040800D38046BB
:1012D000EA892B8A12B21BB29A4204D06B6A284662
:1012E0005B6A01219847504600F0D6FE4046BDE8B3
:1012F000F88F6FF06A00BDE8F88F504600F0CCFE22
:101300006FF06A00BDE8F88F2DE9F04F836883B075
:101310001C69074604F11808894640460121164613
:10132000FFF7F0FE002827DB04F10A0300254FF049
:10133000010A0193B5421BD2E378002B59D1A38B4C
:10134000628B9BB219B212B28A4218D0226A013360
:101350009BB2B4F91EE0525C18B201358645D8BF85
:101360000023B542A38309F1010909F8012CE3D355
:10137000404600F091FE284603B0BDE8F08F002DF6
:10138000F6D13B685B0639D4636A20469B692946DF
:101390009847628BA38B12B21BB29A4205D0636A44
:1013A00020469B6901219847C4E7EFF3108B72B682
:1013B000636A20469B6901219847E3786FF06A00D1
:1013C00083B11BF0010F00D162B6002802DBE37885
:1013D000002BAFD0E3786FF00305002BC8D06FF07F
:1013E0006A05C5E784F802A001980121FFF78AFE8B
:1013F000E7E7002DBCD16FF06A05B9E76FF00A0589
:10140000B6E700BF2DE9F041836801211C69A51DE5
:101410002846FFF777FE061E06DBE3783BB16FF048
:101420006A06284600F038FE3046BDE8F081237891
:10143000013313F0FF0708BF6FF01706F1D0012F3B
:1014400001D02770EDE7EFF3108872B6237953B916
:10145000636A20461B689847061E04DA18F0010FDD
:1014600000D162B6DDE7636A20469B689847061E96
:101470000FDB0023626AE38123826383A383936982
:1014800020460121984718F0010F00D162B627705D
:10149000C7E7636A20465B689847DFE770B58368F3
:1014A00000211C69A51D2846FFF72CFE2378012B7F
:1014B00006D9013B2370284600F0EEFD002070BDE8
:1014C0000021636A21709B692046984705E04AF233
:1014D0002010C0F2070001F0A7FCE289238A12B2B3
:1014E0001BB29A42F3D105E04AF22010C0F2070085
:1014F00001F09AFC636A2046DB6A98470028F3D023
:10150000EFF3108672B6636A2046DB68984723794A
:10151000002B2FD016F0010F00D162B604F108069F
:10152000304600F05FFD00210A46304604F10A060D
:1015300001F01AFD304600F055FD00210A46304604
:1015400004F10C0601F010FD304600F04BFD18349C
:1015500000210122304601F007FD204600F042FD47
:1015600000210122204601F0FFFC284600F094FDF6
:10157000002070BD636A20465B689847CAE700BFD9
:1015800070B50C460546002104F10C00012201F063
:10159000EBFC04F118000021012201F0E5FCA01D84
:1015A0000021012201F0E0FC00210A4604F10800BC
:1015B00001F0DAFC00210A4604F10A0001F0D4FC33
:1015C00047F64C6128462346C0F601014FF4DB7212
:1015D000BDE8704009F0BCBA837803B970470023B6
:1015E00083700A3000F058BD437803B97047002378
:1015F0004370083000F050BD38B50446EFF3108555
:1016000072B6D1F1010138BF0021C17019B1437820
:101610006BB9A37823B915F0010F00D162B638BDBC
:101620000023A37004F10A0000F036FDF3E7002365
:101630004370083000F030FDA378002BEBD0EFE7CB
:1016400070B5002504462E4618E0636A9B6A9847E9
:10165000D8B1218A6269636A09B2515C1B6A20466B
:101660009847238AB4F912109BB201339BB21AB285
:10167000013591422382ADB2D8BF2682E289238A06
:1016800012B21BB29A422046DFD1E289238A12B2FB
:101690001BB29A4206D005B970BD2046BDE8704025
:1016A000FFF7A2BF636A20465B6A00219847F2E712
:1016B000F0B5468BB0F91E3036B2013683B0044621
:1016C0009E42A8BF0026002708E0A58B636AADB242
:1016D0005B6920462DB29847B5420CD1636A20461B
:1016E000DB69984701A90028EFD117B12046FFF721
:1016F00073FF03B0F0BD628B236A12B29854B4F941
:101700001E20B3B201370136BFB29642A8BF0026F1
:101710006383E3E708B500F07BF800F09DF800F084
:1017200007F8BDE8084000F0B9B800BF704700BF37
:1017300008B541F69C00FEF741FF41F61800FEF7A0
:101740003DFF4CF29B40FEF739FFBDE8084041F6F3
:101750009900FEF733BF00BF02290AD0062900D046
:101760007047D2F1010138BF002141F69C00FEF71D
:101770008FBFD2F1010138BF002141F69900FEF779
:1017800087BF00BF0020704738B5050969070446C8
:1017900038D42A0730D4AB0728D4ED0704D541F656
:1017A0000D000021FEF774FF600719D4210711D442
:1017B000A20709D4E30700D438BD41F60D0001218A
:1017C000BDE83840FEF764BF41F609000021FEF78E
:1017D0005FFFEFE741F68A000021FEF759FFE7E7D8
:1017E00041F688000021FEF753FFDFE741F60900CC
:1017F0000121FEF74DFFD0E741F68A000121FEF7F7
:1018000047FFC8E741F688000121FEF741FFC0E726
:1018100008B541F60D00FEF7D1FE41F68800FEF74F
:10182000CDFE41F60900FEF7C9FEBDE8084041F6CD
:101830008A00FEF7C3BE00BF47F67463C0F601031B
:1018400013F81000A0E700BF47F67463C0F6010369
:1018500033F81000000A97E74CF29240FEF7AEBE54
:1018600008B54CF29240FEF729FFD0F1010038BFD5
:10187000002008BD00B50B4683B050B9012100938C
:101880000A460B464CF2924002F0A6FA03B05DF80D
:1018900004FB002003B05DF804FB00BF41F69A0092
:1018A000FEF78CBE10B540F206200C460DF0AEF9E6
:1018B000D4F1010138BF002141F69A00FEF7E8FE9D
:1018C000002010BD704700BF80B540F2787840F22C
:1018D000F87E40F2707740F2907640F2807540F2E8
:1018E000687440F2887040F6040140F6000A002354
:1018F000C2F20008C2F2000EC2F20007C2F20006F5
:10190000C2F20005C2F20004C2F20000C2F20001FD
:10191000C2F2000A40F2987CC8F8003082B0C8F8E1
:1019200004301A46CEF800309946CEF80430C2F2A0
:10193000000C3B604FF6FF787B60336073602B6078
:101940006B6023606360036043600B604B60AAF8C8
:1019500000304CF802900CEB0201083240F2987310
:10196000602AC2F20003A1F804804FF00005F0D114
:1019700040F2F024C2F200042946D0229D801C606F
:10198000204601F0A7FA04F1C00641F6C90347F664
:1019900084614FF0030E0722C0F60003C0F6010178
:1019A0000227304684F819E06361678301F0B0FADA
:1019B00040F2787104F1D003C2F200012046C4F86D
:1019C000CC30C4F8D06084F8C750C4F8D45001F0CB
:1019D0004DFB204602F064FB684601A902F04CF979
:1019E0009DE8030001F082FF42F29553C0F6000328
:1019F0000BB100F0CFFD42F69D53C0F600030BB1D2
:101A000001F0CCF943F68543C0F601030BB112F0A7
:101A100039F940F20003C0F200030BB1AFF30080CC
:101A200042F67503C0F600030BB100F023FF44F249
:101A3000D123C0F601030BB112F04AFC43F6F903BF
:101A4000C0F601030BB111F057FF08F081FB02F063
:101A500009FB40F2F020A17EC2F2000000F080F805
:101A600040F2F020C2F2000000F09EF840F2F020B8
:101A7000C2F2000000F092F8A36801221A7000F090
:101A80000DF801E002F06AFA01F03AFF0028F9D1FE
:101A900000F0ACF801F03AFFF4E700BF10B582B0F7
:101AA000FFF744FE002447F6D86045F6053300945E
:101AB000C0F60100C0F6000364214FF45C7200F030
:101AC0000DF9A04202DD204602B010BD47F6E060ED
:101AD000C0F6010040F21D11FFF7A0F94B2838B500
:101AE000044616D8EFF3108572B659B140F60C03D0
:101AF000C2F2000343F8241015F0010F00D162B6C2
:101B0000002038BDFFF7F4F841F64931C0F6000176
:101B1000ECE74FF0FF3038BD4B2808B584BF41F6E5
:101B20004933C0F600030CD840F60C03C2F20003A0
:101B300053F8203041F64932C0F60002002B08BFAE
:101B40001346984708BD00BF08B5EFF3108372B67F
:101B500047F6F460C0F601005521FFF75FF900BFBA
:101B600070B50546BC2001F0E7FE044690B1A860C0
:101B700000F0EEFC061E06DBA01C0021012201F095
:101B8000F3F9002070BD204601F0C6FE0023AB60D3
:101B9000304670BD6FF00B0070BD00BF836801223E
:101BA0005A700020704700BF38B504468068203066
:101BB00008F000FB47F67440C0F60100032108F06E
:101BC00075FD051E05D001DD08F0E0FC6FF0160084
:101BD00038BD012108F0EEFC2846022108F0EAFC9D
:101BE0002046BDE8384000F0E3BC00BF38B540F601
:101BF0000405C2F200050DE0EFF3108472B640F662
:101C00000400C2F2000001F015FA14F0010F00D137
:101C100062B618B92B68002BEED138BD01F07CFEFE
:101C2000F8E700BF2DE9F041804682B0D0200D4694
:101C300017461E4601F080FE0446002840D0294683
:101C4000FFF78EFF00282DDB204600F0C7FC0028A0
:101C500028DB314620462A4602F0D0F9002821DB55
:101C600041F6517200953946C0F600022046089BA5
:101C700000F08CF8002815DB4146099A204600F058
:101C8000EBF82046FFF78AFF00280BDB2046A689E9
:101C900000F052F90028A8BF33B213DB184602B097
:101CA000BDE8F08146422046294600F0E9FC00F0FC
:101CB00085F94FF0FF330660184602B0BDE8F081A9
:101CC0000C26F4E700F07AF940F288710668C2F257
:101CD0000001204601F0D6F9E5E700BF30B583B03A
:101CE000069C154600930A462B4601940021FFF7F7
:101CF00099FF03B030BD00BF30B583B0069C1546D8
:101D000000930A462B4601940221FFF78BFF03B094
:101D100030BD00BF2DE9F04140F600040746C2F295
:101D2000000400F0D9FC40F2987EA046C2F2000EFA
:101D30000C214FF0010C228892B2013292B293B280
:101D400018B20028CCBF02F00B0501255EF8356003
:101D500040F298722380C2F20002DCBFA8F800C0F3
:101D60002B463EB10139E6D100F0D0FC4FF0FF30F8
:101D7000BDE8F08102EBC50142F835708B80BB8174
:101D800000F0C4FC3046BDE8F08100BF2DE9F84307
:101D9000884617461E4604469DF82090FFF7BAFF76
:101DA000054638BB638B09F0030923F0030349EAB6
:101DB00003095FFA88F804F13802294684F818808C
:101DC00027616661A4F81A90032000F095F9204677
:101DD000657602F065F900F07FFC40F288712046DC
:101DE000C2F2000101F042F90423637600F08EFC98
:101DF00084F8C8802846BDE8F88300BF2DE9F0418B
:101E0000884617461E460446FFF784FF054600BB7A
:101E1000638B294623F0030343F00103638304F13A
:101E2000380284F8188027616661032000F064F9A5
:101E30002046657602F034F900F04EFC40F28871DD
:101E40002046C2F2000101F011F90423637600F08C
:101E50005DFC2846BDE8F0812DE9F84F47F60C738C
:101E6000C0F6010300F1C0080646002908BF194664
:101E7000914640460722002401F04AF8404686F881
:101E8000C74001F039F8451CB9F1000F4DD0A9F158
:101E9000040A40F201170AE001F02EF8B36A01309B
:101EA00005449D4204F1010437D2BC4239D05AF8AE
:101EB000043F1846002BEFD1A71CBF00791930460C
:101EC00002F0B2F9824698B307440760404601F039
:101ED00013F805464146384601353D4401F004F803
:101EE000D04600278CB148F8045FD9F8000001F013
:101EF00003F80137834659F8041B284600F0F4FF25
:101F00000BF1010BA7425D44EDD1013400204AF8EA
:101F10002400C6F8CCA0BDE8F88F6FF02300BDE820
:101F2000F88F6FF00600BDE8F88F08274C46C5E72C
:101F30006FF00B00BDE8F88F10B5EFF3108472B6A8
:101F400002F086F914F0010F00D162B6002010BD36
:101F500038B540F27873C2F200031D680120D5F84D
:101F6000CC1040F201140B4602E00130A04207D031
:101F700053F8042F002AF8D16B69984700F00EF847
:101F8000012000F00BF800BF40F27873C2F20003AA
:101F9000186800B1808900B2704700BF08B540F2F0
:101FA0007873C2F200031B68C4B2214618460022AF
:101FB00000F0DCFB204602F047F800BF08B502F055
:101FC00083F840B940F27873C2F20003186810B188
:101FD000437E032B04D040F2C830C2F2000008BD9B
:101FE000643008BD08B548B1B0F90030002B03DB00
:101FF00001230380002008BD002008BDFFF7DEFF9D
:10200000162303604FF0FF3008BD00BFF8B540F263
:102010007873C2F200031D680446FFF7CFFF162352
:102020000360002C2DD0EFF3108672B623881AB20D
:10203000002A09DD0022013B238010466A6316F066
:10204000010F00D162B6F8BD6F6BEFB9013B238081
:102050006C63FFF7B3FF05210760284601F080FF9E
:10206000FFF7ACFF0368042B08BF4FF0FF30E6D04A
:10207000FFF7A4FF00686E2814BF00206FF0000077
:10208000DDE74FF0FF30F8BD47F61870C0F60100ED
:102090008E21FEF7C3FE00BF10B518B3EFF3108416
:1020A00072B6038847F6FF7293421ED001339BB28B
:1020B0001AB2002A038005DD14F0010F00D162B6C8
:1020C000002010BD40F27073C2F200031B68002BA9
:1020D000F2D05A6B8242F9D100225A63184602F0BC
:1020E000B7F8E9E74FF0FF3010BD47F63070C0F6A3
:1020F00001007821FEF792FEF8B540F27873C2F243
:1021000000031C68164605460F4600F0E5FAA36B6F
:1021100006B13360B7B1EFF3108372B6022D19D058
:10212000032D13D0012D18BF4FF0FF3704D13968AC
:10213000A26B00270A43A26313F0010F00D162B61D
:1021400000F010F800F0E2FA3846F8BD3A680027CF
:10215000A263F1E73968A26B002722EA0102A263B9
:10216000EAE700BF70B540F27873C2F200031E6860
:1021700082B000F0B1FAB36B3046DC4300F0FCFBF8
:1021800002AD204045F8040D034605E000F06CF870
:10219000431C044607D1019B2846002BF6D100F0D2
:1021A000B5FA02B070BD2146284600F001FF214675
:1021B000304600F00BF804460028ECD03046211DD4
:1021C00000F064F8204600F027F8E4E770B5826874
:1021D000EFF3108672B61569E5B12B798B4204D105
:1021E00012E023798B4209D025462C68002CF8D1C7
:1021F00016F0010F00D162B6204670BD284602F1EC
:10220000100100F023FFF3E702F1100000F012FFCD
:102210002C46EDE72C46EBE7037B10B523B1022BF0
:1022200014D0012B0ED010BDEFF3108472B640F61F
:102230006011C2F2000100F0D9FE14F0010F00D1CC
:1022400062B610BDBDE8104000F0E8B9EFF31084AD
:1022500072B640F65811C2F2000100F0C7FE14F049
:10226000010F00D162B610BD38B50546002402E06A
:102270000134202C07D02846214600F0ADFE00286E
:10228000F6D0204638BD4FF0FF3038BDF8B50446D3
:102290000D463830097800F09FFE002824D0EFF377
:1022A000108672B6637E062B63D016F0010F00D144
:1022B00062B6A4682A78EFF3108172B6206910B96B
:1022C00004E0006810B103799342FAD111F0010FD4
:1022D00000D162B6002864D004302946082200F0FC
:1022E00035FE00263046F8BD00F0F6F92046297884
:1022F00000F06CFB0746E0B14668DEB100F078FB09
:102300000646002800F0A6807B6829467360BB68FB
:102310000822B3600C3000F019FEEFF3108772B69C
:10232000304604F1480100F061FE17F0010F00D1C2
:1023300062B6002600F0EAF942F279412046C0F682
:10234000000101F0F7FEEFF3108772B6637E062BF3
:102350005DD017F0010F00D162B6637E052B62D00D
:10236000073BDBB2012BBDD82046042100F0D0F89A
:10237000B8E704F13C00297800F02EFE002894D044
:102380002946082204F1580000F0E0FD0023E36331
:10239000204601F05DFF16F0010F00D162B6002665
:1023A000A0E701F091FED0B140F66010C2F200004B
:1023B00000F040FE064600283BD02946301D08228A
:1023C00000F0C4FDEFF3108572B6304604F1100141
:1023D00000F00CFE15F0010F00D162B681E7EFF3BB
:1023E000108772B640F66010C2F2000000F022FEC4
:1023F000064617F0010F00D162B60028DDD110208B
:1024000001F092FA0646E8B101230373D5E72946A5
:1024100004F15800082200F099FD0023E3632046F0
:1024200001F016FF95E72046042100F0F1F9637EE4
:1024300096E740F65810C2F2000000F0FBFD064699
:102440000028BAD147F64870C0F601004FF4B071C9
:10245000FEF7E4FC6FF00B066CE700BF10B50C460E
:1024600000F0FAF820B12146BDE81040FFF70EBF9A
:102470006FF0020010BD00BF2DE9F84F054600F0D7
:102480002BF9AC6CD5F864B005F1480905F150069C
:102490004FF001080CB934E05446D4F800A0EFF333
:1024A000108772B62046494600F0ACFD2046314602
:1024B00000F09CFD17F0010F00D162B6217BAF6BDD
:1024C00008FA01F1A26823463A430A43AA6313F8C3
:1024D0000C0F0022194663689847AF63FFF742FE6E
:1024E000EFF3108772B62046314600F08BFD17F0EF
:1024F000010F00D162B6204600F0A6FABAF1000F33
:10250000CAD1C5F864B0BDE8F84F00F0FFB800BF0D
:1025100038B5EFF3108472B6437EDA1FD2B2012AC7
:1025200010D8026E0025072B05660BBF538A138A4D
:1025300003F1FF3303F1FF330CBF53821382416673
:1025400001F086FE14F0010F00D162B638BD00BF65
:1025500070B540F27873C2F200031D68064600F0C1
:10256000BBF8AB686BB1DC6964B19C69204601F0D3
:10257000DBF958B1B461F061AB682246D96900F06B
:10258000E5FC002400F0C2F8204670BD6FF00B049B
:10259000F8E700BF054B41F6493203F59871C0F6E4
:1025A000000243F8042F8B42FBD17047080800203B
:1025B00010B50446806800F077FD22460121002016
:1025C00008F07AFA22460621012008F075FA224620
:1025D0000621022008F070FA002010BDF8B5074669
:1025E00080680025203007F0E5FD40F27873C2F2E4
:1025F00000031B68BE689C6824362434A368204608
:102600007119103410350BB107F0E8FD502DF5D1DC
:102610003846BDE8F840FFF7CBBF00BF38B50446E9
:1026200001F052FD10B901F06BF970B1EFF31085B4
:1026300072B640F604012046C2F2000100F0D6FC5A
:1026400015F0010F00D162B638BD204601F064F9E3
:10265000BDE8384001F05AB900280EDB40F298730B
:10266000C2F2000300F00B0203EBC201B1F9041047
:10267000814202D153F8320070470020704700BFFA
:1026800070B504460D46B0B140F20003C0F200033D
:102690001BB1B0F90C00AFF30080A2896AB9E36AFC
:1026A0001BB12946204601F039FD204600F036FADC
:1026B0002046FFF7B3FF002070BD40F2987302F090
:1026C0000B02C2F20003002603EBC2014FF6FF70BB
:1026D00043F832608880E2E710B540F27873C2F2C6
:1026E00000031C684CB101F0EFFC30B9A38B1AB2A7
:1026F0007E2ADCBF0133A38301DC002010BD47F636
:102700006070C0F601006921FEF788FB70B540F2E9
:102710007874C2F20004256835B301F0D5FC18BB0B
:10272000EFF3108672B6AB8BA3B940F2F873C2F226
:1027300000031B680022AA830BB101F0CFFC6B8B56
:10274000DB060DD52B6A5BB92368AB421CBF142393
:102750002B6205E0013B9BB21AB2002AAB83E4DD99
:1027600016F0010F00D162B6002070BD38B5438B62
:1027700004469B06154600D538BD00F015F825B96E
:10278000A06810B14378012B0AD0204600F0C6F9AA
:10279000204600F081F9638B43F02003638338BD4A
:1027A000743000F01DFBF0E710B5044600F008F8A7
:1027B000204600F019F82046BDE8104000F09EB910
:1027C00038B50446EFF3108572B6406A30B100F0B8
:1027D000C9F9606A00F012FA0023636215F0010F74
:1027E00000D162B638BD00BF10B4EFF3108372B6EB
:1027F000427E052A05D1426B0021148801341480E1
:10280000416313F0010F00D162B65DF8044B7047CD
:1028100070B50346EFF3108472B6427E052A04D0E9
:1028200014F0010F00D162B670BD426B002516880E
:102830000136168059665D6301F00AFDF0E700BFBE
:1028400038B54FF4A07001F06FF840F2CC33C2F20B
:102850000003186000F5A07500E0204640F6401126
:1028600000F11404C2F2000100F0C0FBAC42F4D14C
:1028700038BD00BF2DE9F04140F6501140F640163A
:1028800040F6481540F6601240F658130024C2F294
:102890000006C2F20005C2F20001C2F20002C2F25A
:1028A00000034FF4C070346074602C606C600C6086
:1028B0004C60146054601C605C6001F035F8264682
:1028C000074600F5C07500E0204640F6481100F1CB
:1028D00018040675C2F2000100F088FBAC42F3D187
:1028E00040F2CC36C2F20006C020776001F01CF83E
:1028F0000225804600F1C00700E0204640F6501156
:1029000000F118040575C2F2000100F06FFBBC4233
:10291000F3D1C6F80880FFF793FF4FF4807001F001
:1029200003F80025804600F5807700E0204640F659
:10293000601100F110040573C2F2000100F056FBB3
:10294000BC42F3D18020C6F80C8000F0EDFF0225D8
:10295000804600F1800700E0204640F6581100F163
:1029600010040573C2F2000100F040FBBC42F3D139
:10297000C6F81080BDE8F08130B5002383B08268CE
:102980000193EFF3108572B6146934B1217901A86F
:1029900000F0FAFA2468002CF8D115F0010F00D1EC
:1029A00062B6019803B030BD10B540F278730446AA
:1029B000C2F2000318682CB1FFF7DEFF002320608D
:1029C000184610BD4FF0FF33FAE700BF38B5044694
:1029D0000D4658B1FFF780FE246C14B904E024685A
:1029E00014B1237CAB42FAD1FFF790FE204638BDEC
:1029F00010B501F069FB38B140F64810C2F2000092
:102A000000F018FBB8B110BDEFF3108472B640F6B9
:102A10004810C2F2000000F00DFB14F0010F00D1CD
:102A200062B60028EFD1182000F07EFF0028EAD01F
:102A300001230375E7E740F65010C2F20000BDE83D
:102A4000104000F0F7BA00BF037D10B523B1022B90
:102A500014D0012B0ED010BDEFF3108472B640F6E7
:102A60004811C2F2000100F0C1FA14F0010F00D1C8
:102A700062B610BDBDE81040FFF7D0BDEFF3108483
:102A800072B640F65011C2F2000100F0AFFA14F035
:102A9000010F00D162B610BD38B5054600F1400403
:102AA00001E000F045F9204600F0C4FA0028F8D112
:102AB00005F1480401E0FFF7C7FF204600F0BAFA2D
:102AC0000028F8D105F1500401E0FFF7BDFF2046D2
:102AD00000F0B0FA0028F8D14FF0FF32E863AA63A3
:102AE00038BD00BF10B500F1100401E0FFF794FB02
:102AF000204600F09FFA0028F8D110BD437E072B36
:102B000007D0082B01BF036E1A8A02F1FF321A8226
:102B10007047036E5A8A013A5A82704738B5846802
:102B2000054634B16378012B04D9013B637000235F
:102B3000AB6038BD2046FFF7D5FF204600F0FEF819
:102B400004F1200007F03AFB204600F0CBFA2046C3
:102B500000F01AF9204600F00BF92046FFF75EFD61
:102B6000E5E700BF38B50446EFF3108572B60028DC
:102B700039D0037BDB0736D540F67413C2F200036D
:102B80001A68904218BF002A0CBF0021012101D110
:102B900026E01A4613689C4218BF002BF9D12BB3CC
:102BA000196819B198688B6803448B608AB140F644
:102BB00074111046C2F2000100F048FA237B002095
:102BC00023F001032373206015F0010F00D162B6DA
:102BD00038BD40F67410C2F2000000F02BFAEDE7A9
:102BE00013460A46DBE74FF0FF30EDE747F6747017
:102BF000C0F601008121FEF711F900BF38B5044687
:102C0000EFF3108572B6037BD90719D49A071CD449
:102C10005B0701D5002038BD40F668112046C2F29E
:102C2000000100F0E3F940F67013C2F200031A88C5
:102C300001321A8015F0010F00D162B6002038BDB4
:102C4000FFF790FF237B9A07E2D515F0010F00D123
:102C500062B62046FFF7E2FC002038BD2DE9F041C6
:102C600040F27873C2F200031F2807460D4616464D
:102C7000D3F800803FD840463946FFF7A7FE044608
:102C800036B108B34368336083687360C368B36068
:102C9000F5B12E6846B1F4B166606B680020A360A0
:102CA000AB68E360BDE8F0816CB308F140012046F9
:102CB00000F0A8F940F640112046C2F2000100F0F1
:102CC00095F93046BDE8F08130607060B060DFE7B4
:102CD0002846BDE8F08140F64010C2F2000000F046
:102CE000A9F9044690B1277408F14001204600F08C
:102CF0007DF92E68D0E7FFF761F9162303604FF0E6
:102D0000FF30BDE8F0812046BDE8F081FFF798FD77
:102D100040F64010C2F2000000F08CF90446002892
:102D2000E1D147F68870C0F601006821FEF776F819
:102D300040F64011C2F2000100F058B938B54468BD
:102D400005467CB1204650F80C3B6B60FFF74AF912
:102D500004F10A00FFF746F92046FFF75FFC6C68B4
:102D6000002CEFD1A81CBDE83840FFF73BB900BFED
:102D700010B50446D0F8B40028B108F051F8D4F8E2
:102D8000B4000028F9D110BD10B50446C06908B1DF
:102D9000FFF744FC0023A361E36110BD38B540F6A2
:102DA000681440F2E035C2F20004C2F2000540F6B9
:102DB00074130022C2F20003214628461A605A60AA
:102DC0002260626000F012F905F11800214600F05F
:102DD0000DF940F67013C2F2000302221A8038BDCA
:102DE000F8B50746064690B100F080F93C46052547
:102DF00000266368201D002B02DB23899B0708D473
:102E0000013D04F10C04F4D1384600F085F9304658
:102E1000F8BD012100F006F836EA200628BF064674
:102E2000EEE700BF0020704700B583B0B0B14DF6AB
:102E30008363C4F21B33A3FB002344F240229B0CA8
:102E4000C0F20F0202FB13004FF47A7202FB00F291
:102E5000002168460093019210F00EFB03B05DF86C
:102E600004FB00BF30B540F25003C2F200031B78F0
:102E700083B043FA00F010F001000D46144607D06D
:102E8000684600F00FFD68462946224600F006FB22
:102E900003B030BD0EB400B582B003AB53F8041BD1
:102EA0001A460193FFF7DEFF02B05DF804EB03B0B2
:102EB000704700BFEFF3108172B640F25003C2F2C8
:102EC00000031A78187011F0010F00D162B6104695
:102ED000704700BF32B1C9B20244034603F8011B78
:102EE0009342FBD1704700BF024611F8013B02F844
:102EF000013B002BF9D1704702783AB1431C197895
:102F00001A4601330029FAD1101A7047104670474B
:102F10000244904210B40BD00C78431C04702CB9BE
:102F200009E011F8014F03F8014B24B19342F8D1A5
:102F30005DF8044B70479A4218BF0021F8D003F89F
:102F4000011B9342FBD15DF8044B704710B43AB1BA
:102F50000244034611F8014B03F8014B9342F9D1A7
:102F60005DF8044B704700BF002818BFB2F5004F52
:102F700008B502D20280002008BDFFF71FF8162313
:102F800003604FF0FF3008BD1F2908B5034607D87E
:102F9000012202FA01F1026800200A431A6008BD0A
:102FA000FFF70CF8162303604FF0FF3008BD00BF99
:102FB0001F2908B5034608D8012202FA01F1026868
:102FC000002022EA01021A6008BDFEF7F7FF16236F
:102FD00003604FF0FF3008BD1F299DBF006820FA35
:102FE00001F101F001004FF0FF3070470023036052
:102FF0000B681BB14B6818604860704708604860F8
:10300000704700BF0A684AB140B1824201D109E06D
:103010001A461368834202D0002BF9D1704710463C
:1030200000F014B84B6810689A420860F6D100238B
:103030004B607047036823B11A6802601AB100221E
:103040001A60184670474260F9E700BF0A680368D3
:103050004AB143B14A689A4212BF1A6800224860D6
:10306000026000221A601846704700BF00234360C8
:103070000B6803600B6813B1586008607047086004
:10308000486070474268036832B113603BB15A60D0
:1030900000230360436070470B60002BF7D10023CF
:1030A0004A600360436070472DE9F04100F1740706
:1030B0000646002138460122FFF756FF06F1780444
:1030C00005254FF0FF38204600210C22FFF702FFB4
:1030D000A31B3B44013D43F8748C04F10C04F2D172
:1030E000BDE8F0817430FEF77DBF00BF10B5044627
:1030F00004E0FEF763FF0368042B05D12046FEF7CA
:1031000085FF0028F5D110BD47F69C70C0F6010080
:103110005121FDF783FE00BFFEF7BEBF38B54CF668
:10312000CD44CCF6CC44A4FB0134E408234604EBA4
:103130008404A1EB4404054613B11946FFF7EEFFE2
:1031400004F130012B682846984738BD38B501F0A6
:103150000705C908044601D0FFF7F8FF05F1300163
:1031600023682046984738BD38B501F00105490865
:10317000044601D0FFF7F8FF05F13001236820462F
:10318000984738BDF8B514461D4606460A22002366
:10319000204629460FF0EEFA00231746204629461E
:1031A0000A220FF0E7FA50EA010304D002460B4668
:1031B0003046FFF7E7FF07F13001336830469847A4
:1031C000F8BD00BFF8B5D40844EA4374DD0854EAFA
:1031D000050302F00707064603D022462B46FFF7F9
:1031E000F1FF07F13001336830469847F8BD00BF62
:1031F000F8B55D084FEA320454EA050302F001070E
:10320000064603D022462B46FFF7F2FF07F13001B6
:10321000336830469847F8BD70B5012982B016462C
:103220000446069D26D002290ED1320632D4F1077B
:1032300029D45D1B002D05DD2368204630219847E9
:10324000013DF9D102B070BD12F0810F18BF0135F8
:103250005D1B002D05DD2368204620219847013D98
:10326000F9D130061DD4F107ECD5236820462B2177
:103270009847E7E7320619D4F307E3D503682B2113
:10328000984702B070BD02682B2101939047013529
:10329000019BCEE702682D21019390470135019BE8
:1032A000C7E7236820462D219847CBE703682D21E7
:1032B0009847C7E72DE9F04106460F4690461C2483
:1032C000002527FA04F303F00F010D4309D0092963
:1032D00088BF41443268304694BF30310A39904744
:1032E0000125043C231DECD11DB933683046302143
:1032F0009847BDE8F08100BF70B5A1F1580482B0D5
:103300000D460646202C35D8DFE804F02834343446
:1033100034343434343416341134343434113434D1
:103320003434341B283434343411343428001946EE
:1033300002B0BDE87040F1E6194602B0BDE8704049
:1033400012E7920704D50268302101939047019B50
:103350003046194602B0BDE87040F7E691070BD43D
:10336000582D304619460CBF4122612202B0BDE8FB
:1033700070409FE702B070BD026830210193904712
:103380003268304678219047019BE9E72DE9F04704
:103390009DF820909A46074690463C240023C4F1AD
:1033A00020060AFA06F628FA04F1A4F120052AFA02
:1033B00005F53143294301F00F010B4309D00929D9
:1033C00088BF49443A68384694BF30310A3990473B
:1033D0000123043C201DE2D11BB93B683846302153
:1033E0009847BDE8F08700BF2DE9F041DDE90645CB
:1033F000A1F158030E460746202B34D8DFE803F02E
:1034000026333333333333333333163311333333D8
:10341000331133333333331B3333333333113333D8
:10342000260022462B46BDE8F041ABE622462B465D
:10343000BDE8F041DCE6960702D5036830219847E5
:10344000384622462B46BDE8F041BBE693070CD434
:10345000582E0CBF41216121384622462B46069149
:10346000BDE8F04192E7BDE8F0810368302198475C
:103470003B68384678219847EAE700BF11F0810F92
:1034800038B518BF0133D41A002C054605DD2B686A
:10349000284620219847013CF9D138BD2DE9F04F4D
:1034A0000E46097889B080469246002900F0C58012
:1034B00047F6B470C0F601000390B4460AE0D8F8AD
:1034C0000030404665469847697805F1010C0029AF
:1034D00000F0B3802529F2D19CF801100CF1010510
:1034E000002900F0C88100263746B14647F6BC7077
:1034F000C0F6010000F0EAF9002840F0CF802B78F8
:103500002D2B00F09F80302B00F0A0802A2B00F0A4
:10351000AF80A3F13102D2B2082A00F29B80687812
:10352000303BA0F13002D4B2092C05F1010100F2C8
:10353000FD80A91C0D4611F8010B03EB830302EB80
:103540004303A0F13002D4B2092CF3D916F0040FD2
:1035500008BF994601460028C8D147F6D070C0F68A
:10356000010000F0B3F90028AED0720695F800B063
:1035700040F11381BBF1700F00F0DA800AF107020D
:1035800022F00702ABF15803D2E9000102F1080A68
:10359000CDE90401202B24D8DFE813F0210023001B
:1035A0002300230023002300230023002300230003
:1035B0002100230050012300230023002300500199
:1035C00023002300230023002300210021002300E7
:1035D000230023002300230023002300210006F002
:1035E0007E0606A800F06AF9DDE904235946CDE914
:1035F000002306A83246FFF7F7FE079C40463946EF
:1036000032464B460094FFF707FEDDE90423297894
:103610004046CDE900233246FFF7E6FE012F7FF456
:1036200053AF31464A4623464046FFF727FF6978A5
:1036300005F1010C00297FF44DAFD8F8040009B062
:10364000BDE8F08F15F8010F012783E715F8010F8A
:1036500002277FE72E2B1BD02B2B3AD0232B09BF21
:1036600046F0020615F8010F15F8010FF6B271E7E2
:103670007107DAF800200AF1040357BF46F0080684
:103680009A46F6B29A4658BF914615F8010F61E77F
:1036900046F00406F6B215F8010F5BE729782529F4
:1036A00076D073291BD0632900F0DB804C2969D0C8
:1036B0006C297FF452AF69786C2913BF46F020065D
:1036C00046F06006A978F6B212BF0135F6B20235AF
:1036D00043E746F00106F6B215F8010F3AE7DAF8CB
:1036E000004003990AF1040A002C08BF0C4620464A
:1036F000FFF702FC394600900646002240464B4642
:10370000FFF78AFD217839B1D8F800304046984754
:1037100014F8011F0029F7D1012F7FF4D5AE4A46D6
:10372000334640460021FFF7A9FECDE60D460DE7E2
:10373000DAF800400AF1040306F07E069A4606A86D
:1037400000F0BCF8594606A832462346FFF7D4FDE0
:10375000DDF81CB04046394632464B46CDF800B045
:10376000FFF75AFD4046234629783246FFF7C4FD4D
:10377000012F7FF4A9AE31464A465B464046FFF72B
:103780007DFEA1E646F040066978F6B20135E4E632
:10379000D8F800304046984796E6ABF158020AF157
:1037A0000403DAF80040202A46D801A050F822F09D
:1037B0003937000839380008393800083938000826
:1037C0003938000839380008393800083938000815
:1037D0003938000839380008393700083938000806
:1037E00035380008393800083938000839380008F9
:1037F00039380008353800083938000839380008E9
:1038000039380008393800083938000839370008D5
:1038100039370008393800083938000839380008C5
:1038200039380008393800083938000839380008B4
:1038300039370008002C22DB9A4680E7DDE90423B3
:10384000002A73F10003BFF6CCAEDDE9040106F0F7
:10385000FE06404261EB410146F08006CDE90401DD
:10386000BFE60AF10402DAF80010D8F8003040464A
:103870009246984728E60F4689460E466DE606F0C2
:10388000FE0646F0800664429A4658E710B50446A4
:103890000846FDF73BF901301EBF636801336360E2
:1038A00010BD00BF43F68D03C0F600030022036085
:1038B00042607047436801334360704743F6B50385
:1038C000C0F60003002203604260704768B10278CE
:1038D0008A420AD042B1431C00E02AB1184613F8CC
:1038E000012B8A42F9D1704710467047034640F6D3
:1038F0007C100A46C2F20000194600F051B800BF21
:1039000040F67C10C2F2000000F07AB840F67C105D
:10391000C2F2000000F0B2B8014640F67C10C2F2DC
:10392000000000F0FFB800BF014640F67C10C2F274
:10393000000000F047B900BF014640F67C10C2F21B
:10394000000000F08DB900BF2DE9F0010A4401F13B
:103950000F0424F00F04816822F00F02161B8F1948
:1039600004252146C460876021F8045BC768A6F17E
:10397000080C4FF40048161FA7F80280A4F804C0F2
:103980004D80066122F8045CA28803696FEA424216
:103990006FEA52425A80BDE8F00100F087B800BFDC
:1039A0002DE9F0410023064600F11405B360884676
:1039B0001746194628469022FFF78CFA0B2406F189
:1039C000200300E00C33013C9D6043F8083C1D4699
:1039D000F8D1304600F008F8304641463A46BDE896
:1039E000F041FFF7B1BF00BF10B50122002104462E
:1039F000FFF7BAFA4FF6FF7200236280636010BDD2
:103A000038B50446FEF7C0FAB4F9023005468342E1
:103A100007D020460FF0E0FC40B9012365806360C9
:103A200038BD636800200133636038BD4FF0FF305C
:103A300038BD00BF38B50446FEF7A6FAB4F9023027
:103A40000546834205D10DE0FEF7B8FA0368042B62
:103A50000CD12046FEF7DAFA0028F5D10123658063
:103A6000636038BD63680133636038BD47F6DC705E
:103A7000C0F60100AB21FDF7D1F900BF08B54268DF
:103A8000012A02DD013A426008BD4FF6FF710022B3
:103A900041804260FEF700FB00B908BD47F6DC70CC
:103AA000C0F60100DC21FDF7B9F900BF70B506468C
:103AB00008880D4600F024F800EB40008300F2185F
:103AC000946902F11406CCB1228882B12888904210
:103AD00005D80CE01A8862B182420AD21C4663689B
:103AE000002BF7D100236560AC606B6070BD23468E
:103AF00034466560AC606B609D6070BD3446F1E734
:103B0000B0F5004F01D30B2070470309012B4FF094
:103B1000000005D95B08012B00F10100FAD87047BD
:103B2000704700BFF8B50C460746002949D0FFF79B
:103B300081FF34F8021C34F8046CC1F30E01221F1B
:103B4000931924F8021CB3F902000028B8BF1D46DF
:103B500016DB99685868955B486059681D4409B13F
:103B60009B688B60915B34F8043C0B449BB224F857
:103B7000043C698801F400410B436B8034F8021C5B
:103B8000511AB1F90230002BB8BF114611DB8B6816
:103B90004A685A604B680BB18A689A6034F8042C02
:103BA0000B8813449BB20B806A8802F400421343D3
:103BB0006B803846FFF77AFF3846BDE8F840FFF7DC
:103BC0005DBFF8BD70B50646002937D001F1130579
:103BD00025F00F05FFF72EFFB5F5004F28BF0B208E
:103BE00028D300EB400006EB8000846914B91BE089
:103BF0006468CCB123889D42FAD8A36862685A6091
:103C000063680BB1A2689A6023885A1B0B2A17D8E5
:103C1000638830466FEA43436FEA5343251D638050
:103C2000FFF72CFF284670BD30462546FFF726FFDC
:103C3000284670BD2846FFF763FFD2E7084670BDEF
:103C4000A8B292B2611962532344488020805888F8
:103C500000F4004002435A803046FFF727FFD7E7C1
:103C600038B50D46FFF7AEFF044618B12A460021CD
:103C7000FFF730F9204638BD38B5044601200D461F
:103C8000FDF7DAFD47F62843C0F601031B68C3F1D0
:103C9000005202F5A04223602A6038BD10B540F200
:103CA0001442C4F20102012440F210431460C2F233
:103CB00000031B680BB1984710BD184610BD00BF2C
:103CC00010B540F21442C4F20102022440F2104343
:103CD0001460C2F200035B680BB1984710BD184630
:103CE00010BD00BF10B540F21442C4F2010204241A
:103CF00040F210431460C2F200039B680BB1984776
:103D000010BD184610BD00BF10B540F21442C4F2F9
:103D10000102082440F210431460C2F20003DB6881
:103D20000BB1984710BD184610BD00BF10B540F24A
:103D30001442C4F20102102440F210431460C2F293
:103D400000031B690BB1984710BD184610BD00BF9A
:103D50002DE9F04F40F2144AC4F2010A9A4283B0AE
:103D600014461E4607468846DAF800B028DC40F2C2
:103D70001049C2F2000909EB82090025CDF8049030
:103D80004FF0010AA9460AFA04F212EA0B0F04F1F5
:103D900001040DD040F21443C4F201031A60019BE8
:103DA00038465A5941461AB19047002818BF8146F3
:103DB000A64205F10405E6DA484603B0BDE8F08FF7
:103DC0004FF00009F8E700BF05220923C0E700BF54
:103DD0000A220F23BCE700BF2DE9F04F00F00F04CB
:103DE00083B00125042C83468A4691461F4605FA76
:103DF00004F50C9E0ED840F21040C2F2000000EB19
:103E0000840304F11602032C00F29680DFE804F02C
:103E10007F788D86092C56D94E4B43F6D151A3F1AC
:103E20002800C0F600014FF0060E382250F824801A
:103E300040F82460002E56D010460192FDF74EFE49
:103E4000019A1046FCF768FF4BF4806B5846FCF76C
:103E5000B5FBBAF1000F4FF481600CBF2946002179
:103E600014BF2A460022C4F20100FCF785FEB9F116
:103E7000000F40F20C400CBF2946002114BF2A4617
:103E80000022C4F20100FCF777FE002F40F204404C
:103E90000CBF2946002114BF2A460022C4F20100AB
:103EA000FCF76AFE002E4FF480600CBF294600210B
:103EB00014BF2A460022C4F20100FCF75DFE404612
:103EC00003B0BDE8F08F244B43F6C951A3F11400B1
:103ED00050F82480C0F600014FF0050E272240F86C
:103EE0002460002EA8D1043B344653F8041F11B9B6
:103EF0000134A645F9DC744525D0002FA6D0A3E7F0
:103F000043F6C141C0F600014FF0010E8EE743F6C3
:103F10009D41C0F600014FF0010E87E743F60951BD
:103F2000C0F600014FF0010E80E743F6E541C0F610
:103F300000014FF0010E79E743F62D51C0F6000164
:103F40004FF0010E72E71046FCF7D2FE002F3FF44F
:103F50007DAF79E7380400202404002030BF70478B
:103F60002DE9F041437E40F27874023BDBB2C2F2AD
:103F70000004012B06460F46D4F800802AD80EF024
:103F8000EDFE3946054630460EF072FF40F2F873FA
:103F9000C2F200031B681BB10EF026FF2843C5B216
:103FA00075B140F26475C2F20005296851B108F19B
:103FB000780000F017F8236878332B60BDE8F081B3
:103FC000BDE8F081216808F178007831BDE8F04162
:103FD00000F075B947F6F070C0F601005F21FCF7FC
:103FE0001DFF00BF814207D000F1480251F8043B99
:103FF00040F8043B9042F9D1704700BF70B5C36AE6
:1040000004460D46ABB1866A8E4204D0114600F0DC
:1040100085F8E36A6BB1043D1D4425F00705C3F143
:1040200004032B442563A3620320FDF705FC002055
:1040300070BD2846FFF778FC0346E0620028EAD10D
:104040004FF0FF3070BD00BF08B5EFF3108372B6BC
:104050000EF0BEFF40F27873C2F2000318687830A9
:1040600000F028F908B540F26473C2F200030022A0
:104070001A60FCF7F5FD45F63953C0F601030BB1A4
:1040800011F05AFE00F028F90CF01CFBFCF708FDBB
:1040900001F00EFDBDE808400220FDF7CDBB00BFDA
:1040A00010B50021044658226830FEF713FF22693C
:1040B000236B22F001024FF08071A367C4F8B8208F
:1040C000C4F8BC1010BD00BF40F26473C2F200031C
:1040D0001868003018BF0120704700BF70B540F26B
:1040E0007874C2F2000426680EF07EFE68B140F2D9
:1040F0006475C2F20005296841B106F17800FFF746
:1041000071FF236878332B6070BD70BD216806F1A4
:1041100078007831BDE8704000F0D1B810B50446A1
:10412000C06A18B1FEF77AFA0023E3620023A362A3
:1041300010BD00BFF8B5836E03B1F8BDEFF3108476
:1041400072B640F27873C2F200031B68834219D042
:1041500044F2C513C0F60003D0F8B860C56FC0F8CC
:10416000B830D0F8BC3001224FF080778166C66647
:1041700005674367C267C0F8BC7014F0010F00D137
:1041800062B6F8BD40F26472C2F200021268B2B1C7
:104190009966106C44F2C511D8665068C0F60001EB
:1041A0001867506C01264FF080755867116403F151
:1041B0007800566011465564FFF714FFDDE7184696
:1041C0008847DAE730B540F27873C2F200031C6822
:1041D00093B00520656EFDF72FFBA36EEBB104F1E4
:1041E00078016846FFF7FEFEE36E00211093626FD0
:1041F000236F1192A26E0193A16613F0010F00D1FB
:1042000062B620469047EFF3108372B605206566CC
:10421000FDF71AFB684600F04DF848F20800C0F6BA
:1042200001006421FCF7FAFD0346C06A073121F062
:10423000070158B19A6A914207D2186B521A401A74
:10424000186398679A62043070470020704700BF77
:1042500070B5437E40F27874043BDBB2C2F20004D6
:10426000042B054626681ED80EF022FE14232B626E
:1042700028460EF03DFD68B140F26475C2F20005BB
:10428000296841B106F17800FFF7ACFE2368783366
:104290002B6070BD70BD216806F178007831BDE8F3
:1042A000704000F00CB848F22000C0F6010059211F
:1042B000FCF7B4FD01464FF0010000DF70470A46ED
:1042C00001464FF0020000DF7047000008B50EF015
:1042D00053FE002008BD00BF10B54EF62053CEF2AD
:1042E00000031C684EF2140224F07F444FF67F4016
:1042F000CEF2000244F00044C0F20A0044F2CD21A4
:104300001C60C0F6000110600F20FDF7E7FB4EF2C5
:104310001003CEF2000307221A600F20BDE8104000
:10432000FCF7FABC45F65043C4F200031B889BB26D
:1043300003EBC00306335B0003F180433E2903F522
:10434000C04305D811B10131491089021960704785
:104350004909013989B2890241F400411960704765
:1043600038B50446EFF3108072B6236923B15A6959
:10437000226122B300225A6110F0010F00D162B60F
:1043800083B12079627E400602F001050BD0002245
:1043900059815A611946DA6820469047637E65F371
:1043A0000003637638BDE068007CB0F1050EDEF1F5
:1043B000000050EB0E0060F300026276E7E76261F6
:1043C000D8E700BF10B4047D002344FA03F2D207FB
:1043D0000DD4980000F1804000F5B840028822F426
:1043E000E04222F07F021204120C1A4302800133D1
:1043F000082BEAD145F64C4341F08001C4F200039A
:1044000019805DF8044B704710B5036904467BB111
:104410002079198900F07F0040F450600AF0F6FB23
:1044200020466FF06B01FFF79BFF2369002BEFD154
:1044300010BD00BF38B50179044601F07F014FF48B
:1044400084700AF0E3FBEFF3108572B62046FFF7A5
:10445000DBFF15F0010F00D162B6002038BD00BFB0
:1044600070B50479054604F07F044FF4817021464D
:104470000AF0CCFBEFF3108672B62846FFF7C4FFB4
:1044800020460021FFF74EFFA20002F1804202F514
:10449000B842138823F4804323F070031B041B0CE1
:1044A0001380138823F4E04323F040031B041B0C08
:1044B000138016F0010F00D162B6002070BD00BF5E
:1044C000F8B58E780D4606F07F060746314640F275
:1044D00001100AF09BFBEB7803F00303022B08BFEB
:1044E00000220AD0032B08BF4FF4C06205D0012B75
:1044F0000CBF4FF480624FF40072B40004F18044AA
:1045000004F5B844238823F4EC4323F070031B0420
:104510001B0C134323802B7969793A7E43EA0121EE
:10452000F98095F902309201002B02F1400226DB5E
:1045300045F650433E71C4F200031B889BB203EB67
:10454000C60304335B0003F1804303F5C0431A60E4
:104550003046FFF7E7FE238823F4804323F07003FF
:104560001B041B0C83F440532380238823F4E04373
:1045700023F040031B041B0C23800020F8BD66F0D1
:104580007F0145F650433971C4F200031B889BB28A
:1045900003EBC606760006F1804606F5C04632609B
:1045A000238823F4E04323F040031B041B0C83F017
:1045B00020032380238823F4804323F070031B040B
:1045C0001B0C23800020F8BD38B5044640F20520BE
:1045D0000D460AF01BFBE37C002065F34103E37406
:1045E00038BD00BF10B545F64844C4F20004248825
:1045F000A4B2214640F203200AF008FBC4F30A00EB
:1046000010BD00BF45F6404310B5C4F20003044698
:104610001B8823F004031B0445F640421B0CC4F224
:10462000000213800121FDF74DF945F64043C4F225
:1046300000034FF40C421A80E06820B103685B6904
:104640000BB12146984710BD38B5002104464FF400
:1046500001700AF0DBFAEFF3108572B62046FFF71F
:10466000D1FF638B012123F4C8531B041B0C43F4BB
:10467000807345F6404261746383C4F2000211887E
:1046800045F64042C9B20B43C4F20002138045F61E
:104690004443C4F200034FF6FF621A8015F0010F85
:1046A00000D162B6002038BD10B503790C464FF436
:1046B000827003F07F010AF0A9FA2046BDE810409D
:1046C000FFF72AB9F8B50C46074640F201200AF078
:1046D0009DFA14F07F0437D0072C9EBF012101FA08
:1046E00004F4E1B240D8EFF3108C72B6387D11EAD1
:1046F00000040AD001231D4605FA03F216462240A3
:1047000024D10133082BF7D114461CF0010F00D13E
:1047100062B6002C2FD0EFF3108072B67D7D02239D
:10472000012606FA03F10D428C4619D10133072BFD
:10473000F7D14FF0FF3310F0010F00D162B6591CD2
:104740001FD023762046F8BDFF21CCE7C3EBC3037F
:1047500007EB830220EA060002F168043875D4E70B
:1047600025EA0C057D75E6E7214640F605600AF06E
:104770004DFA0020F8BD40F616600AF047FA2046D0
:10478000F8BD40F6136000210AF040FAEFF3108301
:1047900072B62279012102F07F0291403A7D0A43EC
:1047A0003A7513F0010F00D162B60020F8BD00BFCA
:1047B0002DE9F0470D799EB205F07F051C4688462D
:1047C0008146314645F4406092460AF01FFAE900FE
:1047D000204654B345F65043C4F200031B889BB2F5
:1047E000E9000B445B0003F1804303F5C0431B6801
:1047F000771C9BB27F1030464FEA430315D046F238
:1048000004040AF10202C4F2000402EB47071C444C
:1048100012F8016C12F8025C023245EA0625BA422F
:1048200024F8045C04F10404F2D145F65043C4F2C8
:1048300000031B889BB28A1C1A44520002F180427A
:10484000302302F5C0421060A9F8003098F8193002
:1048500043F0040388F81930BDE8F08770B54B7E4B
:104860000C696FF382030D464B76002C3DD0E68831
:1048700022894B7EB61A6FF3C303002E4B7602DDFE
:10488000CB889E4210DA2368228929461A441830C0
:104890003346FFF78DFF2389E1881E44B6B2B1424B
:1048A00026810CD0002070BD18BF1E46EBD12379A5
:1048B000DB0742BF4B7E43F008034B76E3E76C7E99
:1048C000C4F3C004002CEDD1287900F07F0040F43F
:1048D00050600AF09BF96B7E284664F3C3036B7645
:1048E0002146FFF73DFD204670BD214640F20B708A
:1048F0000AF08CF96FF0010070BD00BF2DE9F8439C
:10490000057904460E4605F07F05D0F80C90EFF3CC
:10491000108872B6017940F20910002E18BF4FF4CA
:10492000857001F07F010AF071F9AF0094F904304D
:1049300007F1804101F5B841002B0988B4BF01F0AF
:10494000300101F44051002958D02EBB294640F2D5
:1049500009100AF05BF9627E94F9043042F001021A
:10496000002B627607F180477EDB4FF4805307F51A
:10497000B847A9F816303B8823F4804323F070032E
:104980001B041B0C83F480533B8018F0010F00D1F3
:1049900062B60020BDE8F8834FF4857029460AF01E
:1049A00035F9637E94F904206FF3000307F1804723
:1049B000002A637607F5B84730DB3B8803F44053A1
:1049C000B3F5805FE1D1002D5ED03B889BB25A04E5
:1049D00005D548F68F721A4042F480423A804FF46F
:1049E0004053A9F816303B8823F4804323F070032A
:1049F0001B041B0C83F440533B80C6E740F6146055
:104A00000AF004F935B9052389F810306FF0120067
:104A1000BDE8F8836FF01200BDE8F8833B8803F02F
:104A20003003102BB1D13B889BB2590605D548F60F
:104A30008F721A4042F040023A802023A9F81830C1
:104A4000214648462DBBFFF709FF00280CBF032075
:104A5000002089F810003A88B9F8181048F6BF739A
:104A60004A4013403B8090E7102307F5B847A9F868
:104A700018303B8823F4E04323F040031B041B0C55
:104A800083F010033B8080E72846E188FFF74AFC6B
:104A9000A5E7FFF7E3FEDEE730B50021044683B06B
:104AA00040F203700AF0B2F874B1E06860B1B4F893
:104AB0006420036800929D68214604F11C0204F101
:104AC0002403A847002801DB03B030BD40F60E6088
:104AD00000210AF09BF80523237403B030BD00BF0A
:104AE0002DE9F04F856F83B0044600F168064FF65C
:104AF000B977ADB12989B5F806B094F86C008B454B
:104B000014BFBB464FF0000B40F450600AF07EF833
:104B100030460FFA8BF1FFF723FCA36F002BE9D18E
:104B200094F88130227C03F0FE036FF38203022AA3
:104B300084F881304BD045F65042C4F2000204F1B3
:104B40001C03128892B20432520002F1804202F534
:104B5000C042126804F1240092B2520002F1804275
:104B600002F5C04252F8041B23F8021B8342F9D11C
:104B7000A07F94F81F90217F94F821A094F8202022
:104B800094F8238094F8223040EA0929080642EA82
:104B90000A2A43EA082802D4B8F1000F25D10223DB
:104BA00011F0600F237416D1637F0C2B00F2ED809F
:104BB000DFE813F025003500EB008F00EB006C0000
:104BC000C400C4005400AF0085008500D300217FDD
:104BD00011F0600FE8D04FF4E3600AF017F82046B8
:104BE000FFF75AFF03B0BDE8F08F414640F21F7057
:104BF0000AF00CF80123237403B0BDE8F08F40F2F3
:104C000013700AF003F8B8F1020F00F0CA8040F602
:104C10000460002109F0FAFF05232374E2E740F263
:104C2000017009F0F3FF237F03F01F03022B4AD129
:104C30000AF07F03072B09D8CAF3072232B9B9F16A
:104C4000000F03D1B8F1000F00F0EC8040F60260D5
:104C5000002109F0DBFF05232374C3E74FF4E26072
:104C600009F0D4FF237FDD0608D1B9F1000F05D18B
:104C70001FFA8AF313B9B8F1010F24D040F6076088
:104C8000002109F0C3FF05232374ABE74FF4E16073
:104C9000494609F0BBFF237FDF0608D11FFA8AF3DC
:104CA0002BB9B8F1000F02D1B9F17F0F5AD940F6F4
:104CB0000A60002109F0AAFF0523237492E740F25D
:104CC000127009F0A3FF2046FFF7E6FE03B0BDE82F
:104CD000F08F40F21B7009F099FF237F13F01F0340
:104CE0005BD0022BEFD10AF07F03072B09D8CAF360
:104CF000072232B9B9F1000F03D1B8F1000F00F06B
:104D0000818040F60C60002109F080FF05232374A8
:104D100068E740F21A7009F079FF237FD80605D1C1
:104D20001FFA8AF313B9B8F1000FCCD040F60B602C
:104D3000002109F06BFF0523237453E740F2117043
:104D400009F064FF237FDE06BDD040F60860002135
:104D500009F05CFF0523237444E740F21D70002135
:104D600009F054FF0023227C052A3FF43BAF434562
:104D7000A8BF4346314604F1180001AAFFF718FD09
:104D80000023237403B0BDE8F08F194640F6176086
:104D900009F03CFF0523237424E7B9F1020F92D1F7
:104DA000E0E7237F1A067FF532AFCAF30722002A15
:104DB0007FF42DAFB9F1000F7FF429AF03F01F038B
:104DC000012B6CD058D3022B4ED15FFA8AFA0AF02D
:104DD0007F05294640F2097009F018FF072D3BD8DE
:104DE000AB0003F180431AF0800FADF8049003F597
:104DF000B84327D11B8803F44053B3F5805F26D016
:104E00000223B0E7C3EBC30304EB830393F88120D1
:104E1000683342F0020218465A764146FFF76EFDAB
:104E20004346A0E7C3EBC30304EB830393F881205D
:104E3000683368F3410218465A760121FFF75EFD98
:104E4000434690E71B8803F03003102BD8D1012391
:104E50008DF80430022386E7294640F6046009F005
:104E6000D5FE05232374BDE6494640F6096009F0E6
:104E7000CDFE05232374B5E61FFA8AF3C3B940F2C9
:104E80000270494609F0C2FEE37CADF80490C3F31A
:104E9000400343F002038DF80430434663E740F2D9
:104EA0001570494609F0B2FEADF8049043465AE742
:104EB000494640F6036009F0A9FE0523237491E6F4
:104EC0002DE9F04190F804800569074608F07F0855
:104ED000002D65D0EC88002C53D0298948F430602F
:104EE00009F094FE29892B6845F650420B44C4F220
:104EF000000214884FEAC802101DA4B204446400E2
:104F000004F1804404F5C04445F650402468C4F2DE
:104F10000000008880B206320244520002F1804252
:104F200002F5C0421068B5F806C0C0F3090060453C
:104F3000B8BF8446A2B252000CF1010602F18042D1
:104F4000761002F5C04208D003EB460652F8044B37
:104F500023F8024BB342F9D12989614489B22981EE
:104F6000FB88984202DBEB888B4216D848F45060ED
:104F700009F04CFE38460021FFF7F2F90020BDE8A9
:104F8000F081214640F6156009F040FE3846214682
:104F9000FFF7E6F92046BDE8F0810020BDE8F0818A
:104FA000414640F20E7009F031FE6FF00100BDE89D
:104FB000F08100BF38B50D460979044601F07F0144
:104FC00040F2022009F022FEECB1EFF3108372B63A
:104FD0002A7E012101FA02F2217D0A43227513F093
:104FE000010F00D162B6EFF3108372B62A79012166
:104FF00002F07F0201FA02F2217D0A43227513F0CA
:10500000010F00D162B638BD10B5017940F203102E
:1050100001F07F0109F0FAFD1820FEF785FC044637
:1050200028B100211822FDF755FF204610BD40F69B
:105030000160214609F0EAFDF7E700BF08B540F23C
:105040005043C2F20003002145F640421972C4F2F7
:1050500000020123138045F64443C4F200030022FA
:105060001A8040F25040C2F20000FCF71BFC45F6EB
:105070004043C4F2000303221A8008BD38B545F648
:105080004043C4F2000303221A8040F25044C2F2AB
:10509000000420460021FCF705FC204600214FF4C7
:1050A000A472FDF717FF48F23C032246C0F6010345
:1050B00042F8683B7C202146FE25607562602575BC
:1050C000002203F11C0440200B4683F86C200132BF
:1050D000082A9C665967A3F86E0003F11C03F4D1FB
:1050E00045F64043C4F2000301221A800520BDE8C2
:1050F0003840FBF7A1BF00BF08B545F64043C4F2F6
:10510000000301221A8040F25043C2F20003002241
:1051100045F640415A83C4F200010A8045F65043E7
:10512000C4F200031A804FF4B843C4F200031B8892
:1051300023F4EC4323F070031B041B0C4FF4B84220
:1051400043F40073C4F2000213804FF4B843C4F276
:1051500000031B8823F4E04323F040031B041B0CD3
:105160004FF4B84283F02003C4F20002138045F6E6
:105170005043C4F200031B889BB204335B0003F16D
:10518000804303F5C043402119600020FFF7CAF8AF
:1051900045F65043C4F200031A8892B2520002F15D
:1051A000804202F5C04280214FF4B8431160C4F23E
:1051B00000031B8823F4E24323F070031B044FF425
:1051C000B8421B0CC4F2000213804FF4B843C4F27F
:1051D00000031B8823F4804323F070031B041B0C83
:1051E0004FF4B84283F44053C4F20002138040F2FB
:1051F0005040C2F200000021FFF7E4F845F64443B6
:10520000C4F2000300221A8040F25043C2F20003AD
:105210009A7E45F6404142F40C425A83C4F20001A2
:10522000098845F64043C9B20A43C4F200031A8014
:1052300008BD00BF45F6404370B5C4F2000301222B
:105240001A8040F25045C2F20005E868294603681A
:1052500005F16804DB689847EA7C002363F30002E9
:10526000EA742B746B7405F5A4762046FFF7CCF82E
:10527000637E1C3403F0F8036FF3C30304F8033CAC
:10528000B442F2D1FFF738FF02232B7270BD00BF8A
:10529000F8B5860006F18046054606F5B84633881F
:1052A00040F25044C0EBC001C2F200041AB204EB59
:1052B0008101002A01F1680799B228DB0B0600D4AE
:1052C000F8BD328822F4E14222F070021204120C7E
:1052D000328040F20A7009F099FC202340F25040DD
:1052E00023833946C2F200004DB1FFF7B7FA328886
:1052F000218B48F6BF734A4013403380F8BDFFF757
:10530000ADFA00280CBF032000202074EFE740F224
:105310000C7009F07BFC3B69C3B13846FFF7D0FD48
:105320004FF44053E3823A6982B11946328822F041
:1053300070021205120D3280328822F4804323F06D
:1053400070031B041B0C4B403380F8BD294640F210
:105350000D7009F05BFCE37C4FF4005143F0010356
:10536000E374E182E2E700BF70B545F64445C4F25C
:1053700000052D88ACB2214640F214602DB209F030
:1053800045FC002D0FDA45F64445C4F2000547F60A
:10539000FF762E8004F00F00FFF77AFF288803B213
:1053A000002B84B2F5DB40F61400002109F02EFC3E
:1053B000002070BD2DE9F041037904460D4640F20E
:1053C000071003F07F0109F021FC26794FF68D725A
:1053D0000023E76806F07F066A812B81EFF31088CF
:1053E00072B6637E13F0010167D194F90420002A9C
:1053F00030DB002E2ED061F3C3036376696123692D
:10540000002B57D063695D616561E98846F41060DF
:1054100009F0FCFBFB7CDA073FD5B6004FF44053A4
:1054200006F1804606F5B846FB82338823F48043B4
:1054300023F070031B041B0C83F440533380FB7C6C
:1054400000206FF30003FB7418F0010F00D162B667
:10545000BDE8F08100236B61236943B363695D613B
:105460006561E98846F4206009F0D0FB637E590746
:1054700013D420233B832146384686B1FFF7EEF94B
:10548000B60006F1804606F5B8463288398B48F6F4
:10549000BF734A4013403380D6E70020D4E7FFF7BC
:1054A000DDF900280CBF032300233B74E8E72561E6
:1054B0006561D6E725616561A7E7217940F61B6044
:1054C00001F07F0109F0A2FB4FF6F07320466B81DB
:1054D0002946EB6898476FF00F00B5E710B540F22A
:1054E0005044C2F2000494F88130227C6FF38203AE
:1054F000032A84F881300FD012B10523237410BD24
:10550000637F052BFBD1237F5806F8D12046A17F6E
:10551000BDE81040FEF756BF204604F16801FFF7D2
:105520009DF900280CBF03200020207410BD00BF8F
:105530002DE9F84345F64444C4F200042488A4B29B
:10554000214640F2176009F061FB610500F194818A
:1055500040F25045C2F200056B8B03F480521442B6
:1055600040F0448104F40062134240F0E48004F40B
:105570008072134240F0958004F4004213420CD133
:105580004FF4B841C4F20001098840F6170089B20F
:1055900009F03CFB0020BDE8F883214640F216707C
:1055A00009F034FB45F644464FF4B84440F2504706
:1055B00045F65048C4F20006C4F20004C2F20007E7
:1055C000C4F2000831880BB2002B89B2D8DA47F652
:1055D000FF73338011F00F002DD14FF400522023C0
:1055E000EA822B83238823F4804323F070031B0477
:1055F0001B0C83F400532380238823F4E04323F01F
:1056000040031B041B0C83F020032380CB0658BFF0
:1056100040F2047014D5238899B208060ED40A0506
:1056200000F119811BB2002BC0F2358140F61160E8
:1056300009F0ECFAC6E7FFF72BFEC3E740F205706E
:1056400009F0E4FA238823F4E14323F070031B04F8
:105650001B0C2380FFF742FF40210020FEF762FE73
:10566000297C052900F09281FB8AB3F5005F0FD0F9
:10567000388B9E4621884BF68F738EEA01010B40D2
:105680002380228848F6BF7342401340238099E765
:10569000388B202806BF4FF4405EA7F816E09E46E0
:1056A000E8E745F64443C4F200034FF6FF621A8070
:1056B00040F20F70002109F0A9FA6B7C40F25042D1
:1056C000012BC2F2000200F00381022B40F069813D
:1056D000937C013BDBB29374002B40F0668145F66E
:1056E0004043C4F200031B8823F010031B0445F65B
:1056F00040421B0CC4F2000213806B8B002123F488
:10570000C8531B041B0C43F4805345F64042697494
:105710006B83C4F20002118845F64042C9B21943B6
:10572000C4F20002118045F64442C4F200024EF673
:10573000FF71118020E740F21C70002109F066FA29
:10574000E86838B103681B6923B140F25041C2F2E6
:10575000000198476B8B45F6404223F4C8531B0465
:105760001B0C43F480536B83C4F20002118845F68E
:105770004042C9B20B43C4F20002138045F64443D1
:10578000C4F200034EF6FF721A8045F64043C4F29D
:1057900000031A8845F6404392B242F00802C4F270
:1057A00000031A8040F25045C2F20005EB7C9A07D4
:1057B0000CD445F64043C4F200031A8845F6404332
:1057C00092B242F00402C4F200031A8040F2504048
:1057D000C2F200000021FCF775F845F64443C4F21C
:1057E00000034FF2FF721A806B8BC0E645F644430C
:1057F000C4F200034EF6FF721A8045F64843C4F225
:105800000003198840F21E7089B209F0FFF940F2D6
:105810005040C2F20000FEF7F5FE6B8B002123F42E
:10582000C8531B041B0C43F4006345F640426974E3
:105830006B83C4F20002118845F64042C9B2194395
:10584000C4F20002118045F64442C4F200024FF255
:10585000FF71118086E640F2077009F0D7F92388BE
:1058600023F070031B051B0D238040F25040C2F251
:105870000000FFF735F9EFE645F64443C4F20003B4
:105880004FF6FF321A8040F21970214609F0BEF936
:10589000FFF7D0FC74E640F2067009F0B7F92388F0
:1058A00023F070031B051B0D23802B7C012B22D0C2
:1058B00005D3042B1CBF05233B747FF4CDAE3C48BD
:1058C000FFF7FEFA00280CBF042000202874C3E66E
:1058D00045F64043C4F200031A8845F6404392B2AD
:1058E00042F01002C4F200031A800A230222AB74B1
:1058F0006A746B8B40E6B8F800309BB206335B00ED
:1059000003F1804303F5C0431B684FF43060C3F3D9
:105910000909494609F07AF9B9F1400FA8BF4FF0DB
:105920004009B8F800309BB204335B0003F18043B8
:1059300003F5C0431A6809F1010392B2520002F163
:1059400080425B1002F5C0420AD003F11200194BED
:1059500005EB400052F8041B23F8021B8342F9D1E7
:105960001FFA89F9022349464FF4E4602B74A5F825
:10597000649009F04BF940F25040C2F20000FFF78A
:10598000AFF80023A5F864302B7465E640F612608A
:1059900009F03CF94FF4805E1020A7F816E0388338
:1059A00068E60021538B5174E6E5538BE4E500BFB4
:1059B000B80400207404002038B540F25044054675
:1059C000C2F200040320002109F020F9E5602B68F1
:1059D00028461B6821469847054678B9FFF78CFB97
:1059E0002320FBF799F92420FBF796F920460121A3
:1059F000FBF758FF02232372284638BD414289B283
:105A000040F60D6009F002F9284638BD70B5002156
:105A10000546042009F0FAF8EFF3108672B6FFF796
:105A200009FC40F250442B68C2F200045B68214636
:105A3000284698472320FBF75BF92420FBF758F909
:105A4000FFF7FCFAFFF71AFB0023E36016F0010FE3
:105A500000D162B6002070BD38B5EFF3108572B684
:105A60000021022009F0D2F82320FBF741F924207D
:105A7000FBF73EF940F2504400212320FCF72EF8BA
:105A8000C2F2000424200021FCF728F8E3683BB1AF
:105A90004FF46160002109F0B9F8E068FFF7B6FF44
:105AA000FFF7CCFA15F0010F00D162B638BD00BF88
:105AB00008B50120002109F0A9F8FFF7DFFA45F247
:105AC0006931C0F600012320FCF708F840B140F628
:105AD0001960232109F09AF8BDE80840FFF7BCBF20
