:020000040800F2
:100000004C0E0020B503000839010008410100082A
:100010004901000851010008590100083101000898
:1000200031010008310100083101000861010008B8
:100030006901000831010008710100087901000818
:100040008101000889010008910100089901000858
:10005000A1010008A9010008B1010008B9010008C8
:10006000C1010008C9010008D1010008D901000838
:10007000E1010008E9010008F1010008F9010008A8
:100080000102000809020008110200081902000814
:100090002102000829020008310200083902000884
:1000A00041020008490200085102000859020008F4
:1000B0006102000869020008710200087902000864
:1000C00081020008890200089102000899020008D4
:1000D000A1020008A9020008B1020008B902000844
:1000E000C1020008C9020008D1020008D9020008B4
:1000F000E1020008E9020008F1020008F902000824
:10010000010300080903000811030008190300088F
:1001100021030008290300083103000839030008FF
:10012000410300084903000851030008590300086F
:100130004FF0000000F014B94FF0020000F010B9C9
:100140004FF0030000F00CB94FF0040000F008B9C4
:100150004FF0050000F004B94FF0060000F000B9C0
:100160004FF00B0000F0FCB84FF00C0000F0F8B8B6
:100170004FF00E0000F0F4B84FF00F0000F0F0B8B0
:100180004FF0100000F0ECB84FF0110000F0E8B8AC
:100190004FF0120000F0E4B84FF0130000F0E0B8A8
:1001A0004FF0140000F0DCB84FF0150000F0D8B8A4
:1001B0004FF0160000F0D4B84FF0170000F0D0B8A0
:1001C0004FF0180000F0CCB84FF0190000F0C8B89C
:1001D0004FF01A0000F0C4B84FF01B0000F0C0B898
:1001E0004FF01C0000F0BCB84FF01D0000F0B8B894
:1001F0004FF01E0000F0B4B84FF01F0000F0B0B890
:100200004FF0200000F0ACB84FF0210000F0A8B88B
:100210004FF0220000F0A4B84FF0230000F0A0B887
:100220004FF0240000F09CB84FF0250000F098B883
:100230004FF0260000F094B84FF0270000F090B87F
:100240004FF0280000F08CB84FF0290000F088B87B
:100250004FF02A0000F084B84FF02B0000F080B877
:100260004FF02C0000F07CB84FF02D0000F078B873
:100270004FF02E0000F074B84FF02F0000F070B86F
:100280004FF0300000F06CB84FF0310000F068B86B
:100290004FF0320000F064B84FF0330000F060B867
:1002A0004FF0340000F05CB84FF0350000F058B863
:1002B0004FF0360000F054B84FF0370000F050B85F
:1002C0004FF0380000F04CB84FF0390000F048B85B
:1002D0004FF03A0000F044B84FF03B0000F040B857
:1002E0004FF03C0000F03CB84FF03D0000F038B853
:1002F0004FF03E0000F034B84FF03F0000F030B84F
:100300004FF0400000F02CB84FF0410000F028B84A
:100310004FF0420000F024B84FF0430000F020B846
:100320004FF0440000F01CB84FF0450000F018B842
:100330004FF0460000F014B84FF0470000F010B83E
:100340004FF0480000F00CB84FF0490000F008B83A
:100350004FF04A0000F004B84FF04B0000F000B836
:100360006A4602F12002EFF310832DE9FC0F72B60A
:100370006946DFF838D04DF8041D01F00DF85DF83E
:10038000041F884209D000F1280191E8F00F0168AC
:1003900021E9F00F90E8FC0F01E0B1E8FC0F81F3D8
:1003A0000888DFF80CE083F31088704730040020E1
:1003B000F9FFFFFF80B582B000AF00F0FFF900F059
:1003C00083FB00F015FA412000F064FB40F230237B
:1003D000C2F200033B6004E03B681A1D3A60002251
:1003E0001A603A6840F65043C2F200039A42F3D3CF
:1003F000422000F04FFB42F2B453C0F602037B6090
:1004000040F20003C2F200033B6007E03B681A1DA4
:100410003A607A68111D796012681A603A6840F291
:100420002823C2F200039A42F0D3432000F032FBAB
:1004300000F0E2FE442000F02DFB02F0A9F9462076
:1004400000F028FB0D2000F025FB0A2000F022FB25
:1004500002F006FA80B483B000AF41F20C03C4F29C
:10046000020300221A6041F21003C4F202030022C8
:100470001A6041F21403C4F2020314221A6041F21A
:100480001803C4F2020300221A6041F21C03C4F2F2
:10049000020300221A604FF48053C4F202031B6867
:1004A0007B607B6843F001037B604FF48053C4F2B0
:1004B00002037A681A6041F20403C4F202031B6863
:1004C0007B607A680C23CFF2FF0313407B6041F21C
:1004D0000403C4F202037A681A604FF48053C4F232
:1004E00002031B687B607B6823F0847323F48033F2
:1004F0007B604FF48053C4F202037A681A604FF4B1
:100500008053C4F202031B687B607B6823F4802362
:100510007B604FF48053C4F202037A681A6041F2A0
:100520000403C4F202031B687B607B6823F4FE03B0
:100530007B6041F20403C4F202037A681A6041F25C
:100540000803C4F2020300221A600C37BD465DF8AE
:10055000047B704780B483B000AF14237B607B685A
:1005600043F001037B607B6843F040037B6041F212
:100570001403C4F202037A681A600C37BD465DF8B2
:10058000047B704780B483B000AF41F20403C4F22F
:1005900002031B687B607B6823F480037B6041F26D
:1005A0000403C4F202037A681A6041F21C03C4F225
:1005B00002031B687B607B6843F480437B607B683D
:1005C00043F480237B607B6843F400037B6041F24B
:1005D0001C03C4F202037A681A600C37BD465DF84A
:1005E000047B704780B483B000AF41F21803C4F2BB
:1005F00002031B687B607B6843F03D037B6041F234
:100600001803C4F202037A681A600C37BD465DF81D
:10061000047B704780B483B000AF4FF48053C4F2C2
:1006200002031B687B607B6823F480237B607B680C
:1006300043F480337B604FF48053C4F202037A6842
:100640001A6045F6CC53C0F208033B600CE04FF44F
:100650008053C4F202031B6803F40033002B00D064
:1006600005E03B68013B3B603B68002BEFDC3B68EF
:10067000002B00D193E04FF40053C4F202031B6837
:100680007B607B6823F007037B607B6843F0120389
:100690007B604FF40053C4F202037A681A6041F29F
:1006A0000403C4F202031B687B607B6823F0F00341
:1006B0007B6041F20403C4F202037A681A6041F2DB
:1006C0000403C4F202031B687B607B6823F460535D
:1006D0007B6041F20403C4F202037A681A6041F2BB
:1006E0000403C4F202031B687B607B6823F4E063AD
:1006F0007B607B6843F480637B6041F20403C4F257
:1007000002037A681A6041F20403C4F202031B6810
:100710007B607B6823F47C137B607B6843F4E81385
:100720007B6041F20403C4F202037A681A604FF45A
:100730008053C4F202031B687B607B6843F08073C4
:100740007B604FF48053C4F202037A681A6000BFE2
:100750004FF48053C4F202031B6803F00073002BB4
:10076000F6D041F20403C4F202031B687B607B688D
:1007700023F003037B607B6843F002037B6041F25C
:100780000403C4F202037A681A6000BF41F2040352
:10079000C4F202031B6803F00C03082BF6D10C37DC
:1007A000BD465DF8047B704780B500AFFFF7D2FE11
:1007B000FFF718FFFFF7E6FE80BD00BF80B500AF72
:1007C000FFF748FEFFF726FFFFF7EEFF80BD00BFF3
:1007D00080B483B000AF00237B600423C4F2010324
:1007E0007A681A600C37BD465DF8047B704700BF1D
:1007F00080B500AFFFF7ECFF80BD00BF80B491B0C3
:1008000000AF78607B6803F070031B09FB62FB6A32
:10081000032B02D96FF01503C4E040F24423C0F665
:100820000203FA6A53F82230BB627B6803F00F03BD
:100830007B627B6A072B04D8BB6AFB637B6A7B63A2
:1008400005E0BB6A0433FB637B6A083B7B637B6820
:1008500003F40043002B0CBF00230123DBB287F815
:100860002330EFF3108372B67B827B8A3B84FB6B71
:100870001B68FB6197F82330002B02D000233B63F9
:1008800004E07B6803F4C053DB0A3B637B6803F43A
:10089000C0435B0B9B003A6B13433B637B6B9B003A
:1008A0000F2202FA03F3DB43FA691340FB617B6B0F
:1008B0009B003A6B02FA03F3FA691343FB61FB6B8B
:1008C000FA691A6097F82330002B14D17B6803F47F
:1008D000C043BB61BB69002B0CD0BB69B3F5005FA3
:1008E00008D03B8C3B823B8A13F0010F00D162B6EB
:1008F000002357E035E07B6803F48063002B21D0B0
:100900007B6A03F00C020823C4F201031344BB63A7
:10091000BB6B1B68FB617B6A03F003039B007B617D
:100920000F227B6902FA03F3DB43FA691340FB6190
:10093000FA6A7B6902FA03F3FA691343FB61BB6B42
:10094000FA691A607B6803F4C043B3F5804F08D09E
:100950003B8CFB81FB8913F0010F00D162B60023B1
:1009600020E07B6803F08003002B03D0BB6A1033C8
:10097000BB6302E0BB6A1433BB63BB6B1B68FB61E8
:100980007B6A012202FA03F3FA691343FB61BB6B32
:10099000FA691A603B8CBB81BB8913F0010F00D14F
:1009A00062B6002318464437BD465DF8047B7047A5
:1009B00080B582B000AF78607B6803F07F037B6016
:1009C0007B6843F420437B607868FFF717FF03469A
:1009D00018460837BD4680BD80B487B000AF786048
:1009E0000B46FB707B6803F070031B093B613B699E
:1009F000032B1BD840F24423C0F602033A6953F894
:100A00002230FB607B6803F00F03BB60FB78002B98
:100A100002D010237B6101E014237B61FA687B69BB
:100A20001344BA68012101FA02F21A601C37BD466C
:100A30005DF8047B704700BF80B487B000AF78607A
:100A40007B6803F070031B097B617B69032B19D85A
:100A500040F24423C0F602037A6953F822303B6126
:100A60007B6803F00F03FB603B6908331A68FB687F
:100A7000012101FA03F31340002B0CBF00230123D3
:100A8000DBB200E0002318461C37BD465DF8047B4E
:100A9000704700BF80B483B000AF0346FB7100BF56
:100AA0004FF49043C4F200031B6803F08003002B53
:100AB000F6D044F60403C4F20003FA791A600C3746
:100AC000BD465DF8047B704780B582B000AF04235B
:100AD000C4F201031B687B607B6823F030037B60FA
:100AE0000423C4F201037A681A6045F61A00FFF77E
:100AF00085FE4AF21B00FFF781FE44F61003C4F2A4
:100B000000031B683B603B6823F47D533B6044F665
:100B10001003C4F200033A681A6044F60C03C4F2EE
:100B200000031B683B603B6823F4BB5323F01C03AA
:100B30003B6044F60C03C4F200033A681A6044F6C2
:100B40001403C4F200031B683B603B6823F4E063BA
:100B500023F001033B6044F61403C4F200033A6837
:100B60001A6044F60803C4F2000340F239121A6016
:100B700044F60C03C4F200031B683B603B6843F47B
:100B8000005343F00C033B6044F60C03C4F2000333
:100B90003A681A600837BD4680BD00BF80B483B094
:100BA00000AF786039607B681A6C3B6813441B683F
:100BB00018460C37BD465DF8047B704780B485B09D
:100BC00000AFF860B9607A60FB681A6CBB681344C8
:100BD0007A681A601437BD465DF8047B704700BF21
:100BE00080B584B000AF78600B467B807B687A88E4
:100BF0009A8578680C21FFF7D1FFF860FB6823F431
:100C0000D073FB607B8803F4D073FA681343FB60F6
:100C100078680C21FA68FFF7D1FF78681421FFF794
:100C2000BDFFF860FB6823F00103FB607B8803F0E5
:100C30000103FA681343FB6078681421FA68FFF730
:100C4000BDFF1037BD4680BD80B584B000AF786071
:100C500039603B68002B17D078680C21FFF79EFFA6
:100C6000F86078681421FFF799FFB860FB689BB2C1
:100C700003F4D0739AB2BB689BB203F001039BB23A
:100C800013439AB23B681A8078680021FFF7A8FFE7
:100C90001037BD4680BD00BF80B588B000AF78601A
:100CA0007B689B6ABB61BB69DA6BBB695B6B5B088A
:100CB000B2FBF3F37B617B695B093B613B691B0121
:100CC000FB603B695B017A69D31A01335B08BB6047
:100CD000FA68BB681343FB60B8690821FA68FFF73C
:100CE0006DFFB8690C21FFF759FFF861FB6923F428
:100CF000B053FB61BB6993F83030012B04D1FB6921
:100D000043F4C063FB6108E0BB6993F83030022B09
:100D100003D1FB6943F48063FB61BB6993F8313015
:100D2000092B09D0BB6993F83130082B08D1BB6976
:100D300093F83030002B03D0FB6943F48053FB6100
:100D4000B8690C21FA69FFF739FFB8691021FFF77C
:100D500025FFF861FB6923F44053FB61BB6993F8FD
:100D60003230002B03D0FB6943F40053FB61B869B8
:100D70001021FA69FFF722FFB8691421FFF70EFF6F
:100D8000F861FB6923F44073FB61B8691421FA69C7
:100D9000FFF714FF2037BD4680BD00BF80B586B089
:100DA00000AF78600B46FB707B689B6A7B617B6958
:100DB0001A6C4FF49043C4F200039A4200D016E03C
:100DC0004FF480233B6141F21C03C4F20203FB6039
:100DD00000BFFB78002B05D0F86800213A6900F0CD
:100DE000B3FA04E0F8683969002200F0ADFA183768
:100DF000BD4680BD80B584B000AF78607B689B6ADB
:100E0000BB6078680121FFF7C9FFBB685B6C1846BF
:100E1000FFF7F4FCBB689B6C1846FFF7EFFCB86863
:100E20001021FFF7BBFEF860FB6823F47D53FB60E5
:100E3000BB6893F83230002B03D0FB6843F40053B7
:100E4000FB60B8681021FA68FFF7B8FEB8680C219B
:100E5000FFF7A4FEF860FB6823F4BE73FB60B8687C
:100E60000C21FA68FFF7AAFEB8681421FFF796FE76
:100E7000F860FB6823F4E06323F00103FB60B868CB
:100E80001421FA68FFF79AFE7868FFF705FFB86843
:100E90000C21FFF783FEF860FB6843F4005343F036
:100EA0000C03FB60B8680C21FA68FFF787FEBB688B
:100EB00000229A85002318461037BD4680BD00BF2A
:100EC00080B584B000AF78607B689B6AFB60F8688F
:100ED0000021FFF7B9FE78680021FFF75FFFF8688F
:100EE0000C21FFF75BFEB860BB6823F4005323F0CE
:100EF0000C03BB60F8680C21BA68FFF75FFEFB6863
:100F00005B6C1846FFF754FDFB689B6C1846FFF7B7
:100F10004FFD1037BD4680BD80B584B000AF78600E
:100F20007B689B6AFB60FB6893F838301A46FB6865
:100F3000DB6C1046194601F04FFEB860BB68002B11
:100F400005D1FB6893F83830184600F039FCBB68CF
:100F500018461037BD4680BD80B584B000AF7860BC
:100F60007B689B6AFB60FB6893F83830184600F09A
:100F700001FCFB6893F838301846002101F02CFE84
:100F80001037BD4680BD00BF80B584B000AF78602B
:100F90000123FB720023FB603BE00023FB727868B7
:100FA0000021FFF7FBFD03469AB27B68DA857B6878
:100FB000DB8D03F02003002B0CD07B689B8D03F0AE
:100FC0002003002B06D07B68184601F083FB012329
:100FD000FB7209E07B68DB8D03F00E03002B03D06E
:100FE00078680421FFF7DAFD7B68DB8D03F080036E
:100FF000002B0BD07B689B8D03F08003002B05D06A
:101000007B68184601F010FB0123FB72FB6801337B
:10101000FB60FB68FF2B02DCFB7A002BBDD10023B9
:1010200018461037BD4680BD80B487B000AFF86069
:10103000B9607A6000237B616FF018037B6100BFA9
:101040007B6918461C37BD465DF8047B704700BFBE
:1010500080B584B000AF786039607B689B6AFB60C4
:10106000F8680421FFF79AFDB860FB68DB8D1B046C
:101070001A46BB681A433B681A60FB680022DA858F
:10108000BB68DBB218461037BD4680BD80B586B060
:1010900000AF78600B46FB707B689B6A3B61EFF3A7
:1010A000108372B6BB81BB89FB813B699B8DFB8240
:1010B000FB78002B04D0FB8A43F02003FB8205E081
:1010C000FB8A23F4907323F00103FB82FB8A3869C7
:1010D0001946FFF785FDFB897B817B8913F0010FA2
:1010E00000D162B61837BD4680BD00BF80B584B060
:1010F00000AF78607B689B6AFB60F8680021FFF7AF
:101100004DFD034603F02003002B0CBF00230123F9
:10111000DBB218461037BD4680BD00BF80B584B035
:1011200000AF786039607B689B6AFB603B68F86859
:1011300004211A46FFF742FD1037BD4680BD00BFAF
:1011400080B586B000AF78600B46FB707B689B6A09
:101150007B61EFF3108372B6FB81FB897B82FB78A6
:10116000002B0DD07B699B8D43F080033B823B8A33
:1011700078691946FFF734FD786801F055FA08E000
:101180007B699B8D23F080039BB278691946FFF73A
:1011900027FD7B8ABB81BB8913F0010F00D162B6AA
:1011A0001837BD4680BD00BF80B584B000AF786001
:1011B0007B689B6AFB60F8680021FFF7EFFC034641
:1011C00003F08003002B0CBF00230123DBB2184681
:1011D0001037BD4680BD00BF80B582B000AF7860DB
:1011E000396040F20000C2F20000FFF7CDFE034676
:1011F00018460837BD4680BD80B582B000AF0023D9
:101200007B6016E040F28423C0F602037A6853F84C
:101210002230002B0AD040F28423C0F602037A6801
:1012200053F8223018460021FFF70EFD7B6801338A
:101230007B607B68042BE5D940F20003C2F2000317
:101240001846FFF7D7FD0837BD4680BD80B586B08C
:1012500000AF00233B6140F20003C2F2000340F202
:101260009820C0F60200194601F072F940F200031E
:10127000C2F2000340F2A820C0F60200194601F0B5
:1012800067F901233B613B46184640F2B421C0F6A2
:10129000020103F0E1FE00237B612AE040F2842397
:1012A000C0F602037A6953F82230002B00D11DE00A
:1012B00040F28423C0F602037A6953F82230DB78C7
:1012C000002B00D012E03B695A1C3A61DBB230338C
:1012D000DBB27B7240F28423C0F602037A6953F8D2
:1012E00022303A461046194601F032F97B69013343
:1012F0007B617B69042BD1D91837BD4680BD00BF07
:1013000080B584B000AF786040F20003C2F2000301
:10131000FB6007F10A03F8681946FFF795FC7B6844
:101320000A2B02D10D20FFF7B5FB7B68DBB2184614
:10133000FFF7B0FB7B89F8681946FFF751FC7B6823
:1013400018461037BD4680BD80B489B000AFF86044
:10135000B9607A60EFF3108372B6FB82FB8AFB837D
:10136000FB681B68BB61BB68DB43BA691340BB61A8
:10137000BA697B681343BB61FB68BA691A60FB8B6F
:10138000BB82BB8A13F0010F00D162B62437BD4681
:101390005DF8047B704700BF80B584B000AF786013
:1013A000396040F64813C2F200031B68FB6040F648
:1013B0004813C2F200033A681A60786800F026FA0F
:1013C0007868396801F03AFC40F64813C2F200032D
:1013D0001B683B6040F64813C2F20003FA681A60CB
:1013E0003B6818461037BD4680BD00BF80B584B04D
:1013F00000AF78603960EFF3108372B6FB81032091
:1014000040F2C021C0F6020140F2B032C0F6020242
:1014100003F07EFD40F2DC20C0F60200992100F0CE
:10142000E9FB00BF80B584B000AF78603960EFF3AE
:10143000108372B6FB814EF62853CEF200031B6870
:10144000032040F2F021C0F6020140F2BC32C0F6A7
:10145000020203F05DFD40F2DC20C0F60200A12193
:1014600000F0C8FB80B584B000AF78603960EFF35E
:10147000108372B6FB814EF62853CEF200031B6830
:10148000032040F21831C0F6020140F2CC32C0F61F
:10149000020203F03DFD40F2DC20C0F60200A9216B
:1014A00000F0A8FB80B584B000AF78603960EFF33E
:1014B000108372B6FB81032040F24431C0F6020172
:1014C00040F2E032C0F6020203F022FD40F2DC20DE
:1014D000C0F60200B12100F08DFB00BF80B584B0E2
:1014E00000AF78603960EFF3108372B6FB810320A0
:1014F00040F26431C0F6020140F2F032C0F602025E
:1015000003F006FD40F2DC20C0F60200B92100F035
:1015100071FB00BF80B584B000AF78603960EFF335
:10152000108372B6FB81032040F28C31C0F60201B9
:1015300040F20442C0F6020203F0EAFC40F2DC2072
:10154000C0F60200C12100F055FB00BF80B584B099
:1015500000AFF860B9607A603B60FB68012B02DD88
:10156000FB684B2B06DD40F2DC20C0F60200E921CF
:1015700000F040FBFB680F2B3DDDFB682F2B0FDCE1
:101580003B6803F1604303F56143BA681360FB688D
:10159000103B012202FA03F31A467B681A6058E0F6
:1015A000FB684F2B10DC3A684EF20413CEF20003B6
:1015B0001344BA681360FB68303B012202FA03F35C
:1015C0001A467B681A6044E0FB684B2B10DC3A68D3
:1015D0004EF20813CEF200031344BA681360FB689E
:1015E000503B012202FA03F31A467B681A6030E08E
:1015F0004FF0FF332EE0BA684EF62453CEF20003CC
:101600001360FB68042B04D17B684FF480321A60AE
:101610001FE0FB68052B04D17B684FF400321A6091
:1016200017E0FB68062B04D17B684FF480221A6018
:101630000FE0FB680F2B09D1BA684EF21003CEF20F
:10164000000313607B6801221A6002E04FF0FF3351
:1016500000E0002318461037BD4680BD80B584B039
:1016600000AF4FF46143CEF2000300221A604EF245
:101670000413CEF2000300221A604EF61853CEF285
:1016800000034FF080321A604EF61C53CEF2000376
:101690004FF080321A604EF62053CEF200034FF026
:1016A00080321A604EF20403CEF200031B6801334D
:1016B000DB00BB604FF46443CEF20003FB6006E046
:1016C000FB684FF080321A60FB680433FB60BB6834
:1016D0005A1EBA60002BF3D140F64813C2F2000341
:1016E00000221A600B2041F62951C0F6000101F0DA
:1016F00073FA032041F69D41C0F6000101F06CFA37
:10170000022041F2ED31C0F6000101F065FA04203B
:1017100041F63941C0F6000101F05EFA052041F2C0
:101720002541C0F6000101F057FA062041F265415B
:10173000C0F6000101F050FA0E2041F2A541C0F6BA
:10174000000101F049FA0C2041F2DD41C0F6000130
:1017500001F042FA002041F21551C0F6000101F0FB
:101760003BFA00237B607B6883F3118862B61037F5
:10177000BD4680BD80B586B000AF786007F110022D
:1017800007F10C03786811461A468023FFF7DEFE46
:101790000346002B11D17B680F2B03DD3B69FA68F0
:1017A0001A600AE03B691B687B61FB68DB437A696E
:1017B00013407B613B697A691A601837BD4680BD6A
:1017C00080B586B000AF786007F1100207F10C0316
:1017D000786811461A460023FFF7B8FE0346002B2F
:1017E00010D17B680F2B03DD3B69FA681A6009E0B2
:1017F0003B691B687B61FB687A6913437B613B69CA
:101800007A691A601837BD4680BD00BF80B483B0C6
:1018100000AF78600C37BD465DF8047B704700BFB1
:1018200080B483B000AF6B467B607B6818460C3792
:10183000BD465DF8047B7047F0B58DB008AF7860A9
:1018400039607B6823F01F03FB6031E0FB68BB60FD
:10185000BB68D3F800E0BB6804331E68BB6808337C
:101860001D68BB680C331C68BB6810331868BB6804
:1018700014331968BB6818331A68BB681C331B68BB
:10188000CDF800E00196029503940490059106922C
:101890000793032040F21441C0F6020140F2705257
:1018A000C0F60202FB6803F07FFBFB682033FB609D
:1018B000FA683B689A42C9D31437BD46F0BD00BFF1
:1018C000F0B58BB008AF40F64813C2F200031B68B6
:1018D000002B00F0B98040F64813C2F200031B68E9
:1018E00028331C6840F64813C2F200031B682C33EF
:1018F000D3F800E040F64813C2F200031B6830330F
:101900001E6840F64813C2F200031B6834331D689A
:1019100040F64813C2F200031B680833186840F60B
:101920004813C2F200031B680C33196840F64813D1
:10193000C2F200031B6810331A6840F64813C2F263
:1019400000031B6814331B68CDF800E00196029574
:101950000390049105920693032040F24841C0F69B
:10196000020140F29052C0F60202234603F01CFB33
:1019700040F64813C2F200031B6818331C6840F697
:101980004813C2F200031B681C33D3F800E040F692
:101990004813C2F200031B6820331E6840F6481348
:1019A000C2F200031B6824331D6840F64813C2F2DC
:1019B00000031B683833186840F64813C2F200036E
:1019C0001B68196840F64813C2F200031B683C33D9
:1019D0001A6840F64813C2F200031B6840331B68C4
:1019E000CDF800E0019602950390049105920693CC
:1019F000032040F27C41C0F6020140F29052C0F652
:101A00000202234603F0D0FA40F64813C2F2000364
:101A10001B6844331C6840F64813C2F200031B687D
:101A200004331A68EFF314837B607B6800920193A0
:101A3000032040F2B041C0F6020140F29052C0F6DD
:101A40000202234603F0B0FA0C37BD46F0BD00BFDA
:101A500080B586B000AF40F65C13C2F200031B688D
:101A6000BB60FFF7DDFE7861BB689B89002B0AD164
:101A700040F24023C0F602031B68043B3B614FF475
:101A80000073FB6005E0BB681B6B3B61BB689B6A36
:101A9000FB6040F23043C2F200037B604FF40073FE
:101AA0003B60032040F2DC41C0F6020140F280526C
:101AB000C0F602027B6903F077FA032040F2F0419E
:101AC000C0F6020140F28052C0F6020203F06CFA46
:101AD000032040F20051C0F6020140F28052C0F6ED
:101AE00002027B6803F060FA032040F21451C0F652
:101AF000020140F28052C0F602023B6803F054FA41
:101B00007A697B689A4209D87A683B68D21A7B69FD
:101B10009A4203D278697968FFF78EFE40F648133F
:101B2000C2F200031B68002B12D040F64813C2F229
:101B300000031B681B687B61032040F2DC41C0F698
:101B4000020140F28052C0F602027B6903F02CFAD7
:101B5000032040F22851C0F6020140F28052C0F644
:101B6000020203F021FA032040F20051C0F6020104
:101B700040F28052C0F602023B6903F015FA0320DE
:101B800040F21451C0F6020140F28052C0F6020247
:101B9000FB6803F009FA7A693B699A4209D83A6905
:101BA000FB68D21A7B699A4203D278693969FFF7D8
:101BB00043FEFFF785FE1837BD4680BD80B584B073
:101BC00000AF786040F64813C2F200031B68002B98
:101BD00007D140F65C13C2F200031B689B89002BFF
:101BE00004D1EFF3108372B6FB81FEE7786801F051
:101BF000F5FB00BF80B586B002AF7860396040F673
:101C00005C13C2F200031B68FB60FB68C0333A68D8
:101C100000920193032040F23C51C0F6020140F2D1
:101C2000A052C0F602027B6803F0BEF9FFF710FF76
:101C30000120FFF7C3FF00BF90B587B002AF786007
:101C40003960EFF3108372B6FB81032040F2AC5190
:101C5000C0F6020140F21062C0F6020203F0A4F9DD
:101C60004EF62853CEF200031C684EF63453CEF2E3
:101C700000031B680093032040F2D451C0F6020118
:101C800040F21062C0F60202234603F08DF940F2E2
:101C9000F850C0F602008021FFF7ACFF80B586B097
:101CA00000AF786039603B687B617B6940331B68BB
:101CB000023B3B613A6940F20003C0F600039A42DE
:101CC00013D33A6942F2AC53C0F602039A420CD2E3
:101CD0003B691B88FB81FB89B3F55F4F05D17868B1
:101CE000396800F021F803461AE0EFF3108372B66A
:101CF000BB814EF62C53CEF200031B68032040F24A
:101D00001C61C0F6020140F25462C0F6020203F008
:101D10004BF940F23C60C0F60200B721FFF76AFFC2
:101D200018461837BD4680BD80B584B000AF7860D6
:101D300039603B68FB60FB68002B07D040F6481316
:101D4000C2F200031B68FA689A4206D040F264604F
:101D5000C0F60200A021FFF74DFFFB689B6ABB6045
:101D6000BB68012B19D0012B02D3022B2BD04EE0E4
:101D7000FB682C331B68002B06D140F26460C0F670
:101D80000200CF21FFF736FFFB682C331B68184693
:101D9000F968482203F0BEF939E0FB682C331B6870
:101DA000002B06D140F26460C0F60200E921FFF783
:101DB00021FFFB682C331B681A4640F64813C2F219
:101DC00000031A6023E0FB682C331B68002B04D04F
:101DD000FB6830331B68002B07D140F26460C0F60B
:101DE00002004FF48071FFF705FFFB682C331B687E
:101DF0001846F968482203F08DF9FB6830331B68F8
:101E00001A4640F64813C2F200031A6000BF0023CE
:101E100018461037BD4680BD80B584B000AFF8606D
:101E2000B9607A60F86801F00FFBF868B9687A6801
:101E300003F090F9034618461037BD4680BD00BF39
:101E400080B582B000AF78600B46FB7012E001F005
:101E5000DBFA03461B68042B06D040F29060C0F604
:101E600002008821FFF7C6FEFB78002B02D06FF03E
:101E7000030306E0786801F003FB0346002BE6D17C
:101E8000002318460837BD4680BD00BF80B588B026
:101E900000AFF860B9601346FB71FB68DB899BB249
:101EA0001BB20133FB61FB685B8A1AB2FB699A4281
:101EB00001DC0023FB61FB681B8A9BB21AB2FB6941
:101EC0009A420FD0FB685A69FB68DB899BB21BB250
:101ED0001344BA68D2B21A70FB699AB2FB68DA810D
:101EE00000232FE0FB79002B28D0EFF3108372B68C
:101EF0007B827B8A7B83FB6801225A70FB685B6A6A
:101F00005B6AF86801219847FB680633184601218F
:101F1000FFF796FF7861FB685B6A5B6AF8680021EF
:101F200098477B8B3B823B8A13F0010F00D162B64E
:101F30007B69002B05DA6FF0030303E06FF00A03FF
:101F400000E0B8E718462037BD4680BD80B586B0B2
:101F500000AFF860B9607A607B687B6110E0BB68B5
:101F60005A1CBA601B783B613B690A2B02D10D20D9
:101F7000FFF7C6F93869FFF7C3F97B68013B7B605F
:101F80007B68002BEBD17B6918461837BD4680BDB6
:101F900080B58AB000AFF860B9607A60FB689B6872
:101FA000FB61FB691B69BB617B687B6204F00AFC17
:101FB0000346002B04D101F0F9F90346002B1BD195
:101FC000BB69DB78002B14D0EFF3108372B67B82F1
:101FD0007B8ABB82B869B9687A68FFF7B7FF386255
:101FE000BB8A3B823B8A13F0010F00D162B63B6A89
:101FF0006AE04FF0FF3367E0BB690C3318460121FC
:10200000FFF71EFF38623B6A002B01DA3B6A5BE098
:10201000FB681B6803F04003002B14BF002301235F
:10202000DBB2FB75BB695B6A5B6AB86900219847E4
:1020300031E0BB685A1CBA601B78BB7500233B6259
:10204000BB69DB78002B09D0BB7D0A2B06D1FB7D59
:10205000B8690D211A46FFF719FF38623B6A002B59
:1020600007D1BA7DFB7DB86911461A46FFF70EFF0E
:1020700038623B6A002B0BDA7A6A7B689A4204D991
:102080007A6A7B68D31A7B6208E03B6A7B6205E070
:102090007B68013B7B607B68002BCAD1BB69DB8915
:1020A0009AB2BB691B8A9BB212B21BB29A4205D08C
:1020B000BB695B6A5B6AB86901219847BB690C33ED
:1020C000184601F04FFA7B6A18462837BD4680BD96
:1020D00080B58CB000AFF860B9607A60FB689B682F
:1020E0007B627B6A1B693B623B6A1833FB6100239E
:1020F000FB62FB6918460121FFF7A2FEB861BB69CC
:10210000002B01DABB6980E075E0FB699B887B8569
:10211000FB695B889BB2B7F92A201BB29A421ED09A
:10212000FB699A68B7F92A3013441B78FB757B8DDD
:1021300001337B85FB69DB88B7F92A201BB29A4201
:1021400001DB00237B85FB697A8D9A80BB685A1C72
:10215000BA60FA7D1A70FB6A0133FB624BE0FB6ADE
:10216000002B00DD4BE0FB681B6803F04003002BF5
:1021700003D06FF00A03FB6241E03B6A5B6A9B6934
:10218000386A00219847FB695B889AB2FB699B8893
:102190009BB212B21BB29A4227D1EFF3108372B6F0
:1021A0007B827B8ABB823B6A5B6A9B69386A0121BE
:1021B00098473B6A01229A703B6A0833184601210E
:1021C000FFF73EFEB861BB8A3B823B8A13F0010FEA
:1021D00000D162B6BB69002B0DDAFB6A002B03D17C
:1021E0006FF00303FB620AE009E03B6A5B6A9B69EC
:1021F000386A01219847FA6A7B689A4285D33B6A1C
:102200001833184601F0AEF9FB6A18463037BD4660
:1022100080BD00BF80B58CB000AFF860B9607A6057
:10222000FB689B683B623B6A1B69FB61FB695B6AFD
:102230001B69F868B9687A689847F862FB6A13F115
:10224000190F77D1BB6840F20532934204D040F2B7
:102250000632934236D06DE0EFF3108372B6FB8204
:10226000FB8A7B83FB699B8B9AB2FB695B8B9BB27E
:1022700012B21BB29A420ADCFB695B8B9BB21AB2A8
:10228000FB699B8B9BB21BB2D31ABB620DE0FB694F
:10229000DB8B1AB2FB695B8B9BB219B2FB699B8B20
:1022A0009BB21BB2CB1A1344BB627B8BBB82BB8A33
:1022B00013F0010F00D162B67B68BA6A1A6000237E
:1022C000FB6237E0EFF3108372B67B827B8A3B833D
:1022D000FB69DB899AB2FB691B8A9BB212B21BB203
:1022E0009A420BDAFB691B8A9BB21AB2FB69DB8943
:1022F0009BB21BB2D31A013B7B620EE0FB695B8A87
:102300001AB2FB691B8A9BB219B2FB69DB899BB2CB
:102310001BB2CB1A1344013B7B623B8B3B823B8A53
:1023200013F0010F00D162B67B687A6A1A6000234D
:10233000FB6200BFFB6A18463037BD4680BD00BF58
:1023400080B586B000AF78607B689B687B617B69F5
:102350001B693B613B69043318460021FFF770FDA0
:102360003B691B78012B0CD93B691B78013BDAB226
:102370003B691A703B690433184601F0F3F80023F7
:1023800065E03B6900221A703B695B6A9B693869AA
:102390000021984705E04AF22010C0F2070002F041
:1023A00051FD3B69DB899AB23B691B8A9BB212B231
:1023B0001BB29A42EFD105E04AF22010C0F20700AA
:1023C00002F040FD3B695B6ADB6A38699847034667
:1023D000002BF1D0EFF3108372B6BB81BB89FB8178
:1023E0003B695B6ADB68386998473B69DB78002B9F
:1023F00004D13B695B6A5B6838699847FB897B81DC
:102400007B8913F0010F00D162B63B690633184691
:1024100000210022FFF700FD3B6908331846002128
:102420000022FFF7F9FC3B690C331846002101221A
:10243000FFF7F2FC3B691833184600210122FFF731
:10244000EBFC3B690433184601F08CF80023184676
:102450001837BD4680BD00BF80B588B000AF78603A
:102460007B689B68BB61BB691B697B617B690433CB
:1024700018460121FFF7E4FCF861FB69002B01DA43
:10248000FB6960E07B691B780133FB74FB7C002BEC
:1024900003D16FF01703FB614FE0FB7C012B49D1A7
:1024A000EFF3108372B6FB81FB893B827B69DB789B
:1024B000002B10D17B695B6A1B6878699847F861CB
:1024C000FB69002B07DA3B8ABB81BB8913F0010F44
:1024D00000D162B631E07B695B6A9B687869984796
:1024E000F861FB69002B0CDA7B695B6A5B687869D1
:1024F00098473B8A7B817B8913F0010F00D162B63C
:102500001BE07B690022DA817B6900221A827B69E9
:1025100000225A837B6900229A837B695B6A9B69EC
:102520007869012198473B8A3B813B8913F0010F71
:1025300000D162B67B69FA7C1A707B690433184655
:1025400001F010F8FB6918462037BD4680BD00BF7A
:1025500080B582B000AF786039603B680C331846B4
:102560000021012202F0F6FD3B68183318460021D5
:10257000012202F0EFFD3B680433184600210122DE
:1025800002F0E8FD3B68063318460021002202F005
:10259000E1FD3B68083318460021002202F0DAFD15
:1025A000032040F2A061C0F6020140F2B462C0F61E
:1025B00002027B6802F0ACFC786840F27861C0F6F9
:1025C00002014FF4DB723B680CF0CCFB034618466B
:1025D0000837BD4680BD00BF80B582B000AF7860CF
:1025E0007B689B78DBB2002B07D07B6800229A7057
:1025F0007B680833184600F0B5FF0837BD4680BD3C
:1026000080B582B000AF78607B685B78DBB2002B6E
:1026100007D07B6800225A707B680633184600F0AA
:10262000A1FF0837BD4680BD80B584B000AF78609B
:102630000023FB8122E07B685B6A1B6A7A68516930
:102640007A68128A92B212B20A44127878681146F5
:102650009847FB890133FB817B681B8A9BB201335E
:102660009BB29BB27A68194611827A68518A1AB273
:102670000BB29A4202DB7B6800221A827B68DB89FC
:102680009AB27B681B8A9BB212B21BB29A4207D0E5
:102690007B685B6A9B6A786898470346002BCAD1BF
:1026A0007B68DB899AB27B681B8A9BB212B21BB231
:1026B0009A4205D17B685B6A5B6A7868002198471B
:1026C000FB89002B02D07868FFF79AFF1037BD46D0
:1026D00080BD00BF80B588B000AF78607B681833DC
:1026E0007B617B695B889BB21BB20133FB6100237A
:1026F0007B837B69DB881AB2FB699A4202DC002388
:10270000FB6133E032E07B699B889BB21AB2FB69C4
:102710009A4214BF00230123DBB2FB747B685B6A1F
:102720005B6907F10C027868114698470346BB7451
:10273000FB7C002B1AD17B699A687B695B889BB212
:102740001BB21344BA7C1A707B8B01337B83FB6909
:102750009AB27B695A80FB690133FB617B69DB8834
:102760001BB2FA699A4201DB0023FB617B685B6A5A
:10277000DB69786898470346002BC4D17B8B002B1C
:1027800002D07868FFF728FF2037BD4680BD00BF24
:1027900080B500AF00F00AF800F03CF880BD00BF43
:1027A00080B400AFBD465DF8047B704780B500AFD4
:1027B00041F69C00FEF722F841F6A800FEF71EF84D
:1027C00041F6A900FEF71AF880BD00BF80B584B0BD
:1027D00000AFF860B9601346FB71BB68022B0AD1E9
:1027E000FB79002B14BF00230123DBB241F69C00D0
:1027F0001946FEF7F1F81037BD4680BD80B483B0AE
:1028000000AF78603960002318460C37BD465DF88C
:10281000047B704780B500AF41F68A00FDF7EEFFFC
:1028200080BD00BF80B582B000AF78600B46FB7002
:10283000FB7841F68A001946FEF7CEF800231846C9
:102840000837BD4680BD00BF80B483B000AF78605C
:102850000B46FB700C37BD465DF8047B704700BF2C
:1028600080B584B000AF40F65C13C2F200030022D2
:102870001A6040F65C13C2F2000300225A6040F670
:10288000DC13C2F2000300221A6040F6DC13C2F22D
:10289000000300225A6040F65413C2F200030022E3
:1028A0001A6040F65413C2F2000300225A6040F648
:1028B0007413C2F2000300221A6040F67413C2F2CD
:1028C000000300225A6040F66413C2F200030022A3
:1028D0001A6040F66413C2F2000300225A6040F608
:1028E0004C13C2F2000300221A6040F64C13C2F2ED
:1028F000000300225A6040F66C13C2F2000300226B
:102900001A6040F66C13C2F2000300225A6040F6CF
:10291000E813C2F2000300221A6040F6E813C2F284
:10292000000300225A6040F6E413C2F200030022C2
:102930001A800023FB6014E040F67C13C2F200030F
:10294000FA68002143F8321040F67C12C2F200020D
:10295000FB68DB0013444FF6FF729A80FB6801337B
:10296000FB60FB680B2BE7DD40F67C13C2F2000333
:1029700040F23062C2F200021A6040F67C13C2F2EA
:10298000000300229A8040F23060C2F20000002171
:10299000D02202F045FB40F23063C2F20003032272
:1029A0005A7640F23063C2F2000342F66102C0F68A
:1029B00000025A6140F23063C2F2000302225A83DD
:1029C0006B4840F20C71C0F60201072202F076FB60
:1029D00040F23063C2F20003002283F8C72040F2C5
:1029E0000073C2F20003624A1A6040F20073C2F23E
:1029F000000300225A6040F23063C2F2000340F24A
:102A00000072C2F20002C3F8CC2040F23060C2F281
:102A1000000040F65C11C2F2000102F0B9FC40F285
:102A20003060C2F2000003F0AFFE07F108023B1D68
:102A30001046194603F088FDBA687B6810461946AF
:102A400003F02CFA43F64963C0F60003002B01D0D3
:102A500001F0FAF944F63953C0F60003002B01D017
:102A600002F06AF94BF2A923C0F60103002B01D052
:102A700018F01AFC40F20003C0F20003002B01D052
:102A8000AFF3008044F29143C0F60003002B01D065
:102A900001F0FEFC4BF6B553C0F60103002B01D04C
:102AA00019F088F94AF6CD63C0F60103002B01D076
:102AB00018F00CFA0BF0AEF803F04AFE40F2306367
:102AC000C2F200035B8BDBB240F23060C2F2000066
:102AD000194600F0F5F80346002B07DA40F21870AB
:102AE000C0F602004FF40071FFF784F840F2306046
:102AF000C2F2000000F03EF90346002B07DA40F274
:102B00001870C0F602004FF40271FFF773F840F23C
:102B10003060C2F2000000F00FF90346002B07DA24
:102B200040F21870C0F602004FF40471FFF762F82B
:102B300040F23063C2F200039B6801221A7000F079
:102B400043F80346002B07DA40F21870C0F6020083
:102B500040F21721FFF74EF803F0B0F90346002BBF
:102B600003D100F069F903F0B5F903F00BFDF3E7C9
:102B7000F006002080B584B002AFFFF711FE0023FD
:102B8000009340F22870C0F6020064214FF4006206
:102B900048F6ED63C0F6000300F0DAF978607B6870
:102BA000002B07DC40F23070C0F6020040F21D112D
:102BB000FFF720F80837BD4680BD00BF80B500AFE5
:102BC000FFF7D8FF80BD00BF80B500AFFFF7F6FF6D
:102BD0000023184680BD00BF80B586B000AF786086
:102BE00039604FF0FF337B617B684B2B21D8EFF3CB
:102BF000108372B63B823B8A7B823B68002B07D1F5
:102C00007868FEF7B7FD42F68943C0F600033B60E3
:102C100040F6F013C2F200037A68396843F82210D4
:102C20007B8AFB81FB8913F0010F00D162B6002380
:102C30007B617B6918461837BD4680BD80B584B07E
:102C400000AF786039607B684B2B08D840F6F013F2
:102C5000C2F200037A6853F82230002B05D142F605
:102C60008943C0F60003FB6007E040F6F013C2F2B0
:102C700000037A6853F82230FB60FB687868396893
:102C800098471037BD4680BD80B584B000AF7860EE
:102C90003960EFF3108372B6FB81032040F2447178
:102CA000C0F6020140F26C72C0F602027B6802F0CC
:102CB0007BF940F25470C0F602005521FEF79AFFEE
:102CC00080B584B000AF78600B46FB707B68002B4A
:102CD00003D07B689B68002B06D040F28070C0F662
:102CE0000200B821FEF786FFBC2003F01BF9F86054
:102CF000FB68002B02D16FF00B0319E07B68FA68C8
:102D00009A60F86801F052F8B860BB68002B07DAE7
:102D1000F86803F0E9F87B6800229A60BB6807E076
:102D2000FB68023318460021012202F013FA002347
:102D300018461037BD4680BD80B584B000AF7860BE
:102D40007B68002B03D07B689B68002B07D140F287
:102D50008070C0F602004FF48E71FEF74BFF7B6867
:102D60009B68FB60FB6801225A70002318461037ED
:102D7000BD4680BD80B584B000AF78607B689B683D
:102D8000FB60FB68002B06D140F29870C0F6020091
:102D90005A21FEF72FFFFB68203318460AF08EFFFA
:102DA00040F2B870C0F6020003210BF0CFFBB86010
:102DB000BB68002B0CD1002001210BF001FB00208F
:102DC00002210BF0FDFA786801F05AF8034607E09B
:102DD000BB68002B02DDB8680BF0D0FA6FF0160369
:102DE00018461037BD4680BD80B584B000AF19E0ED
:102DF000EFF3108372B6FB80FB88FB8140F6E8108E
:102E0000C2F2000002F07AFAB860FB89BB80BB888E
:102E100013F0010F00D162B6BB68002B02D0B86876
:102E200003F062F840F6E813C2F200031B68002BBF
:102E3000DED11037BD4680BD80B500AFFFF7D4FFAF
:102E400080BD00BF80B58AB002AFF8607A603B6099
:102E50000B46FB72D02003F065F8B861BB69002B0C
:102E600002D10C23FB6168E0FB7AB8691946FFF7D1
:102E700027FF78617B69002B03DA7B695B42FB618A
:102E800056E0B86901F06CF878617B69002B03DAD1
:102E90007B695B42FB614BE03A68FB7AB86911469B
:102EA0001A4603F0FDFB78617B69002B03DA7B692E
:102EB0005B42FB613CE0FB7A0093B869796843F2BE
:102EC0003D32C0F60002BB6A00F0D8F978617B6938
:102ED000002B03DA7B695B42FB6129E0B869F96882
:102EE000FA6A00F0FDF9B869FFF726FF78617B699F
:102EF000002B03DA7B695B42FB6119E0BB699B89AC
:102F00007B82B86900F000FA78617B69002B0CDAEB
:102F100000F07AFA03461B68FB61B86940F66C1151
:102F2000C2F2000102F058FA02E0B7F912300BE0E9
:102F3000FB7AB869194601F0B9F800F065FA034662
:102F4000FA691A604FF0FF3318462037BD4680BD3E
:102F500080B586B002AFF860B9607A603B603B68CC
:102F60000093BB690193F8680021BA687B68FFF79A
:102F700069FF034618461037BD4680BD80B586B050
:102F800002AFF860B9607A603B603B680093BB6950
:102F90000193F8680221BA687B68FFF753FF034684
:102FA00018461037BD4680BD80B586B000AF78604A
:102FB00001F0B2F800233B6144E040F6E413C2F2B2
:102FC00000031B889BB201339BB29AB240F6E41314
:102FD000C2F20003114619801346FB82B7F916307E
:102FE000002B07DC40F6E413C2F2000301221A8032
:102FF0000123FB82FB8A03F00B03FB6040F67C138A
:10300000C2F20003FA6853F83230002B17D140F6B1
:103010007C13C2F20003FA68796843F8321040F674
:103020007C12C2F20002FB68DB001344FA8A9A8029
:103030007B68FA8A9A8101F099F8002309E03B69DC
:1030400001333B613B690B2BB7DD01F08FF84FF08B
:10305000FF3318461837BD4680BD00BF80B586B027
:1030600000AFF860B9607A603B60F868FFF79CFFDA
:1030700078617B69002B3AD1BB68DAB2FB681A76BB
:10308000FB687A681A613A68FB685A6197F82030E1
:1030900003F0030387F82030FB685B8B23F0030306
:1030A0009AB2FB685A83FB685A8B97F820309BB220
:1030B00013439AB2FB685A83FB683833032000211C
:1030C0001A4600F0A5FAFB6800225A76F86803F069
:1030D0005BFB01F021F8F86840F66C11C2F20001C8
:1030E00002F056F9FB6804225A7601F03FF87B693A
:1030F00018461837BD4680BD80B582B000AF7860F5
:1031000039603B68002B04D140F2C873C0F602035B
:103110003B607B68C03318463968072201F0CEFF58
:103120007B68002283F8C7200837BD4680BD00BFFA
:1031300080B58AB000AF786039607B68C0337B614E
:10314000786901F0A3FF034601333B620023FB6172
:103150003B68002B26D01EE0FB699B003A681344B5
:103160001B68184601F092FF02463B6A1344013384
:103170003B627B689A6A3B6A9A4202D86FF02303EB
:1031800078E0FB690133FB61FB69B3F5807F02DD09
:103190006FF006036EE0FB699B003A6813441B68FE
:1031A000002BD9D1FB6902339B003B617A683969F6
:1031B0003B6A0B441046194603F048FCF860FB6874
:1031C000002B07D140F2D470C0F6020040F20E216D
:1031D000FEF710FDFB68002B02D16FF00B0349E0F6
:1031E000FA683B6913447B62FB687A6A1A60786903
:1031F00001F04CFF03460133BB60786A796901F046
:103200002BFFBB687A6A13447B620023BB6121E019
:10321000BB6901339B00FA6813447A6A1A60BB6980
:103220009B003A6813441B68184601F02FFF0346C1
:103230000133BB60BB699B003A6813441B68786A22
:10324000194601F009FFBB687A6A13447B62BB69C7
:103250000133BB61BA69FB699A42D9DBFB6901336F
:103260009B00FA68134400221A607B68FA68C3F86E
:10327000CC20002318462837BD4680BD80B588B0D5
:1032800002AFF860B9607A603B6097F82030009335
:10329000F868B9687A683B68FFF7E0FE78617B6997
:1032A000002B04D1BB68DAB2FB6883F8C8207B69C5
:1032B00018461837BD4680BD80B586B002AFF860AD
:1032C000B9607A603B6001230093F868B9687A6856
:1032D0003B68FFF7C3FE034618461037BD4680BD66
:1032E00080B584B000AFF860B9607A60F868B968FA
:1032F000FFF702FFF8687968FFF71AFF03461846E0
:103300001037BD4680BD00BF80B584B000AF786087
:10331000EFF3108372B6BB81BB89FB81786803F041
:10332000C7FBFB897B817B8913F0010F00D162B65B
:10333000002318461037BD4680BD00BF80B584B05D
:1033400000AF40F65C13C2F200031B68BB60BB68B1
:103350005B8B03F00303012B06D140F2E870C0F64B
:1033600002006B21FEF746FC0123FB6009E0FB68CD
:103370000133FB60FB68B3F5807F02DD012000F0C4
:103380002DF8BB68D3F8CC20FB689B0013441B6866
:10339000002BECD1BB685B69BA68D2F8CC20F86826
:1033A000114698477860786800F018F880B483B0C8
:1033B00000AF40F65C13C2F200031B687B607B68C1
:1033C000002B02D07B689B8900E000231BB21846CB
:1033D0000C37BD465DF8047B704700BF80B584B0F4
:1033E00000AF786040F65C13C2F200031B68FB601C
:1033F0007B68DBB27B60F8687968002200F022FF0E
:10340000786803F08FF900BF80B582B000AF03F099
:10341000D9F90346002B0FD140F65C13C2F200032A
:103420001B687B607B68002B06D07B685B7E032B70
:1034300002D17B68643303E040F20873C2F20003F8
:1034400018460837BD4680BD80B582B000AF7860B1
:103450007B68002B09D07B681B881BB2002B02DB2A
:103460007B6801221A80002306E0FFF7CDFF0346A8
:1034700016221A604FF0FF3318460837BD4680BD4C
:1034800080B586B000AF786040F65C13C2F20003EE
:103490001B683B614FF0FF337B6103F093F90346F8
:1034A000002B06D040F2FC70C0F602006921FEF746
:1034B000A1FBFFF7A9FF034616221A607B68002BC9
:1034C0004AD0EFF3108372B6BB81BB89FB817B6866
:1034D0001B881BB2002B0CDD7B681B889BB2013B59
:1034E0009AB27B681A803B6900225A6300237B6191
:1034F0002BE03B695B6B002B06D040F2FC70C0F602
:1035000002008E21FEF776FB7B681B889BB2013B95
:103510009AB27B681A803B697A685A63FFF774FF36
:10352000034600221A603869052103F031F8FFF7DD
:103530006BFF03461B68042B07D0FFF765FF0346AC
:103540001B686E2B01D000237B61FB897B817B890B
:1035500013F0010F00D162B67B6918461837BD46DB
:1035600080BD00BF80B586B000AF786000237B616E
:103570004FF0FF333B617B68002B43D0EFF31083A8
:1035800072B6BB81BB89FB817B681B881AB247F688
:10359000FF739A4206D140F61400C0F6020078216B
:1035A000FEF728FB7B681B889BB201339AB27B68CD
:1035B0001A807B681B881BB2002B1ADC40F6541360
:1035C000C2F200031B687B6102E07B691B687B61C0
:1035D0007B69002B04D07B695A6B7B689A42F4D1DB
:1035E0007B69002B05D07B6900225A63786903F060
:1035F0005FFA00233B61FB897B817B8913F0010F1C
:1036000000D162B63B6918461837BD4680BD00BF81
:1036100080B58AB000AFF860B9607A6040F65C139C
:10362000C2F200031B683B6200237B6200F074FD62
:103630003B6A9B6BFB617B68002B02D07B68FA695D
:103640001A60BB68002B2FD0EFF3108372B63B8358
:103650003B8B7B83FB68022B0BD0032B12D0012BFF
:1036600015D13B6A9A6BBB681B681A433B6A9A6325
:1036700011E03B6A9A6BBB681B68DB431A403B6AEC
:103680009A6308E0BB681A683B6A9A6303E04FF0EC
:10369000FF337B6200BF7B8BFB82FB8A13F0010F41
:1036A00000D162B600F008F800F060FD7B6A1846B1
:1036B0002837BD4680BD00BF90B585B000AF40F64D
:1036C0005C13C2F200031B68FB6000F025FDFB6881
:1036D0009B6BDC43F86800F09DFF034623403B6092
:1036E0001EE03B46184600F0ADF8B860BB68B3F189
:1036F000FF3F15D03B461846B96801F067FDF868F2
:10370000B96800F015F878607B68002B08D07B68FA
:103710000433F868194600F0BDF9786800F052F8F3
:103720003B68002BDDD100F021FD1437BD4690BD74
:1037300080B588B000AF786039607B689B687B613A
:103740007B69002B06D140F62C00C0F602005E21FA
:10375000FEF750FAEFF3108372B63B823B8A7B820E
:103760000023BB617B691B69FB6104E0FB69BB61F2
:10377000FB691B68FB61FB69002B05D0FB691B79AA
:103780001A463B689A42F1D1FB69002B0ED0BB6907
:10379000002B06D07B691033B869194601F0CEFDC5
:1037A00004E07B691033184601F0A8FD7B8AFB8199
:1037B000FB8913F0010F00D162B6FB691846203770
:1037C000BD4680BD80B586B000AF78607B681B7B4E
:1037D000002B14D1EFF3108372B6BB82BB8AFB823D
:1037E000786840F64431C2F2000101F02FFDFB8AF7
:1037F0007B827B8A13F0010F00D162B61FE07B68E9
:103800001B7B022B14D1EFF3108372B63B823B8AF1
:10381000FB82786840F63C31C2F2000101F016FDEF
:10382000FB8AFB81FB8913F0010F00D162B606E031
:103830007B681B7B012B02D1786800F0BFFB183737
:10384000BD4680BD80B584B000AF78600023FB60CA
:103850000BE07868F96801F0D9FC0346002B01D031
:10386000FB6807E0FB680133FB60FB681F2BF0DDA2
:103870004FF0FF3318461037BD4680BD80B588B085
:1038800000AF786039600023FB6100F045FC3B68C5
:103890001B787868194600F0F5FEB861BB69002B0B
:1038A0002FD0BB695B68002B2BD000F00FFF786135
:1038B0007B69002B03D16FF00B03FB6121E0BB6937
:1038C0005A687B695A60BB699A687B699A607B69B0
:1038D0000C3318463968082201F01CFCEFF3108302
:1038E00072B63B823B8A7B827B6848337869194693
:1038F00001F0ACFC7B8AFB81FB8913F0010F00D146
:1039000062B600F033FCFB6918462037BD4680BD27
:1039100080B584B000AF02F055FF0346002B11D0F4
:1039200040F64430C2F2000001F0E8FCF860FB68A9
:10393000002B2BD140F63C30C2F2000001F0DEFC3F
:10394000F86023E0EFF3108372B63B813B897B8103
:1039500040F64430C2F2000001F0D0FCF8607B89F0
:10396000FB80FB8813F0010F00D162B6FB68002BCF
:103970000CD1FB68002B03D1102002F0C3FAF860D1
:10398000FB68002B02D0FB6801221A73FB68184603
:103990001037BD4680BD00BF80B586B000AF7860EF
:1039A000396000237B617B68002B06D140F6500014
:1039B000C0F60200D721FEF71DF9EFF3108372B6AF
:1039C0003B823B8A7B827B681B697B6102E07B696F
:1039D0001B687B617B69002B05D07B691B791A46CC
:1039E0003B689A42F3D17B8AFB81FB8913F0010F7C
:1039F00000D162B67B6918461837BD4680BD00BF4E
:103A000080B586B000AF786039607B689B683B61A9
:103A10003B69002B06D140F65000C0F60200F921A8
:103A2000FEF7E8F83B681B7838691946FFF7B4FFE2
:103A300078617B69002B07D07B69043318463968AD
:103A4000082201F067FB1FE0FFF762FF78617B69E6
:103A5000002B19D07B69043318463968082201F01D
:103A600059FBEFF3108372B6BB81BB89FB813B69C5
:103A700010337869194601F0E9FBFB897B817B896A
:103A800013F0010F00D162B67B6918461837BD46A6
:103A900080BD00BF80B586B000AF7860396000237C
:103AA0007B617B68002B02D03B68002B07D140F67E
:103AB0005000C0F602004FF4A071FEF79BF87B683F
:103AC00003F138023B681B781046194601F09EFB53
:103AD0000346002B41D0EFF3108372B63B823B8A42
:103AE0007B827B685B7E062B21D17B6803F13C02E5
:103AF0003B681B781046194601F088FB0346002BF3
:103B000015D07B68583318463968082201F002FB4B
:103B10007B680022DA63786802F0CAFF7B8AFB8147
:103B2000FB8913F0010F00D162B600BF53E07B8A1E
:103B3000BB81BB8913F0010F00D162B67868396888
:103B4000FFF75EFF0346002B45D140F65000C0F65C
:103B500002004FF4B071FEF74DF878683968FFF74E
:103B60008DFE7861786843F61941C0F6000102F0D5
:103B700095FEEFF3108372B67B817B897B827B6835
:103B80005B7E062B0CD17B685833184639680822B7
:103B900001F0C0FA7B680022DA63786802F088FFDF
:103BA0007B8A3B813B8913F0010F00D162B67B68B1
:103BB0005B7E052B03D17868042100F0D5FB7B6880
:103BC0005B7E072B03D07B685B7E082B03D1786874
:103BD000042100F08DF87B6918461837BD4680BD7A
:103BE00080B584B000AF03463960FB80B7F906307A
:103BF000184600F00FFAF860FB68002B02D16FF056
:103C0000020304E0F8683968FFF744FF03461846EA
:103C10001037BD4680BD00BF80B58AB000AF786068
:103C200000F07AFA7B685B6E3B627B689B6C7B6220
:103C300052E07B6A1B68FB61EFF3108372B67B82F4
:103C40007B8A7B837B684833786A194601F01EFBC8
:103C50007B685033786A194601F0F8FA7B8B3B8217
:103C60003B8A13F0010F00D162B67B689B6B7B61CE
:103C70007B6A9A687B691A437B6A1B7B012101FA84
:103C800003F31A437B689A637B6A5B687A6A127BE8
:103C900011467A6A0C3208461146002298477B6822
:103CA0007A699A63FFF708FDEFF3108372B6FB8120
:103CB000FB897B837B685033786A194601F0E6FA0A
:103CC0007B8BBB81BB8913F0010F00D162B6786A90
:103CD00000F040FDFB697B627B6A002BA9D17B6809
:103CE0003A6A5A6600F042FA2837BD4680BD00BFE6
:103CF00080B586B000AF78603960EFF3108372B69C
:103D0000FB81FB89FB827B685B7E072B03D07B6892
:103D10005B7E082B40D17B681B6E3B613B69002BAF
:103D200006D140F66800C0F602007421FDF762FF7C
:103D30007B6800221A667B685B7E072B13D13B6988
:103D40005B8A1BB2002B06DC40F66800C0F602005E
:103D50007C21FDF74FFF3B695B8A9BB2013B9AB226
:103D60003B695A8212E03B691B8A1BB2002B06DCBE
:103D700040F66800C0F602008121FDF73BFF3B6979
:103D80001B8A9BB2013B9AB23B691A827B683A68F4
:103D90005A66786802F08CFEFB8ABB81BB8913F0FF
:103DA000010F00D162B61837BD4680BD80B586B020
:103DB00000AF786040F65C13C2F200031B683B6101
:103DC0000023FB6000237B617B68002B06D03B69EE
:103DD000002B03D03B699B68002B06D140F67C008A
:103DE000C0F602005921FDF705FF00F095F93B6987
:103DF0009B68002B21D03B699B68DB69002B1CD0A2
:103E00003B699B689B69BB60B86802F07BF8F8600F
:103E1000FB68002B03D16FF00B037B610DE07B6827
:103E2000BA689A617B68FA68DA613B699B68DB690A
:103E3000F8681946BA6801F06DF900F097F97B69E6
:103E400018461837BD4680BD80B483B000AF00234C
:103E50007B600DE040F6F013C2F20003796842F691
:103E60008942C0F6000243F821207B6801337B6061
:103E70007B684B2BEEDD0C37BD465DF8047B70474D
:103E800080B582B000AF78607B68002B03D07B6880
:103E90009B68002B06D140F69000C0F602004D2131
:103EA000FDF7A8FE7B689B68184601F0BFFA00206A
:103EB00001217A680AF0DEFE012006217A680AF004
:103EC000D9FE022006217A680AF0D4FE00231846A3
:103ED0000837BD4680BD00BF80B586B000AF7860B2
:103EE00040F65C13C2F200031B683B617B68002B49
:103EF00007D07B689B68002B03D03B699B68002B35
:103F000006D140F6AC00C0F602006121FDF772FE5A
:103F10003B699B682433FB607B689B682433BB60F0
:103F200000237B6115E07B691B01FA6813449B68E1
:103F3000002B0BD07B691B01FA681A447B691B01BB
:103F4000B9680B441046194609F0F6FE7B69013347
:103F50007B617B69042BE6DD1837BD4680BD00BF61
:103F600080B584B000AF78607B689B68FB60FB68BD
:103F7000002B06D140F6AC00C0F60200D621FDF7BA
:103F800039FE7B685B8B03F00303012B06D140F6FF
:103F9000AC00C0F60200D921FDF72CFEFB682033EF
:103FA000184609F08BFE7868FFF796FF7868FFF7F0
:103FB00067FF034618461037BD4680BD80B584B004
:103FC00000AF786002F0FEFB0346002B04D101F045
:103FD00075FF0346002B14D0EFF3108372B6BB813C
:103FE000BB89FB81786840F6E811C2F2000101F05C
:103FF0002DF9FB897B817B8913F0010F00D162B61B
:1040000004E0786801F070FF01F064FF1037BD46EE
:1040100080BD00BF80B485B000AF0346FB800023A5
:10402000FB60B7F90630002B18DBFB8803F00B03AD
:10403000BB6040F67C12C2F20002BB68DB00134496
:104040009B88B7F906201BB29A4207D140F67C1331
:10405000C2F20003BA6853F83230FB60FB681846BE
:104060001437BD465DF8047B704700BF80B485B04F
:1040700000AF0346FB80FB8803F00B03FB6040F6B8
:104080007C13C2F20003FA68002143F8321040F6B4
:104090007C12C2F20002FB68DB0013444FF6FF7291
:1040A0009A801437BD465DF8047B704780B584B0B4
:1040B00000AF78600B46FB700023FB607B68002B31
:1040C00024D040F20003C0F20003002B05D07B682F
:1040D0009B891BB21846AFF300807B689B89002B3D
:1040E00005D07B689B891BB21846FFF7BFFF7B6832
:1040F000DB6A002B04D0FB787868194602F0B6FB27
:10410000786800F00FFC7868FFF758FFFB681846E6
:104110001037BD4680BD00BF80B582B000AF40F60D
:104120005C13C2F200031B687B607B68002B17D016
:1041300002F048FB0346002B12D17B689B8B1BB21D
:104140007E2B06DD40F6CC00C0F602006921FDF7AB
:1041500051FD7B689B8B9BB201339AB27B689A833B
:10416000002318460837BD4680BD00BF80B584B027
:1041700000AF40F65C13C2F200031B68FB60FB68F3
:10418000002B42D002F01EFB0346002B3DD1EFF383
:10419000108372B63B813B897B81FB689B8B002B34
:1041A00006D0FB689B8B9BB2013B9AB2FB689A835B
:1041B000FB689B8B1BB2002B20DCFB6800229A83E0
:1041C00040F6DC13C2F200031B68002B01D002F0A2
:1041D0000BFBFB685B8B03F01003002B0ED0FB681E
:1041E0001B6A002B0AD140F65C13C2F200031A6866
:1041F000FB689A4202D0FB6814221A627B89FB801A
:10420000FB8813F0010F00D162B600231846103767
:10421000BD4680BD80B584B000AF78607B689B6888
:10422000FB60FB68002B09D0FB685B78012B05D194
:104230007B689B687433184600F0BCFD1037BD46A0
:1042400080BD00BF80B584B000AFF860B960134690
:10425000FB71FB685B8B03F02003002B00D015E0A3
:10426000F86800F017F8FB79002B02D1F868FFF727
:10427000D1FFF86800F056FBF86800F0ABFAFB6875
:104280005B8B43F020039AB2FB685A831037BD461C
:1042900080BD00BF80B582B000AF7860786800F064
:1042A00009F8786800F02CF8786800F0DDFA083733
:1042B000BD4680BD80B584B000AF7860EFF3108359
:1042C00072B6BB81BB89FB817B685B6A002B0CD01B
:1042D0007B685B6A184600F04FFB7B685B6A184698
:1042E00000F0B6FB7B6800225A62FB897B817B89E8
:1042F00013F0010F00D162B61037BD4680BD00BF7C
:1043000080B586B000AF7860EFF3108372B6FB81A2
:10431000FB89FB827B685B7E052B1BD17B685B6B1B
:104320003B613B69002B04D03B691B881BB2002B0F
:1043300006DB40F6E000C0F602007A21FDF75AFCE9
:104340003B691B889BB201339AB23B691A807B6838
:1043500000225A63FB8ABB81BB8913F0010F00D195
:1043600062B61837BD4680BD80B586B000AF7860B4
:104370003960EFF3108372B6FB81FB89FB827B68A7
:104380005B7E052B21D17B685B6B3B613B69002B1E
:1043900004D03B691B881BB2002B06DB40F6F800FB
:1043A000C0F602007421FDF725FC3B691B889BB217
:1043B00001339AB23B691A807B6800225A637B689A
:1043C0003A685A66786802F073FBFB8ABB81BB8946
:1043D00013F0010F00D162B61837BD4680BD00BF93
:1043E00080B586B000AF786013460A467A807B704D
:1043F0007A8813465B001344DB00184601F082FD07
:10440000F860FB687B6100233B610DE07B697A7893
:104410001A757B6903F118027A611846796800F011
:1044200015FF3B6901333B617A883B699A42EDDCB9
:10443000FB6818461837BD4680BD00BF80B586B002
:1044400000AF786013460A467A807B707B881B0138
:10445000184601F057FDF860FB687B6100233B6163
:104460000DE07B697A781A737B6903F110027A6137
:104470001846796800F0EAFE3B6901333B617A88AF
:104480003B699A42EDDCFB6818461837BD4680BD93
:1044900080B500AF40F62433C2F2000300221A6058
:1044A00040F62433C2F2000300225A6040F62C3357
:1044B000C2F2000300221A6040F62C33C2F200035D
:1044C00000225A6040F63433C2F2000300221A6020
:1044D00040F63433C2F2000300225A6040F64433FF
:1044E000C2F2000300221A6040F64433C2F2000315
:1044F00000225A6040F63C33C2F2000300221A60E8
:1045000040F63C33C2F2000300225A6040F62C30E1
:10451000C2F2000010210022FFF762FF024640F2C3
:104520001073C2F200031A6040F63430C2F2000089
:1045300008210222FFF754FF024640F21473C2F230
:1045400000031A6000F01EF840F64430C2F200008A
:1045500010210022FFF772FF024640F21873C2F2E8
:1045600000031A6040F63C30C2F20000082102222B
:10457000FFF764FF024640F21C73C2F200031A60A8
:1045800080BD00BF80B582B000AF4FF4A07001F0D5
:10459000B9FC024640F20C73C2F200031A6040F20A
:1045A0000C73C2F200031B687B6000233B600DE0CC
:1045B0007B6803F114027A60184640F62431C2F297
:1045C000000100F043FE3B6801333B603B680F2B6A
:1045D000EEDD0837BD4680BD80B584B000AF7860A1
:1045E00040F65C13C2F200031B68BB604FF0FF3360
:1045F000FB607B68002B07D0B86800F00BF8024620
:104600007B681A600023FB60FB6818461037BD46C4
:1046100080BD00BF80B588B000AF78607B689B68C4
:10462000BB61BB69002B06D140F61010C0F602003A
:104630007721FDF7DFFA0023FB60EFF3108372B6FA
:10464000BB82BB8AFB82BB691B69FB610AE0FB6919
:104650001B7907F10C021046194600F099FDFB6921
:104660001B68FB61FB69002BF1D1FB8A7B827B8A93
:1046700013F0010F00D162B6FB6818462037BD4623
:1046800080BD00BF80B584B000AF78603960002382
:10469000FB607B68002B13D0FFF73EFD7B681B6C33
:1046A000FB6002E0FB681B68FB60FB68002B05D029
:1046B000FB681B7C1A463B689A42F3D1FFF756FD14
:1046C000FB6818461037BD4680BD00BF80B584B07A
:1046D00000AF02F077F80346002B11D040F62C30E3
:1046E000C2F2000000F00AFEF860FB68002B2BD13C
:1046F00040F63430C2F2000000F000FEF86023E023
:10470000EFF3108372B63B813B897B8140F62C30FE
:10471000C2F2000000F0F2FDF8607B89FB80FB88AC
:1047200013F0010F00D162B6FB68002B0CD1FB68BF
:10473000002B03D1182001F0E5FBF860FB68002B8B
:1047400002D0FB6801221A75FB6818461037BD4677
:1047500080BD00BF80B586B000AF78607B681B7DF0
:10476000002B14D1EFF3108372B6BB82BB8AFB829D
:10477000786840F62C31C2F2000100F067FDFB8A38
:104780007B827B8A13F0010F00D162B61FE07B6849
:104790001B7D022B14D1EFF3108372B63B823B8A50
:1047A000FB82786840F63431C2F2000100F04EFD21
:1047B000FB8AFB81FB8913F0010F00D162B606E092
:1047C0007B681B7D012B02D17868FFF7F7FB183758
:1047D000BD4680BD80B584B000AF786002E0F86867
:1047E00000F038FA7B684033184600F087FDF86027
:1047F000FB68002BF3D102E0B868FFF7ABFF7B68E2
:104800004833184600F07AFDB860BB68002BF3D13E
:1048100002E0B868FFF79EFF7B685033184600F04F
:104820006DFDB860BB68002BF3D17B684FF0FF32A1
:104830009A637B680022DA631037BD4680BD00BFF3
:1048400080B584B000AF786002E0F868FEF7BAFF88
:104850007B681033184600F051FDF860FB68002BB0
:10486000F3D11037BD4680BD80B582B000AF78600F
:104870007B685B7E072B18D17B681B6E002B05D0F5
:104880007B681B6E5B8A1BB2002B06DC40F628108F
:10489000C0F602006921FDF7ADF97B681A6E538AF4
:1048A0009BB2013B9BB253821BE07B685B7E082B73
:1048B00017D17B681B6E002B05D07B681B6E1B8A93
:1048C0001BB2002B06DC40F62810C0F60200732154
:1048D000FDF790F97B681A6E138A9BB2013B9BB27D
:1048E00013820837BD4680BD80B582B000AF7860C6
:1048F0007868FFF7A5FF786800F0BAF97B68203385
:10490000184609F0F3F9786800F0CCFD786800F0FB
:10491000F3F9786800F0DCF97868FFF74FFB0837A7
:10492000BD4680BD80B584B000AF78607B68002B49
:1049300007D140F63C10C0F602004FF4C771FDF7F6
:1049400059F97B689B68FB60FB68002B10D0FB6803
:104950005B78012B06D9FB685B78013BDAB2FB6818
:104960005A7002E0F868FFF7BFFF7B6800229A6088
:104970001037BD4680BD00BF80B588B000AF7860FD
:104980004FF0FF337B61EFF3108372B63B823B8ABB
:104990007B827B68002B4ED07B681B7B03F001037E
:1049A000002B48D00023BB6140F65833C2F200030D
:1049B0001B68FB6104E0FB69BB61FB691B68FB6171
:1049C000FB69002B03D0FA697B689A42F3D1FB693B
:1049D000002B06D140F65010C0F602008121FDF7F1
:1049E00009F9FB691B68002B08D0FB691B68FA6991
:1049F00012689168FA6992680A449A60BB69002B50
:104A000007D0B86940F65831C2F2000100F096FCB8
:104A100005E040F65830C2F2000000F06FFC7B6801
:104A200000221A607B681B7B23F00103DAB27B68EB
:104A30001A7300237B617B8AFB81FB8913F0010FD2
:104A400000D162B67B6918462037BD4680BD00BFE5
:104A500080B584B000AF78607B68002B06D140F64B
:104A60006410C0F602006421FDF7C4F8EFF3108370
:104A700072B6BB81BB89FB817B681B7B03F00103A2
:104A8000002B02D07868FFF777FF7B681B7B03F071
:104A90000203002B0AD0FB897B817B8913F0010F75
:104AA00000D162B67868FFF789FA2DE07B681B7B3E
:104AB00003F00403002B27D1786840F64C31C2F292
:104AC000000100F0C3FB40F65433C2F200031B8820
:104AD00001339AB240F65433C2F200031A8040F612
:104AE0005433C2F200031B88022B06D940F664102F
:104AF000C0F602009321FDF77DF8FB893B813B89DD
:104B000013F0010F00D162B6002318461037BD46DE
:104B100080BD00BF80B582B000AF40F62430C2F245
:104B2000000000F0EBFB78607B68002B12D1FFF7F0
:104B300029FD40F62430C2F2000000F0DFFB78606F
:104B40007B68002B06D140F67810C0F60200682181
:104B5000FDF750F87B6818460837BD4680BD00BF9A
:104B600080B586B000AFF860B9607A6040F65C133B
:104B7000C2F200031B683B61FB681F2B07D9FEF7DD
:104B800043FC034616221A604FF0FF335EE038699B
:104B9000F968FFF777FD78617B68002B18D07B6997
:104BA000002B0CD07B695A687B681A607B699A6815
:104BB0007B685A607B69DA687B689A6008E07B688A
:104BC00000221A607B6800225A607B6800229A608B
:104BD000BB68002B01D1002338E0BB681B68002BA9
:104BE0000CD17B69002B30D03B6940337869194682
:104BF00000F04CFB786900F02DF826E07B69002B73
:104C000017D1FFF787FF78617B69002B07D1FEF78B
:104C1000FBFB03460C221A604FF0FF3316E0FB68E3
:104C2000DAB27B691A743B6940337869194600F03F
:104C30000DFBBB681A687B695A60BB685A687B6960
:104C40009A60BB689A687B69DA6000231846183757
:104C5000BD4680BD80B582B000AF7860786840F610
:104C60002431C2F2000100F0F1FA0837BD4680BDE0
:104C700080B584B000AF78607B68002B06D140F629
:104C80008C10C0F602006021FCF7B4FF13E07B68D3
:104C90005B68FB60FB681A687B685A60FB680C33D2
:104CA0001846FEF7D1FBFB680A331846FEF7CCFB2B
:104CB000F868FFF783F97B685B68002BE7D17B68B6
:104CC00002331846FEF7C0FB1037BD4680BD00BF5B
:104CD00080B582B000AF786005E07B68D3F8B4306F
:104CE00018460AF08FFA7B68D3F8B430002BF4D161
:104CF0000837BD4680BD00BF80B582B000AF786088
:104D00007B68002B06D140F6A810C0F602005221A5
:104D1000FCF770FF7B68DB69002B04D07B68DB69E4
:104D20001846FFF74BF97B6800229A617B680022E6
:104D3000DA610837BD4680BD80B582B000AF40F271
:104D40002073C2F200037B6040F64C33C2F20003D2
:104D500000221A6040F64C33C2F2000300225A606F
:104D600040F65833C2F2000300221A6040F658336E
:104D7000C2F2000300225A6000233B600DE07B6812
:104D800003F118027A60184640F64C31C2F2000175
:104D900000F05CFA3B6801333B603B68012BEEDDC1
:104DA00040F65433C2F2000302221A800837BD468F
:104DB00080BD00BF80B586B000AF786000237B6106
:104DC0007B68002B2BD0786800F084FB00233B61CC
:104DD0001FE03A6913465B0013449B007A68134452
:104DE0000433FB60FB681B68002B0FDBFB689B88B0
:104DF00003F00203002B09D0F868012100F014F839
:104E0000B860BB68002B01DABB687B613B6901338A
:104E10003B613B69042BDCDD786800F077FB7B6944
:104E200018461837BD4680BD80B483B000AF7860A7
:104E30000B46FB70002318460C37BD465DF8047B1B
:104E4000704700BF80B586B000AF786000237B61FB
:104E50007B68002B1FD07A684DF68363C4F21B3346
:104E6000A3FB02139B0C3B613B69BB603A6944F2B4
:104E70004023C0F20F0303FB02F37A68D31A4FF406
:104E80007A7202FB03F3FB6007F108031846002166
:104E900015F0C0FD78617B6918461837BD4680BDA6
:104EA00080B586B000AF7860396007F10C03184612
:104EB000012100F0BDFF07F10C03184679683A683C
:104EC00000F0AEFD034618461837BD4680BD00BF52
:104ED00080B586B000AFF860B9607A6000237B616E
:104EE00040F25003C2F200031B781A46FB6842FAF4
:104EF00003F303F00103002B04D0B8687968FFF7CF
:104F0000CFFF78617B6918461837BD4680BD00BF6A
:104F10000EB480B585B000AF786007F12003BB60A8
:104F20007868F969BA68FFF7D3FFF860FB6818463C
:104F30001437BD46BDE8804003B0704780B584B0EB
:104F400000AF7860396007F10803184600F0F4FEFE
:104F500007F10803184679683A6800F061FD0346D6
:104F600018461037BD4680BD80B586B000AFF860EA
:104F7000B9607A6000237B6140F25003C2F2000303
:104F80001B781A46FB6842FA03F303F00103002B77
:104F900004D0B8687968FFF7D1FF78617B6918465B
:104FA0001837BD4680BD00BF0EB480B585B000AFD8
:104FB000786007F12003BB607868F969BA68FFF789
:104FC000D3FFF860FB6818461437BD46BDE8804043
:104FD00003B0704780B485B000AF7860EFF3108302
:104FE00072B67B817B89FB8140F25003C2F20003E1
:104FF0001B787B737B68DAB240F25003C2F2000385
:105000001A70FB893B813B8913F0010F00D162B616
:105010007B7B18461437BD465DF8047B704700BFA4
:1050200080B487B000AFF860B9607A60FB687B61DC
:1050300005E07B695A1C7A61BA68D2B21A707B6843
:105040005A1E7A60002BF4D1FB6818461C37BD4607
:105050005DF8047B704700BF80B485B000AF786016
:1050600039607B68FB6000BF7B685A1C7A603A68D5
:10507000511C396012781A701B78002BF4D1FB6830
:1050800018461437BD465DF8047B704780B485B080
:1050900000AF78607B68FB6002E0FB680133FB6077
:1050A000FB681B78002BF8D1FA687B68D31A184686
:1050B0001437BD465DF8047B704700BF80B487B0ED
:1050C00000AFF860B9607A60FB687B61FA687B6862
:1050D00013443B61FA683B699A420AD0FB685A1C48
:1050E000FA60BA68511CB96012781A701B78002BEC
:1050F000F0D104E0FB685A1CFA6000221A70FA68CA
:105100003B699A42F6D17B6918461C37BD465DF86B
:10511000047B704780B487B000AFF860B9607A60F4
:10512000FB687B61BB683B6107E07B695A1C7A6165
:105130003A69511C396112781A707B685A1E7A607C
:10514000002BF2D1FB6818461C37BD465DF8047B86
:10515000704700BF80B584B000AFF860B9607A6076
:10516000FB68002B09D07B68B3F5004F05D27B6844
:105170009AB2FB681A80002306E0FEF745F9034661
:1051800016221A604FF0FF3318461037BD4680BD17
:1051900080B582B000AF786039603B681F2B07D9BB
:1051A000FEF732F9034616221A604FF0FF3309E08A
:1051B0007B681A6801213B6801FA03F31A437B6894
:1051C0001A60002318460837BD4680BD80B582B0FE
:1051D00000AF786039603B681F2B07D9FEF714F9E0
:1051E000034616221A604FF0FF330AE07B681A6804
:1051F00001213B6801FA03F3DB431A407B681A6024
:10520000002318460837BD4680BD00BF80B485B076
:1052100000AF786039604FF0FF33FB603B681F2BB5
:105220000CD87B681A683B6822FA03F303F0010389
:10523000002B0CBF00230123DBB2FB60FB68184688
:105240001437BD465DF8047B704700BF80B483B05F
:1052500000AF786039607B6800221A603B681B6889
:10526000002B06D13B687A681A603B687A685A60FE
:1052700006E03B685B687A681A603B687A685A6047
:105280000C37BD465DF8047B704700BF80B584B025
:1052900000AF786039603B681B68002B2AD07B68C0
:1052A000002B27D03B681A687B689A420CD17B6838
:1052B0001A683B681A603B685A687B689A4219D141
:1052C0003B6800225A6015E03B681B68FB6002E007
:1052D000FB681B68FB60FB68002B04D0FB681A6846
:1052E0007B689A42F4D1FB68002B03D0F8683968D8
:1052F00000F024F81037BD4680BD00BF80B485B0F3
:1053000000AF78607B681B68FB60FB68002B0DD0EA
:10531000FB681A687B681A607B681B68002B02D1E7
:105320007B6800225A60FB6800221A60FB681846FE
:105330001437BD465DF8047B704700BF80B485B06C
:1053400000AF786039607B681B68FB603B681B6856
:10535000002B15D0FB68002B12D03B685A68FB6805
:105360009A4206D13B687A685A607B6800221A60CC
:1053700003E0FB681A687B681A60FB6800221A6009
:10538000FB6818461437BD465DF8047B704700BFC4
:1053900080B483B000AF786039607B6800225A60C7
:1053A0003B681A687B681A603B681B68002B06D153
:1053B0003B687A681A603B687A685A6006E03B6826
:1053C0001B687A685A603B687A681A600C37BD4679
:1053D0005DF8047B704700BF80B485B000AF786093
:1053E00039607B685B68FB607B681B68BB60FB683F
:1053F000002B03D13B68BA681A6002E0FB68BA6808
:105400001A60BB68002B03D13B68FA685A6002E05F
:10541000BB68FA685A607B6800221A607B680022C9
:105420005A601437BD465DF8047B704780B584B080
:1054300000AF78607B68002B06D140F6C010C0F644
:1054400002005C21FCF7D6FB7B687433BB60BB6851
:10545000184600210122FFF77DFE0023FB601AE0C1
:10546000FA6813465B0013449B00BA681344043384
:10547000184600210C22FFF7D3FDB968FA681346DD
:105480005B0013449B000B4404334FF0FF321A605F
:10549000FB680133FB60FB68042BE1DD1037BD4680
:1054A00080BD00BF80B584B000AF78607B68002B02
:1054B00006D140F6C010C0F602009021FCF79AFB1E
:1054C0007B687433FB60FB681846FDF7BDFF10373F
:1054D000BD4680BD80B582B000AF78600CE0FDF7BE
:1054E00093FF03461B68042B06D040F6D410C0F689
:1054F00002005121FCF77EFB7B681846FDF7C0FFD8
:105500000346002BEBD10837BD4680BD80B582B085
:1055100000AF78607B681846FEF724F80837BD4670
:1055200080BD00BF80B584B000AF786039603A6854
:105530004CF6CD43CCF6CC43A3FB0213D9080B4663
:105540009B000B445B00D31AFB603A684CF6CD43DA
:10555000CCF6CC43A3FB0213DB08BB60BB68002B7B
:1055600003D07868B968FFF7DDFF7B681B68FA68CD
:1055700030327868114698471037BD4680BD00BF6D
:1055800080B586B000AFF860B9601346FB710023A8
:10559000FB752023BB7527E0BB7D043BBA6822FA6C
:1055A00003F3DBB203F00F037B757B7D002B02D18D
:1055B000FB7D002B15D00123FB757B7D092B07D8C4
:1055C000FB681B687A7D3032F8681146984708E01E
:1055D000FB681B68797DFA790A440A3AF868114633
:1055E0009847BB7D043BBB75BB7D002BD4D1FB7DB5
:1055F000002B04D1FB681B68F868302198471837E6
:10560000BD4680BD80B584B000AF786039603B682E
:1056100003F00703FB603B68DB08BB60BB68002B43
:1056200003D07868B968FFF7EDFF7B681B68FA68FC
:1056300030327868114698471037BD4680BD00BFAC
:1056400080B584B000AF786039603B6803F0010337
:10565000FB603B685B08BB60BB68002B03D07868CD
:10566000B968FFF7EDFF7B681B68FA68303278682D
:10567000114698471037BD4680BD00BF80B584B045
:1056800000AFF8607B600B46FB721346BB72FB7A7F
:10569000583B202B00F2828001A252F823F000BF79
:1056A000395700089D5700089D5700089D5700086E
:1056B0009D5700089D5700089D5700089D570008FA
:1056C0009D5700089D570008935700089D570008F4
:1056D000255700089D5700089D5700089D57000852
:1056E0009D570008255700089D5700089D57000842
:1056F0009D5700089D5700089D57000875570008E2
:10570000395700089D5700089D5700089D5700080D
:105710009D5700082F5700089D5700089D57000807
:1057200039570008F8687968FFF7FCFE37E0F86839
:105730007968FFF7F7FE32E0BB7A03F00203002B33
:1057400009D0FB681B68F86830219847FB681B6824
:10575000F86878219847FB7A582B05D1F868796862
:105760004122FFF70DFF1AE0F86879686122FFF720
:1057700007FF14E0BB7A03F00203002B04D0FB68A0
:105780001B68F86830219847F8687968FFF73AFF96
:1057900005E0F8687968FFF753FF00E000BF1037B5
:1057A000BD4680BD80B485B000AF0346B9607A6065
:1057B000FB73FB7B583B202B65D801A252F823F0EA
:1057C000775800088758000887580008875800084D
:1057D000875800088758000887580008875800082D
:1057E000875800088758000877580008875800082D
:1057F000455800088758000887580008875800084F
:10580000875800084558000887580008875800083E
:1058100087580008875800088758000877580008FC
:1058200077580008875800088758000887580008EC
:1058300087580008875800088758000887580008CC
:10584000775800087B681B68002B13DABB681B784D
:1058500063F07F03DAB2BB681A70BB681B7823F071
:105860000103DAB2BB681A707B681B685A427B6816
:105870001A6009E008E0BB681B7803F07E03DAB227
:10588000BB681A7000E000BF1437BD465DF8047BAA
:10589000704700BF80B584B000AF0B463A60024647
:1058A000FA71BB7107F10803184600F06FFA07F1AF
:1058B0000801FA79BB79084611461A463B68FFF79A
:1058C000DDFEFB6818461037BD4680BD80B586B04A
:1058D00000AFF8607B600B46FB721346BB72FB7A2D
:1058E000012B5AD0022B2DD0BB7A03F08103002B61
:1058F00002D03B6A01333B627A683B6AD31A7B6110
:1059000007E0FB681B68F868202198477B69013B2A
:105910007B617B69002BF4DCBB7A5BB2002B05DA80
:10592000FB681B68F8682D2198470AE0BB7A03F0F2
:105930000103002B05D0FB681B68F8682B219847F2
:1059400040E03FE0BB7A5BB2002B08DAFB681B68E3
:10595000F8682D2198473B6A01333B620CE0BB7A23
:1059600003F00103002B07D0FB681B68F8682B21AC
:1059700098473B6A01333B627A683B6AD31A7B6182
:1059800007E0FB681B68F868302198477B69013B9A
:105990007B617B69002BF4DC14E0BB7A5BB2002BEB
:1059A00005DAFB681B68F8682D21984709E0BB7A87
:1059B00003F00103002B04D0FB681B68F8682B215F
:1059C000984700BF1837BD4680BD00BF80B586B080
:1059D00000AFF8607B600B46FB721346BB72FB7A2C
:1059E000012B00D018E0BB7A03F08103002B02D01A
:1059F0003B6A01333B627A683B6AD31A7B6107E0FA
:105A0000FB681B68F868202198477B69013B7B6134
:105A10007B69002BF4DC00BF1837BD4680BD00BF9A
:105A200080B590B002AFF860B9607A605BE1BB68A6
:105A30001B78252B07D0FB681B68BA681278F868BA
:105A4000114698474CE1BB680133BB600023FB75EE
:105A5000002387F82F3000233B6381E0BB681B786D
:105A600040F6F410C0F60200194600F0F7F90346BC
:105A7000002B00D079E0BB681B782D2B03D10123CC
:105A800087F82F3069E0BB681B78302B03D10223E5
:105A900087F82F3061E0BB681B782A2B12D17B6816
:105AA0001A1D7A601B687B62FB7D03F00403002BE8
:105AB00007D17B6A3B63FB7D43F00803DBB2FB75D8
:105AC0004BE04AE0BB681B78302B29D9BB681B78B8
:105AD000392B25D8BB681B78303BBB62BB680133D0
